:020000040800F2
:10000000A8A00020E1010008390E00083B0E0008FE
:100010003D0E00083F0E0008410E000800000000E1
:10002000000000000000000000000000490100087E
:10003000430E0008000000008D010008450E000876
:10004000FB010008FB010008FB010008FB010008A0
:10005000FB010008FB010008FB010008FB01000890
:10006000FB010008FB010008FB010008FB01000880
:10007000FB010008FB010008FB010008FB01000870
:10008000FB010008FB010008FB010008FB01000860
:10009000FB010008FB010008FB010008FB01000850
:1000A000FB010008FB010008FB010008FB01000840
:1000B000FB010008FB010008FB010008FB01000830
:1000C000FB010008FB010008FB010008FB01000820
:1000D000FB010008FB010008FB010008FB01000810
:1000E000FB010008FB010008FB010008FB01000800
:1000F000FB010008FB010008FB010008FB010008F0
:10010000FB010008FB010008FB010008FB010008DF
:10011000FB010008FB010008FB010008FB010008CF
:10012000FB010008FB010008FB010008FB010008BF
:10013000DFF810D002F0A6F9004800471D0D0008B6
:10014000AFF30080A8A00020224B19680868B0E82F
:10015000F00F80F30988BFF36F8F4FF0000080F33A
:1001600011884EF00D0E7047000000000648006830
:10017000006880F3088862B661B6BFF34F8FBFF3A3
:100180006F8F00DF00BF00BF08ED00E0EFF30980D4
:10019000BFF36F8F0F4B1A6820E9F00F106008B59E
:1001A0004FF0500080F31188BFF34F8FBFF36F8F74
:1001B00001F0DBFA4FF0000080F31188BDE8084041
:1001C00019680868B0E8F00F80F30988BFF36F8FF3
:1001D000704700BF30000020EFF30580704700003B
:1001E0000648804706480047FEE7FEE7FEE7FEE7D1
:1001F000FEE7FEE7FEE7FEE7FEE7FEE7A5020008F2
:10020000310100080CB500224C48009201920168AF
:1002100041F4803101604FF4A063016801F40031C2
:1002200001910099491C0091019911B900999942D5
:10023000F3D10168890333D50121019140490A684E
:1002400042F010020A600A6822F003020A600A689B
:1002500042F002020A6041684160416841604168C1
:1002600041F480614160416821F47C114160416842
:1002700041F4E8114160016841F08071016001685A
:100280008901FCD5416821F003014160416841F0DA
:10029000020141604168C1F381010229FAD10CBD1C
:1002A00001920CBD254810B5016841F001010160C3
:1002B0004168244A114041600168234A11400160AD
:1002C000016821F480210160416821F4FE01416050
:1002D0004FF41F018160FFF795FF1C494FF000604C
:1002E000086010BD154A10B55068194B10F00C018C
:1002F000184803D0042901D0082901D0036012E076
:100300005168536801F470114FF0020413F4803FF8
:1003100004EB914102D053689B0301D50E4B00E0E2
:100320000B4B5943016051680A4AC1F30311121D76
:10033000515C0268CA40026010BD0000001002401B
:10034000002002400000FFF8FFFFF6FE08ED00E08D
:1003500000127A000000002000093D0028490843EF
:1003600028490860704730B50F23C278017801250D
:10037000F2B1244A126801F1E02102F4E062C2F510
:10038000E062120AC2F10404D3404278A2408478A9
:100390001C401443220181F80024007800F01F0162
:1003A0008D404009800000F1E020C0F8005130BDD0
:1003B00001F01F0085404809800000F1E020C0F8EE
:1003C000805130BD104A114001430E48001F0160AA
:1003D00070470C4A121D0029116801D0014300E04A
:1003E0008143116070474FF0E0210428086903D071
:1003F00020F004000861704740F00400FAE70000B4
:100400000000FA050CED00E080FFFF1F8F4910B5DA
:10041000884206D10121042000F049FA002104207D
:100420003BE08B49884206D10121082000F03FFAC9
:100430000021082031E08749884206D1012110209F
:1004400000F035FA0021102027E08349884206D1C8
:100450000121202000F02BFA002120201DE07F49FF
:10046000884206D10121402000F021FA00214020DD
:1004700013E07B49884206D10121802000F017FA61
:100480000021802009E0774988420AD184150121A2
:10049000204600F00CFA00212046BDE8104000F094
:1004A00006BA10BD10B50121084600F000FA00217F
:1004B000BDE81040012000F0FAB9F0B5CC78002278
:1004C00004F00F03E40601D58C7823430C784FF039
:1004D0000F0C14F0FF0F4FF0010E1BD005680E88B3
:1004E0000EFA02F42640A64210D196000CFA06F746
:1004F00025EA070703FA06F5CE783D43282E02D0F9
:10050000482E02D002E0446100E00461521C082A37
:10051000E5D305600A88FF2A1CD94468002202F14D
:1005200008060EFA06F50E882E40AE420ED1960051
:100530000CFA06F7BC4303FA06F7CE783C43282EA4
:1005400000D14561CE78482E00D10561521C082AA1
:10055000E5D34460F0BD4FF6FF7101800221817048
:100560000421C17070470246002092680A4200D000
:1005700001207047806880B2704702460020D26830
:100580000A4200D001207047C06880B27047016104
:100590007047416170470AB101617047416170471E
:1005A000C160704741F480328261816182618169FA
:1005B000806970472C4B10B51A684FF68074224042
:1005C00042EA00100843186010BD2849C86170470E
:1005D000F0B5254C002801DAE36900E06368450DB9
:1005E0002E0185B2C0F30157B540C0F30342032F7B
:1005F00005D0C6020AD503269640B34307E023F090
:100600007062636823F07063636002E0AB4343F0A1
:10061000706201B12A43002801DAE261F0BD626034
:10062000F0BD10B58A0721F003040F49120F2144D1
:100630000F238C6893409C438C608B6890400343ED
:100640008B6010BD0949C1F8DC007047000801400B
:10065000000C01400010014000140140001801404E
:10066000001C014000200140000001400000204229
:10067000A548016841F0010101604168A34A1140A9
:1006800041600168A24A11400160016821F48021A3
:100690000160416821F4FE0141604FF41F01816057
:1006A000704799490A6822F480320A600A6822F485
:1006B00080220A60B0F5803F07D0B0F5802F03D1CB
:1006C000086840F4A02008607047086840F4803053
:1006D000F9E70346002059098B4A01290AD002296B
:1006E0000AD0516A03F01F02012393400B4200D04D
:1006F000012070471168F5E7116AF3E718B500208B
:100700004FF4A06400903120FFF7E3FF0099491CEB
:100710000091A14201D00028F5D03120FFF7D9FF88
:10072000002800D0012018BD774A116821F0F80197
:1007300041EAC00010607047764908607047724B0C
:100740005A68084322F47C1210435860704771497C
:10075000086670476C4A516821F0030101435160FB
:1007600070476948406800F00C007047664A51685D
:1007700021F0F001014351607047634A516821F450
:10078000E0610143516070475F4A516821F4605154
:1007900041EAC000506070475B4A0029517A01D09D
:1007A000014300E08143517270475A49C1F8D800B3
:1007B0007047554A516821F44041014351607047E8
:1007C0005149002281F8202081F82020012802D000
:1007D000042802D1052081F8200070474E490860A6
:1007E000704749490A6A02430A6270474A494439D4
:1007F0000860704730B5444A5168484B11F00C010D
:1008000003D0042901D0082901D0036012E0516807
:10081000536801F470114FF0020413F4803F04EBAD
:10082000914102D053689B0301D53D4B00E03B4B07
:100830005943016051680F2303EA1111394B5C5C85
:100840000168E14041605468072505EA14241C5DF5
:1008500021FA04F48460546805EAD4241B5DD9406D
:10086000C1605268032303EA92322E4B1B1F9A5C2D
:10087000B1FBF2F1016130BD234A0029516901D079
:10088000014300E08143516170471F4A002991698B
:1008900001D0014300E08143916170471A4A002969
:1008A000D16901D0014300E08143D1617047164A0C
:1008B0000029D16801D0014300E08143D160704735
:1008C000114A0029116901D0014300E081431161FF
:1008D000704711494039086070470E49C864704735
:1008E0000949C87170470848416A41F08071416206
:1008F0007047054A0146002092680A4200D0012054
:100900007047014988727047001002400000FFF8EC
:10091000FFFFF6FE000042428004424200127A00CD
:1009200000093D0018000020C44910B588420AD1D2
:1009300001218C032046FFF7BAFF2046BDE8104096
:100940000021FFF7B4BFBE49884202D101214C0407
:1009500010E0BC49884202D101218C040AE0BA4966
:10096000884202D10121CC0404E0B84988420AD16E
:1009700001210C052046FFF7A3FF2046BDE81040EB
:100980000021FFF79DBF10BD30B50446008A85B039
:100990000D464CF6FF710840E98801432182A08989
:1009A0004EF6F3110840A9882A8911436A89024347
:1009B0001143A181A08A4FF6FF410840A989014354
:1009C000A1826846FFF716FF9C48844201D1039834
:1009D00000E00298A189090400EBC00101EB0010BE
:1009E000296801D5490000E08900B0FBF1F06422DC
:1009F000B0FBF2F109010B096FF018056B4300EB36
:100A00008300A3891D044FF0320306D503EBC00019
:100A1000B0FBF2F000F0070005E003EB0010B0FBC4
:100A2000F2F000F00F000843208105B030BD4FF414
:100A30001651016000218180C18001810C22428118
:100A40008181704710B5028A4FF2FF031A400B886C
:100A50004C8823438C88C9880C4323431343038267
:100A600010BD0021018041808180C1807047002934
:100A7000818902D041F4005101E021F400518181CB
:100A8000704710B5C1F3421301F01F040121A140CA
:100A9000012B07D0022B07D01430002A026805D0A2
:100AA0000A4304E00C30F8E71030F6E78A430260AE
:100AB00010BD002A828A01D00A4300E08A43828264
:100AC0007047028A22F00F020282028A0A430282DF
:100AD0007047828922F40062828182890A4382817E
:100AE00070470029818902D041F0020101E021F024
:100AF000020181817047028A22F020020282028A6A
:100B00000A43028270470029018A02D041F48041E1
:100B100001E021F4804101827047C1F30801818026
:100B200070478088C0F308007047818941F0010157
:100B300081817047028BD2B20283028B42EA01218B
:100B400001837047028B02F47F420283028B0A43C7
:100B5000028370470029818A02D041F0200101E020
:100B600021F02001818270470029818A02D041F062
:100B7000100101E021F01001818270470029818A73
:100B800002D041F0080101E021F0080181827047A4
:100B90000029818902D041F4004101E0C1F30E0136
:100BA000818170470029818A02D041F4006101E00F
:100BB00021F4006181827047828A22F004028282DD
:100BC000828A0A43828270470029818A02D041F0DA
:100BD000020101E021F002018182704702460020FB
:100BE00012880A4200D001207047C9430180704733
:100BF00070B501F01F0501260024C1F3421306FA67
:100C000005F2012B0FD0022B0FD0838A4FEA11215E
:100C10000088134206FA01F600EA060001D000B18E
:100C20000124204670BD8389F0E7038AEEE70A0AB3
:100C300001219140C9430180704700000038014004
:100C40000044004000480040004C0040005000407C
:100C500038B501210820FFF718FE2020ADF800006C
:100C600010208DF803000320104C8DF80200694617
:100C70002046FFF722FC0121ADF80010694620460E
:100C8000FFF71BFC0221ADF8001069462046FFF774
:100C900014FC20212046FFF77AFC01212046FFF7B3
:100CA00076FC02212046FFF772FC38BD000C0140A3
:100CB000334D4FF4FA7420212846FFF76AFC31A027
:100CC00001F0F2FB204600F088FC20212846FFF7C7
:100CD0005EFC2FA001F0E8FB204600F07EFCEAE776
:100CE0003EB501F02FFB2D4A0420A2F513718DE8CB
:100CF0000700002380222AA12C4800F057FA2C4C30
:100D0000606008B12BA000E031A001F0CDFB2068AD
:100D100000F0C6FABDE83E4001F02EBB0EB54FF420
:100D20004070FFF71BFBFFF793FF00F095F82FA033
:100D300001F0BAFB194A03204C3AA2F580618DE814
:100D400007000023802236A1394800F02FFA184905
:100D5000086008B100F029FEFEE7364B0360A3F5FA
:100D600080600860802010607047324B4C33036015
:100D7000A3F5137008604FF4807010607047000096
:100D8000000C01404C4544204F4E0D0A000000006D
:100D90004C4544204F46460D0A000000E004002068
:100DA0004C45445F5461736B00000000B10C0008B7
:100DB000280000204C4544205461736B2043726529
:100DC00061746520537563636573730D0A000000D9
:100DD0004C4544205461736B2043726561746520F7
:100DE0004661696C65640D0A000000004672656525
:100DF00052544F53205352414D20537461746963D0
:100E0000204372656174652053696E676C65205478
:100E100061736B204578616D706C650D0A00000090
:100E20004170705461736B437265617465000000BA
:100E3000E10C00082C0900207047FEE7FEE7FEE702
:100E4000FEE7704710B500F0FCFE012803D0BDE8B6
:100E5000104001F0A2BA10BD10B586B001210420E7
:100E6000FFF713FD01218803FFF70FFD4FF400701A
:100E7000ADF8100018208DF813000320554C8DF8A4
:100E8000120004A92046FFF718FB2115ADF8101039
:100E900004218DF8131004A92046FFF70EFB4FF430
:100EA000E13000900020ADF80400ADF80600ADF888
:100EB0000800ADF80C000C20474CADF80A0069465C
:100EC0002046FFF761FD4FF4A060FFF747FA2520A9
:100ED0008DF8140001218DF815108DF816108DF87D
:100EE000171005A8FFF73FFA012240F225512046CE
:100EF000FFF7C7FD01212046FFF7B9FD06B010BD81
:100F000010B50446FFF709FE80212046FFF766FE74
:100F10000028F9D010BD2DE9F04115460E460746D0
:100F2000002405E0315D3846FFF7EAFF641CE4B2B7
:100F3000AC42F7D340213846FFF750FE0028F9D0E5
:100F4000BDE8F08170B50D46064600243046295DA7
:100F5000FFF7D6FF641C285D0028F7D140213046FA
:100F6000FFF73CFE0028F9D070BD70B50446080AB2
:100F7000CDB201462046FFF7D0FD80212046FFF785
:100F80002DFE0028F9D029462046FFF7C6FD802116
:100F90002046FFF723FE0028F9D070BD70B50E4D36
:100FA0000446C1B22846FFF7B8FD80212846FFF766
:100FB00015FE0028F9D0204670BD10B5064C202142
:100FC0002046FFF70BFE0028F9D02046BDE8104070
:100FD000FFF7A7BD000801400038014000F10801FB
:100FE0004FF0FF32C0E90112C160016100210160D0
:100FF000704700210161704742684A6093688B60C6
:1010000093685960916008610168491C01607047EC
:1010100030B50C68621C02D000F1080202E00269DF
:1010200004E01A4653681D68A542FAD953684B601C
:1010300099608A60516008610168491C016030BD97
:10104000D0E9013201699A60D0E901235A604A6807
:10105000824201D182684A60002202610868401E13
:10106000086070472DE9F041054601F06BF9FD4E2F
:10107000B068401CB0603068FB4F10B1706930B38D
:101080002BE03560B068012827D1002404EB8400F0
:1010900007EB8000FFF7A2FF641C202CF6D3F34877
:1010A000FFF79CFFF1481430FFF798FFEF48283016
:1010B000FFF794FFED483C30FFF790FFEB485030CE
:1010C000FFF78CFFE94870631430B06305E03068C7
:1010D000E96AC06A884200D83560706A0121401C04
:1010E0007062E86A326981401143316100EB80002F
:1010F00007EB8000291DFFF77FFF01F03DF97069C4
:1011000000280CD03068E96AC06A884207D2D84902
:101110004FF080500860BFF34F8FBFF36F8FBDE873
:10112000F0812DE9F0470E46DDE9098482466FF033
:101130000301206B01EB82010844089D20F00707A2
:101140009946780705D040F22B32CAA1CFA001F012
:10115000ABF900202218315C82F83410315C11B1F7
:10116000401C1028F6D3002684F84360202D00D3BD
:101170001F25201DE562FFF73CFF04F11800FFF773
:1011800038FF2461C5F120006462A061666484F8C0
:1011900048604A465146384601F075F82060B8F17B
:1011A000000F01D0C8F80040BDE8F0872DE9F04FEE
:1011B00085B09846DDE90F540E9F91468A468346D6
:1011C0002DB940F25522ABA1B0A001F06DF9002677
:1011D000A4B1CDB10220256384F849000DF1040CBF
:1011E00004A800978CE8510043464A4651465846A9
:1011F000FFF797FF2046FFF735FF06E040F2562243
:101200009CA1A2A001F050F90496049805B0BDE895
:10121000F08F2DE9FF5F8346DDE90E87994616467C
:101220008A46900000F03AFF05001CD04C2000F0E8
:1012300035FF040014D00020256384F84900CDE96F
:101240000240CDE900874B46324651465846FFF7EB
:1012500068FF2046FFF706FF012004B0BDE8F09FBD
:10126000284600F086FF4FF0FF30F6E710B5044641
:1012700090F8490058B101280CD002280FD0BDE8E1
:10128000104040F629627BA180A001F00DB9206BCF
:1012900000F06FFF2046BDE8104000F06ABF10BDAF
:1012A00070B5044601F04EF86E4D04B92C68201D4F
:1012B000FFF7C6FE58B9E06A6B4A00EB800152F8AE
:1012C000211021B901218140286988432861A06A41
:1012D00018B104F11800FFF7B3FE686A401C686299
:1012E0002868844208D16148211D3C30FFF784FE04
:1012F0006868401C686007E0A868401EA860204637
:10130000FFF7B4FF00F06BFE01F036F868690028C3
:1013100012D0286884420FD1286B28B140F2654270
:1013200054A15AA001F0C0F851494FF08050086014
:10133000BFF34F8FBFF36F8F70BD2DE9F041494F61
:101340000026386B38B1B869401CB861F86900B143
:1013500001263046E3E6FD686D1CFD6011D1786B17
:10136000006828B140F6D91242A148A001F09CF8CB
:10137000786BB96B7963B863386A401C386200F0E7
:101380002EFEB86ADFF8E080854209D3786B0068EA
:1013900080B1786BC068C468606885420DD2B8625D
:1013A0003868C06A00EB800158F821000128CDD9C7
:1013B0000126CBE74FF0FF30F1E7201DFFF740FE9D
:1013C000A06A18B104F11800FFF73AFEE06A0121A3
:1013D0003A6981401143396100EB800108EB8100DB
:1013E000211DFFF709FEE06A3968C96A8842CDD33A
:1013F0000126CBE72DE9F0471A4D00242746286B3C
:1014000028B94FF4FD621BA120A001F04DF800F0B7
:1014100099FF286B401E2863286BF8BBA868134906
:1014200028310126D0B3DFF840908846D8F8001064
:10143000A9B3D8F80C00C46804F11800FFF700FE47
:10144000201DFFF7FDFDE06A2A6906FA00F111434D
:10145000296100EB800109EB8100211DFFF7CCFD24
:10146000E06A1DE030000020C4090020440C002088
:1014700004ED00E02E2E5C4672656552544F535CBD
:101480007372635C7461736B732E63004572726F69
:10149000723A25732C25640D0A0000001DE005E05A
:1014A0002968C96A8842C1D3EE61BFE70CB100F078
:1014B00096FDAC693CB1FFF740FF00B1EE61641EE0
:1014C000F9D10020A861E86938B1FF490127380740
:1014D0000860BFF34F8FBFF36F8F00F04DFF3846AA
:1014E00062E62DE9F041F94E0F460446F568306892
:1014F000001DFFF7A5FD38B9306890F82C100120C9
:101500008840316981433161601C07D137B131684E
:10151000BDE8F041EE48091DFFF76EBD30682C4470
:10152000AC424460316805D2B06BBDE8F041091DA2
:10153000FFF76EBD706B091DFFF76AFDB06A84424C
:1015400000D2B462EBE5E148016B491C01637047CE
:101550002DE9F0410E4605004FF0000407D140F29E
:101560007942AFF2F001AFF2DC0000F09DFF3EB92E
:1015700040F27A42AFF20411AFF2F00000F094FFB3
:10158000D24F386B38B140F27B42AFF21811AFF254
:10159000041000F089FFFFF7D6FFFA682868811968
:1015A000904202D9884202D804E0884201D8914290
:1015B00000D9012429601CB1881A0021FFF791FF8E
:1015C000FFF718FF002807D1BF494FF0805008608F
:1015D000BFF34F8FBFF36F8FA1E510B5040014D098
:1015E000BA49096B39B140F2CF42AFF27811AFF28C
:1015F000641000F059FFFFF7A6FF00212046FFF717
:1016000070FFFFF7F7FE002807D1AF494FF0805079
:101610000860BFF34F8FBFF36F8F10BD70B505002B
:1016200007D140F2FB42AFF2B411AFF2A01000F0CC
:101630003BFFA64E3068854201D1002070BD00F00E
:1016400081FE6C6900F098FE706B844202D0B06B32
:10165000844201D1022070BD9D48844204D1A86A11
:101660000028F7D1032070BD99481438844202D075
:101670000CB1012070BD042070BD10B5044600F00F
:1016800061FE0CB991480468E46A00F075FE2046DA
:1016900010BD10B5044600F094FE5020EFF3118108
:1016A00080F31188BFF34F8FBFF36F8F0CB987485A
:1016B0000468E06A81F3118810BD2DE9F04100262D
:1016C0000D460446202908D34FF4B062AFF25C21E6
:1016D000AFF2482000F0E8FE1F2500F033FE7B4FFC
:1016E00004B93C68E06AA8423BD03968854206D913
:1016F0008C4207D03968C96AA94202D902E08C42FB
:1017000000D101268046E562A069002802DBC5F110
:101710002000A0616F4D08EB8800616905EB800037
:10172000814215D1201DFFF78BFC012120B93A69B8
:1017300001FA08F082433A61E06A3A698140114354
:10174000396100EB800005EB8000211DFFF754FCA0
:101750003EB15D494FF080500860BFF34F8FBFF33B
:101760006F8FBDE8F04100F007BE70B5574D286B94
:1017700010B10120E86170BD0020E8612869554E74
:10178000B0FA80F0C0F11F0000EB800456F824008E
:1017900038B940F6F622AFF22431AFF2103000F043
:1017A00083FE06EB840000F108024168496841604D
:1017B000914201D149684160C868286070BD70B528
:1017C000044600F0BFFD414D04B92C68201DFFF711
:1017D00037FC58B9E06A3F4A00EB800152F821100B
:1017E00021B901218140286988432861A06A18B184
:1017F00004F11800FFF724FC211D3548FFF7FCFB1E
:1018000000F0BAFD686928B100F09CFD00F0E7FB2C
:1018100000F0B2FD2868844213D1686990B1286B4A
:1018200038B140F25762AFF2B431AFF2A03000F0FD
:101830003BFE25494FF080500860BFF34F8FBFF348
:101840006F8F70BD2248A9680068884202D10020CD
:10185000286070BDBDE8704087E770B500250400C2
:1018600007D140F28162AFF2F431AFF2E03000F024
:101870001BFE17496069884205D1A06A2839884251
:1018800001D000B90125284670BD70B5040034D0E0
:101890000E4D286884423AD000F054FD2046FFF7F0
:1018A000DCFF30B3201DFFF7CBFBE06A01212A6982
:1018B000814011432961074900EB800001EB800062
:1018C000211DFFF799FB07E004ED00E03000002048
:1018D000940C0020C4090020E06A2968C96A884283
:1018E00007D3FA494FF080500860BFF34F8FBFF322
:1018F0006F8FBDE8704000F03FBD40F2AB62AFF2C9
:101900008C41AFF27840BDE8704000F0CDBD70BDB5
:101910002DE9F0410026040007D140F2E262AFF267
:10192000AC41AFF2984000F0BFFD00F04AFD5020FE
:10193000EFF3118580F31188BFF34F8FBFF36F8FE3
:101940002046FFF78AFFE8B1E14F386B18B104F188
:101950001801E04814E0E06A3968C96A884200D397
:101960000126201DFFF76CFBE06A01213A698140E6
:1019700011433961D84900EB800001EB8000211D43
:10198000FFF73AFB85F311883046E3E4D24E4FF07F
:101990008054CE4D00F030FB30680128FAD92C601D
:1019A000BFF34F8FBFF36F8FF4E710B586B00024FD
:1019B000039405AA04A903A80494FFF7CEF9DDE96E
:1019C00003010094CDE901100023C4A1C548059A84
:1019D000FFF7ECFBBE490028C86211D0502080F30D
:1019E0001188BFF34F8FBFF36F8F4FF0FF308862C6
:1019F00001204861CC6006B0BDE8104000F060BC3A
:101A000006B010BD502080F31188BFF34F8FBFF395
:101A10006F8FAF490020486100F088BCAC48C068B7
:101A2000704710B500F0CDFCA948C06810BDA848AB
:101A30008068704710B510B104461CB10AE0A44894
:101A40000468FAE740F68C02AFF2D851AFF2C45006
:101A500000F02AFD04F1340010BD70B50D460400FD
:101A600007D140F60632AFF2F451AFF2E05000F089
:101A70001BFD9748016820461831FFF7C9FA284630
:101A8000BDE8704001212CE52DE9F04117460E46D6
:101A9000050007D140F61732AFF22861AFF21460AB
:101AA00000F002FD8A4C206B38B940F61B32AFF2D1
:101AB0003C61AFF2286000F0F7FC216846F000407E
:101AC0008861216828461831FFF796FA3846BDE844
:101AD000F041012105E52DE9F041C068C4683CB939
:101AE00040F66132AFF27461AFF2606000F0DCFC8E
:101AF00004F118000746FFF7A3FA754D286B01267D
:101B000058B139467348FFF777FAE06A2968C96A1D
:101B1000884212D90120EE611CE4201DFFF790FAE3
:101B2000E06A2A6906FA00F1114329616A4900EB6B
:101B3000800001EB8000211DE5E700200AE470B57C
:101B4000634D06460C46286B38B940F69932AFF221
:101B5000DC61AFF2C86000F0A7FC44F000403060E8
:101B6000F4683CB940F6A132AFF2F861AFF2E4603C
:101B700000F09AFC3046FFF763FA201DFFF760FA89
:101B8000E06A01262A6906FA00F1114329615249E7
:101B900000EB800001EB8000211DFFF72DFAE06AC9
:101BA0002968C96A884202D90120EE6170BD00200F
:101BB00070BD10B5040007D140F6C132AFF24C71D0
:101BC000AFF2387000F070FC4148016A2160C068D3
:101BD000606010BD70B50D46040007D140F6CB32F1
:101BE000AFF27071AFF25C7000F05EFC3DB940F690
:101BF000CC32AFF28071AFF26C7000F055FC00F0A7
:101C0000A1FB334AD06829684B1C0FD02368126AA5
:101C1000934202D0626882420AD96268801A88427E
:101C200006D2081A28602046FFF7C3FF002400E010
:101C3000012400F0A1FB204670BD25490120C861A8
:101C400070472348416919B1006B18B100207047F3
:101C500001207047022070471D4908680A688069A2
:101C6000D26A0968C2F120028A61704770B50C46D9
:101C7000064600F067FB164D2868406C80B929685D
:101C8000012081F848005CB101212046FFF729FCC2
:101C90000E494FF080500860BFF34F8FBFF36F8F36
:101CA00000F06AFB00F04EFB2868446C002034B161
:101CB00016B12968486402E02A68611E51642968E7
:101CC00081F8480000F058FB204670BD04ED00E0AC
:101CD000300000206C0C0020C409002049444C4511
:101CE000000000008D1900082DE9F0411E46154640
:101CF0008846074600F026FBD24C206890F8480042
:101D0000022814D02068416CB94341642168012045
:101D100081F848005EB101213046FFF7E2FBCA4975
:101D20004FF080500860BFF34F8FBFF36F8F00F00C
:101D300023FB00F007FB15B12068406C2860206889
:101D400090F8480001280DD02068416C21EA080174
:101D5000416401252168002081F8480000F00CFB57
:101D6000284639E40025F5E72DE9F0411F46904665
:101D70000D4604004FF0010607D141F2FD02AFF617
:101D80000C11AFF6F80000F08FFB00F0DBFA0FB19A
:101D9000606C386094F84800022184F84810B8F16B
:101DA000050F0ED2DFE808F00D03060C0A00616C87
:101DB000294301E0616C491C616402E0022803D000
:101DC0006564012802D02AE0002628E0201DFFF7E4
:101DD00037F99C4DE06A01212A698140114329614C
:101DE0009A4900EB800001EB8000211DFFF704F908
:101DF000A06A38B141F23512AFF68811AFF674100F
:101E000000F052FBE06A2968C96A884207D98E4906
:101E10004FF080500860BFF34F8FBFF36F8F00F01B
:101E2000ABFA3046B1E52DE9F0471F46DDF82090CA
:101E300092460D4604004FF0010807D141F26812A6
:101E4000AFF6D011AFF6BC1000F02EFB00F0B9FADF
:101E50005020EFF3118680F31188BFF34F8FBFF34B
:101E60006F8F0FB1606C386094F84800022184F8DD
:101E70004810BAF1050F0ED2DFE80AF00D03060C88
:101E80000A00616C294301E0616C491C616402E055
:101E9000022803D06564012803D031E04FF0000828
:101EA0002EE0A06A38B141F2AF12AFF63821AFF69A
:101EB000242000F0F9FA634D286B012778B104F172
:101EC00018016348FFF798F8E06A2968C96A8842F0
:101ED00016D9B9F1000F12D0C9F8007010E0201D1A
:101EE000FFF7AEF8E06A2A6907FA00F111432961A9
:101EF00000EB8001554800EB8100211DE2E7EF6116
:101F000086F311884046BDE8F0872DE9F041884608
:101F1000040007D141F2E312AFF6A821AFF69420F6
:101F200000F0C2FA00F04DFA5020EFF3118780F371
:101F30001188BFF34F8FBFF36F8F94F848000221D1
:101F400084F84810616C491C616401282ED1A06A94
:101F500038B141F20922AFF6E421AFF6D02000F00B
:101F6000A3FA384D286B012678B104F118013848DE
:101F7000FFF742F8E06A2968C96A884216D9B8F1C1
:101F8000000F12D0C8F8006010E0201DFFF758F8CD
:101F9000E06A2A6906FA00F1114329612B4900EB36
:101FA000800001EB8000211DE2E7EE6187F31188DC
:101FB000EBE410B558B1044600F0C4F994F84800B9
:101FC000022807D0002400F0D7F9204610BD1D4894
:101FD0000468F1E7002084F848000124F3E7194879
:101FE000416B096829B1416BC968C9684968816258
:101FF00070474FF0FF31FAE770B5154E114D1436AA
:102000001CE0FFF7A0FA306820B10024FFF7F2F9D6
:10201000A4B901E00124F9E700F094F9F068C4687C
:10202000201DFFF70DF8A868401EA8606868401ED4
:10203000686000F0A1F92046FFF718F968680028E9
:10204000DFD142E63000002004ED00E0C4090020AA
:102050006C0C002030B5744900E011460A688242D9
:10206000FBD34B685C18844203D140681844486035
:10207000084643681C18944209D16B4C103C2468F4
:10208000A24209D052681A4442600A68126802608B
:10209000814200D0086030BD0460F9E72DE9F041CD
:1020A00005460026FFF74FFA5F4F103F386808B922
:1020B00000F098F8F86805424ED1002D4CD0083554
:1020C00068070BD005F00700C0F108000544680759
:1020D00004D0BF2255A15EA000F0E6F9002D3BD050
:1020E0007868854238D850490846046801E021469E
:1020F00004466068A84202D220680028F7D13868F8
:10210000B846844228D00E682068086060680836A7
:10211000401B10280ED96719780704D0EC2243A180
:102120004BA000F0C1F96068401B786038466560DC
:10213000FFF790FF6168D8F804004246401AC8F8DB
:102140000400D8F80830984200D29060D8F80C000B
:1021500001430020C4E90001FFF74CF9700705D0E6
:102160004FF4967231A13AA000F09EF93046BDE8D6
:10217000F08170B500282BD02B4DA0F10804103D44
:102180006068E968084205D14FF4A07227A130A029
:1021900000F08AF9206828B140F2411223A12CA056
:1021A00000F082F96068E968084211D02268002ACC
:1021B0000ED188436060FFF7C6F96068696808441B
:1021C00068602046FFF746FFBDE87040FFF712B990
:1021D00070BD154810384068704713481038806843
:1021E000704770471E484FF41041420706D0C01D8B
:1021F0001B4920F00700411AC1F510410A4A00238B
:102200000144C2E900030839103A21F007011160C6
:102210004B600B600B1AC0E9001393604FF0004055
:102220005360D060704700007C0000202E2E5C467A
:1022300072656552544F535C706F72745C4D656D7E
:102240004D616E675C686561705F342E63000000ED
:102250004572726F723A25732C25640D0A000000D6
:10226000A80C002069484068401C04D0F42268A1F2
:1022700071A000F019F9502080F31188BFF34F8F3F
:10228000BFF36F8FFEE710B5031F4FF080741C6023
:102290001B1F21F001011960191F6B4B0B601439D2
:1022A00040380A6010BD69484FF47A710068B0FB8D
:1022B000F1F14FF0E020491E4161072101617047B3
:1022C0001CB5634908780190FF20087008788DF8E4
:1022D00000009DF800004D4A00F0500010700720EB
:1022E000906007E09068401E90609DF800004000FC
:1022F0008DF800009DF800000006F3D4107A00026B
:1023000000F4E0609060019808705248016841F460
:1023100070010160016841F070410160FFF7C3FF87
:1023200000205060FDF722FF00201CBD37484068A8
:10233000B0F57A7F05D04FF4B57235A13EA000F01C
:10234000B3B87047502080F31188BFF34F8FBFF3AD
:102350006F8F2E494868401C486001280BD13D48CA
:102360001C38006810F0FF0F05D04FF4BD7228A193
:1023700031A000F099B8704710B5244C606828B9B6
:1023800040F2811222A12CA000F08EF86068401E5D
:10239000606001D180F3118810BD10B5502080F32A
:1023A0001188BFF34F8FBFF36F8FFEF7C6FF20B1C9
:1023B00028494FF080501C390860002080F31188B4
:1023C00010BD10B5FDF708FF104C10280CD300F11C
:1023D000E02090F8F0032178884205D24FF42A7269
:1023E0000BA115A000F060F81A4814380068A16825
:1023F00000F4E060884207D9BDE810404FF42E7227
:1024000003A10DA000F050B810BD00008400002012
:102410002E2E5C4672656552544F535C706F727419
:102420005C525644535C41524D5F434D335C706F78
:1024300072742E63000000004572726F723A257349
:102440002C25640D0A000000652200080000002011
:1024500000E400E020ED00E030B50B46014600202E
:102460002022012409E021FA02F59D4205D303FA56
:1024700002F5491B04FA02F52844151EA2F10102D7
:10248000F1DC30BD064C074D06E0E06840F001038A
:1024900094E8070098471034AC42F6D3FDF74CFEA1
:1024A000A0260008C02600080FB4054B10B503A9EC
:1024B000044A029800F018F810BC5DF814FB000004
:1024C0009D0F00089000002002E008C8121F08C1FC
:1024D000002AFAD170477047002001E001C1121FA5
:1024E000002AFBD1704700002DE9FF4F8BB09A46C0
:1024F0000F460546002606E025280BD052460D99CA
:1025000090476D1C761C28780028F5D10FB0304616
:10251000BDE8F08F0024A0460122604900E004439A
:1025200015F8013F203B02FA03F00842F7D1287862
:102530002E2817D115F8010F44F004042A280ED0D4
:102540006FF02F022878A0F1300109290AD808EB92
:10255000880102EB410100EB01086D1CF2E757F81E
:10256000048B6D1C287869283ED006DC0028CDD06D
:1025700063280BD0642804D136E0732810D0752866
:102580004BD052460D999047761C85E017F8040B06
:102590008DF8000000208DF80100E946012003E0DD
:1025A00057F8049B4FF0FF3061074FF0000401D44F
:1025B0000AE0641C44450DDA8442FADB19F8041081
:1025C0000029F6D106E0641C8442FCDB19F80410F3
:1025D0000029F8D1264404E019F8010B52460D9960
:1025E0009047641EF8D257E001CF4FF00A0B002845
:1025F00002DA40422D2102E0210504D52B218DF87D
:102600002410012103E0E10705D02021F7E70DF1B7
:10261000200908910CE00021F9E701CF4FF00A0BE7
:10262000F9E75946FFF718FF01F1300209F8012DCB
:102630000028F6D1ADEB090000F1200B600701D4B2
:102640004FF00108D84502DDA8EB0B0000E00020A8
:102650008046002406E009A85246005D0D99904787
:10266000641C761C08988442F5DB04E03020524656
:102670000D999047761CB8F10001A8F10108F5DC2E
:1026800005E019F8010B52460D999047761CBBF1F5
:102690000001ABF1010BF4DC6D1C34E709280100EB
:1026A000C02600080000002094000000C824000894
:1026B000542700089400002014A00000D82400082B
:1026C00000A24A0400000000000000000102030410
:1026D00006070809020406080000000001020304BE
:1026E00001020304060708090000000000000000C2
:1026F00000000000000000000000000000000000DA
:1027000000000000000000000000000000000000C9
:1027100000000000000000000000000000000000B9
:1027200000000000000000000000000000000000A9
:102730000000000000000000000000000000000099
:102740000000000000000000AAAAAAAA00000000E1
:042750000000000085
:0400000508000131BD
:00000001FF
