:020000040800F2
:1000000080970020E1010008D10E0008D30E0008FF
:10001000D50E0008D70E0008D90E00080000000019
:10002000000000000000000000000000490100087E
:10003000DB0E0008000000008D010008DD0E000846
:10004000FB010008FB010008FB010008FB010008A0
:10005000FB010008FB010008FB010008FB01000890
:10006000FB010008FB010008FB010008FB01000880
:10007000FB010008FB010008FB010008FB01000870
:10008000FB010008FB010008FB010008FB01000860
:10009000FB010008FB010008FB010008FB01000850
:1000A000FB010008FB010008FB010008FB01000840
:1000B000FB010008FB010008FB010008FB01000830
:1000C000FB010008FB010008FB010008FB01000820
:1000D000FB010008FB010008FB010008FB01000810
:1000E000FB010008FB010008FB010008FB01000800
:1000F000FB010008FB010008FB010008FB010008F0
:10010000FB010008FB010008FB010008FB010008DF
:10011000FB010008FB010008FB010008FB010008CF
:10012000FB010008FB010008FB010008FB010008BF
:10013000DFF810D002F0EEF900480047790D000812
:10014000AFF3008080970020224B19680868B0E860
:10015000F00F80F30988BFF36F8F4FF0000080F33A
:1001600011884EF00D0E7047000000000648006830
:10017000006880F3088862B661B6BFF34F8FBFF3A3
:100180006F8F00DF00BF00BF08ED00E0EFF30980D4
:10019000BFF36F8F0F4B1A6820E9F00F106008B59E
:1001A0004FF0500080F31188BFF34F8FBFF36F8F74
:1001B00001F0BDFA4FF0000080F31188BDE808405F
:1001C00019680868B0E8F00F80F30988BFF36F8FF3
:1001D000704700BF34000020EFF305807047000037
:1001E0000648804706480047FEE7FEE7FEE7FEE7D1
:1001F000FEE7FEE7FEE7FEE7FEE7FEE7A5020008F2
:10020000310100080CB500224C48009201920168AF
:1002100041F4803101604FF4A063016801F40031C2
:1002200001910099491C0091019911B900999942D5
:10023000F3D10168890333D50121019140490A684E
:1002400042F010020A600A6822F003020A600A689B
:1002500042F002020A6041684160416841604168C1
:1002600041F480614160416821F47C114160416842
:1002700041F4E8114160016841F08071016001685A
:100280008901FCD5416821F003014160416841F0DA
:10029000020141604168C1F381010229FAD10CBD1C
:1002A00001920CBD254810B5016841F001010160C3
:1002B0004168244A114041600168234A11400160AD
:1002C000016821F480210160416821F4FE01416050
:1002D0004FF41F018160FFF795FF1C494FF000604C
:1002E000086010BD154A10B55068194B10F00C018C
:1002F000184803D0042901D0082901D0036012E076
:100300005168536801F470114FF0020413F4803FF8
:1003100004EB914102D053689B0301D50E4B00E0E2
:100320000B4B5943016051680A4AC1F30311121D76
:10033000515C0268CA40026010BD0000001002401B
:10034000002002400000FFF8FFFFF6FE08ED00E08D
:1003500000127A000000002000093D0028490843EF
:1003600028490860704730B50F23C278017801250D
:10037000F2B1244A126801F1E02102F4E062C2F510
:10038000E062120AC2F10404D3404278A2408478A9
:100390001C401443220181F80024007800F01F0162
:1003A0008D404009800000F1E020C0F8005130BDD0
:1003B00001F01F0085404809800000F1E020C0F8EE
:1003C000805130BD104A114001430E48001F0160AA
:1003D00070470C4A121D0029116801D0014300E04A
:1003E0008143116070474FF0E0210428086903D071
:1003F00020F004000861704740F00400FAE70000B4
:100400000000FA050CED00E080FFFF1F8F4910B5DA
:10041000884206D10121042000F049FA002104207D
:100420003BE08B49884206D10121082000F03FFAC9
:100430000021082031E08749884206D1012110209F
:1004400000F035FA0021102027E08349884206D1C8
:100450000121202000F02BFA002120201DE07F49FF
:10046000884206D10121402000F021FA00214020DD
:1004700013E07B49884206D10121802000F017FA61
:100480000021802009E0774988420AD184150121A2
:10049000204600F00CFA00212046BDE8104000F094
:1004A00006BA10BD10B50121084600F000FA00217F
:1004B000BDE81040012000F0FAB9F0B5CC78002278
:1004C00004F00F03E40601D58C7823430C784FF039
:1004D0000F0C14F0FF0F4FF0010E1BD005680E88B3
:1004E0000EFA02F42640A64210D196000CFA06F746
:1004F00025EA070703FA06F5CE783D43282E02D0F9
:10050000482E02D002E0446100E00461521C082A37
:10051000E5D305600A88FF2A1CD94468002202F14D
:1005200008060EFA06F50E882E40AE420ED1960051
:100530000CFA06F7BC4303FA06F7CE783C43282EA4
:1005400000D14561CE78482E00D10561521C082AA1
:10055000E5D34460F0BD4FF6FF7101800221817048
:100560000421C17070470246002092680A4200D000
:1005700001207047806880B2704702460020D26830
:100580000A4200D001207047C06880B27047016104
:100590007047416170470AB101617047416170471E
:1005A000C160704741F480328261816182618169FA
:1005B000806970472C4B10B51A684FF68074224042
:1005C00042EA00100843186010BD2849C86170470E
:1005D000F0B5254C002801DAE36900E06368450DB9
:1005E0002E0185B2C0F30157B540C0F30342032F7B
:1005F00005D0C6020AD503269640B34307E023F090
:100600007062636823F07063636002E0AB4343F0A1
:10061000706201B12A43002801DAE261F0BD626034
:10062000F0BD10B58A0721F003040F49120F2144D1
:100630000F238C6893409C438C608B6890400343ED
:100640008B6010BD0949C1F8DC007047000801400B
:10065000000C01400010014000140140001801404E
:10066000001C014000200140000001400000204229
:10067000A548016841F0010101604168A34A1140A9
:1006800041600168A24A11400160016821F48021A3
:100690000160416821F4FE0141604FF41F01816057
:1006A000704799490A6822F480320A600A6822F485
:1006B00080220A60B0F5803F07D0B0F5802F03D1CB
:1006C000086840F4A02008607047086840F4803053
:1006D000F9E70346002059098B4A01290AD002296B
:1006E0000AD0516A03F01F02012393400B4200D04D
:1006F000012070471168F5E7116AF3E718B500208B
:100700004FF4A06400903120FFF7E3FF0099491CEB
:100710000091A14201D00028F5D03120FFF7D9FF88
:10072000002800D0012018BD774A116821F0F80197
:1007300041EAC00010607047764908607047724B0C
:100740005A68084322F47C1210435860704771497C
:10075000086670476C4A516821F0030101435160FB
:1007600070476948406800F00C007047664A51685D
:1007700021F0F001014351607047634A516821F450
:10078000E0610143516070475F4A516821F4605154
:1007900041EAC000506070475B4A0029517A01D09D
:1007A000014300E08143517270475A49C1F8D800B3
:1007B0007047554A516821F44041014351607047E8
:1007C0005149002281F8202081F82020012802D000
:1007D000042802D1052081F8200070474E490860A6
:1007E000704749490A6A02430A6270474A494439D4
:1007F0000860704730B5444A5168484B11F00C010D
:1008000003D0042901D0082901D0036012E0516807
:10081000536801F470114FF0020413F4803F04EBAD
:10082000914102D053689B0301D53D4B00E03B4B07
:100830005943016051680F2303EA1111394B5C5C85
:100840000168E14041605468072505EA14241C5DF5
:1008500021FA04F48460546805EAD4241B5DD9406D
:10086000C1605268032303EA92322E4B1B1F9A5C2D
:10087000B1FBF2F1016130BD234A0029516901D079
:10088000014300E08143516170471F4A002991698B
:1008900001D0014300E08143916170471A4A002969
:1008A000D16901D0014300E08143D1617047164A0C
:1008B0000029D16801D0014300E08143D160704735
:1008C000114A0029116901D0014300E081431161FF
:1008D000704711494039086070470E49C864704735
:1008E0000949C87170470848416A41F08071416206
:1008F0007047054A0146002092680A4200D0012054
:100900007047014988727047001002400000FFF8EC
:10091000FFFFF6FE000042428004424200127A00CD
:1009200000093D0018000020C44910B588420AD1D2
:1009300001218C032046FFF7BAFF2046BDE8104096
:100940000021FFF7B4BFBE49884202D101214C0407
:1009500010E0BC49884202D101218C040AE0BA4966
:10096000884202D10121CC0404E0B84988420AD16E
:1009700001210C052046FFF7A3FF2046BDE81040EB
:100980000021FFF79DBF10BD30B50446008A85B039
:100990000D464CF6FF710840E98801432182A08989
:1009A0004EF6F3110840A9882A8911436A89024347
:1009B0001143A181A08A4FF6FF410840A989014354
:1009C000A1826846FFF716FF9C48844201D1039834
:1009D00000E00298A189090400EBC00101EB0010BE
:1009E000296801D5490000E08900B0FBF1F06422DC
:1009F000B0FBF2F109010B096FF018056B4300EB36
:100A00008300A3891D044FF0320306D503EBC00019
:100A1000B0FBF2F000F0070005E003EB0010B0FBC4
:100A2000F2F000F00F000843208105B030BD4FF414
:100A30001651016000218180C18001810C22428118
:100A40008181704710B5028A4FF2FF031A400B886C
:100A50004C8823438C88C9880C4323431343038267
:100A600010BD0021018041808180C1807047002934
:100A7000818902D041F4005101E021F400518181CB
:100A8000704710B5C1F3421301F01F040121A140CA
:100A9000012B07D0022B07D01430002A026805D0A2
:100AA0000A4304E00C30F8E71030F6E78A430260AE
:100AB00010BD002A828A01D00A4300E08A43828264
:100AC0007047028A22F00F020282028A0A430282DF
:100AD0007047828922F40062828182890A4382817E
:100AE00070470029818902D041F0020101E021F024
:100AF000020181817047028A22F020020282028A6A
:100B00000A43028270470029018A02D041F48041E1
:100B100001E021F4804101827047C1F30801818026
:100B200070478088C0F308007047818941F0010157
:100B300081817047028BD2B20283028B42EA01218B
:100B400001837047028B02F47F420283028B0A43C7
:100B5000028370470029818A02D041F0200101E020
:100B600021F02001818270470029818A02D041F062
:100B7000100101E021F01001818270470029818A73
:100B800002D041F0080101E021F0080181827047A4
:100B90000029818902D041F4004101E0C1F30E0136
:100BA000818170470029818A02D041F4006101E00F
:100BB00021F4006181827047828A22F004028282DD
:100BC000828A0A43828270470029818A02D041F0DA
:100BD000020101E021F002018182704702460020FB
:100BE00012880A4200D001207047C9430180704733
:100BF00070B501F01F0501260024C1F3421306FA67
:100C000005F2012B0FD0022B0FD0838A4FEA11215E
:100C10000088134206FA01F600EA060001D000B18E
:100C20000124204670BD8389F0E7038AEEE70A0AB3
:100C300001219140C9430180704700000038014004
:100C40000044004000480040004C0040005000407C
:100C500038B501210820FFF718FE2020ADF800006C
:100C600010208DF803000320104C8DF80200694617
:100C70002046FFF722FC0121ADF80010694620460E
:100C8000FFF71BFC0221ADF8001069462046FFF774
:100C900014FC20212046FFF77AFC01212046FFF7B3
:100CA00076FC02212046FFF772FC38BD000C0140A3
:100CB000434D444F444C6E140121284600F0F3F993
:100CC000012805D141A001F037FC606800F059FD12
:100CD0003146384600F0E7F9012805D142A001F07D
:100CE0002BFC606800F0B3FD142000F058FCE3E733
:100CF000444D4FF4FA7420212846FFF74AFC42A0E5
:100D000001F01AFC204600F04AFC20212846FFF79B
:100D10003EFC40A001F010FC204600F040FCEAE759
:100D20001CB501F057FB28490220091D0402CDE93A
:100D30000001002322463AA13C4800F06CFA012849
:100D400002D13BA001F0F8FB1F4903200831CDE997
:100D50000001002322463DA13F4800F05CFA012833
:100D600002D13EA001F0E8FB1748006800F07EFACF
:100D7000BDE81C4001F048BB1CB54FF44070FFF7C4
:100D8000EDFAFFF765FF00F0B3F800F073F93AA051
:100D900001F0D2FB0C490120CDE900014202002301
:100DA0003FA1434800F037FA012802D04FF0FF304E
:100DB0001CBD00F0D4FD3FA001F0BEFBFEE700002B
:100DC0000008014000100140280000204B45593127
:100DD00020507265737365642C20B9D2C6F0C8CEFA
:100DE000CEF1A3A10D0A00004B4559322050726587
:100DF000737365642C20BBD6B8B4C8CECEF1A3A162
:100E00000D0A0000000C01404C4544204F4E0D0AD5
:100E1000000000004C4544204F46460D0A000000EB
:100E20004C45445F5461736B00000000F10C0008F6
:100E3000437265617465204C45445F5461736B2057
:100E4000537563636573730D0A0000004B45595F6A
:100E50005461736B00000000B10C000843726561BF
:100E60007465204B45595F5461736B205375636300
:100E70006573730D0A000000B0B4CFC24B45593101
:100E8000B9D2C6F0C8CECEF1A3ACB0B4CFC24B45F8
:100E90005932BBD6B8B4C8CECEF10D0A000000005E
:100EA0004170705461736B4372656174650000003A
:100EB000210D00084672656552544F5320537461EA
:100EC000727420537563636573730D0A000000002C
:100ED0007047FEE7FEE7FEE7FEE7704710B500F05B
:100EE0009AFE012803D0BDE8104001F09EBA10BD63
:100EF00010B586B001210420FFF7C7FC012188034B
:100F0000FFF7C3FC4FF40070ADF8100018208DF807
:100F100013000320554C8DF8120004A92046FFF75A
:100F2000CCFA2115ADF8101004218DF8131004A986
:100F30002046FFF7C2FA4FF4E13000900020ADF8F0
:100F40000400ADF80600ADF80800ADF80C000C2068
:100F5000474CADF80A0069462046FFF715FD4FF4EF
:100F6000A060FFF7FBF925208DF8140001218DF812
:100F700015108DF816108DF8171005A8FFF7F3F966
:100F8000012240F225512046FFF77BFD012120463A
:100F9000FFF76DFD06B010BD10B50446FFF7BDFDAF
:100FA00080212046FFF71AFE0028F9D010BD2DE958
:100FB000F04115460E460746002405E0315D3846EF
:100FC000FFF7EAFF641CE4B2AC42F7D34021384695
:100FD000FFF704FE0028F9D0BDE8F08170B50D469A
:100FE000064600243046295DFFF7D6FF641C285DC5
:100FF0000028F7D140213046FFF7F0FD0028F9D056
:1010000070BD70B50446080ACDB201462046FFF710
:1010100084FD80212046FFF7E1FD0028F9D0294614
:101020002046FFF77AFD80212046FFF7D7FD0028F4
:10103000F9D070BD70B50E4D0446C1B22846FFF719
:101040006CFD80212846FFF7C9FD0028F9D0204615
:1010500070BD10B5064C20212046FFF7BFFD0028CB
:10106000F9D02046BDE81040FFF75BBD0008014005
:101070000038014038B501211420FFF706FC01209B
:10108000ADF8000004248DF8034069460E48FFF7D0
:1010900014FAE002ADF800008DF8034069460B48F1
:1010A000FFF70BFA38BD70B50C460546FFF75BFA43
:1010B000012801D0002070BD21462846FFF753FAD1
:1010C0000128F9D0012070BD000801400010014046
:1010D00000F108014FF0FF32C0E90112C160016167
:1010E00000210160704700210161704742684A6039
:1010F00093688B6093685960916008610168491C2E
:101100000160704730B50C68621C02D000F1080223
:1011100002E0026904E01A4653681D68A542FAD944
:1011200053684B6099608A60516008610168491C8E
:10113000016030BDD0E9013201699A60D0E9012334
:101140005A604A68824201D182684A600022026184
:101150000868401E086070472DE9F041054601F01F
:1011600039F9FE4EB068401CB0603068FC4F10B1D9
:10117000706930B32BE03560B068012827D10024B6
:1011800004EB840007EB8000FFF7A2FF641C202C17
:10119000F6D3F448FFF79CFFF2481430FFF798FFAE
:1011A000F0482830FFF794FFEE483C30FFF790FFFF
:1011B000EC485030FFF78CFFEA4870631430B0639E
:1011C00005E03068E96AC06A884200D83560706A14
:1011D0000121401C7062E86A32698140114331612B
:1011E00000EB800007EB8000291DFFF77FFF01F077
:1011F0000BF9706900280CD03068E96AC06A88422F
:1012000007D2D9494FF080500860BFF34F8FBFF32A
:101210006F8FBDE8F0812DE9FF5F8346DDE90E8722
:10122000994616468A46900000F080FF05001AD0C5
:101230004C2000F07BFF040012D025630021CDE993
:101240000241CDE900874B4632465146584600F0F0
:10125000ABFE2046FFF780FF012004B0BDE8F09F01
:10126000284600F0CEFF4FF0FF30F6E770B5044699
:1012700001F0B0F8B94D04B92C68201DFFF75AFFF2
:1012800058B9E06AB64A00EB800152F8211021B942
:1012900001218140286988432861A06A18B104F1BE
:1012A0001800FFF747FF686A401C6862286884429C
:1012B00008D1AC48211D3C30FFF718FF6868401C7E
:1012C000686007E0A868401EA860204600F0BDFEE8
:1012D00000F0AEFE01F098F86869002812D0286886
:1012E00084420FD1286B28B140F265429FA1A5A08E
:1012F00001F022F99C494FF080500860BFF34F8FF6
:10130000BFF36F8F70BD2DE9F041944F0026386B0D
:1013100038B1B869401CB861F86900B1012630469F
:1013200077E7FD686D1CFD6011D1786B006828B10E
:1013300040F6C2128DA193A001F0FEF8786BB96B54
:101340007963B863386A401C386200F071FEB86A8D
:10135000DFF80C82854209D3786B006880B1786B26
:10136000C068C468606885420DD2B8623868C06AD7
:1013700000EB800158F821000128CDD90126CBE7E8
:101380004FF0FF30F1E7201DFFF7D4FEA06A18B13F
:1013900004F11800FFF7CEFEE06A01213A698140AE
:1013A0001143396100EB800108EB8100211DFFF73B
:1013B0009DFEE06A3968C96A8842CDD30126CBE731
:1013C0002DE9F047654D00242746286B28B940F2E7
:1013D000D67266A16BA001F0AFF800F0FBFF286B9E
:1013E000401E2863286BE0BBA8685E4928310126AF
:1013F000B8B3DFF86C918846D8F80010E9B1D8F896
:101400000C00C46804F11800FFF794FE201DFFF7DC
:1014100091FEE06A2A6906FA00F11143296100EBA6
:10142000800109EB8100211DFFF760FEE06A296859
:10143000C96A8842E0D3EE61DEE70CB100F0F8FD46
:10144000AC693CB1FFF75FFF00B1EE61641EF9D1FA
:101450000020A861E86920B14349012738070860E6
:1014600000E003E0BFF34F8FBFF36F8F00F0CCFFBE
:101470003846BDE8F0872DE9F041384E0F46044666
:10148000F5683068001DFFF755FE38B9306890F8F0
:101490002C1001208840316981433161601C08D1E2
:1014A0003FB13168BDE8F0412E485030091DFFF7CB
:1014B0001DBE30682C44AC424460316805D2B06B2C
:1014C000BDE8F041091DFFF71DBE706B091DFFF758
:1014D00019FEB06A844200D2B4629AE61F48016BDA
:1014E000491C016370472DE9F0410E4605004FF09D
:1014F000000405D140F279421CA122A001F01CF8A1
:101500002EB940F27A4219A11EA001F015F8134F2E
:10151000386B28B140F27B4214A11AA001F00CF8FC
:10152000FFF7DCFFFA6828688119904202D98842E7
:1015300002D804E0884201D8914200D901242960F0
:101540001CB1881A0021FFF796FFFFF739FF00282A
:1015500024D105494FF0805008601BE03400002082
:10156000980000201803002004ED00E02E2E5C46B9
:1015700072656552544F535C7372635C7461736B34
:10158000732E63004572726F723A25732C25640DB9
:101590000A000000BFF34F8FBFF36F8F39E610B51D
:1015A000040014D0FE49096B39B140F2CE42AFF2CB
:1015B0004401AFF2300000F0BFFFFFF78FFF0021C2
:1015C0002046FFF758FFFFF7FBFE002807D1F5493B
:1015D0004FF080500860BFF34F8FBFF36F8F10BD87
:1015E00070B5050007D140F2F142AFF28001AFF2D1
:1015F0006C0000F0A1FFEA4E3068854201D1002066
:1016000070BD00F0E7FE6C6900F0FEFE706B844276
:1016100002D0B06B844201D1022070BDE248844206
:1016200004D1A86A0028F7D1032070BDDE48143821
:10163000844202D00CB1012070BD042070BD10B5F1
:10164000044600F0C7FE0CB9D5480468E46A00F00F
:10165000DBFE204610BD10B5044600F0FAFE502017
:10166000EFF3118180F31188BFF34F8FBFF36F8FBA
:101670000CB9CB480468E06A81F3118810BD2DE9EC
:10168000F04100260D460446202908D340F2765248
:10169000AFF22811AFF2141000F04EFF1F2500F03A
:1016A00099FEBF4F04B93C68E06AA8423BD0396854
:1016B000854206D98C4207D03968C96AA94202D945
:1016C00002E08C4200D101268046E562A069002834
:1016D00002DBC5F12000A061B44D08EB8800616910
:1016E00005EB8000814215D1201DFFF723FD01216C
:1016F00020B93A6901FA08F082433A61E06A3A692E
:1017000081401143396100EB800005EB8000211D11
:10171000FFF7ECFC3EB1A3494FF080500860BFF3E7
:101720004F8FBFF36F8FBDE8F04100F06DBE70B515
:101730009B4D286B10B10120E86170BD0020E8616D
:1017400028699A4EB0FA80F0C0F11F0000EB8004C7
:1017500056F8240038B940F6DF22AFF2F011AFF2AC
:10176000DC1000F0E9FE06EB840000F1080241689D
:1017700049684160914201D149684160C868286068
:1017800070BD70B5044600F025FE854D04B92C6887
:10179000201DFFF7CFFC58B9E06A844A00EB8001B6
:1017A00052F8211021B9012181402869884328611C
:1017B000A06A18B104F11800FFF7BCFC211D7A489B
:1017C000FFF794FC00F020FE686928B100F002FEEB
:1017D00000F02EFC00F018FE2868844213D16869DE
:1017E00090B1286B38B140F24D62AFF28021AFF278
:1017F0006C2000F0A1FE6B494FF080500860BFF3F1
:101800004F8FBFF36F8F70BD6748A968006888422B
:1018100002D10020286070BDBDE8704087E770B538
:101820000025040007D140F27E62AFF2C021AFF282
:10183000AC2000F081FE5C496069884205D1A06A55
:101840002839884201D000B90125284670BD70B5FD
:1018500004002BD0524D2868844231D000F0BAFDEC
:101860002046FFF7DCFFE8B1201DFFF763FCE06ACC
:1018700001212A698140114329614C4900EB800014
:1018800001EB8000211DFFF731FCE06A2968C96A7D
:10189000884207D343494FF080500860BFF34F8F11
:1018A000BFF36F8FBDE8704000F0AEBD40F2A9629B
:1018B000AFF24831AFF23430BDE8704000F03CBECA
:1018C00070BD2DE9F0410026040007D140F2DF622F
:1018D000AFF26831AFF2543000F02EFE00F0B9FDE7
:1018E0005020EFF3118580F31188BFF34F8FBFF3C2
:1018F0006F8F2046FFF793FFF0B1294F386B20B16F
:10190000294804F11801283814E0E06A3968C96AE6
:10191000884200D30126201DFFF70CFCE06A01215C
:101920003A69814011433961204900EB800001EBA5
:101930008000211DFFF7DAFB85F31188304668E44B
:101940001A4E4FF08054174D00F089FB3068012883
:10195000FAD92C60BFF34F8FBFF36F8FF4E71CB53C
:101960000F4800242C30CDE900402346802210A1EE
:101970001148FFF750FC01280CD0401C2BD140F23D
:101980007172AFF21841AFF2044002B0BDE81040EE
:1019900000F0D2BD502080F31188BFF34F8F0DE0CF
:1019A0003400002004ED00E06803002098000020CF
:1019B00049444C450000000041190008BFF36F8FF7
:1019C000FF484FF0FF31816201214161C460BDE8F1
:1019D0001C4000F0BDBC1CBD502080F31188BFF33B
:1019E0004F8FBFF36F8FF6490020486100F0E6BCCF
:1019F000F348C068704710B500F02BFDF048C06890
:101A000010BDEF488068704710B510B104461CB196
:101A10000AE0EB480468FAE740F67502AFF2B44119
:101A2000AFF2A04000F088FD04F1340010BD70B5A5
:101A30000D46040007D140F6EF22AFF2D041AFF2DD
:101A4000BC4000F079FDDE48016820461831FFF700
:101A500059FB2846BDE8704001210CE52DE9F04115
:101A600017460E46050007D14FF43062AFF204511D
:101A7000AFF2F04000F060FDD14C206B38B940F679
:101A80000432AFF21851AFF2045000F055FD216856
:101A900046F000408861216828461831FFF726FB90
:101AA0003846BDE8F0410121E5E42DE9F041C06888
:101AB000C4683CB940F64A32AFF25051AFF23C50E4
:101AC00000F03AFD04F118000746FFF733FBBC4D68
:101AD000286B012658B13946BA48FFF707FBE06A80
:101AE0002968C96A884212D90120EE6118E4201DD4
:101AF000FFF720FBE06A2A6906FA00F11143296129
:101B0000B14900EB800001EB8000211DE5E70020DA
:101B100006E470B5AA4D06460C46286B38B940F667
:101B20008232AFF2B851AFF2A45000F005FD44F09C
:101B300000403060F4683CB940F68A32AFF2D451CC
:101B4000AFF2C05000F0F8FC3046FFF7F3FA201D6A
:101B5000FFF7F0FAE06A01262A6906FA00F111435C
:101B60002961994900EB800001EB8000211DFFF7FE
:101B7000BDFAE06A2968C96A884202D90120EE618B
:101B800070BD002070BD10B5040007D140F6AA3228
:101B9000AFF22861AFF2146000F0CEFC8848016A11
:101BA0002160C068606010BD70B50D46040007D1AB
:101BB00040F6B432AFF24C61AFF2386000F0BCFCDA
:101BC0003DB940F6B532AFF25C61AFF2486000F06B
:101BD000B3FC00F0FFFB7A4AD06829684B1C0FD099
:101BE0002368126A934202D0626882420AD962680C
:101BF000801A884206D2081A28602046FFF7C3FFE1
:101C0000002400E0012400F0FFFB204670BD6C4979
:101C10000120C86170476A48416919B1006B18B169
:101C2000002070470120704702207047644908680F
:101C30000A688069D26A0968C2F120028A61704725
:101C400070B50C46064600F0C5FB5D4D2868406C3B
:101C500080B92968012081F848005CB10121204643
:101C6000FFF709FC59494FF080500860BFF34F8FD0
:101C7000BFF36F8F00F0C8FB00F0ACFB2868446C2A
:101C8000002034B116B12968486402E02A68611E58
:101C90005164296881F8480000F0B6FB204670BD09
:101CA0002DE9F0411E4615468846074600F092FB96
:101CB000434C206890F84800022814D02068416CFA
:101CC000B94341642168012081F848005EB10121D7
:101CD0003046FFF7D0FB3D494FF080500860BFF31E
:101CE0004F8FBFF36F8F00F08FFB00F073FB15B1C8
:101CF0002068406C2860206890F8480001280DD0CA
:101D00002068416C21EA0801416401252168002016
:101D100081F8480000F078FB28463FE40025F5E70D
:101D20002DE9F0411F4690460D4604004FF0010694
:101D300007D141F2EC02AFF2CC71AFF2B87000F013
:101D4000FBFB00F047FB0FB1606C386094F8480073
:101D5000022184F84810B8F1050F0ED2DFE808F030
:101D60000D03060C0A00616C294301E0616C491CFB
:101D7000616402E0022803D06564012802D033E0E8
:101D8000002631E0201DFFF7D5F90D4DE06A012155
:101D90002A698140114329610B4900EB800001EB66
:101DA0008000211DFFF7A2F9A06A38B141F2241288
:101DB000AFF64801AFF6340000F0BEFBE06A07E082
:101DC00034000020400300209800002004ED00E0D3
:101DD0002968C96A884207D9B4494FF08050086021
:101DE000BFF34F8FBFF36F8F00F00EFB3046A6E5B9
:101DF0002DE9F0471F46DDF8209092460D4604007D
:101E00004FF0010807D141F25712AFF6A001AFF62B
:101E10008C0000F091FB00F01CFB5020EFF31186CA
:101E200080F31188BFF34F8FBFF36F8F0FB1606CDA
:101E3000386094F84800022184F84810BAF1050F80
:101E40000ED2DFE80AF00D03060C0A00616C29438C
:101E500001E0616C491C616402E0022803D0656402
:101E6000012803D031E04FF000082EE0A06A38B11D
:101E700041F29E12AFF60C11AFF6F80000F05CFBD9
:101E80008B4D286B012778B104F118018948FFF7C1
:101E90002DF9E06A2968C96A884216D9B9F1000F9C
:101EA00012D0C9F8007010E0201DFFF743F9E06A76
:101EB0002A6907FA00F11143296100EB80017E488D
:101EC00000EB8100211DE2E7EF6186F311884046B7
:101ED000BDE8F0872DE9F0418846040007D141F2C2
:101EE000D212AFF67811AFF6641000F025FB00F0C7
:101EF000B0FA5020EFF3118780F31188BFF34F8FB2
:101F0000BFF36F8F94F84800022184F84810616C89
:101F1000491C616401282ED1A06A38B141F2F8123F
:101F2000AFF6B811AFF6A41000F006FB604D286BB9
:101F3000012678B104F118015E48FFF7D7F8E06A8E
:101F40002968C96A884216D9B8F1000F12D0C8F8BA
:101F5000006010E0201DFFF7EDF8E06A2A6906FA3C
:101F600000F111432961544900EB800001EB80002E
:101F7000211DE2E7EE6187F31188E0E410B558B166
:101F8000044600F027FA94F84800022807D00024FD
:101F900000F03AFA204610BD45480468F1E70020F9
:101FA00084F848000124F3E72DE9F0470E46DDE907
:101FB000098482466FF00301206B01EB8201084423
:101FC000089D20F007079946780705D040F22B328C
:101FD0003AA140A000F0B0FA00202218315C82F84B
:101FE0003410315C11B1401C1028F6D3002684F85F
:101FF0004360202D00D31F25201DE562FFF773F8F5
:1020000004F11800FFF76FF82461C5F12000646245
:10201000A061666484F848604A465146384600F03C
:102020007AF92060B8F1000F01D0C8F800404FE7FE
:102030001F48416B096829B1416BC968C968496883
:10204000816270474FF0FF31FAE710B50446006B2C
:1020500000F0D7F82046BDE8104000F0D2B870B5C7
:10206000144E134D14361CE0FFF738FA306820B1D7
:102070000024FFF7A5F9A4B901E00124F9E700F075
:10208000A9F9F068C468201DFFF754F8A868401E3D
:10209000A8606868401E686000F0B6F92046FFF747
:1020A000D4FF68680028DFD170BD000004ED00E0B7
:1020B0003400002040030020980000202E2E5C46B3
:1020C00072656552544F535C7372635C7461736BD9
:1020D000732E63004572726F723A25732C25640D5E
:1020E0000A00000030B5744900E011460A688242D7
:1020F000FBD34B685C18844203D1406818444860A5
:10210000084643681C18944209D16B4C103C246863
:10211000A24209D052681A4442600A6812680260FA
:10212000814200D0086030BD0460F9E72DE9F0413C
:1021300005460026FFF7D2F95F4F103F386808B90F
:1021400000F098F8F86805424ED1002D4CD00835C3
:1021500068070BD005F00700C0F1080005446807C8
:1021600004D0BF2255A15EA000F0E6F9002D3BD0BF
:102170007868854238D850490846046801E021460D
:1021800004466068A84202D220680028F7D1386867
:10219000B846844228D00E68206808606068083617
:1021A000401B10280ED96719780704D0EC2243A1F0
:1021B0004BA000F0C1F96068401B7860384665604C
:1021C000FFF790FF6168D8F804004246401AC8F84B
:1021D0000400D8F80830984200D29060D8F80C007B
:1021E00001430020C4E90001FFF7EAF8700705D0B9
:1021F0004FF4967231A13AA000F09EF93046BDE846
:10220000F08170B500282BD02B4DA0F10804103DB3
:102210006068E968084205D14FF4A07227A130A098
:1022200000F08AF9206828B140F2411223A12CA0C5
:1022300000F082F96068E968084211D02268002A3B
:102240000ED188436060FFF749F960686968084407
:1022500068602046FFF746FFBDE87040FFF7B0B862
:1022600070BD1548103840687047134810388068B2
:10227000704770471E484FF41041420706D0C01DFA
:102280001B4920F00700411AC1F510410A4A0023FA
:102290000144C2E900030839103A21F00701116036
:1022A0004B600B600B1AC0E9001393604FF00040C5
:1022B0005360D06070470000800000202E2E5C46E6
:1022C00072656552544F535C706F72745C4D656DEE
:1022D0004D616E675C686561705F342E630000005D
:1022E0004572726F723A25732C25640D0A00000046
:1022F0007C03002069484068401C04D0F42268A197
:1023000071A000F019F9502080F31188BFF34F8FAE
:10231000BFF36F8FFEE710B5031F4FF080741C6092
:102320001B1F21F001011960191F6B4B0B60143941
:1023300040380A6010BD69484FF47A710068B0FBFC
:10234000F1F14FF0E020491E416107210161704722
:102350001CB5634908780190FF20087008788DF853
:1023600000009DF800004D4A00F05000107007205A
:10237000906007E09068401E90609DF8000040006B
:102380008DF800009DF800000006F3D4107A0002DA
:1023900000F4E0609060019808705248016841F4D0
:1023A00070010160016841F070410160FFF7C3FFF7
:1023B00000205060FDF7DAFE00201CBD3748406861
:1023C000B0F57A7F05D04FF4B57235A13EA000F08C
:1023D000B3B87047502080F31188BFF34F8FBFF31D
:1023E0006F8F2E494868401C486001280BD13D483A
:1023F0001C38006810F0FF0F05D04FF4BD7228A103
:1024000031A000F099B8704710B5244C606828B925
:1024100040F2811222A12CA000F08EF86068401ECC
:10242000606001D180F3118810BD10B5502080F399
:102430001188BFF34F8FBFF36F8FFEF764FF20B19A
:1024400028494FF080501C390860002080F3118823
:1024500010BD10B5FDF7C0FE104C10280CD300F1D4
:10246000E02090F8F0032178884205D24FF42A72D8
:102470000BA115A000F060F81A4814380068A16894
:1024800000F4E060884207D9BDE810404FF42E7296
:1024900003A10DA000F050B810BD0000880000207E
:1024A0002E2E5C4672656552544F535C706F727489
:1024B0005C525644535C41524D5F434D335C706FE8
:1024C00072742E63000000004572726F723A2573B9
:1024D0002C25640D0A000000F522000800000020F1
:1024E00000E400E020ED00E030B50B46014600209E
:1024F0002022012409E021FA02F59D4205D303FAC6
:1025000002F5491B04FA02F52844151EA2F1010246
:10251000F1DC30BD064C074D06E0E06840F00103F9
:1025200094E8070098471034AC42F6D3FDF704FE58
:1025300030270008502700080FB4054B10B503A939
:10254000044A029800F018F810BC5DF814FB000073
:10255000351000089400002002E008C8121F08C1CE
:10256000002AFAD170477047002001E001C1121F14
:10257000002AFBD1704700002DE9FF4F8BB09A462F
:102580000F460546002606E025280BD052460D9939
:1025900090476D1C761C28780028F5D10FB0304686
:1025A000BDE8F08F0024A0460122604900E004430A
:1025B00015F8013F203B02FA03F00842F7D12878D2
:1025C0002E2817D115F8010F44F004042A280ED044
:1025D0006FF02F022878A0F1300109290AD808EB02
:1025E000880102EB410100EB01086D1CF2E757F88E
:1025F000048B6D1C287869283ED006DC0028CDD0DD
:1026000063280BD0642804D136E0732810D07528D5
:102610004BD052460D999047761C85E017F8040B75
:102620008DF8000000208DF80100E946012003E04C
:1026300057F8049B4FF0FF3061074FF0000401D4BE
:102640000AE0641C44450DDA8442FADB19F80410F0
:102650000029F6D106E0641C8442FCDB19F8041062
:102660000029F8D1264404E019F8010B52460D99CF
:102670009047641EF8D257E001CF4FF00A0B0028B4
:1026800002DA40422D2102E0210504D52B218DF8EC
:102690002410012103E0E10705D02021F7E70DF127
:1026A000200908910CE00021F9E701CF4FF00A0B57
:1026B000F9E75946FFF718FF01F1300209F8012D3B
:1026C0000028F6D1ADEB090000F1200B600701D422
:1026D0004FF00108D84502DDA8EB0B0000E0002018
:1026E0008046002406E009A85246005D0D999047F7
:1026F000641C761C08988442F5DB04E030205246C6
:102700000D999047761CB8F10001A8F10108F5DC9D
:1027100005E019F8010B52460D999047761CBBF164
:102720000001ABF1010BF4DC6D1C34E7092801005A
:1027300050270008000000209800000058250008DD
:10274000E827000898000020E896000068250008A7
:1027500000A24A040000000000000000010203047F
:10276000060708090204060800000000010203042D
:102770000102030406070809000000000000000031
:102780000000000000000000000000000000000049
:102790000000000000000000000000000000000039
:1027A0000000000000000000000000000000000029
:1027B0000000000000000000000000000000000019
:1027C0000000000000000000000000000000000009
:1027D000000000000000000000000000AAAAAAAA51
:0827E0000000000000000000F1
:0400000508000131BD
:00000001FF
