:020000040800F2
:1000000090970020E10100081D1B00081F1B00083D
:10001000211B0008231B0008251B0008000000000E
:10002000000000000000000000000000490100087E
:10003000271B0008000000008D010008291B000894
:10004000FB010008FB010008FB010008FB010008A0
:10005000FB010008FB010008FB010008FB01000890
:10006000FB010008FB010008FB010008FB01000880
:10007000FB010008FB010008FB010008FB01000870
:10008000FB010008FB010008FB010008FB01000860
:10009000FB010008FB010008FB010008FB01000850
:1000A000FB010008FB010008FB010008FB01000840
:1000B000FB010008FB010008FB010008FB01000830
:1000C000FB010008FB010008FB010008FB01000820
:1000D000FB010008FB010008FB010008FB01000810
:1000E000FB010008FB010008FB010008FB01000800
:1000F000FB010008FB010008FB010008FB010008F0
:10010000FB010008FB010008FB010008FB010008DF
:10011000FB010008FB0100083D1B0008FB01000873
:10012000FB010008FB010008FB010008FB010008BF
:10013000DFF810D003F0F4F900480047E918000890
:10014000AFF3008090970020224B19680868B0E850
:10015000F00F80F30988BFF36F8F4FF0000080F33A
:1001600011884EF00D0E7047000000000648006830
:10017000006880F3088862B661B6BFF34F8FBFF3A3
:100180006F8F00DF00BF00BF08ED00E0EFF30980D4
:10019000BFF36F8F0F4B1A6820E9F00F106008B59E
:1001A0004FF0500080F31188BFF34F8FBFF36F8F74
:1001B00002F002F94FF0000080F31188BDE808401A
:1001C00019680868B0E8F00F80F30988BFF36F8FF3
:1001D000704700BF3C000020EFF30580704700002F
:1001E0000648804706480047FEE7FEE7FEE7FEE7D1
:1001F000FEE7FEE7FEE7FEE7FEE7FEE7A5020008F2
:10020000310100080CB500224C48009201920168AF
:1002100041F4803101604FF4A063016801F40031C2
:1002200001910099491C0091019911B900999942D5
:10023000F3D10168890333D50121019140490A684E
:1002400042F010020A600A6822F003020A600A689B
:1002500042F002020A6041684160416841604168C1
:1002600041F480614160416821F47C114160416842
:1002700041F4E8114160016841F08071016001685A
:100280008901FCD5416821F003014160416841F0DA
:10029000020141604168C1F381010229FAD10CBD1C
:1002A00001920CBD254810B5016841F001010160C3
:1002B0004168244A114041600168234A11400160AD
:1002C000016821F480210160416821F4FE01416050
:1002D0004FF41F018160FFF795FF1C494FF000604C
:1002E000086010BD154A10B55068194B10F00C018C
:1002F000184803D0042901D0082901D0036012E076
:100300005168536801F470114FF0020413F4803FF8
:1003100004EB914102D053689B0301D50E4B00E0E2
:100320000B4B5943016051680A4AC1F30311121D76
:10033000515C0268CA40026010BD0000001002401B
:10034000002002400000FFF8FFFFF6FE08ED00E08D
:1003500000127A000000002000093D0028490843EF
:1003600028490860704730B50F23C278017801250D
:10037000F2B1244A126801F1E02102F4E062C2F510
:10038000E062120AC2F10404D3404278A2408478A9
:100390001C401443220181F80024007800F01F0162
:1003A0008D404009800000F1E020C0F8005130BDD0
:1003B00001F01F0085404809800000F1E020C0F8EE
:1003C000805130BD104A114001430E48001F0160AA
:1003D00070470C4A121D0029116801D0014300E04A
:1003E0008143116070474FF0E0210428086903D071
:1003F00020F004000861704740F00400FAE70000B4
:100400000000FA050CED00E080FFFF1F944910B5D5
:10041000884206D10121042000F053FA0021042073
:100420003BE09049884206D10121082000F049FABA
:100430000021082031E08C49884206D1012110209A
:1004400000F03FFA0021102027E08849884206D1B9
:100450000121202000F035FA002120201DE08449F0
:10046000884206D10121402000F02BFA00214020D3
:1004700013E08049884206D10121802000F021FA52
:100480000021802009E07C4988420AD1841501219D
:10049000204600F016FA00212046BDE8104000F08A
:1004A00010BA10BD10B50121084600F00AFA00216B
:1004B000BDE81040012000F004BAF0B5CC7800226D
:1004C00004F00F03E40601D58C7823430C784FF039
:1004D0000F0C14F0FF0F4FF0010E1BD005680E88B3
:1004E0000EFA02F42640A64210D196000CFA06F746
:1004F00025EA070703FA06F5CE783D43282E02D0F9
:10050000482E02D002E0446100E00461521C082A37
:10051000E5D305600A88FF2A1CD94468002202F14D
:1005200008060EFA06F50E882E40AE420ED1960051
:100530000CFA06F7BC4303FA06F7CE783C43282EA4
:1005400000D14561CE78482E00D10561521C082AA1
:10055000E5D34460F0BD4FF6FF7101800221817048
:100560000421C17070470246002092680A4200D000
:1005700001207047806880B2704702460020D26830
:100580000A4200D001207047C06880B27047016104
:1005900070474161704710B50B460446FFF7EDFF09
:1005A00008B1636110BD236110BD0AB101617047DC
:1005B00041617047C160704741F48032826181615E
:1005C00082618169806970472C4B10B51A684FF6BB
:1005D0008074224042EA00100843186010BD284988
:1005E000C8617047F0B5254C002801DAE36900E0E6
:1005F0006368450D2E0185B2C0F30157B540C0F3C5
:100600000342032F05D0C6020AD503269640B34302
:1006100007E023F07062636823F07063636002E0B8
:10062000AB4343F0706201B12A43002801DAE26172
:10063000F0BD6260F0BD10B58A0721F003040F49D8
:10064000120F21440F238C6893409C438C608B686D
:10065000904003438B6010BD0949C1F8DC0070472E
:1006600000080140000C014000100140001401404E
:1006700000180140001C0140002001400000014022
:1006800000002042A548016841F001010160416875
:10069000A34A114041600168A24A1140016001680B
:1006A00021F480210160416821F4FE0141604FF492
:1006B0001F018160704799490A6822F480320A60FC
:1006C0000A6822F480220A60B0F5803F07D0B0F5B6
:1006D000802F03D1086840F4A020086070470868A4
:1006E00040F48030F9E70346002059098B4A01297C
:1006F0000AD002290AD0516A03F01F020123934055
:100700000B4200D0012070471168F5E7116AF3E74A
:1007100018B500204FF4A06400903120FFF7E3FFEC
:100720000099491C0091A14201D00028F5D0312048
:10073000FFF7D9FF002800D0012018BD774A1168C3
:1007400021F0F80141EAC000106070477649086066
:100750007047724B5A68084322F47C121043586069
:1007600070477149086670476C4A516821F003016F
:100770000143516070476948406800F00C007047C1
:10078000664A516821F0F001014351607047634AA5
:10079000516821F4E0610143516070475F4A51683C
:1007A00021F4605141EAC000506070475B4A002963
:1007B000517A01D0014300E08143517270475A4998
:1007C000C1F8D8007047554A516821F440410143AF
:1007D000516070475149002281F8202081F8202083
:1007E000012802D0042802D1052081F8200070479A
:1007F0004E490860704749490A6A02430A627047D5
:100800004A4944390860704730B5444A5168484BFA
:1008100011F00C0103D0042901D0082901D0036094
:1008200012E05168536801F470114FF0020413F4A0
:10083000803F04EB914102D053689B0301D53D4BAF
:1008400000E03B4B5943016051680F2303EA11114B
:10085000394B5C5C0168E14041605468072505EA5A
:1008600014241C5D21FA04F48460546805EAD4243D
:100870001B5DD940C1605268032303EA92322E4BBC
:100880001B1F9A5CB1FBF2F1016130BD234A0029C4
:10089000516901D0014300E08143516170471F4A13
:1008A0000029916901D0014300E0814391617047C3
:1008B0001A4A0029D16901D0014300E08143D16186
:1008C0007047164A0029D16801D0014300E08143F6
:1008D000D1607047114A0029116901D0014300E03D
:1008E00081431161704711494039086070470E49D2
:1008F000C86470470949C87170470848416A41F0A7
:10090000807141627047054A0146002092680A42A0
:1009100000D00120704701498872704700100240E2
:100920000000FFF8FFFFF6FE000042428004424252
:1009300000127A0000093D0018000020F94910B5A6
:10094000884202D10121C41486E0B0F1804F09D061
:10095000F54988420DD101210220FFF7BBFF00219C
:10096000022064E001210846FFF7B4FF00210120C6
:100970005DE0EE49884206D101210420FFF7AAFF7D
:100980000021042053E0EA49884206D101210820D1
:10099000FFF7A0FF0021082049E0E649884206D180
:1009A00001211020FFF796FF002110203FE0E249CF
:1009B000884206D101212020FFF78CFF0021202052
:1009C00035E0DE49884202D10121441444E0DC498B
:1009D000884202D10121CC043EE0DA49884202D1AA
:1009E00001210C0538E0D849884202D101214C058B
:1009F00032E0D649884206D101214020FFF76AFF44
:100A00000021402013E0D249884206D101218020F4
:100A1000FFF760FF0021802009E0CE4988420AD11B
:100A2000841501212046FFF755FF00212046BDE82F
:100A30001040FFF74FBFC849884202D101210C0482
:100A40000AE0C649884202D101214C0404E0C449AD
:100A500088420AD101218C042046FFF732FF20464C
:100A6000BDE810400021FFF72CBF10BD30B5028853
:100A7000AC4CB24DA0420DD0A8420BD0B0F1804F8B
:100A800008D0A94B984205D0A84B984202D0A84B59
:100A9000984203D122F070034A881A43A54B98422A
:100AA00006D0A54B984203D022F44073CA881A435B
:100AB00002808A8882850A880285A0420AD0A842DC
:100AC00008D0A54A904205D0A44A904202D0A44A38
:100AD000904201D1097A01860121818230BD30B571
:100AE000028C22F001020284028C8388048B22F0A3
:100AF000020224F073050C882C430D8915434A88A3
:100B00002A43884DA8420BD08C4DA84208D0924D64
:100B1000A84205D0914DA84202D0914DA8420DD1D6
:100B200022F008054A8923F440732A4322F0040581
:100B30008A882A438D891D43CB892B438380048374
:100B4000C9888186028430BD70B5028C22F0100203
:100B50000284028C8388048B0D8824F4E6464FF6C9
:100B6000FF7404EA052535430E8922F0200204EAC9
:100B7000061616434A8804EA02123243694EB0420E
:100B800002D06E4EB04215D122F080064A8923F47D
:100B9000406304EA0212324322F040068A8804EAE3
:100BA000021232438E8904EA86061E43CB8904EA88
:100BB0008303334383800583C9880187028470BD22
:100BC00070B5028C22F480720284028C8388848B3C
:100BD0000D8824F0730425430E894FF6FF7422F428
:100BE000007204EA062616434A8804EA02223243C7
:100BF0004C4EB04202D0514EB04215D122F40066A4
:100C00004A8923F4405304EA0222324322F48066E4
:100C10008A8804EA022232438E8904EA06161E43B9
:100C2000CB8904EA0313334383808583C988818792
:100C3000028470BD70B5028C22F480520284058C4F
:100C40008288838B0C8823F4E6464FF6FF7303EA11
:100C50000424344325F400560D8903EA0535354351
:100C60004E8803EA06362E432E4DA84202D0334D5D
:100C7000A84205D122F480458A8903EA82122A43D8
:100C800082808483C988A0F84010068470BD828B5E
:100C900022F440628283828B4FF6FF7303EA0121C4
:100CA0000A4382837047828B22F00C028283828BFC
:100CB0000A4382837047028B22F440620283028BD4
:100CC0004FF6FF7303EA01210A4302837047F0B530
:100CD000048C24F010040484078B048C4FF6FF75F9
:100CE00027F4734705EA03333B4305EA02221A431C
:100CF0000C4B05EA011698420ED0104B98420BD0CF
:100D0000B0F1804F08D0084B984205D0074B98426D
:100D100002D0074B984225D124F02001314341F005
:100D2000100124E0002C01400004004000080040B5
:100D3000000C00400010004000140040003401404E
:100D4000004C014000500140005401400018004098
:100D5000001C0040002000400040014000440140D1
:100D60000048014024F0A0030B4343F0100102832C
:100D70000184F0BD028B22F00C020283028B0A4335
:100D80000283704770B5048C24F001040484058B41
:100D9000048C4FF6FF7606EA0313134325F0F305A0
:100DA000F84A2B4390420ED0F74A90420BD0B0F154
:100DB000804F08D0F54A904205D0F54A904202D0C3
:100DC000F44A904202D124F0020201E024F00A0227
:100DD0000A4342F001010383018470BD2DE9F84FFD
:100DE0000D4604460888E74FDFF89CC3DFF89C8374
:100DF000DFF89C934988AA882B894FF0804A48B332
:100E000004282FD04FF6FF760828934632D0208C46
:100E10009E4620F480502084A38B208C06EA013269
:100E2000009223F4734306EA0B221A4306EA0E33B8
:100E30001343BC420AD0644508D0544506D044450B
:100E400004D04C4502D0D34A944242D120F4005001
:100E5000009940E02046FFF795FFE9882046BDE86D
:100E6000F84F87E72046FFF732FFE9882046BDE8C4
:100E7000F84F20E7208C20F480702084B4F81CE028
:100E8000208C06EA031306EA01222EF0F30E43EA51
:100E90000B0343EA0E030092BC420AD0644508D01B
:100EA000544506D0444504D04C4502D0B94A94423A
:100EB00003D120F40070009901E020F42060084381
:100EC00040F48070A3832084E9882046BDE8F84F71
:100ED000E9E620F40240084340F48050A3832084D4
:100EE000E9882046BDE8F84FD1E62DE9F0410C46EF
:100EF000002649880746012501B90226A288012A51
:100F000000D10225208823890028384610D0FFF719
:100F1000DEFEE1883846FFF7CEFE23892A463146B9
:100F20003846FFF72FFFE1883846BDE8F04121E75A
:100F3000FFF728FFE1883846FFF71CFF23892A4680
:100F400031463846FFF7C3FEE1883846BDE8F04138
:100F5000B1E610B50A884B88CC881A438B882343A6
:100F60001A430B891A434B8989891A430A43A0F80B
:100F7000442010BD4FF6FF71818000210180C180A7
:100F80004180017270470021018041808180C180D1
:100F9000018141818181C1817047002101804180AF
:100FA00001228280C180018170470021018041803F
:100FB0008180C18001814181818170470029018840
:100FC00002D041F0010101E021F0010101807047F0
:100FD000002930F8441F02D041F4004101E0C1F380
:100FE0000E0101807047002A828901D00A4300E087
:100FF0008A4382817047818270471143A0F848106C
:101000007047002A828901D00A4300E08A43828126
:101010007047018921F0070101817047028922F0A0
:1010200070020A430281704700B50346FFF7F6FFDE
:10103000188940F00700188100BD70B516460D46AE
:10104000602904464FF0010231460AD0FFF79AFEAC
:1010500029462046FFF7E2FF208940F00700208163
:1010600070BDFFF734FEF3E730B504894FF6FF7526
:1010700005EA03231343E4B20B432343038130BD4A
:1010800010B50446FFF7F0FF208940F0770020817B
:1010900010BD10B50446FFF7E7FF208940F48040FB
:1010A000208110BD018582827047028822F0700283
:1010B0000A430280704770B50589048B068C25F0C1
:1010C00007050D434FF6FC410C4040F201110C4363
:1010D0004FF6FF7101EA031126F022061143314356
:1010E00005810483018470BD028B22F070020A43E3
:1010F00002837047028B4FF6FF7322F4E04203EA4B
:101100000121114301837047828B22F070020A4350
:1011100082837047828B4FF6FF7322F4E04203EA2A
:1011200001211143818370470029018802D041F0D9
:10113000800101E021F08001018070470029818851
:1011400002D041F0040101E021F0040181807047E8
:101150000029818802D041F0080101E021F0080156
:10116000818070470029818802D041F0010101E0AF
:1011700021F0010181807047028B22F008020A43AE
:1011800002837047002C01400034014000040040FD
:1011900000080040000C0040028B4FF6FF7322F461
:1011A000006203EA012111430183EAE7828B22F006
:1011B00008020A438283E4E7828B4FF6FF7322F42E
:1011C000006203EA012111438183DAE7028B22F0F6
:1011D00004020A430283D4E7028B4FF6FF7322F422
:1011E000806203EA012111430183CAE7828B22F066
:1011F00004020A438283C4E7828B4FF6FF7322F412
:10120000806203EA012111438183BAE7028B22F055
:1012100080020A430283B4E7028B4FF6FF73C2F3E6
:101220000E0203EA012111430183AAE7828B22F017
:1012300080020A438283A4E7828B4FF6FF73C2F3D6
:101240000E0203EA0121114381839AE7028C22F006
:1012500002020A43028494E7028C22F008020A4345
:1012600002848EE7028C4FF6FF7322F0200203EA1D
:1012700001111143018484E7028C4FF6FF7322F0C1
:10128000800203EA0111114301847AE7028C4FF6D0
:10129000FF7322F4007203EA01211143018470E715
:1012A000028C4FF6FF7322F4006203EA012111431E
:1012B000018466E7028C4FF6FF7322F4005203EAC2
:1012C0000131114301845CE710B50123048C8B408C
:1012D0009C430484038C8A401343038410BD10B5DF
:1012E0000423048C8B409C430484038C8A40134366
:1012F000038410BD30B50124058C00F118038C4027
:10130000A543058489B108290FD0091FC1F34E00F8
:101310001844016821F4E041016001684FF6FF7351
:1013200003EA02221143016030BD03EB5100016862
:1013300021F0700101600168F4E70029018802D002
:1013400041F0020101E021F00201018019E70029CA
:10135000018802D041F0040101E021F00401018084
:101360000FE70029818802D041F0800101E021F0DF
:101370008001818005E7028822F00802028002884D
:101380000A430280FDE6828822F070028280828811
:101390000A438280F5E6028922F00702028102896F
:1013A0000A430281EDE6028922F08002028102896D
:1013B0000A430281E5E68184E3E68185E1E68186F0
:1013C000DFE60187DDE68187DBE6A0F84010D8E69E
:1013D000028822F44072028002880A430280D0E62A
:1013E000808ECEE6008FCCE6808FCAE6B0F8400053
:1013F000C7E6808CC5E6008DC3E602460020128A4F
:101400000A4200D00120BCE6C9430182B9E6024687
:101410000020138A92890B4202EA010202D0002ABC
:1014200000D00120ADE6C9430182AAE6C44910B547
:1014300088420AD101218C032046FFF742FA204658
:10144000BDE810400021FFF73CBABE49884202D1F6
:1014500001214C0410E0BC49884202D101218C04D6
:101460000AE0BA49884202D10121CC0404E0B8491B
:1014700088420AD101210C052046FFF72BFA2046AD
:10148000BDE810400021FFF725BA10BD30B5044675
:10149000008A85B00D464CF6FF710840E98801438B
:1014A0002182A0894EF6F3110840A9882A891143A8
:1014B0006A8902431143A181A08A4FF6FF41084087
:1014C000A9890143A1826846FFF79EF99C4884429E
:1014D00001D1039800E00298A189090400EBC00142
:1014E00001EB0010296801D5490000E08900B0FB3C
:1014F000F1F06422B0FBF2F109010B096FF018055D
:101500006B4300EB8300A3891D044FF0320306D523
:1015100003EBC000B0FBF2F000F0070005E003EBC6
:101520000010B0FBF2F000F00F000843208105B07E
:1015300030BD4FF41651016000218180C1800181CE
:101540000C2242818181704710B5028A4FF2FF035D
:101550001A400B884C8823438C88C9880C4323434A
:101560001343038210BD0021018041808180C1802E
:1015700070470029818902D041F4005101E021F433
:1015800000518181704710B5C1F3421301F01F046F
:101590000121A140012B07D0022B07D01430002AD3
:1015A000026805D00A4304E00C30F8E71030F6E793
:1015B0008A43026010BD002A828A01D00A4300E0FB
:1015C0008A4382827047028A22F00F020282028AD4
:1015D0000A4302827047828922F4006282818289F2
:1015E0000A43828170470029818902D041F00201BB
:1015F00001E021F0020181817047028A22F020027D
:101600000282028A0A43028270470029018A02D0BC
:1016100041F4804101E021F4804101827047C1F32F
:101620000801818070478088C0F308007047818975
:1016300041F0010181817047028BD2B20283028B9B
:1016400042EA012101837047028B02F47F42028348
:10165000028B0A43028370470029818A02D041F03D
:10166000200101E021F02001818270470029818A58
:1016700002D041F0100101E021F010018182704799
:101680000029818A02D041F0080101E021F008011F
:10169000818270470029818902D041F4004101E034
:1016A000C1F30E01818170470029818A02D041F483
:1016B000006101E021F4006181827047828A22F09A
:1016C00004028282828A0A43828270470029818AC8
:1016D00002D041F0020101E021F002018182704755
:1016E0000246002012880A4200D001207047C943F8
:1016F0000180704770B501F01F0501260024C1F379
:10170000421306FA05F2012B0FD0022B0FD0838A69
:101710004FEA11210088134206FA01F600EA06009A
:1017200001D000B10124204670BD8389F0E7038A0F
:10173000EEE70A0A01219140C94301807047000089
:10174000003801400044004000480040004C004088
:101750000050004038B501210820FFF7A0F82020F4
:10176000ADF8000010208DF803000320104C8DF818
:10177000020069462046FEF7A0FE0121ADF80010E8
:1017800069462046FEF799FE0221ADF80010694631
:101790002046FEF792FE20212046FEF7F8FE0121AA
:1017A0002046FEF7F4FE02212046FEF7F0FE38BD8B
:1017B000000C0140E4B04FF4C8744FF4FA752146B0
:1017C000684601F07CFE684601F050F957A001F030
:1017D000B9FE62A001F0B6FE69466BA001F0B2FE50
:1017E00052A001F0AFFE2146684601F068FE68464F
:1017F00001F08EF965A001F0A5FE694662A001F036
:10180000A1FE69A001F09EFE284600F00DFDD6E77E
:10181000724D4FF47A7401212846FEF7BAFE204635
:1018200000F002FD6EA001F08DFE01212846FEF7BA
:10183000AEFE204600F0F8FC71A001F083FEEAE75E
:10184000664D4FF4FA7420212846FEF7A2FE20468A
:1018500000F0EAFC73A001F075FE20212846FEF797
:1018600096FE204600F0E0FC76A001F06BFEEAE771
:101870001CB501F093FD02207B490402CDE9000173
:101880000023224679A17C4800F00AFB012802D1FE
:101890007AA001F057FE74490320091DCDE900012B
:1018A000002322467BA17E4800F0FAFA012802D1EB
:1018B0007CA001F047FE6C4904200831CDE900010D
:1018C000002322467DA1804800F0EAFA012802D1D7
:1018D0007EA001F037FE6448001F006800F00BFB9B
:1018E000BDE81C4001F074BD1CB54FF44070FEF71C
:1018F00035FDFFF72FFF00F039F900F0F9F97AA074
:1019000001F020FE58490120091FCDE900014202E3
:1019100000237DA1804800F0C3FA012802D04FF0D7
:10192000FF301CBD00F06CFEFEE700002D2D2D2DBC
:101930002D2D2D2D2D2D2D2D2D2D2D2D2D2D2D2DD7
:101940002D2D2D2D2D2D2D2D2D2D2D2D2D2D2D2DC7
:101950002D2D2D2D2D2D2D2D2D0D0A00C8CECEF186
:10196000C3FB20C8CECEF1D7B4CCAC20D3C5CFC8F2
:10197000BCB620CAA3D3E0D5BB20C8CECEF1D0F2EE
:10198000BAC50D0A0000000025730000C8CECEF1D4
:10199000C3FB20D4CBD0D0BCC6CAFD20CAB9D3C3A8
:1019A000C2CA0D0A000000002D2D2D2D2D2D2D2D2C
:1019B0002D2D2D2D2D2D2D2D2D2D2D2D2D2D2D2D57
:1019C0002D2D2D2D2D2D2D2D2D2D2D2D2D2D2D2D47
:1019D0002D2D2D2D2D0D0A0A00000000000C0140B8
:1019E0004C4544325F5461736B2052756E6E696E64
:1019F000672E2E2E2C204C4544325F4F4E0D0A0090
:101A00004C4544325F5461736B2052756E6E696E43
:101A1000672E2E2E2C204C4544325F4F46460D0A31
:101A2000000000004C4544315F5461736B205275D7
:101A30006E6E696E672E2E2E2C204C4544315F4F02
:101A40004E0D0A004C4544315F5461736B20527552
:101A50006E6E696E672E2E2E2C204C4544315F4FE2
:101A600046460D0A000000002C0000204C45443181
:101A70005F5461736B000000411800084C4544310D
:101A8000C8CECEF1B4B4BDA8B3C9B9A6A1A30D0AFE
:101A9000000000004C4544325F5461736B0000004D
:101AA000111800084C454432C8CECEF1B4B4BDA8DC
:101AB000B3C9B9A6A1A30D0A000000004350555FA9
:101AC0005461736B00000000B5170008435055CAFD
:101AD000B9D3C3C2CAC8CECEF1B4B4BDA8B3C9B9D4
:101AE000A6A1A30D0A0000004672656552544F532B
:101AF00020435055CAB9D3C3C2CACDB3BCC644658E
:101B00006D6F0D0A000000004170705461736B43EB
:101B10007265617465000000711800087047FEE787
:101B2000FEE7FEE7FEE7704710B500F08CFF0128E6
:101B300003D0BDE8104001F05CBC10BD10B5094CED
:101B400001212046FFF763FC002809D006490A68F6
:101B5000521C0A602046BDE810400121FFF763BC1B
:101B600010BD0000001000403800002010B586B005
:101B700001210420FEF793FE01218803FEF78FFE6A
:101B80004FF40070ADF8100018208DF813000320FA
:101B9000554C8DF8120004A92046FEF78EFC211545
:101BA000ADF8101004218DF8131004A92046FEF79B
:101BB00084FC4FF4E13000900020ADF80400ADF853
:101BC0000600ADF80800ADF80C000C20474CADF84D
:101BD0000A0069462046FFF759FC4FF4A060FEF763
:101BE000BDFB25208DF8140001218DF815108DF80E
:101BF00016108DF8171005A8FEF7B5FB012240F26C
:101C000025512046FFF7BFFC01212046FFF7B1FC1C
:101C100006B010BD10B50446FFF701FD8021204637
:101C2000FFF75EFD0028F9D010BD2DE9F041154603
:101C30000E460746002405E0315D3846FFF7EAFF0F
:101C4000641CE4B2AC42F7D340213846FFF748FDAC
:101C50000028F9D0BDE8F08170B50D460646002495
:101C60003046295DFFF7D6FF641C285D0028F7D1B8
:101C700040213046FFF734FD0028F9D070BD70B523
:101C80000446080ACDB201462046FFF7C8FC802171
:101C90002046FFF725FD0028F9D029462046FFF70A
:101CA000BEFC80212046FFF71BFD0028F9D070BD47
:101CB00070B50E4D0446C1B22846FFF7B0FC802136
:101CC0002846FFF70DFD0028F9D0204670BD10B55D
:101CD000064C20212046FFF703FD0028F9D02046BE
:101CE000BDE81040FFF79FBC0008014000380140EC
:101CF0003EB54FF44070FEF731FB36208DF8000002
:101D000005208DF8010000208DF8020001208DF8DB
:101D100003006846FEF727FB01211020FEF7C8FDEF
:101D200040F2E730ADF8040047200A4CADF800005F
:101D300069462046FEF79AFE01212046FFF764FB24
:101D4000012211462046FFF74EF901212046FFF7F8
:101D500035F93EBD0010004000F108014FF0FF32A0
:101D6000C0E90112C16001610021016070470021DA
:101D70000161704742684A6093688B60936859605C
:101D8000916008610168491C0160704730B50C68BA
:101D9000621C02D000F1080202E0026904E01A4667
:101DA00053681D68A542FAD953684B6099608A60F0
:101DB000516008610168491C016030BDD0E9013201
:101DC00001699A60D0E901235A604A68824201D1D0
:101DD00082684A60002202610868401E08607047FD
:101DE0002DE9F041054601F0D9FAFE4EB068401CDD
:101DF000B0603068FC4F10B1706930B32BE03560D3
:101E0000B068012827D1002404EB840007EB800090
:101E1000FFF7A2FF641C202CF6D3F448FFF79CFFC9
:101E2000F2481430FFF798FFF0482830FFF794FF8E
:101E3000EE483C30FFF790FFEC485030FFF78CFF46
:101E4000EA48F0631430306405E03068E96AC06A3B
:101E5000884200D83560706A0121401C7062686455
:101E6000E86A326981401143316100EB800007EB81
:101E70008000291DFFF77EFF01F0AAFA7069002893
:101E80000CD03068E96AC06A884207D2D8494FF05E
:101E900080500860BFF34F8FBFF36F8FBDE8F081B4
:101EA0002DE9FF5F8346DDE90E87994616468A468F
:101EB000900001F01FF905001AD0582001F01AF91E
:101EC000040012D025630021CDE90241CDE900874D
:101ED0004B4632465146584601F035F82046FFF74A
:101EE0007FFF012004B0BDE8F09F284601F06DF9A6
:101EF0004FF0FF30F6E770B5044601F04FFAB94DE8
:101F000004B92C68201DFFF759FF58B9E06AB64A9A
:101F100000EB800152F8211021B90121814028698C
:101F200088432861A06A18B104F11800FFF746FF42
:101F3000686A401C68622868844208D1AB48211D49
:101F40003C30FFF717FF6868401C686007E0A8682E
:101F5000401EA860204601F04EF801F03FF801F065
:101F600037FA6869002812D0286884420FD1286B9C
:101F700028B140F265429FA1A4A001F0E3FA9C4978
:101F80004FF080500860BFF34F8FBFF36F8F70BD6D
:101F90002DE9F041934F0026386B38B1B869401CE9
:101FA000B861F86900B10126304677E7FD686D1C1D
:101FB000FD6011D1F86B006828B140F6D9128DA1EF
:101FC00092A001F0BFFAF86B396CF9633864386A93
:101FD000401C386201F002F8B86ADFF80C828542D2
:101FE00009D3F86B006880B1F86BC068C46860689A
:101FF00085420DD2B8623868C06A00EB800158F89B
:1020000021000128CDD90126CBE74FF0FF30F1E7C1
:10201000201DFFF7D3FEA06A18B104F11800FFF7E6
:10202000CDFEE06A01213A6981401143396100EB3C
:10203000800108EB8100211DFFF79CFEE06A3968F2
:10204000C96A8842CDD30126CBE72DE9F047654D1B
:1020500000242746286B28B94FF4FD6265A16BA0C8
:1020600001F070FA01F09AF9286B401E2863286B82
:10207000F0BBA8685D4928310126C8B3DFF8689134
:102080008846D8F80010E9B1D8F80C00C46804F10B
:102090001800FFF793FE201DFFF790FEE06A2A6903
:1020A00006FA00F11143296100EB800109EB810080
:1020B000211DFFF75FFEE06A2968C96A8842E0D304
:1020C000EE61DEE70CB100F089FFAC693CB1FFF7CF
:1020D0005FFF00B1EE61641EF9D10020A861E869DC
:1020E00030B14349012738070860BFF34F8F00E044
:1020F00001E0BFF36F8F01F06BF93846BDE8F08760
:102100002DE9F041374E0F460446F5683068001D52
:10211000FFF754FE38B9306890F82C100120884041
:10212000316981433161601C08D13FB13168BDE83C
:10213000F0412E485030091DFFF71CBE30682C447A
:10214000AC424460316805D2306CBDE8F041091DF5
:10215000FFF71CBEF06B091DFFF718FEB06A844242
:1021600000D2B4629AE61F48016B491C01637047B4
:102170002DE9F0410E4605004FF0000405D140F274
:1021800079421CA121A001F0DDF92EB940F27A427A
:1021900018A11EA001F0D6F9124F386B28B140F2F9
:1021A0007B4214A119A001F0CDF9FFF7DCFFFA681A
:1021B00028688119904202D9884202D804E08842F6
:1021C00001D8914200D9012429601CB1881A00214C
:1021D000FFF796FFFFF739FF002824D14FF080501A
:1021E00003491BE03C000020A80000202803002039
:1021F00004ED00E02E2E5C4672656552544F535C30
:102200007372635C7461736B732E63004572726FDB
:10221000723A25732C25640D0A0000000860BFF394
:102220004F8FBFF36F8F39E610B5040014D0FE490D
:10223000096B39B140F2CF42AFF24801AFF234003E
:1022400001F080F9FFF78FFF00212046FFF758FFCC
:10225000FFF7FBFE002807D1F4494FF080500860DB
:10226000BFF34F8FBFF36F8F10BD70B5050007D15F
:1022700040F2FB42AFF28401AFF2700001F062F96C
:10228000E94E3068854201D1002070BD01F086F82A
:102290006C6901F09DF8F06B844202D0306C84428E
:1022A00001D1022070BDE248844204D1A86A00280E
:1022B000F7D1032070BDDE481438844202D00CB13F
:1022C000012070BD042070BD10B5044601F066F811
:1022D0000CB9D5480468E46A01F07AF8204610BDCC
:1022E00010B5044601F099F85020EFF3118180F306
:1022F0001188BFF34F8FBFF36F8F0CB9CA480468C2
:10230000E06A81F3118810BD2DE9F04100260D46E9
:102310000446202908D34FF4B062AFF22811AFF27F
:10232000141001F00FF91F2501F038F8BE4F04B961
:102330003C68E06AA8423BD03968854206D98C42A5
:1023400007D03968C96AA94202D902E08C4200D19B
:1023500001268046E562A069002802DBC5F1200065
:10236000A061B44D08EB8800616905EB80008142F3
:1023700015D1201DFFF722FD012120B93A6901FA8C
:1023800008F082433A61E06A3A6981401143396159
:1023900000EB800005EB8000211DFFF7EBFC3EB158
:1023A000A2494FF080500860BFF34F8FBFF36F8F8B
:1023B000BDE8F04101F00CB870B59B4C206B10B13A
:1023C0000120E06170BD0020E0619B480068A063CF
:1023D000626B904204D92168821ACB6C1A44CA6499
:1023E00060632069934EB0FA80F0C0F11F0000EBEB
:1023F000800556F8250038B940F6F622AFF20C21D8
:10240000AFF2F81001F09EF806EB850000F108022B
:10241000416849684160914201D149684160C8689A
:10242000206070BD70B5044600F0B8FF7E4D04B961
:102430002C68201DFFF7C2FC58B9E06A7D4A00EB0A
:10244000800152F8211021B9012181402869884377
:102450002861A06A18B104F11800FFF7AFFC211D34
:102460007348FFF787FC00F0B3FF686928B100F0FC
:1024700095FF00F0B3FD00F0ABFF2868844213D154
:10248000686990B1286B38B140F25762AFF29C2175
:10249000AFF2882001F056F864494FF08050086090
:1024A000BFF34F8FBFF36F8F70BD6148A96800689D
:1024B000884202D10020286070BDBDE870407BE7F3
:1024C00070B50025040007D140F28162AFF2DC2133
:1024D000AFF2C82001F036F855496069884205D14D
:1024E000A06A2839884201D000B90125284670BD6C
:1024F00070B504002BD04C4D2868844231D000F0D8
:102500004DFF2046FFF7DCFFE8B1201DFFF756FC2A
:10251000E06A01212A69814011432961454900EBA4
:10252000800001EB8000211DFFF724FCE06A296890
:10253000C96A884207D33D494FF080500860BFF315
:102540004F8FBFF36F8FBDE8704000F041BF40F286
:10255000AB62AFF26031AFF24C30BDE8704000F0DA
:10256000F1BF70BD2DE9F0410026040007D140F213
:10257000E262AFF28031AFF26C3000F0E3FF00F0C6
:102580004CFF5020EFF3118580F31188BFF34F8F7C
:10259000BFF36F8F2046FFF793FFF0B1224F386BE8
:1025A00020B1234804F11801283814E0E06A3968A2
:1025B000C96A884200D30126201DFFF7FFFBE06AAD
:1025C00001213A698140114339611A4900EB8000C9
:1025D00001EB8000211DFFF7CDFB85F3118830460C
:1025E0005CE4144E4FF08054104D00F00EFD306846
:1025F0000128FAD92C60BFF34F8FBFF36F8FF4E738
:102600001CB5094800242C30CDE900402346802227
:102610000AA10C48FFF744FC01281ED0401C30D111
:1026200040F2847210E000003C00002004ED00E065
:1026300078030020A80000203800002049444C45C1
:1026400000000000E3250008AFF25841AFF244401B
:1026500002B0BDE8104000F075BF502080F3118833
:10266000BFF34F8FBFF36F8FFA484FF0FF31816296
:1026700001214161C460F8480460BDE81C4000F0DD
:102680004BBE1CBD502080F31188BFF34F8FBFF3AA
:102690006F8FF0490020486100F074BEED48C068BB
:1026A000704710B500F0B9FEEA48C06810BDE948AF
:1026B0008068704710B510B104461CB10AE0E548C7
:1026C0000468FAE740F68C02AFF2D841AFF2C4409A
:1026D00000F038FF04F1340010BD2DE9F0471E462C
:1026E00091460C4607000ED0054605F13400C4E9BA
:1026F0000050E86A2061286BE061686CA060207B74
:10270000032803D00AE0D3480568EEE7FFF72BFD66
:10271000A86A08B102202073FFF797FC4FF0000869
:10272000C4F81480E86CA061052E01D0267303E084
:102730003846FFF79AFD2073B9F1000F0AD0002147
:10274000286B01E0401C491C0278A52AFAD08808B1
:102750002084D3E4A4F82080D0E42DE9F04781461A
:10276000086892460C460025F8B1486801F1080651
:1027700040684860B04201D140684860D0F80C80A1
:10278000606842686260B24201D15168616060680D
:1027900005EBC50109EB8101C768534601223846A4
:1027A000FFF79BFF6D1C4745EAD12846A6E42DE9BB
:1027B000F04717460A46064600242025FFF7D3FCBB
:1027C000DFF89082D8F8080082423BD3DFF88C9281
:1027D0006D1E05EB850104EBC40009EB810106EBDE
:1027E00080000122FFF7B9FF0444002DF0D104EB73
:1027F000C40006EB800002224546D8F83C10FFF7E3
:10280000ACFF044404EBC40006EB80000222296CF8
:10281000FFF7A3FF044404EBC40006EB800004228E
:102820008F49FFF79AFF04448D4904EBC40006EB7F
:10283000800003221431FFF790FF044417B186484B
:1028400000683860FFF701FC204657E470B50D467C
:10285000040007D140F60632AFF26861AFF254606F
:1028600000F070FE7B48016820461831FFF78EFAB1
:102870002846BDE87040012142E42DE9F0411746A9
:102880000E46050007D140F61732AFF29861AFF25D
:10289000846000F057FE6F4C206B38B940F61B3255
:1028A000AFF2B061AFF29C6000F04CFE216846F0E0
:1028B00000408861216828461831FFF75BFA3846E6
:1028C000BDE8F04101211BE42DE9F041C068C46876
:1028D0003CB940F66132AFF2E461AFF2D06000F093
:1028E00031FE04F118000746FFF768FA594D286BCE
:1028F000012660B15A4839461438FFF73BFAE06ABE
:102900002968C96A884212D90120EE612AE4201D93
:10291000FFF754FAE06A2A6906FA00F111432961C7
:102920004E4900EB800001EB8000211DE5E700200F
:1029300018E470B5474D06460C46286B38B940F68A
:102940009932AFF25071AFF23C7000F0FBFD44F0F1
:1029500000403060F4683CB940F6A132AFF26C71CF
:10296000AFF2587000F0EEFD3046FFF727FA201D59
:10297000FFF724FAE06A01262A6906FA00F11143FA
:102980002961364900EB800001EB8000211DFFF733
:10299000F1F9E06A2968C96A884202D90120EE612A
:1029A00070BD002070BD10B5040007D140F6C132E3
:1029B000AFF2C071AFF2AC7000F0C4FD2548016AFF
:1029C0002160C068606010BD70B50D46040007D17D
:1029D00040F6CB32AFF2E471AFF2D07000F0B2FD4E
:1029E0003DB940F6CC32AFF2F471AFF2E07000F0D6
:1029F000A9FD00F0D3FC174AD06829684B1C0FD002
:102A00002368126A934202D0626882420AD96268DD
:102A1000801A884206D2081A28602046FFF7C3FFB2
:102A2000002400E0012400F0D3FC204670BD0949D9
:102A30000120C8617047002800D0806C70470028D2
:102A400000D0816470470348416959B1006B58B1A7
:102A5000002070473C00002038000020A800002023
:102A6000640300200120F4E70220F2E77FB5002490
:102A700006460470FE4881680291806800EBC00041
:102A8000800000F037FB050041D000220299FFF7DB
:102A90008EFECDE90204204628E000EBC00005EBE5
:102AA0008000017B01292AD002292AD003292AD0BB
:102AB00004292AD000244168304600F0CCFA0646AA
:102AC000039800EBC00005EB80008268018CCDE923
:102AD000001203692246E7A1304600F043FD30466C
:102AE00000F0F8FC06440398401C039002998842C9
:102AF000D3D304B02846BDE8704000F066BB522432
:102B0000D9E74224D7E75324D5E74424D3E77FBD50
:102B1000FEB5002506460570D5488168019180689C
:102B200000EBC000800000F0E5FA040038D002AAF3
:102B30000199FFF73CFE019002986421B0FBF1F08F
:102B4000029050B32846009524E000EBC00004EB4F
:102B50008000029A8169B1FBF2F54168304600F0CD
:102B60007AFA0646009800EBC00004EB8000826908
:102B70002DB12B46C3A1304600F0F4FC03E0C4A104
:102B8000304600F0EFFC304600F0A4FC064400980C
:102B9000401C009001998842D7D3204600F015FBD5
:102BA000FEBDB34908680A688069D26A0968C2F143
:102BB00020028A614DE770B50C46064600F0EEFB38
:102BC000AB4D2868006D80B92968012081F8540058
:102BD0005CB101212046FFF793FAB0494FF08050D5
:102BE0000860BFF34F8FBFF36F8F00F0F1FB00F071
:102BF000D5FB2868046D002034B116B1296808653A
:102C000002E02A68611E1165296881F8540000F00D
:102C1000DFFB204670BD2DE9F0411E461546884673
:102C2000074600F0BBFB924C206890F85400022845
:102C300014D02068016DB94301652168012081F835
:102C400054005EB101213046FFF75AFA93494FF024
:102C500080500860BFF34F8FBFF36F8F00F0B8FB59
:102C600000F09CFB15B12068006D2860206890F88A
:102C7000540001280DD02068016D21EA080101658A
:102C800001252168002081F8540000F0A1FB2846AE
:102C9000A6E40025F5E72DE9F0411F4690460D46D4
:102CA00004004FF0010607D141F2FD02AFF6BC214E
:102CB000AFF6A82000F046FC00F070FB0FB1206DCD
:102CC000386094F85400022184F85410B8F1050FCC
:102CD0000ED2DFE808F00D03060C0A00216D29432F
:102CE00001E0216D491C216502E0022803D0256521
:102CF000012802D02AE0002628E0201DFFF75EF818
:102D00005B4DE06A01212A698140114329616449D0
:102D100000EB800001EB8000211DFFF72BF8A06A7B
:102D200038B141F23512AFF63431AFF6203000F051
:102D300009FCE06A2968C96A884207D957494FF0F7
:102D400080500860BFF34F8FBFF36F8F00F040FBE0
:102D5000304645E42DE9F0471F46DDF820909246C5
:102D60000D4604004FF0010807D141F26812AFF69A
:102D70007C31AFF6683000F0E5FB00F04EFB5020F0
:102D8000EFF3118680F31188BFF34F8FBFF36F8F7E
:102D90000FB1206D386094F85400022184F854106B
:102DA000BAF1050F0ED2DFE80AF00D03060C0A0097
:102DB000216D294301E0216D491C216502E00228B3
:102DC00003D02565012803D031E04FF000082EE044
:102DD000A06A38B141F2AF12AFF6E831AFF6D430A5
:102DE00000F0B0FB224D286B012778B104F11801E7
:102DF0002C48FEF7BFFFE06A2968C96A884216D9E5
:102E0000B9F1000F12D0C9F8007010E0201DFEF7D4
:102E1000D5FFE06A2A6907FA00F11143296100EB46
:102E200080011F4800EB8100211DE2E7EF6186F37E
:102E3000118840468DE42DE9F0418846040007D111
:102E400041F2E312AFF65441AFF6404000F07AFB96
:102E500000F0E3FA5020EFF3118780F31188BFF3FD
:102E60004F8FBFF36F8F94F8540002211CE00000D5
:102E70003C0000200925630925750925750925757C
:102E80000D0A00000925750909257525250D0A007B
:102E900009257509093C3125250D0A0004ED00E0DE
:102EA000A80000205003002084F85410216D491C14
:102EB000216501282ED1A06A38B141F20922AFF66E
:102EC000CC41AFF6B84000F03DFB6B4D286B0126BE
:102ED00078B104F118016948FEF74CFFE06A2968EF
:102EE000C96A884216D9B8F1000F12D0C8F800603C
:102EF00010E0201DFEF762FFE06A2A6906FA00F181
:102F0000114329615E4900EB800001EB8000211D27
:102F1000E2E7EE6187F31188F8E410B558B1044692
:102F200000F03CFA94F85400022807D0002400F086
:102F30004FFA204610BD50480468F1E7002084F89D
:102F400054000124F3E72DE9F0470E46DDE909843A
:102F50001746824691009946089DA522206B00F0F5
:102F6000A7FA6FF00301206B01EB8701084420F002
:102F70000707780705D040F22B3242A147A000F0A6
:102F8000E1FA00202218315C82F83410315C11B172
:102F9000401C1028F6D3002684F84360202D00D36F
:102FA0001F25201DE562FEF7E2FE04F11800FEF782
:102FB000DEFE2461C5F120006462A061E66426653E
:102FC00084F854604A465146384600F088F920603B
:102FD000B8F1000F01D0C8F8004036E42648C16BB4
:102FE000096829B1C16BC968C9684968816230E55F
:102FF0004FF0FF31FAE710B50446006B00F0E5F83A
:103000002046BDE8104000F0E0B870B51B4E1A4DE8
:1030100014361CE0FFF7A7F8306820B10024FFF752
:1030200014F8A4B901E00124F9E700F0B7F9F06859
:10303000C468201DFEF7C2FEA868401EA86068682C
:10304000401E686000F0C4F92046FFF7D4FF6868AE
:103050000028DFD170BD10B5044600F042FA2046CA
:1030600000F038FA202101E02154401C0F28FBD346
:1030700000212154204410BD3C00002050030020BA
:10308000A80000202E2E5C4672656552544F535C9A
:103090007372635C7461736B732E63004572726F3D
:1030A000723A25732C25640D0A00000030B574496E
:1030B00000E011460A688242FBD34B685C188442E8
:1030C00003D1406818444860084643681C1894427D
:1030D00009D16B4C103C2468A24209D052681A44B2
:1030E00042600A6812680260814200D0086030BD08
:1030F0000460F9E72DE9F04105460026FFF733F8B3
:103100005F4F103F386808B900F098F8F86805423A
:103110004ED1002D4CD0083568070BD005F00700C4
:10312000C0F108000544680704D0BF2255A15EA085
:1031300000F008FA002D3BD07868854238D8504915
:103140000846046801E0214604466068A84202D2AD
:1031500020680028F7D13868B846844228D00E6825
:103160002068086060680836401B10280ED967196F
:10317000780704D0EC2243A14BA000F0E3F960688B
:10318000401B786038466560FFF790FF6168D8F8AB
:1031900004004246401AC8F80400D8F808309842A3
:1031A00000D29060D8F80C0001430020C4E900016F
:1031B000FEF74BFF700705D04FF4967231A13AA08D
:1031C00000F0C0F93046BDE8F08170B500282BD082
:1031D0002B4DA0F10804103D6068E968084205D154
:1031E0004FF4A07227A130A000F0ACF9206828B1FC
:1031F00040F2411223A12CA000F0A4F96068E96814
:10320000084211D02268002A0ED188436060FEF780
:10321000AAFF60686968084468602046FFF746FFB7
:10322000BDE87040FEF711BF70BD1548103840680A
:103230007047134810388068704770471E484FF435
:103240001041420706D0C01D1B4920F00700411A5B
:10325000C1F510410A4A00230144C2E900030839BC
:10326000103A21F0070111604B600B600B1AC0E9A6
:10327000001393604FF000405360D060704700002F
:10328000900000202E2E5C4672656552544F535CB0
:10329000706F72745C4D656D4D616E675C686561E1
:1032A000705F342E630000004572726F723A2573AE
:1032B0002C25640D0A0000008C030020694840683A
:1032C000401C04D0F42268A171A000F03BF950200A
:1032D00080F31188BFF34F8FBFF36F8FFEE710B5F8
:1032E000031F4FF080741C601B1F21F00101196047
:1032F000191F6B4B0B60143940380A6010BD6948C8
:103300004FF47A710068B0FBF1F14FF0E020491EF4
:1033100041610721016170471CB56349087801903C
:10332000FF20087008788DF800009DF800004D4AD5
:1033300000F0500010700720906007E09068401E79
:1033400090609DF8000040008DF800009DF800009E
:103350000006F3D4107A000200F4E0609060019857
:1033600008705248016841F470010160016841F041
:1033700070410160FFF7C3FF00205060FCF7F6FECC
:1033800000201CBD37484068B0F57A7F05D04FF467
:10339000B57235A13EA000F0D5B87047502080F33B
:1033A0001188BFF34F8FBFF36F8F2E494868401CC1
:1033B000486001280BD13D481C38006810F0FF0F11
:1033C00005D04FF4BD7228A131A000F0BBB8704702
:1033D00010B5244C606828B940F2811222A12CA0BB
:1033E00000F0B0F86068401E606001D180F3118881
:1033F00010BD10B5502080F31188BFF34F8FBFF37D
:103400006F8FFEF7C5FD20B128494FF080501C3961
:103410000860002080F3118810BD10B5FCF7DCFEB9
:10342000104C10280CD300F1E02090F8F003217824
:10343000884205D24FF42A720BA115A000F082F841
:103440001A4814380068A16800F4E060884207D97F
:10345000BDE810404FF42E7203A10DA000F072B829
:1034600010BD0000980000202E2E5C46726565524B
:10347000544F535C706F72745C525644535C4152AB
:103480004D5F434D335C706F72742E63000000001B
:103490004572726F723A25732C25640D0A00000084
:1034A000BD3200080000002000E400E020ED00E054
:1034B000D2B201E000F8012B491EFBD27047002276
:1034C000F6E710B513460A4604461946FFF7F0FF23
:1034D000204610BD421C10F8011B0029FBD1801AA8
:1034E0007047034611F8012B00F8012B002AF9D18F
:1034F0001846704730B50B460146002020220124B3
:1035000009E021FA02F59D4205D303FA02F5491BB1
:1035100004FA02F52844151EA2F10102F1DC30BDC7
:10352000064C074D06E0E06840F0010394E8070010
:1035300098471034AC42F6D3FCF7FEFD7037000814
:10354000903700080FB4054B10B503A9044A029840
:1035500000F02CF810BC5DF814FB0000B11C000852
:10356000A40000200FB4084B10B504A902AA0398C8
:1035700000F01CF8044602A9002000F0F3F82046F1
:1035800010BC5DF814FB00006537000802E008C8B5
:10359000121F08C1002AFAD170477047002001E0CD
:1035A00001C1121F002AFBD1704700002DE9FF4F17
:1035B0008BB09A460F460546002606E025280BD01C
:1035C00052460D9990476D1C761C28780028F5D13D
:1035D0000FB03046BDE8F08F0024A04601226049BC
:1035E00000E0044315F8013F203B02FA03F00842D3
:1035F000F7D128782E2817D115F8010F44F00404CC
:103600002A280ED06FF02F022878A0F13001092966
:103610000AD808EB880102EB410100EB01086D1CA0
:10362000F2E757F8048B6D1C287869283ED006DC39
:103630000028CDD063280BD0642804D136E073284D
:1036400010D075284BD052460D999047761C85E0D6
:1036500017F8040B8DF8000000208DF80100E946F2
:10366000012003E057F8049B4FF0FF3061074FF053
:10367000000401D40AE0641C44450DDA8442FADBFC
:1036800019F804100029F6D106E0641C8442FCDB22
:1036900019F804100029F8D1264404E019F8010BA8
:1036A00052460D999047641EF8D257E001CF4FF073
:1036B0000A0B002802DA40422D2102E0210504D540
:1036C0002B218DF82410012103E0E10705D02021F2
:1036D000F7E70DF1200908910CE00021F9E701CF8F
:1036E0004FF00A0BF9E75946FFF704FF01F13002EA
:1036F00009F8012D0028F6D1ADEB090000F1200BEF
:10370000600701D44FF00108D84502DDA8EB0B009B
:1037100000E000208046002406E009A85246005D33
:103720000D999047641C761C08988442F5DB04E0F0
:10373000302052460D999047761CB8F10001A8F14F
:103740000108F5DC05E019F8010B52460D99904788
:10375000761CBBF10001ABF1010BF4DC6D1C34E70E
:10376000092801000A68531C0B60107070470000A4
:103770009037000800000020A80000008C350008E9
:1037800038380008A8000020E89600009C350008A2
:1037900000A24A040000000000000000010203042F
:1037A00006070809020406080000000001020304DD
:1037B00001020304060708090000000000000000E1
:1037C00000000000000000000000000000000000F9
:1037D00000000000000000000000000000000000E9
:1037E00000000000000000000000000000000000D9
:1037F00000000000000000000000000000000000C9
:1038000000000000000000000000000000000000B8
:1038100000000000000000000000000000000000A8
:10382000000000000000000000000000AAAAAAAAF0
:08383000000000000000000090
:0400000508000131BD
:00000001FF
