:020000040800F2
:1000000080970020E1010008B90E0008BB0E00082F
:10001000BD0E0008BF0E0008C10E00080000000061
:10002000000000000000000000000000490100087E
:10003000C30E0008000000008D010008C50E000876
:10004000FB010008FB010008FB010008FB010008A0
:10005000FB010008FB010008FB010008FB01000890
:10006000FB010008FB010008FB010008FB01000880
:10007000FB010008FB010008FB010008FB01000870
:10008000FB010008FB010008FB010008FB01000860
:10009000FB010008FB010008FB010008FB01000850
:1000A000FB010008FB010008FB010008FB01000840
:1000B000FB010008FB010008FB010008FB01000830
:1000C000FB010008FB010008FB010008FB01000820
:1000D000FB010008FB010008FB010008FB01000810
:1000E000FB010008FB010008FB010008FB01000800
:1000F000FB010008FB010008FB010008FB010008F0
:10010000FB010008FB010008FB010008FB010008DF
:10011000FB010008FB010008FB010008FB010008CF
:10012000FB010008FB010008FB010008FB010008BF
:10013000DFF810D002F008FC00480047A10D0008CD
:10014000AFF3008080970020224B19680868B0E860
:10015000F00F80F30988BFF36F8F4FF0000080F33A
:1001600011884EF00D0E7047000000000648006830
:10017000006880F3088862B661B6BFF34F8FBFF3A3
:100180006F8F00DF00BF00BF08ED00E0EFF30980D4
:10019000BFF36F8F0F4B1A6820E9F00F106008B59E
:1001A0004FF0500080F31188BFF34F8FBFF36F8F74
:1001B00001F045FC4FF0000080F31188BDE80840D5
:1001C00019680868B0E8F00F80F30988BFF36F8FF3
:1001D000704700BF38000020EFF305807047000033
:1001E0000648804706480047FEE7FEE7FEE7FEE7D1
:1001F000FEE7FEE7FEE7FEE7FEE7FEE7A5020008F2
:10020000310100080CB500224C48009201920168AF
:1002100041F4803101604FF4A063016801F40031C2
:1002200001910099491C0091019911B900999942D5
:10023000F3D10168890333D50121019140490A684E
:1002400042F010020A600A6822F003020A600A689B
:1002500042F002020A6041684160416841604168C1
:1002600041F480614160416821F47C114160416842
:1002700041F4E8114160016841F08071016001685A
:100280008901FCD5416821F003014160416841F0DA
:10029000020141604168C1F381010229FAD10CBD1C
:1002A00001920CBD254810B5016841F001010160C3
:1002B0004168244A114041600168234A11400160AD
:1002C000016821F480210160416821F4FE01416050
:1002D0004FF41F018160FFF795FF1C494FF000604C
:1002E000086010BD154A10B55068194B10F00C018C
:1002F000184803D0042901D0082901D0036012E076
:100300005168536801F470114FF0020413F4803FF8
:1003100004EB914102D053689B0301D50E4B00E0E2
:100320000B4B5943016051680A4AC1F30311121D76
:10033000515C0268CA40026010BD0000001002401B
:10034000002002400000FFF8FFFFF6FE08ED00E08D
:1003500000127A000000002000093D0028490843EF
:1003600028490860704730B50F23C278017801250D
:10037000F2B1244A126801F1E02102F4E062C2F510
:10038000E062120AC2F10404D3404278A2408478A9
:100390001C401443220181F80024007800F01F0162
:1003A0008D404009800000F1E020C0F8005130BDD0
:1003B00001F01F0085404809800000F1E020C0F8EE
:1003C000805130BD104A114001430E48001F0160AA
:1003D00070470C4A121D0029116801D0014300E04A
:1003E0008143116070474FF0E0210428086903D071
:1003F00020F004000861704740F00400FAE70000B4
:100400000000FA050CED00E080FFFF1F944910B5D5
:10041000884206D10121042000F053FA0021042073
:100420003BE09049884206D10121082000F049FABA
:100430000021082031E08C49884206D1012110209A
:1004400000F03FFA0021102027E08849884206D1B9
:100450000121202000F035FA002120201DE08449F0
:10046000884206D10121402000F02BFA00214020D3
:1004700013E08049884206D10121802000F021FA52
:100480000021802009E07C4988420AD1841501219D
:10049000204600F016FA00212046BDE8104000F08A
:1004A00010BA10BD10B50121084600F00AFA00216B
:1004B000BDE81040012000F004BAF0B5CC7800226D
:1004C00004F00F03E40601D58C7823430C784FF039
:1004D0000F0C14F0FF0F4FF0010E1BD005680E88B3
:1004E0000EFA02F42640A64210D196000CFA06F746
:1004F00025EA070703FA06F5CE783D43282E02D0F9
:10050000482E02D002E0446100E00461521C082A37
:10051000E5D305600A88FF2A1CD94468002202F14D
:1005200008060EFA06F50E882E40AE420ED1960051
:100530000CFA06F7BC4303FA06F7CE783C43282EA4
:1005400000D14561CE78482E00D10561521C082AA1
:10055000E5D34460F0BD4FF6FF7101800221817048
:100560000421C17070470246002092680A4200D000
:1005700001207047806880B2704702460020D26830
:100580000A4200D001207047C06880B27047016104
:1005900070474161704710B50B460446FFF7EDFF09
:1005A00008B1636110BD236110BD0AB101617047DC
:1005B00041617047C160704741F48032826181615E
:1005C00082618169806970472C4B10B51A684FF6BB
:1005D0008074224042EA00100843186010BD284988
:1005E000C8617047F0B5254C002801DAE36900E0E6
:1005F0006368450D2E0185B2C0F30157B540C0F3C5
:100600000342032F05D0C6020AD503269640B34302
:1006100007E023F07062636823F07063636002E0B8
:10062000AB4343F0706201B12A43002801DAE26172
:10063000F0BD6260F0BD10B58A0721F003040F49D8
:10064000120F21440F238C6893409C438C608B686D
:10065000904003438B6010BD0949C1F8DC0070472E
:1006600000080140000C014000100140001401404E
:1006700000180140001C0140002001400000014022
:1006800000002042A548016841F001010160416875
:10069000A34A114041600168A24A1140016001680B
:1006A00021F480210160416821F4FE0141604FF492
:1006B0001F018160704799490A6822F480320A60FC
:1006C0000A6822F480220A60B0F5803F07D0B0F5B6
:1006D000802F03D1086840F4A020086070470868A4
:1006E00040F48030F9E70346002059098B4A01297C
:1006F0000AD002290AD0516A03F01F020123934055
:100700000B4200D0012070471168F5E7116AF3E74A
:1007100018B500204FF4A06400903120FFF7E3FFEC
:100720000099491C0091A14201D00028F5D0312048
:10073000FFF7D9FF002800D0012018BD774A1168C3
:1007400021F0F80141EAC000106070477649086066
:100750007047724B5A68084322F47C121043586069
:1007600070477149086670476C4A516821F003016F
:100770000143516070476948406800F00C007047C1
:10078000664A516821F0F001014351607047634AA5
:10079000516821F4E0610143516070475F4A51683C
:1007A00021F4605141EAC000506070475B4A002963
:1007B000517A01D0014300E08143517270475A4998
:1007C000C1F8D8007047554A516821F440410143AF
:1007D000516070475149002281F8202081F8202083
:1007E000012802D0042802D1052081F8200070479A
:1007F0004E490860704749490A6A02430A627047D5
:100800004A4944390860704730B5444A5168484BFA
:1008100011F00C0103D0042901D0082901D0036094
:1008200012E05168536801F470114FF0020413F4A0
:10083000803F04EB914102D053689B0301D53D4BAF
:1008400000E03B4B5943016051680F2303EA11114B
:10085000394B5C5C0168E14041605468072505EA5A
:1008600014241C5D21FA04F48460546805EAD4243D
:100870001B5DD940C1605268032303EA92322E4BBC
:100880001B1F9A5CB1FBF2F1016130BD234A0029C4
:10089000516901D0014300E08143516170471F4A13
:1008A0000029916901D0014300E0814391617047C3
:1008B0001A4A0029D16901D0014300E08143D16186
:1008C0007047164A0029D16801D0014300E08143F6
:1008D000D1607047114A0029116901D0014300E03D
:1008E00081431161704711494039086070470E49D2
:1008F000C86470470949C87170470848416A41F0A7
:10090000807141627047054A0146002092680A42A0
:1009100000D00120704701498872704700100240E2
:100920000000FFF8FFFFF6FE000042428004424252
:1009300000127A0000093D0018000020C44910B5DB
:1009400088420AD101218C032046FFF7BAFF2046D6
:10095000BDE810400021FFF7B4BFBE49884202D174
:1009600001214C0410E0BC49884202D101218C04D1
:100970000AE0BA49884202D10121CC0404E0B84916
:1009800088420AD101210C052046FFF7A3FF20462B
:10099000BDE810400021FFF79DBF10BD30B50446F3
:1009A000008A85B00D464CF6FF710840E988014386
:1009B0002182A0894EF6F3110840A9882A891143A3
:1009C0006A8902431143A181A08A4FF6FF41084082
:1009D000A9890143A1826846FFF716FF9C4884421B
:1009E00001D1039800E00298A189090400EBC0013D
:1009F00001EB0010296801D5490000E08900B0FB37
:100A0000F1F06422B0FBF2F109010B096FF0180557
:100A10006B4300EB8300A3891D044FF0320306D51E
:100A200003EBC000B0FBF2F000F0070005E003EBC1
:100A30000010B0FBF2F000F00F000843208105B079
:100A400030BD4FF41651016000218180C1800181C9
:100A50000C2242818181704710B5028A4FF2FF0358
:100A60001A400B884C8823438C88C9880C43234345
:100A70001343038210BD0021018041808180C18029
:100A800070470029818902D041F4005101E021F42E
:100A900000518181704710B5C1F3421301F01F046A
:100AA0000121A140012B07D0022B07D01430002ACE
:100AB000026805D00A4304E00C30F8E71030F6E78E
:100AC0008A43026010BD002A828A01D00A4300E0F6
:100AD0008A4382827047028A22F00F020282028ACF
:100AE0000A4302827047828922F4006282818289ED
:100AF0000A43828170470029818902D041F00201B6
:100B000001E021F0020181817047028A22F0200277
:100B10000282028A0A43028270470029018A02D0B7
:100B200041F4804101E021F4804101827047C1F32A
:100B30000801818070478088C0F308007047818970
:100B400041F0010181817047028BD2B20283028B96
:100B500042EA012101837047028B02F47F42028343
:100B6000028B0A43028370470029818A02D041F038
:100B7000200101E021F02001818270470029818A53
:100B800002D041F0100101E021F010018182704794
:100B90000029818A02D041F0080101E021F008011A
:100BA000818270470029818902D041F4004101E02F
:100BB000C1F30E01818170470029818A02D041F47E
:100BC000006101E021F4006181827047828A22F095
:100BD00004028282828A0A43828270470029818AC3
:100BE00002D041F0020101E021F002018182704750
:100BF0000246002012880A4200D001207047C943F3
:100C00000180704770B501F01F0501260024C1F373
:100C1000421306FA05F2012B0FD0022B0FD0838A64
:100C20004FEA11210088134206FA01F600EA060095
:100C300001D000B10124204670BD8389F0E7038A0A
:100C4000EEE70A0A01219140C94301807047000084
:100C5000003801400044004000480040004C004083
:100C60000050004038B501210820FFF718FE202071
:100C7000ADF8000010208DF803000320104C8DF813
:100C8000020069462046FFF718FC0121ADF800106C
:100C900069462046FFF711FC0221ADF800106946B5
:100CA0002046FFF70AFC20212046FFF770FC0121B7
:100CB0002046FFF76CFC02212046FFF768FC38BD98
:100CC000000C0140464D474F474C6E140121284609
:100CD00000F0DDF9012806D144A001F047FE012112
:100CE000E06800F0F6F93146384600F0D0F9012806
:100CF00006D141A001F03AFE0221E06800F0E9F9D6
:100D0000142000F0D0FDE1E708B5374D3D4E4FF01F
:100D1000FF34012300941A460321E86800F072FAB8
:100D2000C00707D038A001F021FE20213046FFF790
:100D300032FCEEE73AA001F019FEEAE77CB501F0DB
:100D400063FD00F0B9F9284CE06010B137A001F064
:100D50000DFE25480225001DCDE900502E0200237E
:100D6000324637A1394800F0DAFB012802D138A019
:100D700001F0FCFD1C4800230830CDE9005032464C
:100D800038A13B4800F0CBFB012802D139A001F08B
:100D9000EDFD206800F0EEFBBDE87C4001F04EBDAB
:100DA0001CB54FF44070FFF7D9FAFFF75BFF00F076
:100DB00093F800F053F934A001F0D8FD0A4901205E
:100DC000CDE900014202002336A13A4800F0A7FB1A
:100DD000012802D04FF0FF301CBD00F048FFFEE7B5
:100DE0000008014000100140280000204B45593107
:100DF000B0B4CFC20D0A00004B455932B0B4CFC2D7
:100E00000D0A0000000C01404B455931BACD4B454D
:100E10005932CDACCAB1B0B4CFC20D0A0000000047
:100E2000CAC2BCFEB4EDCEF30D0A0000CAC2BCFEBD
:100E3000D7E9B4B4BDA8B3C9B9A60D0A0000000033
:100E40004C45445F5461736B00000000090D0008BD
:100E50004C4544C8CECEF1B4B4BDA8B3C9B9A60DB3
:100E60000A0000004B45595F5461736B000000009D
:100E7000C50C00084B4559C8CECEF1B4B4BDA8B3DB
:100E8000C9B9A60D0A0000004672656552544F5359
:100E9000CAC2BCFEB1EAD6BECEBBCAB5D1E90D0A04
:100EA000000000004170705461736B43726561749F
:100EB000650000003D0D00087047FEE7FEE7FEE715
:100EC000FEE7704710B501F031F8012803D0BDE806
:100ED000104001F0C4BC10BD10B586B00121042043
:100EE000FFF7DDFC01218803FFF7D9FC4FF4007008
:100EF000ADF8100018208DF813000320554C8DF824
:100F0000120004A92046FFF7D8FA2115ADF81010F9
:100F100004218DF8131004A92046FFF7CEFA4FF4F0
:100F2000E13000900020ADF80400ADF80600ADF807
:100F30000800ADF80C000C20474CADF80A006946DB
:100F40002046FFF72BFD4FF4A060FFF707FA25209E
:100F50008DF8140001218DF815108DF816108DF8FC
:100F6000171005A8FFF7FFF9012240F2255120468E
:100F7000FFF791FD01212046FFF783FD06B010BD6C
:100F800010B50446FFF7D3FD80212046FFF730FE61
:100F90000028F9D010BD2DE9F04115460E46074650
:100FA000002405E0315D3846FFF7EAFF641CE4B237
:100FB000AC42F7D340213846FFF71AFE0028F9D09B
:100FC000BDE8F08170B50D46064600243046295D27
:100FD000FFF7D6FF641C285D0028F7D1402130467A
:100FE000FFF706FE0028F9D070BD70B50446080A68
:100FF000CDB201462046FFF79AFD80212046FFF73B
:10100000F7FD0028F9D029462046FFF790FD802102
:101010002046FFF7EDFD0028F9D070BD70B50E4DEC
:101020000446C1B22846FFF782FD80212846FFF71B
:10103000DFFD0028F9D0204670BD10B5064C2021F8
:101040002046FFF7D5FD0028F9D02046BDE8104026
:10105000FFF771BD000801400038014038B501219B
:101060001420FFF71CFC0120ADF8000004248DF8CB
:10107000034069460E48FFF720FAE002ADF8000091
:101080008DF8034069460B48FFF717FA38BD70B575
:101090000C460546FFF767FA012801D0002070BD15
:1010A00021462846FFF75FFA0128F9D0012070BDDC
:1010B000000801400010014010B5182001F050FA5E
:1010C000040004D000202060201D00F085F9204697
:1010D00010BD2DE9F04100258846040005D140F2FD
:1010E0001D22B0A1B7A001F041FC5FEA186005D055
:1010F00040F21E22ABA1B3A001F038FC261D04F182
:101100000C0700F06FFB2168F06841EA08012160DC
:1011100017E0D0E9001601F07F425301236821F067
:101120007F4102D40B4203D10AE031EA030307D125
:10113000D20100D50D43216841F0007100F071FE2D
:101140003046B842E5D12068A843206000F0BCFAE0
:101150002068BDE8F0812DE9F04104461F461546A0
:101160008846100E04D0D7228EA196A001F0FEFB77
:1011700025B9D8228BA193A001F0F8FB00F0D6FE90
:1011800028B927B1DB2287A18EA001F0EFFB00F088
:1011900029FB204641462668FFF79BFF46EA0806E2
:1011A00035EA060008D067B145F0A0613A46201D37
:1011B00000F0DCFD002605E02068A8430027206041
:1011C00000E0266800F080FAD7B138B981494FF0C5
:1011D00080500860BFF34F8FBFF36F8F00F037FF71
:1011E000064680010AD401F00FFB266835EA0600A6
:1011F00002D126EA0500206001F020FB26F07F46A0
:101200003046A6E72DE9F0479A46089F91460D46DD
:1012100004004FF0000605D140F24D1261A169A013
:1012200001F0A4FB280E05D04FF4A7725DA165A0C4
:1012300001F09CFB2DB940F24F125AA161A001F0C0
:1012400095FB00F073FE30B92FB14FF4A97255A190
:101250005CA001F08BFB00F0C5FAD4F80080524688
:101260002946404600F094F840B100274646B9F1BF
:10127000000F15D02068A843206011E0AFB1B9F18C
:10128000000F01D04FF08076BAF1000F01D046F088
:10129000806645EA06013A46201D00F067FD0026FB
:1012A00000F012FA1FB310B109E04646F8E74949C9
:1012B0004FF080500860BFF34F8FBFF36F8F00F087
:1012C000C6FE0646800110D401F09EFA26685246FA
:1012D0002946304600F05CF828B1B9F1000F02D081
:1012E0002068A843206001F0A9FA26F07F46304626
:1012F000BDE8F08770B50E46040005D140F2DF125C
:1013000028A130A001F032FB300E05D04FF4F0726E
:1013100024A12CA001F02AFB01F076FA256825EA29
:101320000600206001F08AFA284670BD5022EFF3D3
:10133000118182F31188BFF34F8FBFF36F8F006865
:1013400081F3118870472DE9F0410646041D00F035
:1013500049FA04F1080540F27D274FF000780BE0D0
:10136000E068A84204D13A460EA116A001F0FEFAA8
:101370004146E06800F055FD20680028F0D1304675
:1013800001F059F9BDE8F04100F09EB9A1E6B1E7DE
:101390000346002012B1994302D070470B42FCD0A3
:1013A000012070472E2E5C4672656552544F535C87
:1013B0007372635C6576656E745F67726F75707368
:1013C0002E6300004572726F723A25732C25640DEE
:1013D0000A00000004ED00E000F108014FF0FF32C8
:1013E000C0E90112C1600161002101607047002164
:1013F0000161704742684A6093688B6093685960E6
:10140000916008610168491C0160704730B50C6843
:10141000621C02D000F1080202E0026904E01A46F0
:1014200053681D68A542FAD953684B6099608A6079
:10143000516008610168491C016030BDD0E901328A
:1014400001699A60D0E901235A604A68824201D159
:1014500082684A60002202610868401E0860704786
:101460002DE9F041054601F0CFF9FE4EB068401C71
:10147000B0603068FC4F10B1706930B32BE035605C
:10148000B068012827D1002404EB840007EB80001A
:10149000FFF7A2FF641C202CF6D3F448FFF79CFF53
:1014A000F2481430FFF798FFF0482830FFF794FF18
:1014B000EE483C30FFF790FFEC485030FFF78CFFD0
:1014C000EA4870631430B06305E03068E96AC06AC6
:1014D000884200D83560706A0121401C7062E86A59
:1014E000326981401143316100EB800007EB8000DD
:1014F000291DFFF77FFF01F0A1F9706900280CD0CA
:101500003068E96AC06A884207D2D9494FF08050F2
:101510000860BFF34F8FBFF36F8FBDE8F0812DE9F7
:10152000FF5F8346DDE90E87994616468A4690009E
:1015300001F016F805001AD0542001F011F804004B
:1015400012D025630021CDE90241CDE900874B4649
:1015500032465146584600F040FF2046FFF780FFD4
:10156000012004B0BDE8F09F284601F064F84FF078
:10157000FF30F6E770B5044601F046F9B94D04B9FD
:101580002C68201DFFF75AFF58B9E06AB64A00EBF5
:10159000800152F8211021B9012181402869884336
:1015A0002861A06A18B104F11800FFF747FF686AC4
:1015B000401C68622868844208D1AC48211D3C3038
:1015C000FFF718FF6868401C686007E0A868401EC5
:1015D000A860204600F054FF00F045FF01F02EF90E
:1015E0006869002812D0286884420FD1286B28B17E
:1015F00040F265429FA1A5A001F0B8F99C494FF0C7
:1016000080500860BFF34F8FBFF36F8F70BD2DE91F
:10161000F041944F0026386B38B1B869401CB8616E
:10162000F86900B10126304677E7FD686D1CFD6062
:1016300011D1786B006828B140F6D9128DA193A022
:1016400001F094F9786BB96B7963B863386A401C20
:10165000386200F008FFB86ADFF80C82854209D3CF
:10166000786B006880B1786BC068C4686068854238
:101670000DD2B8623868C06A00EB800158F82100CA
:101680000128CDD90126CBE74FF0FF30F1E7201D2F
:10169000FFF7D4FEA06A18B104F11800FFF7CEFEE0
:1016A000E06A01213A6981401143396100EB800110
:1016B00008EB8100211DFFF79DFEE06A3968C96AC9
:1016C0008842CDD30126CBE72DE9F047654D0024B4
:1016D0002746286B28B94FF4FD6266A16BA001F084
:1016E00045F901F091F8286B401E2863286BE0BB98
:1016F000A8685E4928310126B8B3DFF86C918846A6
:10170000D8F80010E9B1D8F80C00C46804F118004A
:10171000FFF794FE201DFFF791FEE06A2A6906FAA2
:1017200000F11143296100EB800109EB8100211DCB
:10173000FFF760FEE06A2968C96A8842E0D3EE617B
:10174000DEE70CB100F08FFEAC693CB1FFF75FFF44
:1017500000B1EE61641EF9D10020A861E86920B1F2
:10176000434901273807086000E003E0BFF34F8FCB
:10177000BFF36F8F01F062F83846BDE8F0872DE9BE
:10178000F041384E0F460446F5683068001DFFF7FB
:1017900055FE38B9306890F82C1001208840316926
:1017A00081433161601C08D13FB13168BDE8F0412F
:1017B0002E485030091DFFF71DBE30682C44AC4246
:1017C0004460316805D2B06BBDE8F041091DFFF7F8
:1017D0001DBE706B091DFFF719FEB06A844200D26E
:1017E000B4629AE61F48016B491C016370472DE9FA
:1017F000F0410E4605004FF0000405D140F2794259
:101800001CA122A001F0B2F82EB940F27A4219A12F
:101810001EA001F0ABF8134F386B28B140F27B42A9
:1018200014A11AA001F0A2F8FFF7DCFFFA682868FB
:101830008119904202D9884202D804E0884201D836
:10184000914200D9012429601CB1881A0021FFF7B8
:1018500096FFFFF739FF002824D105494FF080504B
:1018600008601BE0380000209C0000201C030020C2
:1018700004ED00E02E2E5C4672656552544F535CB9
:101880007372635C7461736B732E63004572726F65
:10189000723A25732C25640D0A000000BFF34F8FA8
:1018A000BFF36F8F39E610B5040014D0FE49096B01
:1018B00039B140F2CF42AFF24401AFF2300001F053
:1018C00055F8FFF78FFF00212046FFF758FFFFF77D
:1018D000FBFE002807D1F5494FF080500860BFF3A8
:1018E0004F8FBFF36F8F10BD70B5050007D140F269
:1018F000FB42AFF28001AFF26C0001F037F8EA4E24
:101900003068854201D1002070BD00F07DFF6C6918
:1019100000F094FF706B844202D0B06B844201D11E
:10192000022070BDE248844204D1A86A0028F7D1A1
:10193000032070BDDE481438844202D00CB101206F
:1019400070BD042070BD10B5044600F05DFF0CB9F9
:10195000D5480468E46A00F071FF204610BD10B558
:10196000044600F090FF5020EFF3118180F31188BE
:10197000BFF34F8FBFF36F8F0CB9CB480468E06A99
:1019800081F3118810BD2DE9F04100260D46044673
:10199000202908D34FF4B062AFF22811AFF214102F
:1019A00000F0E4FF1F2500F02FFFBF4F04B93C6893
:1019B000606CA8423FD03968854206D98C4207D076
:1019C0003968C96AA94202D902E08C4200D10126D5
:1019D000E16A8846884200D1E5626564A069002812
:1019E00002DBC5F12000A061B24D08EB88006169FF
:1019F00005EB8000814215D1201DFFF71FFD01215D
:101A000020B93A6901FA08F082433A61E06A3A691A
:101A100081401143396100EB800005EB8000211DFE
:101A2000FFF7E8FC3EB1A1494FF080500860BFF3DA
:101A30004F8FBFF36F8FBDE8F04100F0FFBE70B570
:101A4000994D286B10B10120E86170BD0020E8615C
:101A50002869984EB0FA80F0C0F11F0000EB8004B6
:101A600056F8240038B940F6F622AFF2F811AFF27A
:101A7000E41000F07BFF06EB840000F108024168EF
:101A800049684160914201D149684160C868286055
:101A900070BD70B5044600F0B7FE834D04B92C68E4
:101AA000201DFFF7CBFC58B9E06A824A00EB8001A9
:101AB00052F8211021B90121814028698843286109
:101AC000A06A18B104F11800FFF7B8FC211D78488E
:101AD000FFF790FC00F0B2FE686928B100F094FEB8
:101AE00000F0C1FC00F0AAFE2868844213D16869A6
:101AF00090B1286B38B140F25762AFF28821AFF253
:101B0000742000F033FF69494FF080500860BFF344
:101B10004F8FBFF36F8F70BD6548A968006888421A
:101B200002D10020286070BDBDE8704087E770B525
:101B30000025040007D140F28162AFF2C821AFF264
:101B4000B42000F013FF5A496069884205D1A06AA9
:101B50002839884201D000B90125284670BD70B5EA
:101B600004002BD0504D2868844231D000F04CFE48
:101B70002046FFF7DCFFE8B1201DFFF75FFCE06ABD
:101B800001212A698140114329614A4900EB800003
:101B900001EB8000211DFFF72DFCE06A2968C96A6E
:101BA000884207D341494FF080500860BFF34F8F00
:101BB000BFF36F8FBDE8704000F040BE40F2AB62F3
:101BC000AFF25031AFF23C30BDE8704000F0CEBE15
:101BD00070BD2DE9F0410026040007D140F2E26219
:101BE000AFF27031AFF25C3000F0C0FE00F04BFE9F
:101BF0005020EFF3118580F31188BFF34F8FBFF3AF
:101C00006F8F2046FFF793FFF0B1274F386B20B15D
:101C1000274804F11801283814E0E06A3968C96AD5
:101C2000884200D30126201DFFF708FCE06A01214D
:101C30003A698140114339611E4900EB800001EB94
:101C40008000211DFFF7D6FB85F31188304664E440
:101C5000184E4FF08054154D00F01CFC30680128E0
:101C6000FAD92C60BFF34F8FBFF36F8FF4E71CB529
:101C70000D4800242C30CDE90040234680220EA1DF
:101C80000F48FFF74CFC01280CD0401C2BD140F230
:101C90008472AFF22041AFF20C4002B0BDE81040B8
:101CA00000F064BE50200DE03800002004ED00E09C
:101CB0006C0300209C00002049444C4500000000BB
:101CC000511C000880F31188BFF34F8FBFF36F8F53
:101CD000FB484FF0FF31816201214161C460BDE8E2
:101CE0001C4000F04FBD1CBD502080F31188BFF395
:101CF0004F8FBFF36F8FF2490020486100F078BD2D
:101D0000EF48C068704710B500F0BDFDEC48C068F2
:101D100010BDEB488068704710B510B104461CB187
:101D20000AE0E7480468FAE740F68C02AFF2BC41EB
:101D3000AFF2A84000F01AFE04F1340010BD70B5F7
:101D40000D46040007D140F60632AFF2D841AFF29B
:101D5000C44000F00BFEDA48016820461831FFF756
:101D600055FB2846BDE87040012108E52DE9F0410A
:101D700017460E46050007D140F61732AFF20C5158
:101D8000AFF2F84000F0F2FDCD4C206B38B940F6D0
:101D90001B32AFF22051AFF20C5000F0E7FD21688A
:101DA00046F000408861216828461831FFF722FB81
:101DB0003846BDE8F0410121E1E42DE9F041C06879
:101DC000C4683CB940F66132AFF25851AFF24450AA
:101DD00000F0CCFD04F118000746FFF72FFBB84DCB
:101DE000286B012658B13946B648FFF703FBE06A75
:101DF0002968C96A884212D90120EE6114E4201DC5
:101E0000FFF71CFBE06A2A6906FA00F11143296119
:101E1000AD4900EB800001EB8000211DE5E70020CB
:101E2000DFE470B5A64D06460C46286B38B940F67F
:101E30009932AFF2C051AFF2AC5000F097FD44F0D0
:101E400000403060F4683CB940F6A132AFF2DC519A
:101E5000AFF2C85000F08AFD3046FFF7EFFA201DC0
:101E6000FFF7ECFAE06A01262A6906FA00F111434D
:101E70002961954900EB800001EB8000211DFFF7EF
:101E8000B9FAE06A2968C96A884202D90120EE617C
:101E900070BD002070BD10B5040007D140F6C132FE
:101EA000AFF23061AFF21C6000F060FD8448016A5F
:101EB0002160C068606010BD70B50D46040007D198
:101EC00040F6CB32AFF25461AFF2406000F04EFD0D
:101ED0003DB940F6CC32AFF26461AFF2506000F031
:101EE00045FD00F091FC764AD06829684B1C0FD064
:101EF0002368126A934202D0626882420AD96268F9
:101F0000801A884206D2081A28602046FFF7C3FFCD
:101F1000002400E0012400F091FC204670BD6849D7
:101F20000120C8617047664800687047644841698D
:101F300019B1006B18B100207047012070470220D2
:101F4000704770B5040039D05D4DE06A2968C96AF0
:101F5000884233D2A069002804DB2868C06AC0F137
:101F60002000A061E06A584E00EB8000616906EB3A
:101F7000800081421FD1201DFFF760FA012150B976
:101F8000E06A00EB800256F8222022B92A6901FAA1
:101F900000F082432A612868C06AE0622A698140B1
:101FA0001143296100EB800006EB8000211DBDE894
:101FB0007040FFF71FBA2868C06AE06270BD70B554
:101FC00004004FF0000640D03D4D2868844207D001
:101FD00040F6C762AFF26471AFF2507000F0C6FC19
:101FE000A06C38B940F6C962AFF27871AFF2647094
:101FF00000F0BCFCA06C401EA064626CE16A9142DF
:1020000023D010BB201DFFF719FA2F49012250B928
:10201000E06A00EB800351F8233023B92B6902FA00
:1020200000F083432B61606CE062C0F12000A0618E
:10203000E06A2B6982401A432A6100EB800001EBC1
:102040008000211DFFF7D6F90126304670BD1C49DE
:1020500008680A688069D26A0968C2F120028A6148
:1020600070471749086818B10868826C521C82646E
:102070000868704770B50C46064600F0C5FB104D69
:102080002868C06C80B92968012081F850005CB1D3
:1020900001212046FFF773FB0C494FF08050086088
:1020A000BFF34F8FBFF36F8F00F0C8FB00F0ACFBA6
:1020B0002868C46C002074B156B12968C8640AE06D
:1020C00038000020440300209C00002004ED00E0C4
:1020D0002A68611ED164296881F8500000F0AEFBC7
:1020E000204670BD2DE9F0411E461546884607463C
:1020F00000F08AFBFA4C206890F85000022814D0B7
:102100002068C16CB943C1642168012081F8500086
:102110005EB101213046FFF732FBF2494FF08050AB
:102120000860BFF34F8FBFF36F8F00F087FB00F0A5
:102130006BFB15B12068C06C2860206890F85000D7
:1021400001280DD02068C16C21EA0801C164012575
:102150002168002081F8500000F070FB284676E5E9
:102160000025F5E72DE9F0411F4690460D46040095
:102170004FF0010607D141F2FD02AFF60811AFF6AC
:10218000F40000F0F3FB00F03FFB0FB1E06C3860AF
:1021900094F85000022184F85010B8F1050F0ED2C7
:1021A000DFE808F00D03060C0A00E16C294301E0AA
:1021B000E16C491CE16402E0022803D0E5640128D7
:1021C00002D02AE0002628E0201DFFF737F9C44D91
:1021D000E06A01212A69814011432961C24900EB6B
:1021E000800001EB8000211DFFF704F9A06A38B1DF
:1021F00041F23512AFF68411AFF6701000F0B6FB65
:10220000E06A2968C96A884207D9B6494FF0805008
:102210000860BFF34F8FBFF36F8F00F00FFB3046A6
:1022200015E52DE9F0471F46DDF8209092460D4652
:1022300004004FF0010807D141F26812AFF6CC114B
:10224000AFF6B81000F092FB00F01DFB5020EFF34A
:10225000118680F31188BFF34F8FBFF36F8F0FB1DB
:10226000E06C386094F85000022184F85010BAF104
:10227000050F0ED2DFE80AF00D03060C0A00E16C30
:10228000294301E0E16C491CE16402E0022803D02B
:10229000E564012803D031E04FF000082EE0A06A89
:1022A00038B141F2AF12AFF63421AFF6202000F082
:1022B0005DFB8B4D286B012778B104F118018B4829
:1022C000FFF798F8E06A2968C96A884216D9B9F117
:1022D000000F12D0C9F8007010E0201DFFF7AEF813
:1022E000E06A2A6907FA00F11143296100EB8001D5
:1022F0007D4800EB8100211DE2E7EF6186F3118844
:102300004046BDE8F0872DE9F0418846040007D13A
:1023100041F2E312AFF6A421AFF6902000F026FBC5
:1023200000F0B1FA5020EFF3118780F31188BFF36A
:102330004F8FBFF36F8F94F85000022184F8501034
:10234000E16C491CE16401282ED1A06A38B141F248
:102350000922AFF6E021AFF6CC2000F007FB604D7C
:10236000286B012678B104F118016048FFF742F8A4
:10237000E06A2968C96A884216D9B8F1000F12D0FC
:10238000C8F8006010E0201DFFF758F8E06A2A69DD
:1023900006FA00F111432961534900EB800001EB7B
:1023A0008000211DE2E7EE6187F311884FE410B54C
:1023B00058B1044600F028FA94F85000022807D0DB
:1023C000002400F03BFA204610BD45480468F1E7C0
:1023D000002084F850000124F3E72DE9F0470E4671
:1023E000DDE9098482466FF00301206B01EB820175
:1023F0000844089D20F007079946780705D040F269
:102400002B323BA140A000F0B1FA00202218315C31
:1024100082F83410315C11B1401C1028F6D300262C
:1024200084F84360202D00D31F25E562C4E91156CE
:10243000201DFEF7DCFF04F11800FEF7D8FF246131
:10244000C5F120006462A061E66484F850604A46E9
:102450005146384600F079F92060B8F1000F01D0FC
:10246000C8F800404DE71E48416B096829B1416B2F
:10247000C968C9684968816270474FF0FF31FAE75F
:1024800010B50446006B00F0D6F82046BDE81040B9
:1024900000F0D1B870B5154E114D14361CE0FFF7A1
:1024A000A1F9306820B10024FFF70EF9A4B901E0CA
:1024B0000124F9E700F0A8F9F068C468201DFEF7D0
:1024C000BDFFA868401EA8606868401E686000F0F4
:1024D000B5F92046FFF7D4FF68680028DFD170BD4A
:1024E0003800002004ED00E09C00002044030020A0
:1024F0002E2E5C4672656552544F535C7372635C5A
:102500007461736B732E63004572726F723A257338
:102510002C25640D0A00000030B5744900E0114616
:102520000A688242FBD34B685C18844203D140683E
:1025300018444860084643681C18944209D16B4C03
:10254000103C2468A24209D052681A4442600A68CA
:1025500012680260814200D0086030BD0460F9E773
:102560002DE9F04105460026FFF73CF95F4F103F8B
:10257000386808B900F098F8F86805424ED1002D87
:102580004CD0083568070BD005F00700C0F10800F3
:102590000544680704D0BF2255A15EA000F0E6F90B
:1025A000002D3BD07868854238D8504908460468E9
:1025B00001E0214604466068A84202D22068002853
:1025C000F7D13868B846844228D00E682068086081
:1025D00060680836401B10280ED96719780704D0A8
:1025E000EC2243A14BA000F0C1F96068401B786069
:1025F00038466560FFF790FF6168D8F804004246EE
:10260000401AC8F80400D8F80830984200D2906008
:10261000D8F80C0001430020C4E90001FFF754F88A
:10262000700705D04FF4967231A13AA000F09EF9E0
:102630003046BDE8F08170B500282BD02B4DA0F1BD
:102640000804103D6068E968084205D14FF4A072A3
:1026500027A130A000F08AF9206828B140F2411289
:1026600023A12CA000F082F96068E968084211D02B
:102670002268002A0ED188436060FFF7B3F86068D3
:102680006968084468602046FFF746FFBDE870406F
:10269000FFF71AB870BD15481038406870471348E6
:1026A00010388068704770471E484FF41041420749
:1026B00006D0C01D1B4920F00700411AC1F510418A
:1026C0000A4A00230144C2E900030839103A21F004
:1026D000070111604B600B600B1AC0E90013936097
:1026E0004FF000405360D06070470000840000202D
:1026F0002E2E5C4672656552544F535C706F727437
:102700005C4D656D4D616E675C686561705F342E10
:10271000630000004572726F723A25732C25640DB8
:102720000A0000008003002069484068401C04D073
:10273000F42268A171A000F019F9502080F31188EB
:10274000BFF34F8FBFF36F8FFEE710B5031F4FF03E
:1027500080741C601B1F21F001011960191F6B4B55
:102760000B60143940380A6010BD69484FF47A7123
:102770000068B0FBF1F14FF0E020491E41610721F4
:10278000016170471CB5634908780190FF2008700B
:1027900008788DF800009DF800004D4A00F05000C8
:1027A00010700720906007E09068401E90609DF8D0
:1027B000000040008DF800009DF800000006F3D4F2
:1027C000107A000200F4E0609060019808705248AE
:1027D000016841F470010160016841F070410160DD
:1027E000FFF7C3FF00205060FDF7C0FC00201CBDB8
:1027F00037484068B0F57A7F05D04FF4B57235A1FF
:102800003EA000F0B3B87047502080F31188BFF3AA
:102810004F8FBFF36F8F2E494868401C48600128D6
:102820000BD13D481C38006810F0FF0F05D04FF465
:10283000BD7228A131A000F099B8704710B5244CA2
:10284000606828B940F2811222A12CA000F08EF815
:102850006068401E606001D180F3118810BD10B522
:10286000502080F31188BFF34F8FBFF36F8FFEF7B7
:10287000CEFE20B128494FF080501C39086000205E
:1028800080F3118810BD10B5FDF7A6FC104C102880
:102890000CD300F1E02090F8F0032178884205D2B3
:1028A0004FF42A720BA115A000F060F81A481438F2
:1028B0000068A16800F4E060884207D9BDE81040D4
:1028C0004FF42E7203A10DA000F050B810BD00000F
:1028D0008C0000202E2E5C4672656552544F535C6E
:1028E000706F72745C525644535C41524D5F434D5D
:1028F000335C706F72742E63000000004572726F5B
:10290000723A25732C25640D0A000000292700085F
:102910000000002000E400E020ED00E030B50B46B0
:10292000014600202022012409E021FA02F59D42FF
:1029300005D303FA02F5491B04FA02F52844151ED3
:10294000A2F10102F1DC30BD064C074D06E0E06863
:1029500040F0010394E8070098471034AC42F6D3E6
:10296000FDF7EAFB642B0008842B00080FB4054B2D
:1029700010B503A9044A029800F018F810BC5DF8DD
:1029800014FB00001D1000089800002002E008C899
:10299000121F08C1002AFAD170477047002001E0D9
:1029A00001C1121F002AFBD1704700002DE9FF4F23
:1029B0008BB09A460F460546002606E025280BD028
:1029C00052460D9990476D1C761C28780028F5D149
:1029D0000FB03046BDE8F08F0024A04601226049C8
:1029E00000E0044315F8013F203B02FA03F00842DF
:1029F000F7D128782E2817D115F8010F44F00404D8
:102A00002A280ED06FF02F022878A0F13001092972
:102A10000AD808EB880102EB410100EB01086D1CAC
:102A2000F2E757F8048B6D1C287869283ED006DC45
:102A30000028CDD063280BD0642804D136E0732859
:102A400010D075284BD052460D999047761C85E0E2
:102A500017F8040B8DF8000000208DF80100E946FE
:102A6000012003E057F8049B4FF0FF3061074FF05F
:102A7000000401D40AE0641C44450DDA8442FADB08
:102A800019F804100029F6D106E0641C8442FCDB2E
:102A900019F804100029F8D1264404E019F8010BB4
:102AA00052460D999047641EF8D257E001CF4FF07F
:102AB0000A0B002802DA40422D2102E0210504D54C
:102AC0002B218DF82410012103E0E10705D02021FE
:102AD000F7E70DF1200908910CE00021F9E701CF9B
:102AE0004FF00A0BF9E75946FFF718FF01F13002E2
:102AF00009F8012D0028F6D1ADEB090000F1200BFB
:102B0000600701D44FF00108D84502DDA8EB0B00A7
:102B100000E000208046002406E009A85246005D3F
:102B20000D999047641C761C08988442F5DB04E0FC
:102B3000302052460D999047761CB8F10001A8F15B
:102B40000108F5DC05E019F8010B52460D99904794
:102B5000761CBBF10001ABF1010BF4DC6D1C34E71A
:102B600009280100842B0008000000209C000000C0
:102B70008C290008202C00089C000020E49600000E
:102B80009C29000800A24A04000000000000000088
:102B900001020304060708090204060800000000F9
:102BA00001020304010203040607080900000000F3
:102BB0000000000000000000000000000000000015
:102BC0000000000000000000000000000000000005
:102BD00000000000000000000000000000000000F5
:102BE00000000000000000000000000000000000E5
:102BF00000000000000000000000000000000000D5
:102C000000000000000000000000000000000000C4
:102C100000000000AAAAAAAA00000000000000000C
:0400000508000131BD
:00000001FF
