:020000040800F2
:10000000D8970020E1010008F10F0008F30F000865
:10001000F50F0008F70F0008F90F000800000000B6
:10002000000000000000000000000000490100087E
:10003000FB0F0008000000008D010008FD0F000804
:10004000FB010008FB010008FB010008FB010008A0
:10005000FB010008FB010008FB010008FB01000890
:10006000FB010008FB010008FB010008FB01000880
:10007000FB010008FB010008FB010008FB01000870
:10008000FB010008FB010008FB010008FB01000860
:10009000FB010008FB010008FB010008FB01000850
:1000A000FB010008FB010008FB010008FB01000840
:1000B000FB010008FB010008FB010008FB01000830
:1000C000FB010008FB010008FB010008FB01000820
:1000D000FB010008FB010008FB010008FB01000810
:1000E000FB010008FB010008FB010008FB01000800
:1000F000FB010008FB010008FB010008FB010008F0
:10010000FB010008FB010008FB010008FB010008DF
:10011000FB010008FB010008FB010008FB010008CF
:10012000FB010008FB010008FB010008FB010008BF
:10013000DFF810D002F05AFF004800471F0E0008F9
:10014000AFF30080D8970020224B19680868B0E808
:10015000F00F80F30988BFF36F8F4FF0000080F33A
:1001600011884EF00D0E7047000000000648006830
:10017000006880F3088862B661B6BFF34F8FBFF3A3
:100180006F8F00DF00BF00BF08ED00E0EFF30980D4
:10019000BFF36F8F0F4B1A6820E9F00F106008B59E
:1001A0004FF0500080F31188BFF34F8FBFF36F8F74
:1001B00001F085FF4FF0000080F31188BDE8084092
:1001C00019680868B0E8F00F80F30988BFF36F8FF3
:1001D000704700BF40000020EFF30580704700002B
:1001E0000648804706480047FEE7FEE7FEE7FEE7D1
:1001F000FEE7FEE7FEE7FEE7FEE7FEE7A5020008F2
:10020000310100080CB500224C48009201920168AF
:1002100041F4803101604FF4A063016801F40031C2
:1002200001910099491C0091019911B900999942D5
:10023000F3D10168890333D50121019140490A684E
:1002400042F010020A600A6822F003020A600A689B
:1002500042F002020A6041684160416841604168C1
:1002600041F480614160416821F47C114160416842
:1002700041F4E8114160016841F08071016001685A
:100280008901FCD5416821F003014160416841F0DA
:10029000020141604168C1F381010229FAD10CBD1C
:1002A00001920CBD254810B5016841F001010160C3
:1002B0004168244A114041600168234A11400160AD
:1002C000016821F480210160416821F4FE01416050
:1002D0004FF41F018160FFF795FF1C494FF000604C
:1002E000086010BD154A10B55068194B10F00C018C
:1002F000184803D0042901D0082901D0036012E076
:100300005168536801F470114FF0020413F4803FF8
:1003100004EB914102D053689B0301D50E4B00E0E2
:100320000B4B5943016051680A4AC1F30311121D76
:10033000515C0268CA40026010BD0000001002401B
:10034000002002400000FFF8FFFFF6FE08ED00E08D
:1003500000127A000000002000093D0028490843EF
:1003600028490860704730B50F23C278017801250D
:10037000F2B1244A126801F1E02102F4E062C2F510
:10038000E062120AC2F10404D3404278A2408478A9
:100390001C401443220181F80024007800F01F0162
:1003A0008D404009800000F1E020C0F8005130BDD0
:1003B00001F01F0085404809800000F1E020C0F8EE
:1003C000805130BD104A114001430E48001F0160AA
:1003D00070470C4A121D0029116801D0014300E04A
:1003E0008143116070474FF0E0210428086903D071
:1003F00020F004000861704740F00400FAE70000B4
:100400000000FA050CED00E080FFFF1F944910B5D5
:10041000884206D10121042000F053FA0021042073
:100420003BE09049884206D10121082000F049FABA
:100430000021082031E08C49884206D1012110209A
:1004400000F03FFA0021102027E08849884206D1B9
:100450000121202000F035FA002120201DE08449F0
:10046000884206D10121402000F02BFA00214020D3
:1004700013E08049884206D10121802000F021FA52
:100480000021802009E07C4988420AD1841501219D
:10049000204600F016FA00212046BDE8104000F08A
:1004A00010BA10BD10B50121084600F00AFA00216B
:1004B000BDE81040012000F004BAF0B5CC7800226D
:1004C00004F00F03E40601D58C7823430C784FF039
:1004D0000F0C14F0FF0F4FF0010E1BD005680E88B3
:1004E0000EFA02F42640A64210D196000CFA06F746
:1004F00025EA070703FA06F5CE783D43282E02D0F9
:10050000482E02D002E0446100E00461521C082A37
:10051000E5D305600A88FF2A1CD94468002202F14D
:1005200008060EFA06F50E882E40AE420ED1960051
:100530000CFA06F7BC4303FA06F7CE783C43282EA4
:1005400000D14561CE78482E00D10561521C082AA1
:10055000E5D34460F0BD4FF6FF7101800221817048
:100560000421C17070470246002092680A4200D000
:1005700001207047806880B2704702460020D26830
:100580000A4200D001207047C06880B27047016104
:1005900070474161704710B50B460446FFF7EDFF09
:1005A00008B1636110BD236110BD0AB101617047DC
:1005B00041617047C160704741F48032826181615E
:1005C00082618169806970472C4B10B51A684FF6BB
:1005D0008074224042EA00100843186010BD284988
:1005E000C8617047F0B5254C002801DAE36900E0E6
:1005F0006368450D2E0185B2C0F30157B540C0F3C5
:100600000342032F05D0C6020AD503269640B34302
:1006100007E023F07062636823F07063636002E0B8
:10062000AB4343F0706201B12A43002801DAE26172
:10063000F0BD6260F0BD10B58A0721F003040F49D8
:10064000120F21440F238C6893409C438C608B686D
:10065000904003438B6010BD0949C1F8DC0070472E
:1006600000080140000C014000100140001401404E
:1006700000180140001C0140002001400000014022
:1006800000002042A548016841F001010160416875
:10069000A34A114041600168A24A1140016001680B
:1006A00021F480210160416821F4FE0141604FF492
:1006B0001F018160704799490A6822F480320A60FC
:1006C0000A6822F480220A60B0F5803F07D0B0F5B6
:1006D000802F03D1086840F4A020086070470868A4
:1006E00040F48030F9E70346002059098B4A01297C
:1006F0000AD002290AD0516A03F01F020123934055
:100700000B4200D0012070471168F5E7116AF3E74A
:1007100018B500204FF4A06400903120FFF7E3FFEC
:100720000099491C0091A14201D00028F5D0312048
:10073000FFF7D9FF002800D0012018BD774A1168C3
:1007400021F0F80141EAC000106070477649086066
:100750007047724B5A68084322F47C121043586069
:1007600070477149086670476C4A516821F003016F
:100770000143516070476948406800F00C007047C1
:10078000664A516821F0F001014351607047634AA5
:10079000516821F4E0610143516070475F4A51683C
:1007A00021F4605141EAC000506070475B4A002963
:1007B000517A01D0014300E08143517270475A4998
:1007C000C1F8D8007047554A516821F440410143AF
:1007D000516070475149002281F8202081F8202083
:1007E000012802D0042802D1052081F8200070479A
:1007F0004E490860704749490A6A02430A627047D5
:100800004A4944390860704730B5444A5168484BFA
:1008100011F00C0103D0042901D0082901D0036094
:1008200012E05168536801F470114FF0020413F4A0
:10083000803F04EB914102D053689B0301D53D4BAF
:1008400000E03B4B5943016051680F2303EA11114B
:10085000394B5C5C0168E14041605468072505EA5A
:1008600014241C5D21FA04F48460546805EAD4243D
:100870001B5DD940C1605268032303EA92322E4BBC
:100880001B1F9A5CB1FBF2F1016130BD234A0029C4
:10089000516901D0014300E08143516170471F4A13
:1008A0000029916901D0014300E0814391617047C3
:1008B0001A4A0029D16901D0014300E08143D16186
:1008C0007047164A0029D16801D0014300E08143F6
:1008D000D1607047114A0029116901D0014300E03D
:1008E00081431161704711494039086070470E49D2
:1008F000C86470470949C87170470848416A41F0A7
:10090000807141627047054A0146002092680A42A0
:1009100000D00120704701498872704700100240E2
:100920000000FFF8FFFFF6FE000042428004424252
:1009300000127A0000093D0018000020C44910B5DB
:1009400088420AD101218C032046FFF7BAFF2046D6
:10095000BDE810400021FFF7B4BFBE49884202D174
:1009600001214C0410E0BC49884202D101218C04D1
:100970000AE0BA49884202D10121CC0404E0B84916
:1009800088420AD101210C052046FFF7A3FF20462B
:10099000BDE810400021FFF79DBF10BD30B50446F3
:1009A000008A85B00D464CF6FF710840E988014386
:1009B0002182A0894EF6F3110840A9882A891143A3
:1009C0006A8902431143A181A08A4FF6FF41084082
:1009D000A9890143A1826846FFF716FF9C4884421B
:1009E00001D1039800E00298A189090400EBC0013D
:1009F00001EB0010296801D5490000E08900B0FB37
:100A0000F1F06422B0FBF2F109010B096FF0180557
:100A10006B4300EB8300A3891D044FF0320306D51E
:100A200003EBC000B0FBF2F000F0070005E003EBC1
:100A30000010B0FBF2F000F00F000843208105B079
:100A400030BD4FF41651016000218180C1800181C9
:100A50000C2242818181704710B5028A4FF2FF0358
:100A60001A400B884C8823438C88C9880C43234345
:100A70001343038210BD0021018041808180C18029
:100A800070470029818902D041F4005101E021F42E
:100A900000518181704710B5C1F3421301F01F046A
:100AA0000121A140012B07D0022B07D01430002ACE
:100AB000026805D00A4304E00C30F8E71030F6E78E
:100AC0008A43026010BD002A828A01D00A4300E0F6
:100AD0008A4382827047028A22F00F020282028ACF
:100AE0000A4302827047828922F4006282818289ED
:100AF0000A43828170470029818902D041F00201B6
:100B000001E021F0020181817047028A22F0200277
:100B10000282028A0A43028270470029018A02D0B7
:100B200041F4804101E021F4804101827047C1F32A
:100B30000801818070478088C0F308007047818970
:100B400041F0010181817047028BD2B20283028B96
:100B500042EA012101837047028B02F47F42028343
:100B6000028B0A43028370470029818A02D041F038
:100B7000200101E021F02001818270470029818A53
:100B800002D041F0100101E021F010018182704794
:100B90000029818A02D041F0080101E021F008011A
:100BA000818270470029818902D041F4004101E02F
:100BB000C1F30E01818170470029818A02D041F47E
:100BC000006101E021F4006181827047828A22F095
:100BD00004028282828A0A43828270470029818AC3
:100BE00002D041F0020101E021F002018182704750
:100BF0000246002012880A4200D001207047C943F3
:100C00000180704770B501F01F0501260024C1F373
:100C1000421306FA05F2012B0FD0022B0FD0838A64
:100C20004FEA11210088134206FA01F600EA060095
:100C300001D000B10124204670BD8389F0E7038A0A
:100C4000EEE70A0A01219140C94301807047000084
:100C5000003801400044004000480040004C004083
:100C60000050004038B501210820FFF718FE202071
:100C7000ADF8000010208DF803000320104C8DF813
:100C8000020069462046FFF718FC0121ADF800106C
:100C900069462046FFF711FC0221ADF800106946B5
:100CA0002046FFF70AFC20212046FFF770FC0121B7
:100CB0002046FFF76CFC02212046FFF768FC38BD98
:100CC000000C0140664C674E4FF0FF354FF4FA7749
:100CD00065A002F09DF900232A461946206900F01C
:100CE0001AFD012802D167A002F092F920213046B6
:100CF000FFF751FC00231A461946206900F089FBD2
:100D0000384601F010F9E3E74FF4FA7464A002F0FA
:100D10007FF9204601F007F9F8E7674E674F504C1E
:100D2000DFF840A14FF0FF394FF000084FF0805539
:100D30004FF4FA7B62A002F06BF900234A46194691
:100D4000206900F0E8FC012802D164A002F060F9FB
:100D5000C4F814803560BFF34F8FBFF36F8F6069A5
:100D6000401C6061B842F5D363A002F051F9002342
:100D70001A461946206900F04CFB20215046FFF727
:100D80000AFC584601F0CFF8D4E77CB502F07CF8B5
:100D9000012000F0E4FB324C206110B15CA002F0B5
:100DA00037F900231A461946206900F032FB2C4916
:100DB0000220091D0502CDE9000100232A465AA19F
:100DC0005E4800F0ECFE012802D15DA002F020F99F
:100DD000234903200831CDE9000100232A465FA101
:100DE000634800F0DCFE012802D162A002F010F995
:100DF0001B4904200C31CDE9000100232A4664A1DF
:100E0000684800F0CCFE012802D167A002F000F98A
:100E1000206800F0EFFEBDE87C4002F04FB81CB542
:100E20004FF44070FFF79AFAFFF71CFF00F0F0F85C
:100E300000F0B0F963A002F0EBF809490120CDE918
:100E400000014202002365A1684800F0A8FE0128C5
:100E500002D04FF0FF301CBD01F049FAFEE7000060
:100E600028000020000C0140B8DFD3C5CFC8BCB6B5
:100E7000C9EAC7EBBBF1C8A1D0C5BAC5C1BF0D0A4D
:100E800000000000B8DFD3C5CFC8BCB6C8CECEF1D5
:100E9000D5FDD4DAD4CBD0D0D6D02E2E2E0D0A004C
:100EA000D6D0D3C5CFC8BCB6C8CECEF1D4CBD0D067
:100EB000D6D02E2E2E0D0A0004ED00E040420F0089
:100EC000B5CDD3C5CFC8BCB6BBF1C8A1D0C5BAC5D6
:100ED000C1BFD6D02E2E2E0D0A000000B5CDD3C531
:100EE000CFC8BCB6C8CECEF1D5FDD4DAD4CBD0D0E5
:100EF000D6D02E2E2E0D0A00B5CDD3C5CFC8BCB688
:100F0000CACDB7C5D0C5BAC5C1BF0D0A0000000023
:100F1000BBA5B3E2D0C5BAC5C1BFB4B4BDA8B3C9FF
:100F2000B9A6A3A10D0A00004C6F775072696F72C9
:100F30006974795F5461736B000000001B0D000839
:100F4000B5CDD3C5CFC8BCB6C8CECEF1B4B4BDA85C
:100F5000B3C9B9A6A3A10D0A000000004D696450F1
:100F600072696F726974795F5461736B000000007D
:100F7000090D0008D6D0D3C5CFC8BCB6C8CECEF1B7
:100F8000B4B4BDA8B3C9B9A6A3A10D0A000000005E
:100F9000486967685072696F726974795F546173E8
:100FA0006B000000C50C0008B8DFD3C5CFC8BCB6C5
:100FB000C8CECEF1B4B4BDA8B3C9B9A6A3A10D0AD9
:100FC000000000004672656552544F53BBA5B3E262
:100FD000C1BFCAB5D1E90D0A0000000041707054CC
:100FE00061736B4372656174650000008B0D0008CE
:100FF0007047FEE7FEE7FEE7FEE7704710B501F039
:10100000D5FA012803D0BDE8104001F068BF10BD3B
:1010100010B586B001210420FFF741FC01218803AF
:10102000FFF73DFC4FF40070ADF8100018208DF86C
:1010300013000320554C8DF8120004A92046FFF739
:101040003CFA2115ADF8101004218DF8131004A9F5
:101050002046FFF732FA4FF4E13000900020ADF85F
:101060000400ADF80600ADF80800ADF80C000C2047
:10107000474CADF80A0069462046FFF78FFC4FF455
:10108000A060FFF76BF925208DF8140001218DF881
:1010900015108DF816108DF8171005A8FFF763F9D5
:1010A000012240F225512046FFF7F5FC01212046A0
:1010B000FFF7E7FC06B010BD10B50446FFF737FD9B
:1010C00080212046FFF794FD0028F9D010BD2DE9BE
:1010D000F04115460E460746002405E0315D3846CE
:1010E000FFF7EAFF641CE4B2AC42F7D34021384674
:1010F000FFF77EFD0028F9D0BDE8F08170B50D4600
:10110000064600243046295DFFF7D6FF641C285DA3
:101110000028F7D140213046FFF76AFD0028F9D0BA
:1011200070BD70B50446080ACDB201462046FFF7EF
:10113000FEFC80212046FFF75BFD0028F9D0294600
:101140002046FFF7F4FC80212046FFF751FD0028E0
:10115000F9D070BD70B50E4D0446C1B22846FFF7F8
:10116000E6FC80212846FFF743FD0028F9D0204601
:1011700070BD10B5064C20212046FFF739FD002830
:10118000F9D02046BDE81040FFF7D5BC000801406B
:101190000038014038B501211420FFF780FB012001
:1011A000ADF8000004248DF8034069460E48FFF7AF
:1011B00084F9E002ADF800008DF8034069460B4861
:1011C000FFF77BF938BD70B50C460546FFF7CBF944
:1011D000012801D0002070BD21462846FFF7C3F941
:1011E0000128F9D0012070BD000801400010014025
:1011F00000F108014FF0FF32C0E90112C160016146
:1012000000210160704700210161704742684A6017
:1012100093688B6093685960916008610168491C0C
:101220000160704730B50C68621C02D000F1080202
:1012300002E0026904E01A4653681D68A542FAD923
:1012400053684B6099608A60516008610168491C6D
:10125000016030BDD0E9013201699A60D0E9012313
:101260005A604A68824201D182684A600022026163
:101270000868401E0860704770B50D46040005D12F
:1012800040F21B12F8A1FEA001F0C2FE01F0FCFD2D
:10129000D4E90F20216802FB001161600021A163E5
:1012A0002168A1600A46D4E90F01401E00FB01211C
:1012B000E16021464FF0FF3001F8440F487004F11F
:1012C00010004DB1FFF794FF04F12400FFF790FFE9
:1012D00001F0F4FD012070BD21690029F8D001F072
:1012E000ACF80028F4D0EA494FF080500860BFF312
:1012F0004F8FBFF36F8FEBE770B50E46050005D13A
:101300004FF4C472D8A1DEA001F082FE96B105FBB5
:1013100006F0483001F064FC040009D004F14801F3
:1013200020464EB10160C0E90F560121FFF7A4FF2E
:10133000204670BD0020ECE70060F4E72DE9F041A5
:10134000044601F0A1FD94F9455004F1240609E09A
:10135000606A48B1304601F070F808B101F01FF939
:101360006D1E6DB2002DF3DC4FF0FF3684F8456042
:1013700001F0A4FD01F088FD94F9445004F1100738
:1013800009E0206948B1384601F057F808B101F08A
:1013900006F96D1E6DB2002DF3DC84F84460BDE8E3
:1013A000F04101F08BBD2DE9F041856B17460446F5
:1013B0000026026C82B1C7B1E06801F0EFFDE16880
:1013C000206C091AE1602268914202D26168081A11
:1013D000E060022F16D017E02068A8B9606801F01D
:1013E0002EF90646002060600EE0A06801F0D6FDF0
:1013F000216CA0680844A0606168884204D320681A
:10140000A06001E005B16D1E6D1CA5633046BDE80E
:10141000F0812DE9FF4F83B01F468B4604004FF04B
:10142000000605D140F2D9228FA195A001F0F0FD70
:10143000BBF1000F07D1206C28B140F2DA228AA15B
:101440008FA001F0E5FD022F08D1E06B012805D047
:1014500040F2DB2284A18AA001F0DAFD01F0A6F8B7
:1014600038B9059828B140F2DE227FA184A001F0AE
:10147000CFFD4FF0000A4FF08058DFF8149201F0D2
:1014800003FDA06BE16B884205D3022F03D00598C2
:10149000C8B1DEB11EE03A4659462046FFF783FF49
:1014A000616A19B104F1240000F0C7FF28B1C9F83E
:1014B0000080BFF34F8FBFF36F8F01F0FFFC01205F
:1014C00007B0BDE8F08F01F0F9FC21E0684601F0BB
:1014D00022F8012601F0F2FC00F0C4FC01F0D4FC7B
:1014E00094F94400401C01D184F844A094F94500CB
:1014F000401C01D184F845A001F0E0FC05A9684634
:1015000001F01AF830B12046FFF718FF00F01CFC7C
:101510000020D5E701F0B8FCA06BE16B884201D157
:10152000012500E0002501F0C9FC95B104F110008F
:10153000059900F044FF2046FFF700FF00F004FC8F
:1015400000289CD1C9F80080BFF34F8FBFF36F8F85
:1015500095E72046FFF7F2FE00F0F6FB8FE710B5A7
:10156000024600210120FFF7C7FE041E07D000211C
:10157000416001600B460A46C160FFF74AFF204602
:1015800010BD2DE9F0471F4690468946040005D15D
:1015900040F29F3234A13AA001F03AFDB9F1000FB8
:1015A00007D1206C28B14FF468722FA134A001F04C
:1015B0002FFD022F08D1E06B012805D040F2A132A7
:1015C00029A12FA001F024FD01F09DFC5020EFF394
:1015D000118680F31188BFF34F8FBFF36F8FA06B1D
:1015E000E16B884206D3022F04D0002086F31188D5
:1015F000BDE8F08794F945503A4649462046FFF742
:10160000D2FE681C04D06D1C84F845500120EDE723
:10161000606A0028FAD004F1240000F00EFF0028D0
:10162000F4D0B8F1000FF1D00121C8F80010EDE7B7
:1016300070B50E46040005D140F23C420AA110A04C
:1016400001F0E6FC206C28B14FF4886206A10CA0E2
:1016500001F0DEFC2068F8B96068E8B140F245426C
:1016600001A107A016E000002E2E5C4672656552AF
:10167000544F535C7372635C71756575652E6300BE
:101680004572726F723A25732C25640D0A000000B2
:1016900004ED00E001F0BCFC01F035FC5020EFF35C
:1016A000118580F31188BFF34F8FBFF36F8FA16B4C
:1016B000E06B884218D994F94500491CA163411C8C
:1016C00004D0401C84F8450001200EE0606A002828
:1016D000FAD004F1240000F0B0FE0028F4D0002E6F
:1016E000F2D001203060EFE7002085F3118870BD53
:1016F00030B4026C0B46002A0BD0C1681144C160A3
:101700004468A14201D30168C16030BC184601F0B1
:1017100045BC30BC70472DE9FF4F83B09B468A46DD
:1017200004004FF0000607D140F2DC42AFF2C801DE
:10173000AFF2B40001F06CFCBAF1000F09D1206CDB
:1017400038B140F2DD42AFF2E001AFF2CC0001F07F
:101750005FFC00F02BFF48B9059838B14FF49C624C
:10176000AFF2FC01AFF2E80001F052FC4FF00009CB
:101770004FF08057DFF8608301F086FBA56B35B32F
:1017800051462046E668FFF7B3FFBBF1000F11D0CA
:10179000E660606A50B104F1240000F04EFE28B10A
:1017A000C8F80070BFF34F8FBFF36F8F01F086FB57
:1017B000012085E66D1EA563206810B900F091FF39
:1017C000606020690028F1D004F11000E5E7059879
:1017D00008B11EB106E001F071FB27E0684600F099
:1017E0009AFE012601F06AFB00F03CFB01F04CFB85
:1017F00094F94400401C01D184F8449094F94500C8
:10180000401C01D184F8459001F058FB05A96846B9
:1018100000F092FE002820460AD0FFF78FFD00F06E
:1018200093FA204600F04AF90028A5D0002047E6A8
:1018300000F044F9D8B1206830B901F025FB6068A8
:1018400000F0BFFE01F03AFB04F12400059900F01E
:10185000B6FD2046FFF772FD00F076FA00288BD126
:10186000C8F80070BFF34F8FBFF36F8F84E7204637
:10187000FFF764FD00F068FA7EE72DE9F047904637
:101880008946040007D14FF4B462AFF22421AFF2CD
:10189000102001F0BDFBB9F1000F09D1206C38B167
:1018A00040F2A152AFF24021AFF22C2001F0B0FB88
:1018B00001F029FB5020EFF3118780F31188BFF36B
:1018C0004F8FBFF36F8FA66BF6B194F94450494622
:1018D0002046FFF70DFF761EA663681C04D06D1C22
:1018E00084F84450012010E020690028FAD004F167
:1018F000100000F0A2FD0028F4D0B8F1000FF1D0E4
:101900000121C8F80010EDE7002087F311886FE689
:101910002DE9F0410E46040007D140F2FC52AFF22F
:10192000B821AFF2A42001F073FB4EB9206C48B18E
:1019300040F2FD52AFF2D021AFF2BC2001F068FBC3
:10194000206C38B940F2FE52AFF2E421AFF2D02061
:1019500001F05EFB01F0D7FA5020EFF3118580F320
:101960001188BFF34F8FBFF36F8FA06B30B131463B
:101970002046E768FFF7BCFE0120E76085F3118889
:1019800045E510B5040007D140F22F62AFF22831CF
:10199000AFF2143001F03CFB01F076FAA46B01F0D9
:1019A0008DFA204610BD10B5040007D140F2416207
:1019B000AFF24C31AFF2383001F02AFB01F064FA9B
:1019C000D4E90E10441A01F079FA204610BD10B582
:1019D000040007D140F25162AFF27431AFF26030CF
:1019E00001F016FBA06B10BD3C4A002102EBC103C5
:1019F0005B68834206D1002042F8310002EBC1014E
:101A000048607047491C0A29F0D3704710B504009C
:101A100007D140F25D62AFF2B031AFF29C3001F01D
:101A2000F7FA2046FFF7E0FF2046BDE8104001F03E
:101A300042B910B5040007D140F29372AFF2D83129
:101A4000AFF2C43001F0E4FAA06B08B1002010BD81
:101A5000012010BD10B5040007D140F2BA72AFF2F8
:101A6000F831AFF2E43001F0D3FAA06BE16B8842B9
:101A700001D1012010BD002010BD10B5174B002270
:101A800053F832401CB1521C0A2AF9D310BD43F856
:101A9000321003EBC201486010BD10B500240F4A9C
:101AA000214602EBC1035B68834202D152F8314008
:101AB00002E0491C0A29F4D3204610BD10B50446A3
:101AC00001F0E2F9A06B20B1002401F0F7F9204603
:101AD00010BD0124F9E7000004ED00E0A40000209F
:101AE0002DE9F041054601F0CFF9FE4EB068401CEB
:101AF000B0603068FC4F10B1706930B32BE03560D6
:101B0000B068012827D1002404EB840007EB800093
:101B1000FFF76EFB641C202CF6D3F448FFF768FB3C
:101B2000F2481430FFF764FBF0482830FFF760FB01
:101B3000EE483C30FFF75CFBEC485030FFF758FBB9
:101B4000EA4870631430B06305E03068E96AC06A3F
:101B5000884200D83560706A0121401C7062E86AD2
:101B6000326981401143316100EB800007EB800056
:101B7000291DFFF74BFB01F0A1F9706900280CD07B
:101B80003068E96AC06A884207D2D9494FF080506C
:101B90000860BFF34F8FBFF36F8FBDE8F0812DE971
:101BA000FF5F8346DDE90E87994616468A46900018
:101BB00001F016F805001AD0542001F011F80400C5
:101BC00012D025630021CDE90241CDE900874B46C3
:101BD00032465146584600F040FF2046FFF780FF4E
:101BE000012004B0BDE8F09F284601F064F84FF0F2
:101BF000FF30F6E770B5044601F046F9B94D04B977
:101C00002C68201DFFF726FB58B9E06AB64A00EBA6
:101C1000800152F8211021B90121814028698843AF
:101C20002861A06A18B104F11800FFF713FB686A75
:101C3000401C68622868844208D1AC48211D3C30B1
:101C4000FFF7E4FA6868401C686007E0A868401E77
:101C5000A860204600F054FF00F045FF01F02EF987
:101C60006869002812D0286884420FD1286B28B1F7
:101C700040F265429FA1A5A001F0CAF99C494FF02E
:101C800080500860BFF34F8FBFF36F8F70BD2DE999
:101C9000F041944F0026386B38B1B869401CB861E8
:101CA000F86900B10126304677E7FD686D1CFD60DC
:101CB00011D1786B006828B140F6D9128DA193A09C
:101CC00001F0A6F9786BB96B7963B863386A401C88
:101CD000386200F008FFB86ADFF80C82854209D349
:101CE000786B006880B1786BC068C46860688542B2
:101CF0000DD2B8623868C06A00EB800158F8210044
:101D00000128CDD90126CBE74FF0FF30F1E7201DA8
:101D1000FFF7A0FAA06A18B104F11800FFF79AFAC9
:101D2000E06A01213A6981401143396100EB800189
:101D300008EB8100211DFFF769FAE06A3968C96A7A
:101D40008842CDD30126CBE72DE9F047654D00242D
:101D50002746286B28B94FF4FD6266A16BA001F0FD
:101D600057F901F091F8286B401E2863286BE0BBFF
:101D7000A8685E4928310126B8B3DFF86C9188461F
:101D8000D8F80010E9B1D8F80C00C46804F11800C4
:101D9000FFF760FA201DFFF75DFAE06A2A6906FA8C
:101DA00000F11143296100EB800109EB8100211D45
:101DB000FFF72CFAE06A2968C96A8842E0D3EE612D
:101DC000DEE70CB100F08FFEAC693CB1FFF75FFFBE
:101DD00000B1EE61641EF9D10020A861E86920B16C
:101DE000434901273807086000E003E0BFF34F8F45
:101DF000BFF36F8F01F062F83846BDE8F0872DE938
:101E0000F041384E0F460446F5683068001DFFF774
:101E100021FA38B9306890F82C10012088403169D7
:101E200081433161601C08D13FB13168BDE8F041A8
:101E30002E485030091DFFF7E9B930682C44AC42F8
:101E40004460316805D2B06BBDE8F041091DFFF771
:101E5000E9B9706B091DFFF7E5F9B06A844200D259
:101E6000B4629AE61F48016B491C016370472DE973
:101E7000F0410E4605004FF0000405D140F27942D2
:101E80001CA122A001F0C4F82EB940F27A4219A197
:101E90001EA001F0BDF8134F386B28B140F27B4211
:101EA00014A11AA001F0B4F8FFF7DCFFFA68286863
:101EB0008119904202D9884202D804E0884201D8B0
:101EC000914200D9012429601CB1881A0021FFF732
:101ED00096FFFFF739FF002824D105494FF08050C5
:101EE00008601BE040000020F40000207403002084
:101EF00004ED00E02E2E5C4672656552544F535C33
:101F00007372635C7461736B732E63004572726FDE
:101F1000723A25732C25640D0A000000BFF34F8F21
:101F2000BFF36F8F39E610B5040014D0FE49096B7A
:101F300039B140F2CF42AFF24401AFF2300001F0CC
:101F400067F8FFF78FFF00212046FFF758FFFFF7E4
:101F5000FBFE002807D1F5494FF080500860BFF321
:101F60004F8FBFF36F8F10BD70B5050007D140F2E2
:101F7000FB42AFF28001AFF26C0001F049F8EA4E8B
:101F80003068854201D1002070BD00F07DFF6C6992
:101F900000F094FF706B844202D0B06B844201D198
:101FA000022070BDE248844204D1A86A0028F7D11B
:101FB000032070BDDE481438844202D00CB10120E9
:101FC00070BD042070BD10B5044600F05DFF0CB973
:101FD000D5480468E46A00F071FF204610BD10B5D2
:101FE000044600F090FF5020EFF3118180F3118838
:101FF000BFF34F8FBFF36F8F0CB9CB480468E06A13
:1020000081F3118810BD2DE9F04100260D460446EC
:10201000202908D34FF4B062AFF22811AFF21410A8
:1020200000F0F6FF1F2500F02FFFBF4F04B93C68FA
:10203000606CA8423FD03968854206D98C4207D0EF
:102040003968C96AA94202D902E08C4200D101264E
:10205000E16A8846884200D1E5626564A06900288B
:1020600002DBC5F12000A061B24D08EB8800616978
:1020700005EB8000814215D1201DFFF7EBF801210F
:1020800020B93A6901FA08F082433A61E06A3A6994
:1020900081401143396100EB800005EB8000211D78
:1020A000FFF7B4F83EB1A1494FF080500860BFF38C
:1020B0004F8FBFF36F8FBDE8F04100F0FFBE70B5EA
:1020C000994D286B10B10120E86170BD0020E861D6
:1020D0002869984EB0FA80F0C0F11F0000EB800430
:1020E00056F8240038B940F6F622AFF2F811AFF2F4
:1020F000E41000F08DFF06EB840000F10802416857
:1021000049684160914201D149684160C8682860CE
:1021100070BD70B5044600F0B7FE834D04B92C685D
:10212000201DFFF797F858B9E06A824A00EB80015A
:1021300052F8211021B90121814028698843286182
:10214000A06A18B104F11800FFF784F8211D78483F
:10215000FFF75CF800F0B2FE686928B100F094FE69
:1021600000F0C1FC00F0AAFE2868844213D168691F
:1021700090B1286B38B140F25762AFF28821AFF2CC
:10218000742000F045FF69494FF080500860BFF3AC
:102190004F8FBFF36F8F70BD6548A9680068884294
:1021A00002D10020286070BDBDE8704087E770B59F
:1021B0000025040007D140F28162AFF2C821AFF2DE
:1021C000B42000F025FF5A496069884205D1A06A11
:1021D0002839884201D000B90125284670BD70B564
:1021E00004002BD0504D2868844231D000F04CFEC2
:1021F0002046FFF7DCFFE8B1201DFFF72BF8E06A6F
:1022000001212A698140114329614A4900EB80007C
:1022100001EB8000211DFEF7F9FFE06A2968C96A19
:10222000884207D341494FF080500860BFF34F8F79
:10223000BFF36F8FBDE8704000F040BE40F2AB626C
:10224000AFF25031AFF23C30BDE8704000F0E0BE7C
:1022500070BD2DE9F0410026040007D140F2E26292
:10226000AFF27031AFF25C3000F0D2FE00F04BFE06
:102270005020EFF3118580F31188BFF34F8FBFF328
:102280006F8F2046FFF793FFF0B1274F386B20B1D7
:10229000274804F11801283814E0E06A3968C96A4F
:1022A000884200D30126201DFEF7D4FFE06A0121F9
:1022B0003A698140114339611E4900EB800001EB0E
:1022C0008000211DFEF7A2FF85F31188304664E4EB
:1022D000184E4FF08054154D00F01CFC306801285A
:1022E000FAD92C60BFF34F8FBFF36F8FF4E71CB5A3
:1022F0000D4800242C30CDE90040234680220EA159
:102300000F48FFF74CFC01280CD0401C2BD140F2A9
:102310008472AFF22041AFF20C4002B0BDE8104031
:1023200000F076BE50200DE04000002004ED00E0FB
:10233000C4030020F400002049444C450000000084
:10234000D122000880F31188BFF34F8FBFF36F8F46
:10235000FB484FF0FF31816201214161C460BDE85B
:102360001C4000F04FBD1CBD502080F31188BFF30E
:102370004F8FBFF36F8FF2490020486100F078BDA6
:10238000EF48C068704710B500F0BDFDEC48C0686C
:1023900010BDEB488068704710B510B104461CB101
:1023A0000AE0E7480468FAE740F68C02AFF2BC4165
:1023B000AFF2A84000F02CFE04F1340010BD70B55F
:1023C0000D46040007D140F60632AFF2D841AFF215
:1023D000C44000F01DFEDA48016820461831FEF7BF
:1023E00021FF2846BDE87040012108E52DE9F041B4
:1023F00017460E46050007D140F61732AFF20C51D2
:10240000AFF2F84000F004FECD4C206B38B940F636
:102410001B32AFF22051AFF20C5000F0F9FD2168F1
:1024200046F000408861216828461831FEF7EEFE2C
:102430003846BDE8F0410121E1E42DE9F041C068F2
:10244000C4683CB940F66132AFF25851AFF2445023
:1024500000F0DEFD04F118000746FEF7FBFEB84D64
:10246000286B012658B13946B648FEF7CFFEE06A20
:102470002968C96A884212D90120EE6114E4201D3E
:10248000FEF7E8FEE06A2A6906FA00F111432961C5
:10249000AD4900EB800001EB8000211DE5E7002045
:1024A000DFE470B5A64D06460C46286B38B940F6F9
:1024B0009932AFF2C051AFF2AC5000F0A9FD44F038
:1024C00000403060F4683CB940F6A132AFF2DC5114
:1024D000AFF2C85000F09CFD3046FEF7BBFE201D59
:1024E000FEF7B8FEE06A01262A6906FA00F11143F8
:1024F0002961954900EB800001EB8000211DFEF76A
:1025000085FEE06A2968C96A884202D90120EE6125
:1025100070BD002070BD10B5040007D140F6C13277
:10252000AFF23061AFF21C6000F072FD8448016AC6
:102530002160C068606010BD70B50D46040007D111
:1025400040F6CB32AFF25461AFF2406000F060FD74
:102550003DB940F6CC32AFF26461AFF2506000F0AA
:1025600057FD00F091FC764AD06829684B1C0FD0CB
:102570002368126A934202D0626882420AD9626872
:10258000801A884206D2081A28602046FFF7C3FF47
:10259000002400E0012400F091FC204670BD684951
:1025A0000120C86170476648006870476448416907
:1025B00019B1006B18B1002070470120704702204C
:1025C000704770B5040039D05D4DE06A2968C96A6A
:1025D000884233D2A069002804DB2868C06AC0F1B1
:1025E0002000A061E06A584E00EB8000616906EBB4
:1025F000800081421FD1201DFEF72CFE012150B921
:10260000E06A00EB800256F8222022B92A6901FA1A
:1026100000F082432A612868C06AE0622A6981402A
:102620001143296100EB800006EB8000211DBDE80D
:102630007040FEF7EBBD2868C06AE06270BD70B5FF
:1026400004004FF0000640D03D4D2868844207D07A
:1026500040F6C762AFF26471AFF2507000F0D8FC80
:10266000A06C38B940F6C962AFF27871AFF264700D
:1026700000F0CEFCA06C401EA064626CE16A914246
:1026800023D010BB201DFEF7E5FD2F49012250B9D4
:10269000E06A00EB800351F8233023B92B6902FA7A
:1026A00000F083432B61606CE062C0F12000A06108
:1026B000E06A2B6982401A432A6100EB800001EB3B
:1026C0008000211DFEF7A2FD0126304670BD1C4989
:1026D00008680A688069D26A0968C2F120028A61C2
:1026E00070471749086818B10868826C521C8264E8
:1026F0000868704770B50C46064600F0C5FB104DE3
:102700002868C06C80B92968012081F850005CB14C
:1027100001212046FFF773FB0C494FF08050086001
:10272000BFF34F8FBFF36F8F00F0C8FB00F0ACFB1F
:102730002868C46C002074B156B12968C8640AE0E6
:10274000400000209C030020F400002004ED00E085
:102750002A68611ED164296881F8500000F0AEFB40
:10276000204670BD2DE9F0411E46154688460746B5
:1027700000F08AFBFA4C206890F85000022814D030
:102780002068C16CB943C1642168012081F8500000
:102790005EB101213046FFF732FBF2494FF0805025
:1027A0000860BFF34F8FBFF36F8F00F087FB00F01F
:1027B0006BFB15B12068C06C2860206890F8500051
:1027C00001280DD02068C16C21EA0801C1640125EF
:1027D0002168002081F8500000F070FB284676E563
:1027E0000025F5E72DE9F0411F4690460D4604000F
:1027F0004FF0010607D141F2FD02AFF60811AFF626
:10280000F40000F005FC00F03FFB0FB1E06C386015
:1028100094F85000022184F85010B8F1050F0ED240
:10282000DFE808F00D03060C0A00E16C294301E023
:10283000E16C491CE16402E0022803D0E564012850
:1028400002D02AE0002628E0201DFEF703FDC44D3B
:10285000E06A01212A69814011432961C24900EBE4
:10286000800001EB8000211DFEF7D0FCA06A38B18A
:1028700041F23512AFF68411AFF6701000F0C8FBCC
:10288000E06A2968C96A884207D9B6494FF0805082
:102890000860BFF34F8FBFF36F8F00F00FFB304620
:1028A00015E52DE9F0471F46DDF8209092460D46CC
:1028B00004004FF0010807D141F26812AFF6CC11C5
:1028C000AFF6B81000F0A4FB00F01DFB5020EFF3B2
:1028D000118680F31188BFF34F8FBFF36F8F0FB155
:1028E000E06C386094F85000022184F85010BAF17E
:1028F000050F0ED2DFE80AF00D03060C0A00E16CAA
:10290000294301E0E16C491CE16402E0022803D0A4
:10291000E564012803D031E04FF000082EE0A06A02
:1029200038B141F2AF12AFF63421AFF6202000F0FB
:102930006FFB8B4D286B012778B104F118018B4890
:10294000FEF764FCE06A2968C96A884216D9B9F1C1
:10295000000F12D0C9F8007010E0201DFEF77AFCBD
:10296000E06A2A6907FA00F11143296100EB80014E
:102970007D4800EB8100211DE2E7EF6186F31188BD
:102980004046BDE8F0872DE9F0418846040007D1B4
:1029900041F2E312AFF6A421AFF6902000F038FB2D
:1029A00000F0B1FA5020EFF3118780F31188BFF3E4
:1029B0004F8FBFF36F8F94F85000022184F85010AE
:1029C000E16C491CE16401282ED1A06A38B141F2C2
:1029D0000922AFF6E021AFF6CC2000F019FB604DE4
:1029E000286B012678B104F118016048FEF70EFC4F
:1029F000E06A2968C96A884216D9B8F1000F12D076
:102A0000C8F8006010E0201DFEF724FCE06A2A6987
:102A100006FA00F111432961534900EB800001EBF4
:102A20008000211DE2E7EE6187F311884FE410B5C5
:102A300058B1044600F028FA94F85000022807D054
:102A4000002400F03BFA204610BD45480468F1E739
:102A5000002084F850000124F3E72DE9F0470E46EA
:102A6000DDE9098482466FF00301206B01EB8201EE
:102A70000844089D20F007079946780705D040F2E2
:102A80002B323BA140A000F0C3FA00202218315C99
:102A900082F83410315C11B1401C1028F6D30026A6
:102AA00084F84360202D00D31F25E562C4E9115648
:102AB000201DFEF7A8FB04F11800FEF7A4FB24611B
:102AC000C5F120006462A061E66484F850604A4663
:102AD0005146384600F079F92060B8F1000F01D076
:102AE000C8F800404DE71E48416B096829B1416BA9
:102AF000C968C9684968816270474FF0FF31FAE7D9
:102B000010B50446006B00F0D6F82046BDE8104032
:102B100000F0D1B870B5154E114D14361CE0FFF71A
:102B2000A1F9306820B10024FFF70EF9A4B901E043
:102B30000124F9E700F0A8F9F068C468201DFEF749
:102B400089FBA868401EA8606868401E686000F0A5
:102B5000B5F92046FFF7D4FF68680028DFD170BDC3
:102B60004000002004ED00E0F40000209C03002061
:102B70002E2E5C4672656552544F535C7372635CD3
:102B80007461736B732E63004572726F723A2573B2
:102B90002C25640D0A00000030B5744900E0114690
:102BA0000A688242FBD34B685C18844203D14068B8
:102BB00018444860084643681C18944209D16B4C7D
:102BC000103C2468A24209D052681A4442600A6844
:102BD00012680260814200D0086030BD0460F9E7ED
:102BE0002DE9F04105460026FFF73CF95F4F103F05
:102BF000386808B900F098F8F86805424ED1002D01
:102C00004CD0083568070BD005F00700C0F108006C
:102C10000544680704D0BF2255A15EA000F0F8F972
:102C2000002D3BD07868854238D850490846046862
:102C300001E0214604466068A84202D220680028CC
:102C4000F7D13868B846844228D00E6820680860FA
:102C500060680836401B10280ED96719780704D021
:102C6000EC2243A14BA000F0D3F96068401B7860D0
:102C700038466560FFF790FF6168D8F80400424667
:102C8000401AC8F80400D8F80830984200D2906082
:102C9000D8F80C0001430020C4E90001FFF754F804
:102CA000700705D04FF4967231A13AA000F0B0F948
:102CB0003046BDE8F08170B500282BD02B4DA0F137
:102CC0000804103D6068E968084205D14FF4A0721D
:102CD00027A130A000F09CF9206828B140F24112F1
:102CE00023A12CA000F094F96068E968084211D093
:102CF0002268002A0ED188436060FFF7B3F860684D
:102D00006968084468602046FFF746FFBDE87040E8
:102D1000FFF71AB870BD154810384068704713485F
:102D200010388068704770471E484FF410414207C2
:102D300006D0C01D1B4920F00700411AC1F5104103
:102D40000A4A00230144C2E900030839103A21F07D
:102D5000070111604B600B600B1AC0E90013936010
:102D60004FF000405360D060704700008C0000209E
:102D70002E2E5C4672656552544F535C706F7274B0
:102D80005C4D656D4D616E675C686561705F342E8A
:102D9000630000004572726F723A25732C25640D32
:102DA0000A000000D803002069484068401C04D095
:102DB000F42268A171A000F02BF9502080F3118853
:102DC000BFF34F8FBFF36F8FFEE710B5031F4FF0B8
:102DD00080741C601B1F21F001011960191F6B4BCF
:102DE0000B60143940380A6010BD69484FF47A719D
:102DF0000068B0FBF1F14FF0E020491E416107216E
:102E0000016170471CB5634908780190FF20087084
:102E100008788DF800009DF800004D4A00F0500041
:102E200010700720906007E09068401E90609DF849
:102E3000000040008DF800009DF800000006F3D46B
:102E4000107A000200F4E060906001980870524827
:102E5000016841F470010160016841F07041016056
:102E6000FFF7C3FF00205060FDF780F900201CBD74
:102E700037484068B0F57A7F05D04FF4B57235A178
:102E80003EA000F0C5B87047502080F31188BFF312
:102E90004F8FBFF36F8F2E494868401C4860012850
:102EA0000BD13D481C38006810F0FF0F05D04FF4DF
:102EB000BD7228A131A000F0ABB8704710B5244C0A
:102EC000606828B940F2811222A12CA000F0A0F87D
:102ED0006068401E606001D180F3118810BD10B59C
:102EE000502080F31188BFF34F8FBFF36F8FFEF731
:102EF000CEFE20B128494FF080501C3908600020D8
:102F000080F3118810BD10B5FDF766F9104C10283C
:102F10000CD300F1E02090F8F0032178884205D22C
:102F20004FF42A720BA115A000F072F81A48143859
:102F30000068A16800F4E060884207D9BDE810404D
:102F40004FF42E7203A10DA000F062B810BD000076
:102F5000940000202E2E5C4672656552544F535CDF
:102F6000706F72745C525644535C41524D5F434DD6
:102F7000335C706F72742E63000000004572726FD4
:102F8000723A25732C25640D0A000000A92D000853
:102F90000000002000E400E020ED00E040EA010332
:102FA0009B0703D009E008C9121F08C0042AFAD2FF
:102FB00003E011F8013B00F8013B521EF9D27047C3
:102FC00030B50B46014600202022012409E021FAF9
:102FD00002F59D4205D303FA02F5491B04FA02F5F6
:102FE0002844151EA2F10102F1DC30BD064C074D4C
:102FF00006E0E06840F0010394E8070098471034C9
:10300000AC42F6D3FDF798F80832000828320008E1
:103010000FB4054B10B503A9044A029800F018F844
:1030200010BC5DF814FB000055110008A000002042
:1030300002E008C8121F08C1002AFAD17047704781
:10304000002001E001C1121F002AFBD170470000DF
:103050002DE9FF4F8BB09A460F460546002606E045
:1030600025280BD052460D9990476D1C761C287868
:103070000028F5D10FB03046BDE8F08F0024A046FF
:103080000122604900E0044315F8013F203B02FAA9
:1030900003F00842F7D128782E2817D115F8010F30
:1030A00044F004042A280ED06FF02F022878A0F1F3
:1030B000300109290AD808EB880102EB410100EB35
:1030C00001086D1CF2E757F8048B6D1C28786928FD
:1030D0003ED006DC0028CDD063280BD0642804D174
:1030E00036E0732810D075284BD052460D99904782
:1030F000761C85E017F8040B8DF8000000208DF891
:103100000100E946012003E057F8049B4FF0FF302F
:1031100061074FF0000401D40AE0641C44450DDA55
:103120008442FADB19F804100029F6D106E0641C89
:103130008442FCDB19F804100029F8D1264404E08D
:1031400019F8010B52460D999047641EF8D257E0CA
:1031500001CF4FF00A0B002802DA40422D2102E095
:10316000210504D52B218DF82410012103E0E1076E
:1031700005D02021F7E70DF1200908910CE000218E
:10318000F9E701CF4FF00A0BF9E75946FFF718FFAF
:1031900001F1300209F8012D0028F6D1ADEB09004C
:1031A00000F1200B600701D44FF00108D84502DD83
:1031B000A8EB0B0000E000208046002406E009A8F0
:1031C0005246005D0D999047641C761C0898844215
:1031D000F5DB04E0302052460D999047761CB8F19B
:1031E0000001A8F10108F5DC05E019F8010B5246D1
:1031F0000D999047761CBBF10001ABF1010BF4DC9B
:103200006D1C34E709280100283200080000002066
:10321000A400000030300008CC320008A4000020D8
:10322000349700004030000800A24A04000000006B
:103230000000000001020304060708090204060852
:10324000000000000102030401020304060708094C
:10325000000000000000000000000000000000006E
:10326000000000000000000000000000000000005E
:10327000000000000000000000000000000000004E
:10328000000000000000000000000000000000003E
:10329000000000000000000000000000000000002E
:1032A000000000000000000000000000000000001E
:1032B000000000000000000000000000000000000E
:0C32C000AAAAAAAA00000000000000005A
:0400000508000131BD
:00000001FF
