:020000040800F2
:10000000D0970020E1010008490F00084B0F0008BD
:100010004D0F00084F0F0008510F000800000000AE
:10002000000000000000000000000000490100087E
:10003000530F0008000000008D010008550F000854
:10004000FB010008FB010008FB010008FB010008A0
:10005000FB010008FB010008FB010008FB01000890
:10006000FB010008FB010008FB010008FB01000880
:10007000FB010008FB010008FB010008FB01000870
:10008000FB010008FB010008FB010008FB01000860
:10009000FB010008FB010008FB010008FB01000850
:1000A000FB010008FB010008FB010008FB01000840
:1000B000FB010008FB010008FB010008FB01000830
:1000C000FB010008FB010008FB010008FB01000820
:1000D000FB010008FB010008FB010008FB01000810
:1000E000FB010008FB010008FB010008FB01000800
:1000F000FB010008FB010008FB010008FB010008F0
:10010000FB010008FB010008FB010008FB010008DF
:10011000FB010008FB010008FB010008FB010008CF
:10012000FB010008FB010008FB010008FB010008BF
:10013000DFF810D002F046FE00480047B70D000877
:10014000AFF30080D0970020224B19680868B0E810
:10015000F00F80F30988BFF36F8F4FF0000080F33A
:1001600011884EF00D0E7047000000000648006830
:10017000006880F3088862B661B6BFF34F8FBFF3A3
:100180006F8F00DF00BF00BF08ED00E0EFF30980D4
:10019000BFF36F8F0F4B1A6820E9F00F106008B59E
:1001A0004FF0500080F31188BFF34F8FBFF36F8F74
:1001B00001F003FF4FF0000080F31188BDE8084014
:1001C00019680868B0E8F00F80F30988BFF36F8FF3
:1001D000704700BF38000020EFF305807047000033
:1001E0000648804706480047FEE7FEE7FEE7FEE7D1
:1001F000FEE7FEE7FEE7FEE7FEE7FEE7A5020008F2
:10020000310100080CB500224C48009201920168AF
:1002100041F4803101604FF4A063016801F40031C2
:1002200001910099491C0091019911B900999942D5
:10023000F3D10168890333D50121019140490A684E
:1002400042F010020A600A6822F003020A600A689B
:1002500042F002020A6041684160416841604168C1
:1002600041F480614160416821F47C114160416842
:1002700041F4E8114160016841F08071016001685A
:100280008901FCD5416821F003014160416841F0DA
:10029000020141604168C1F381010229FAD10CBD1C
:1002A00001920CBD254810B5016841F001010160C3
:1002B0004168244A114041600168234A11400160AD
:1002C000016821F480210160416821F4FE01416050
:1002D0004FF41F018160FFF795FF1C494FF000604C
:1002E000086010BD154A10B55068194B10F00C018C
:1002F000184803D0042901D0082901D0036012E076
:100300005168536801F470114FF0020413F4803FF8
:1003100004EB914102D053689B0301D50E4B00E0E2
:100320000B4B5943016051680A4AC1F30311121D76
:10033000515C0268CA40026010BD0000001002401B
:10034000002002400000FFF8FFFFF6FE08ED00E08D
:1003500000127A000000002000093D0028490843EF
:1003600028490860704730B50F23C278017801250D
:10037000F2B1244A126801F1E02102F4E062C2F510
:10038000E062120AC2F10404D3404278A2408478A9
:100390001C401443220181F80024007800F01F0162
:1003A0008D404009800000F1E020C0F8005130BDD0
:1003B00001F01F0085404809800000F1E020C0F8EE
:1003C000805130BD104A114001430E48001F0160AA
:1003D00070470C4A121D0029116801D0014300E04A
:1003E0008143116070474FF0E0210428086903D071
:1003F00020F004000861704740F00400FAE70000B4
:100400000000FA050CED00E080FFFF1F944910B5D5
:10041000884206D10121042000F053FA0021042073
:100420003BE09049884206D10121082000F049FABA
:100430000021082031E08C49884206D1012110209A
:1004400000F03FFA0021102027E08849884206D1B9
:100450000121202000F035FA002120201DE08449F0
:10046000884206D10121402000F02BFA00214020D3
:1004700013E08049884206D10121802000F021FA52
:100480000021802009E07C4988420AD1841501219D
:10049000204600F016FA00212046BDE8104000F08A
:1004A00010BA10BD10B50121084600F00AFA00216B
:1004B000BDE81040012000F004BAF0B5CC7800226D
:1004C00004F00F03E40601D58C7823430C784FF039
:1004D0000F0C14F0FF0F4FF0010E1BD005680E88B3
:1004E0000EFA02F42640A64210D196000CFA06F746
:1004F00025EA070703FA06F5CE783D43282E02D0F9
:10050000482E02D002E0446100E00461521C082A37
:10051000E5D305600A88FF2A1CD94468002202F14D
:1005200008060EFA06F50E882E40AE420ED1960051
:100530000CFA06F7BC4303FA06F7CE783C43282EA4
:1005400000D14561CE78482E00D10561521C082AA1
:10055000E5D34460F0BD4FF6FF7101800221817048
:100560000421C17070470246002092680A4200D000
:1005700001207047806880B2704702460020D26830
:100580000A4200D001207047C06880B27047016104
:1005900070474161704710B50B460446FFF7EDFF09
:1005A00008B1636110BD236110BD0AB101617047DC
:1005B00041617047C160704741F48032826181615E
:1005C00082618169806970472C4B10B51A684FF6BB
:1005D0008074224042EA00100843186010BD284988
:1005E000C8617047F0B5254C002801DAE36900E0E6
:1005F0006368450D2E0185B2C0F30157B540C0F3C5
:100600000342032F05D0C6020AD503269640B34302
:1006100007E023F07062636823F07063636002E0B8
:10062000AB4343F0706201B12A43002801DAE26172
:10063000F0BD6260F0BD10B58A0721F003040F49D8
:10064000120F21440F238C6893409C438C608B686D
:10065000904003438B6010BD0949C1F8DC0070472E
:1006600000080140000C014000100140001401404E
:1006700000180140001C0140002001400000014022
:1006800000002042A548016841F001010160416875
:10069000A34A114041600168A24A1140016001680B
:1006A00021F480210160416821F4FE0141604FF492
:1006B0001F018160704799490A6822F480320A60FC
:1006C0000A6822F480220A60B0F5803F07D0B0F5B6
:1006D000802F03D1086840F4A020086070470868A4
:1006E00040F48030F9E70346002059098B4A01297C
:1006F0000AD002290AD0516A03F01F020123934055
:100700000B4200D0012070471168F5E7116AF3E74A
:1007100018B500204FF4A06400903120FFF7E3FFEC
:100720000099491C0091A14201D00028F5D0312048
:10073000FFF7D9FF002800D0012018BD774A1168C3
:1007400021F0F80141EAC000106070477649086066
:100750007047724B5A68084322F47C121043586069
:1007600070477149086670476C4A516821F003016F
:100770000143516070476948406800F00C007047C1
:10078000664A516821F0F001014351607047634AA5
:10079000516821F4E0610143516070475F4A51683C
:1007A00021F4605141EAC000506070475B4A002963
:1007B000517A01D0014300E08143517270475A4998
:1007C000C1F8D8007047554A516821F440410143AF
:1007D000516070475149002281F8202081F8202083
:1007E000012802D0042802D1052081F8200070479A
:1007F0004E490860704749490A6A02430A627047D5
:100800004A4944390860704730B5444A5168484BFA
:1008100011F00C0103D0042901D0082901D0036094
:1008200012E05168536801F470114FF0020413F4A0
:10083000803F04EB914102D053689B0301D53D4BAF
:1008400000E03B4B5943016051680F2303EA11114B
:10085000394B5C5C0168E14041605468072505EA5A
:1008600014241C5D21FA04F48460546805EAD4243D
:100870001B5DD940C1605268032303EA92322E4BBC
:100880001B1F9A5CB1FBF2F1016130BD234A0029C4
:10089000516901D0014300E08143516170471F4A13
:1008A0000029916901D0014300E0814391617047C3
:1008B0001A4A0029D16901D0014300E08143D16186
:1008C0007047164A0029D16801D0014300E08143F6
:1008D000D1607047114A0029116901D0014300E03D
:1008E00081431161704711494039086070470E49D2
:1008F000C86470470949C87170470848416A41F0A7
:10090000807141627047054A0146002092680A42A0
:1009100000D00120704701498872704700100240E2
:100920000000FFF8FFFFF6FE000042428004424252
:1009300000127A0000093D0018000020C44910B5DB
:1009400088420AD101218C032046FFF7BAFF2046D6
:10095000BDE810400021FFF7B4BFBE49884202D174
:1009600001214C0410E0BC49884202D101218C04D1
:100970000AE0BA49884202D10121CC0404E0B84916
:1009800088420AD101210C052046FFF7A3FF20462B
:10099000BDE810400021FFF79DBF10BD30B50446F3
:1009A000008A85B00D464CF6FF710840E988014386
:1009B0002182A0894EF6F3110840A9882A891143A3
:1009C0006A8902431143A181A08A4FF6FF41084082
:1009D000A9890143A1826846FFF716FF9C4884421B
:1009E00001D1039800E00298A189090400EBC0013D
:1009F00001EB0010296801D5490000E08900B0FB37
:100A0000F1F06422B0FBF2F109010B096FF0180557
:100A10006B4300EB8300A3891D044FF0320306D51E
:100A200003EBC000B0FBF2F000F0070005E003EBC1
:100A30000010B0FBF2F000F00F000843208105B079
:100A400030BD4FF41651016000218180C1800181C9
:100A50000C2242818181704710B5028A4FF2FF0358
:100A60001A400B884C8823438C88C9880C43234345
:100A70001343038210BD0021018041808180C18029
:100A800070470029818902D041F4005101E021F42E
:100A900000518181704710B5C1F3421301F01F046A
:100AA0000121A140012B07D0022B07D01430002ACE
:100AB000026805D00A4304E00C30F8E71030F6E78E
:100AC0008A43026010BD002A828A01D00A4300E0F6
:100AD0008A4382827047028A22F00F020282028ACF
:100AE0000A4302827047828922F4006282818289ED
:100AF0000A43828170470029818902D041F00201B6
:100B000001E021F0020181817047028A22F0200277
:100B10000282028A0A43028270470029018A02D0B7
:100B200041F4804101E021F4804101827047C1F32A
:100B30000801818070478088C0F308007047818970
:100B400041F0010181817047028BD2B20283028B96
:100B500042EA012101837047028B02F47F42028343
:100B6000028B0A43028370470029818A02D041F038
:100B7000200101E021F02001818270470029818A53
:100B800002D041F0100101E021F010018182704794
:100B90000029818A02D041F0080101E021F008011A
:100BA000818270470029818902D041F4004101E02F
:100BB000C1F30E01818170470029818A02D041F47E
:100BC000006101E021F4006181827047828A22F095
:100BD00004028282828A0A43828270470029818AC3
:100BE00002D041F0020101E021F002018182704750
:100BF0000246002012880A4200D001207047C943F3
:100C00000180704770B501F01F0501260024C1F373
:100C1000421306FA05F2012B0FD0022B0FD0838A64
:100C20004FEA11210088134206FA01F600EA060095
:100C300001D000B10124204670BD8389F0E7038A0A
:100C4000EEE70A0A01219140C94301807047000084
:100C5000003801400044004000480040004C004083
:100C60000050004038B501210820FFF718FE202071
:100C7000ADF8000010208DF803000320104C8DF813
:100C8000020069462046FFF718FC0121ADF800106C
:100C900069462046FFF711FC0221ADF800106946B5
:100CA0002046FFF70AFC20212046FFF770FC0121B7
:100CB0002046FFF76CFC02212046FFF768FC38BD98
:100CC000000C01404F4D504F504C6E1401212846EE
:100CD00000F025FA01280AD100231A461946E068D7
:100CE00000F03AFB012809D049A002F07DF8314616
:100CF000384600F014FA012802D00CE04AA0F4E7CC
:100D000000231A461946E06800F026FB012806D0A9
:100D10003FA002F069F8142001F087F8D6E742A05E
:100D2000F7E73A4C464E4FF0FF3500232A46194666
:100D3000E06800F080FC012802D142A002F054F8E3
:100D400020213046FFF727FCEFE77CB501F088FF54
:100D500003220021012000F07BFA2C4CE06010B14E
:100D600040A002F041F829490220091D0502CDE901
:100D7000000100232A4641A1444800F092FE0128C8
:100D800002D143A002F030F8204903200831CDE918
:100D9000000100232A4644A1464800F082FE0128B3
:100DA00002D145A002F020F8206800F0A5FEBDE8C1
:100DB0007C4001F06FBF1CB54FF44070FFF7CEFAD6
:100DC000FFF750FF00F0D0F800F090F940A002F0DB
:100DD0000BF80E490120CDE900014202002347A192
:100DE0004A4800F05EFE012805D049A001F0FCFF52
:100DF0004FF0FF301CBD01F0F8F94CA001F0F4FFFA
:100E0000FEE700000008014000100140280000201B
:100E1000B6FED6B5D0C5BAC5CACDB7C5CAA7B0DC6F
:100E2000A3A10D0A00000000B6FED6B5D0C5BAC514
:100E3000CACDB7C5B3C9B9A6A3A10D0A0000000069
:100E4000000C0140BDD3CAD5C8CECEF1BBF1C8A1BC
:100E5000B6FED6B5D0C5BAC5C1BFB3C9B9A6A3A1A0
:100E60000D0A0000B6FED6B5D0C5BAC5C1BFB4B430
:100E7000BDA8B3C9B9A6A3A10D0A00005265636558
:100E80006976655F5461736B00000000230D0008F4
:100E9000BDD3CAD5C8CECEF1B4B4BDA8B3C9B9A626
:100EA000A3A10D0A0000000053656E645F546173D6
:100EB0006B000000C50C0008B7A2CBCDC8CECEF1A8
:100EC000B4B4BDA8B3C9B9A6A3A10D0A000000001F
:100ED000B0B4CFC24B455931BBF2D5DF4B45593287
:100EE000BDF8D0D0C8CECEF1D3EBC8CECEF1BCE4A5
:100EF000B5C4CDACB2BD0D0A000000004170705405
:100F000061736B4372656174650000004B0D0008EE
:100F10004170705461736B43726561746520B4B441
:100F2000BDA8CAA7B0DCA3A10D0A00004672656582
:100F300052544F5320537461727420537563636528
:100F400073730D0A000000007047FEE7FEE7FEE73E
:100F5000FEE7704710B501F0A4FA012803D0BDE800
:100F6000104001F0A8BE10BD10B586B001210420CC
:100F7000FFF795FC01218803FFF791FC4FF4007007
:100F8000ADF8100018208DF813000320554C8DF893
:100F9000120004A92046FFF790FA2115ADF81010B1
:100FA00004218DF8131004A92046FFF786FA4FF4A8
:100FB000E13000900020ADF80400ADF80600ADF877
:100FC0000800ADF80C000C20474CADF80A0069464B
:100FD0002046FFF7E3FC4FF4A060FFF7BFF92520A0
:100FE0008DF8140001218DF815108DF816108DF86C
:100FF000171005A8FFF7B7F9012240F22551204646
:10100000FFF749FD01212046FFF73BFD06B010BD6B
:1010100010B50446FFF78BFD80212046FFF7E8FD61
:101020000028F9D010BD2DE9F04115460E460746BF
:10103000002405E0315D3846FFF7EAFF641CE4B2A6
:10104000AC42F7D340213846FFF7D2FD0028F9D053
:10105000BDE8F08170B50D46064600243046295D96
:10106000FFF7D6FF641C285D0028F7D140213046E9
:10107000FFF7BEFD0028F9D070BD70B50446080A20
:10108000CDB201462046FFF752FD80212046FFF7F2
:10109000AFFD0028F9D029462046FFF748FD802102
:1010A0002046FFF7A5FD0028F9D070BD70B50E4DA4
:1010B0000446C1B22846FFF73AFD80212846FFF7D3
:1010C00097FD0028F9D0204670BD10B5064C2021B0
:1010D0002046FFF78DFD0028F9D02046BDE81040DE
:1010E000FFF729BD000801400038014038B5012153
:1010F0001420FFF7D4FB0120ADF8000004248DF884
:10110000034069460E48FFF7D8F9E002ADF8000049
:101110008DF8034069460B48FFF7CFF938BD70B52D
:101120000C460546FFF71FFA012801D0002070BDCC
:1011300021462846FFF717FA0128F9D0012070BD93
:10114000000801400010014000F108014FF0FF329B
:10115000C0E90112C16001610021016070470021F6
:101160000161704742684A6093688B609368596078
:10117000916008610168491C0160704730B50C68D6
:10118000621C02D000F1080202E0026904E01A4683
:1011900053681D68A542FAD953684B6099608A600C
:1011A000516008610168491C016030BDD0E901321D
:1011B00001699A60D0E901235A604A68824201D1EC
:1011C00082684A60002202610868401E0860704719
:1011D00070B50D46040005D140F21B12F8A1FEA027
:1011E00001F002FE01F03CFDD4E90F20216802FB72
:1011F000001161600021A1632168A1600A46D4E961
:101200000F01401E00FB0121E16021464FF0FF303D
:1012100001F8440F487004F110004DB1FFF794FF3E
:1012200004F12400FFF790FF01F034FD012070BDB0
:1012300021690029F8D001F07EF80028F4D0EA49AD
:101240004FF080500860BFF34F8FBFF36F8FEBE715
:1012500070B50E46050005D14FF4C472D8A1DEA0CA
:1012600001F0C2FD96B105FB06F0483001F0A4FB89
:10127000040009D004F1480120464EB10160C0E9E4
:101280000F560121FFF7A4FF204670BD0020ECE7B8
:101290000060F4E72DE9F041044601F0E1FC94F927
:1012A000455004F1240609E0606A48B1304601F077
:1012B00042F808B101F0F1F86D1E6DB2002DF3DCBB
:1012C0004FF0FF3684F8456001F0E4FC01F0C8FC03
:1012D00094F9445004F1100709E0206948B13846F8
:1012E00001F029F808B101F0D8F86D1E6DB2002D9B
:1012F000F3DC84F84460BDE8F04101F0CBBC2DE99B
:10130000F041856B164604460027026CFAB17EB1A7
:10131000E06801F02FFDE168206C091AE1602268A5
:10132000914202D26168081AE060022E0DD00EE0F0
:10133000A06801F01FFD216CA0680844A0606168EE
:10134000884204D32068A06001E005B16D1E6D1CC9
:10135000A5633846BDE8F0812DE9FF4F83B01F46F5
:101360008B4604004FF0000605D140F2D92294A12B
:1013700099A001F039FDBBF1000F07D1206C28B115
:1013800040F2DA228EA194A001F02EFD022F08D1A6
:10139000E06B012805D040F2DB2289A18EA001F08C
:1013A00023FD01F07EF838B9059828B140F2DE221D
:1013B00083A189A001F018FD4FF0000A4FF080587A
:1013C000DFF8249201F04CFCA06BE16B884205D35E
:1013D000022F03D00598C8B1DEB11EE03A46594647
:1013E0002046FFF78CFF616A19B104F1240000F078
:1013F000A2FF28B1C9F80080BFF34F8FBFF36F8FF2
:1014000001F048FC012007B0BDE8F08F01F042FC7C
:1014100021E0684600F0FDFF012601F03BFC00F0F2
:10142000A3FC01F01DFC94F94400401C01D184F898
:1014300044A094F94500401C01D184F845A001F076
:1014400029FC05A9684600F0F5FF30B12046FFF7FA
:1014500021FF00F0FBFB0020D5E701F001FCA06BB1
:10146000E16B884201D1012500E0002501F012FC6A
:1014700095B104F11000059900F01FFF2046FFF719
:1014800009FF00F0E3FB00289CD1C9F80080BFF3FE
:101490004F8FBFF36F8F95E72046FFF7FBFE00F0FD
:1014A000D5FB8FE72DE9F0471F469046894604009B
:1014B00005D140F29F3242A147A001F095FCB9F15D
:1014C000000F07D1206C28B14FF468723CA142A0F4
:1014D00001F08AFC022F08D1E06B012805D040F210
:1014E000A13237A13CA001F07FFC01F0F8FB5020B5
:1014F000EFF3118680F31188BFF34F8FBFF36F8F27
:10150000A06BE16B884206D3022F04D0002086F343
:101510001188BDE8F08794F945503A46494620467F
:10152000FFF7EDFE681C04D06D1C84F845500120C7
:10153000EDE7606A0028FAD004F1240000F0FBFE19
:101540000028F4D0B8F1000FF1D00121C8F8001044
:10155000EDE770B50E46040005D140F23C4218A1FB
:101560001DA001F041FC206C28B14FF4886214A149
:1015700019A001F039FC206838B9606828B140F240
:1015800045420FA114A001F02FFC01F0A8FB502050
:10159000EFF3118580F31188BFF34F8FBFF36F8F87
:1015A000A16BE06B88422FD994F94500491CA163D7
:1015B000411C1BD0401C84F84500012025E00000A0
:1015C0002E2E5C4672656552544F535C7372635C99
:1015D00071756575652E63004572726F723A257379
:1015E0002C25640D0A00000004ED00E0606A00286C
:1015F000E3D004F1240000F09EFE0028DDD0002E90
:10160000DBD001203060D8E7002085F3118870BD61
:1016100030B4026C0B46002A0BD0C1681144C16083
:101620004468A14201D30168C16030BC184601F092
:10163000A1BB30BC70472DE9FF4F83B09B468A4663
:1016400004004FF0000607D140F2DC42AFF29001F7
:10165000AFF27C0001F0C8FBBAF1000F09D1206C99
:1016600038B140F2DD42AFF2A801AFF2940001F0D0
:10167000BBFB00F016FF48B9059838B14FF49C62E7
:10168000AFF2C401AFF2B00001F0AEFB4FF00009C1
:101690004FF08057DFF8448301F0E2FAA56B0DB3F9
:1016A00051462046E668FFF7B3FFBBF1000F11D0AB
:1016B000E660606A50B104F1240000F03CFE28B1FD
:1016C000C8F80070BFF34F8FBFF36F8F01F0E2FADD
:1016D000012098E66D1EA56320690028F6D004F16C
:1016E0001000EAE7059808B11EB106E001F0D2FA51
:1016F00027E0684600F08DFE012601F0CBFA00F0ED
:1017000033FB01F0ADFA94F94400401C01D184F898
:10171000449094F94500401C01D184F8459001F0B3
:10172000B9FA05A9684600F085FE002820460AD0CF
:10173000FFF7B0FD00F08AFA204600F041F90028DA
:10174000AAD000205FE600F03BF990B104F124003C
:10175000059900F0B2FD2046FFF79CFD00F076FAF7
:10176000002899D1C8F80070BFF34F8FBFF36F8F77
:1017700092E72046FFF78EFD00F068FA8CE72DE92E
:10178000F04790468946040007D14FF4B462AFF2A7
:10179000D011AFF2BC1001F027FBB9F1000F09D155
:1017A000206C38B140F2A152AFF2EC11AFF2D81078
:1017B00001F01AFB01F093FA5020EFF3118780F348
:1017C0001188BFF34F8FBFF36F8FA66BF6B194F9FB
:1017D000445049462046FFF71BFF761EA663681C4F
:1017E00004D06D1C84F84450012010E020690028CA
:1017F000FAD004F1100000F09EFD0028F4D0B8F1FA
:10180000000FF1D00121C8F80010EDE7002087F3A8
:1018100011887EE62DE9F0410E46040007D140F222
:10182000FC52AFF26421AFF2502001F0DDFA4EB964
:10183000206C48B140F2FD52AFF27C21AFF268203B
:1018400001F0D2FA206C38B940F2FE52AFF290218A
:10185000AFF27C2001F0C8FA01F041FA5020EFF31A
:10186000118580F31188BFF34F8FBFF36F8FA06B8B
:1018700030B131462046E768FFF7CAFE0120E76035
:1018800085F3118866E510B5040007D140F22F6298
:10189000AFF2D421AFF2C02001F0A6FA01F0E0F9D6
:1018A000A46B01F0F7F9204610BD10B5040007D174
:1018B00040F24162AFF2F821AFF2E42001F094FA75
:1018C00001F0CEF9D4E90E10441A01F0E3F92046F4
:1018D00010BD10B5040007D140F25162AFF22031C3
:1018E000AFF20C3001F080FAA06B10BD3C4A002131
:1018F00002EBC1035B68834206D1002042F831004D
:1019000002EBC10148607047491C0A29F0D37047B7
:1019100010B5040007D140F25D62AFF25C31AFF266
:10192000483001F061FA2046FFF7E0FF2046BDE8AD
:10193000104001F0ACB810B5040007D140F293722A
:10194000AFF28431AFF2703001F04EFAA06B08B103
:10195000002010BD012010BD10B5040007D140F2D9
:10196000BA72AFF2A431AFF2903001F03DFAA06B41
:10197000E16B884201D1012010BD002010BD10B5DF
:10198000174B002253F832401CB1521C0A2AF9D3DB
:1019900010BD43F8321003EBC201486010BD10B512
:1019A00000240F4A214602EBC1035B68834202D147
:1019B00052F8314002E0491C0A29F4D3204610BDF8
:1019C00010B5044601F04CF9A06B20B1002401F0E1
:1019D00061F9204610BD0124F9E7000004ED00E0A4
:1019E0009C0000202DE9F041054601F039F9FE4E3A
:1019F000B068401CB0603068FC4F10B1706930B303
:101A00002BE03560B068012827D1002404EB840066
:101A100007EB8000FFF798FB641C202CF6D3F448FA
:101A2000FFF792FBF2481430FFF78EFBF0482830A6
:101A3000FFF78AFBEE483C30FFF786FBEC4850305E
:101A4000FFF782FBEA4870631430B06305E030684A
:101A5000E96AC06A884200D83560706A0121401C7A
:101A60007062E86A326981401143316100EB8000A5
:101A700007EB8000291DFFF775FB01F00BF970697A
:101A800000280CD03068E96AC06A884207D2D94978
:101A90004FF080500860BFF34F8FBFF36F8FBDE8EA
:101AA000F0812DE9FF5F8346DDE90E8799461646F2
:101AB0008A46900000F080FF05001AD04C2000F00C
:101AC0007BFF040012D025630021CDE90241CDE95E
:101AD00000874B4632465146584600F0ABFE204642
:101AE000FFF780FF012004B0BDE8F09F284600F01A
:101AF000CEFF4FF0FF30F6E770B5044601F0B0F8C6
:101B0000B94D04B92C68201DFFF750FB58B9E06AA5
:101B1000B64A00EB800152F8211021B90121814021
:101B2000286988432861A06A18B104F11800FFF7FA
:101B30003DFB686A401C68622868844208D1AC4852
:101B4000211D3C30FFF70EFB6868401C686007E011
:101B5000A868401EA860204600F0BDFE00F0AEFE62
:101B600001F098F86869002812D0286884420FD1E3
:101B7000286B28B140F265429FA1A5A001F034F97D
:101B80009C494FF080500860BFF34F8FBFF36F8FB9
:101B900070BD2DE9F041944F0026386B38B1B8691B
:101BA000401CB861F86900B10126304677E7FD684E
:101BB0006D1CFD6011D1786B006828B140F6D91218
:101BC0008DA193A001F010F9786BB96B7963B863BC
:101BD000386A401C386200F071FEB86ADFF80C8287
:101BE000854209D3786B006880B1786BC068C4689F
:101BF000606885420DD2B8623868C06A00EB800127
:101C000058F821000128CDD90126CBE74FF0FF304D
:101C1000F1E7201DFFF7CAFAA06A18B104F1180015
:101C2000FFF7C4FAE06A01213A6981401143396142
:101C300000EB800108EB8100211DFFF793FAE06AB9
:101C40003968C96A8842CDD30126CBE72DE9F04730
:101C5000654D00242746286B28B94FF4FD6266A124
:101C60006BA001F0C1F800F0FBFF286B401E286359
:101C7000286BE0BBA8685E4928310126B8B3DFF8BD
:101C80006C918846D8F80010E9B1D8F80C00C46807
:101C900004F11800FFF78AFA201DFFF787FAE06ABF
:101CA0002A6906FA00F11143296100EB800109EB72
:101CB0008100211DFFF756FAE06A2968C96A884247
:101CC000E0D3EE61DEE70CB100F0F8FDAC693CB1A9
:101CD000FFF75FFF00B1EE61641EF9D10020A8613B
:101CE000E86920B1434901273807086000E003E0B4
:101CF000BFF34F8FBFF36F8F00F0CCFF3846BDE8C6
:101D0000F0872DE9F041384E0F460446F5683068FB
:101D1000001DFFF74BFA38B9306890F82C100120FD
:101D20008840316981433161601C08D13FB131681D
:101D3000BDE8F0412E485030091DFFF713BA306856
:101D40002C44AC424460316805D2B06BBDE8F04130
:101D5000091DFFF713BA706B091DFFF70FFAB06A80
:101D6000844200D2B4629AE61F48016B491C0163A9
:101D700070472DE9F0410E4605004FF0000405D1F3
:101D800040F279421CA122A001F02EF82EB940F2B7
:101D90007A4219A11EA001F027F8134F386B28B121
:101DA00040F27B4214A11AA001F01EF8FFF7DCFFFD
:101DB000FA6828688119904202D9884202D804E062
:101DC000884201D8914200D9012429601CB1881AA7
:101DD0000021FFF796FFFFF739FF002824D10549BE
:101DE0004FF0805008601BE038000020EC0000201D
:101DF0006C03002004ED00E02E2E5C4672656552F7
:101E0000544F535C7372635C7461736B732E630025
:101E10004572726F723A25732C25640D0A0000001A
:101E2000BFF34F8FBFF36F8F39E610B5040014D0A6
:101E3000FE49096B39B140F2CF42AFF24401AFF233
:101E4000300000F0D1FFFFF78FFF00212046FFF7A1
:101E500058FFFFF7FBFE002807D1F5494FF08050EF
:101E60000860BFF34F8FBFF36F8F10BD70B50500D3
:101E700007D140F2FB42AFF28001AFF26C0000F0FC
:101E8000B3FFEA4E3068854201D1002070BD00F0FA
:101E9000E7FE6C6900F0FEFE706B844202D0B06B0E
:101EA000844201D1022070BDE248844204D1A86A74
:101EB0000028F7D1032070BDDE481438844202D0D8
:101EC0000CB1012070BD042070BD10B5044600F0B7
:101ED000C7FE0CB9D5480468E46A00F0DBFE204672
:101EE00010BD10B5044600F0FAFE5020EFF311814A
:101EF00080F31188BFF34F8FBFF36F8F0CB9CB48BE
:101F00000468E06A81F3118810BD2DE9F0410026D4
:101F10000D460446202908D34FF4B062AFF22811D1
:101F2000AFF2141000F060FF1F2500F099FEBF4FC4
:101F300004B93C68E06AA8423BD03968854206D9BA
:101F40008C4207D03968C96AA94202D902E08C42A2
:101F500000D101268046E562A069002802DBC5F1B8
:101F60002000A061B44D08EB8800616905EB80009A
:101F7000814215D1201DFFF719F9012120B93A69D5
:101F800001FA08F082433A61E06A3A6981401143FC
:101F9000396100EB800005EB8000211DFFF7E2F8BE
:101FA0003EB1A3494FF080500860BFF34F8FBFF39D
:101FB0006F8FBDE8F04100F06DBE70B59B4D286B92
:101FC00010B10120E86170BD0020E86128699A4ED7
:101FD000B0FA80F0C0F11F0000EB800456F8240036
:101FE00038B940F6F622AFF2F011AFF2DC1000F093
:101FF000FBFE06EB840000F108024168496841607D
:10200000914201D149684160C868286070BD70B5CF
:10201000044600F025FE854D04B92C68201DFFF70D
:10202000C5F858B9E06A844A00EB800152F82110E3
:1020300021B901218140286988432861A06A18B12B
:1020400004F11800FFF7B2F8211D7A48FFF78AF86B
:1020500000F020FE686928B100F002FE00F02EFCBE
:1020600000F018FE2868844213D1686990B1286B8B
:1020700038B140F25762AFF28021AFF26C2000F02D
:10208000B3FE6B494FF080500860BFF34F8FBFF332
:102090006F8F70BD6748A9680068884202D1002030
:1020A000286070BDBDE8704087E770B5002504006A
:1020B00007D140F28162AFF2C021AFF2AC2000F054
:1020C00093FE5C496069884205D1A06A283988423C
:1020D00001D000B90125284670BD70B504002BD091
:1020E000524D2868844231D000F0BAFD2046FFF7F7
:1020F000DCFFE8B1201DFFF759F8E06A01212A69E9
:102100008140114329614C4900EB800001EB8000C4
:10211000211DFFF727F8E06A2968C96A884207D3BA
:1021200043494FF080500860BFF34F8FBFF36F8F6C
:10213000BDE8704000F0AEBD40F2AB62AFF2483196
:10214000AFF23430BDE8704000F04EBE70BD2DE9F6
:10215000F0410026040007D140F2E262AFF268319C
:10216000AFF2543000F040FE00F0B9FD5020EFF324
:10217000118580F31188BFF34F8FBFF36F8F204617
:10218000FFF793FFF0B1294F386B20B1294804F1D4
:102190001801283814E0E06A3968C96A884200D317
:1021A0000126201DFFF702F8E06A01213A6981400B
:1021B00011433961204900EB800001EB8000211DB3
:1021C000FEF7D0FF85F31188304668E41A4E4FF0D1
:1021D0008054174D00F089FB30680128FAD92C6033
:1021E000BFF34F8FBFF36F8FF4E71CB50F48002488
:1021F0002C30CDE900402346802210A11148FFF782
:1022000050FC01280CD0401C2BD140F28472AFF25C
:102210001841AFF2044002B0BDE8104000F0E4BD48
:10222000502080F31188BFF34F8F0DE0380000205D
:1022300004ED00E0BC030020EC00002049444C45C4
:1022400000000000CD210008BFF36F8FFF484FF062
:10225000FF31816201214161C460BDE81C4000F092
:10226000BDBC1CBD502080F31188BFF34F8FBFF35E
:102270006F8FF6490020486100F0E6BCF348C06863
:10228000704710B500F02BFDF048C06810BDEF4856
:102290008068704710B510B104461CB10AE0EB48E5
:1022A0000468FAE740F68C02AFF2B441AFF2A04006
:1022B00000F09AFD04F1340010BD70B50D46040025
:1022C00007D140F60632AFF2D041AFF2BC4000F089
:1022D0008BFDDE48016820461831FEF74FFF284687
:1022E000BDE8704001210CE52DE9F04117460E468E
:1022F000050007D140F61732AFF20451AFF2F040BB
:1023000000F072FDD14C206B38B940F61B32AFF2B1
:102310001851AFF2045000F067FD216846F000400C
:102320008861216828461831FEF71CFF3846BDE851
:10233000F0410121E5E42DE9F041C068C4683CB9F1
:1023400040F66132AFF25051AFF23C5000F04CFD1C
:1023500004F118000746FEF729FFBC4D286B012643
:1023600058B13946BA48FEF7FDFEE06A2968C96AE5
:10237000884212D90120EE6118E4201DFEF716FFF5
:10238000E06A2A6906FA00F111432961B14900EBBC
:10239000800001EB8000211DE5E7002006E470B518
:1023A000AA4D06460C46286B38B940F69932AFF272
:1023B000B851AFF2A45000F017FD44F00040306077
:1023C000F4683CB940F6A132AFF2D451AFF2C0503C
:1023D00000F00AFD3046FEF7E9FE201DFEF7E6FE9E
:1023E000E06A01262A6906FA00F111432961994938
:1023F00000EB800001EB8000211DFEF7B3FEE06AD8
:102400002968C96A884202D90120EE6170BD0020A6
:1024100070BD10B5040007D140F6C132AFF228619B
:10242000AFF2146000F0E0FC8848016A2160C068E7
:10243000606010BD70B50D46040007D140F6CB3288
:10244000AFF24C61AFF2386000F0CEFC3DB940F61F
:10245000CC32AFF25C61AFF2486000F0C5FC00F036
:10246000FFFB7A4AD06829684B1C0FD02368126A98
:10247000934202D0626882420AD96268801A884216
:1024800006D2081A28602046FFF7C3FF002400E0A8
:10249000012400F0FFFB204670BD6C490120C8619B
:1024A00070476A48416919B1006B18B10020704744
:1024B0000120704702207047644908680A688069F3
:1024C000D26A0968C2F120028A61704770B50C4671
:1024D000064600F0C5FB5D4D2868406C80B9296850
:1024E000012081F848005CB101212046FFF709FC7A
:1024F00059494FF080500860BFF34F8FBFF36F8F83
:1025000000F0C8FB00F0ACFB2868446C002034B13C
:1025100016B12968486402E02A68611E516429687E
:1025200081F8480000F0B6FB204670BD2DE9F0416F
:102530001E4615468846074600F092FB434C20682D
:1025400090F84800022814D02068416CB9434164D7
:102550002168012081F848005EB101213046FFF773
:10256000D0FB3D494FF080500860BFF34F8FBFF361
:102570006F8F00F08FFB00F073FB15B12068406C8B
:102580002860206890F8480001280DD02068416C30
:1025900021EA0801416401252168002081F84800F2
:1025A00000F078FB28463FE40025F5E72DE9F041EF
:1025B0001F4690460D4604004FF0010607D141F238
:1025C000FD02AFF2CC71AFF2B87000F00DFC00F07C
:1025D00047FB0FB1606C386094F84800022184F822
:1025E0004810B8F1050F0ED2DFE808F00D03060C15
:1025F0000A00616C294301E0616C491C616402E0DE
:10260000022803D06564012802D033E0002631E0BF
:10261000201DFEF7CBFD0D4DE06A01212A698140A6
:10262000114329610B4900EB800001EB8000211D63
:10263000FEF798FDA06A38B141F23512AFF64801B5
:10264000AFF6340000F0D0FBE06A07E0380000206D
:1026500094030020EC00002004ED00E02968C96A22
:10266000884207D9B4494FF080500860BFF34F8FBC
:10267000BFF36F8F00F00EFB3046A6E52DE9F04763
:102680001F46DDF8209092460D4604004FF00108E9
:1026900007D141F26812AFF6A001AFF68C0000F04E
:1026A000A3FB00F01CFB5020EFF3118680F3118890
:1026B000BFF34F8FBFF36F8F0FB1606C386094F82A
:1026C0004800022184F84810BAF1050F0ED2DFE865
:1026D0000AF00D03060C0A00616C294301E0616CED
:1026E000491C616402E0022803D06564012803D01C
:1026F00031E04FF000082EE0A06A38B141F2AF128D
:10270000AFF60C11AFF6F80000F06EFB8B4D286BA6
:10271000012778B104F118018948FEF723FDE06A2A
:102720002968C96A884216D9B9F1000F12D0C9F8D0
:10273000007010E0201DFEF739FDE06A2A6907FAF3
:1027400000F11143296100EB80017E4800EB81001C
:10275000211DE2E7EF6186F311884046BDE8F0876E
:102760002DE9F0418846040007D141F2E312AFF6AB
:102770007811AFF6641000F037FB00F0B0FA50208B
:10278000EFF3118780F31188BFF34F8FBFF36F8F83
:1027900094F84800022184F84810616C491C616477
:1027A00001282ED1A06A38B141F20922AFF6B81142
:1027B000AFF6A41000F018FB604D286B012678B12D
:1027C00004F118015E48FEF7CDFCE06A2968C96A89
:1027D000884216D9B8F1000F12D0C8F8006010E096
:1027E000201DFEF7E3FCE06A2A6906FA00F11143B6
:1027F0002961544900EB800001EB8000211DE2E7D4
:10280000EE6187F31188E0E410B558B1044600F09A
:1028100027FA94F84800022807D0002400F03AFA7A
:10282000204610BD45480468F1E7002084F84800C0
:102830000124F3E72DE9F0470E46DDE909848246DD
:102840006FF00301206B01EB82010844089D20F02A
:1028500007079946780705D040F22B323AA140A0ED
:1028600000F0C2FA00202218315C82F83410315C8A
:1028700011B1401C1028F6D3002684F84360202DA7
:1028800000D31F25201DE562FEF769FC04F1180046
:10289000FEF765FC2461C5F120006462A0616664F6
:1028A00084F848604A465146384600F07AF920607C
:1028B000B8F1000F01D0C8F800404FE71F48416B46
:1028C000096829B1416BC968C96849688162704764
:1028D0004FF0FF31FAE710B50446006B00F0D7F86F
:1028E0002046BDE8104000F0D2B870B5144E134D2C
:1028F00014361CE0FFF738FA306820B10024FFF7E7
:10290000A5F9A4B901E00124F9E700F0A9F9F068FC
:10291000C468201DFEF74AFCA868401EA8606868CD
:10292000401E686000F0B6F92046FFF7D4FF6868E3
:102930000028DFD170BD000004ED00E03800002069
:1029400094030020EC0000202E2E5C467265655238
:10295000544F535C7372635C7461736B732E6300CA
:102960004572726F723A25732C25640D0A000000BF
:1029700030B5744900E011460A688242FBD34B68C7
:102980005C18844203D14068184448600846436894
:102990001C18944209D16B4C103C2468A24209D007
:1029A00052681A4442600A6812680260814200D08C
:1029B000086030BD0460F9E72DE9F04105460026C6
:1029C000FFF7D2F95F4F103F386808B900F098F868
:1029D000F86805424ED1002D4CD0083568070BD061
:1029E00005F00700C0F108000544680704D0BF22C5
:1029F00055A15EA000F0F8F9002D3BD07868854223
:102A000038D850490846046801E021460446606809
:102A1000A84202D220680028F7D13868B84684421C
:102A200028D00E682068086060680836401B1028AF
:102A30000ED96719780704D0EC2243A14BA000F00F
:102A4000D3F96068401B786038466560FFF790FFF7
:102A50006168D8F804004246401AC8F80400D8F863
:102A60000830984200D29060D8F80C000143002052
:102A7000C4E90001FFF7EAF8700705D04FF4967239
:102A800031A13AA000F0B0F93046BDE8F08170B550
:102A900000282BD02B4DA0F10804103D6068E96898
:102AA000084205D14FF4A07227A130A000F09CF994
:102AB000206828B140F2411223A12CA000F094F923
:102AC0006068E968084211D02268002A0ED1884364
:102AD0006060FFF749F960686968084468602046EB
:102AE000FFF746FFBDE87040FFF7B0B870BD15486E
:102AF0001038406870471348103880687047704736
:102B00001E484FF41041420706D0C01D1B4920F05B
:102B10000700411AC1F510410A4A00230144C2E9E5
:102B200000030839103A21F0070111604B600B6077
:102B30000B1AC0E9001393604FF000405360D0605F
:102B400070470000840000202E2E5C46726565529E
:102B5000544F535C706F72745C4D656D4D616E6760
:102B60005C686561705F342E630000004572726FAF
:102B7000723A25732C25640D0A000000D003002052
:102B800069484068401C04D0F42268A171A000F09C
:102B90002BF9502080F31188BFF34F8FBFF36F8F55
:102BA000FEE710B5031F4FF080741C601B1F21F05F
:102BB00001011960191F6B4B0B60143940380A6012
:102BC00010BD69484FF47A710068B0FBF1F14FF025
:102BD000E020491E41610721016170471CB563492E
:102BE00008780190FF20087008788DF800009DF8A3
:102BF00000004D4A00F0500010700720906007E080
:102C00009068401E90609DF8000040008DF8000024
:102C10009DF800000006F3D4107A000200F4E06092
:102C20009060019808705248016841F47001016099
:102C3000016841F070410160FFF7C3FF0020506060
:102C4000FDF794FA00201CBD37484068B0F57A7F44
:102C500005D04FF4B57235A13EA000F0C5B870475D
:102C6000502080F31188BFF34F8FBFF36F8F2E4931
:102C70004868401C486001280BD13D481C3800685A
:102C800010F0FF0F05D04FF4BD7228A131A000F065
:102C9000ABB8704710B5244C606828B940F2811277
:102CA00022A12CA000F0A0F86068401E606001D155
:102CB00080F3118810BD10B5502080F31188BFF348
:102CC0004F8FBFF36F8FFEF764FF20B128494FF09D
:102CD00080501C390860002080F3118810BD10B5A9
:102CE000FDF77AFA104C10280CD300F1E02090F890
:102CF000F0032178884205D24FF42A720BA115A067
:102D000000F072F81A4814380068A16800F4E06016
:102D1000884207D9BDE810404FF42E7203A10DA0E0
:102D200000F062B810BD00008C0000202E2E5C4622
:102D300072656552544F535C706F72745C525644A6
:102D4000535C41524D5F434D335C706F72742E6320
:102D5000000000004572726F723A25732C25640DD5
:102D60000A000000812B00080000002000E400E0C1
:102D700020ED00E040EA01039B0703D009E008C909
:102D8000121F08C0042AFAD203E011F8013B00F830
:102D9000013B521EF9D2704730B50B460146002068
:102DA0002022012409E021FA02F59D4205D303FA0D
:102DB00002F5491B04FA02F52844151EA2F101028E
:102DC000F1DC30BD064C074D06E0E06840F0010341
:102DD00094E8070098471034AC42F6D3FDF7ACF9FD
:102DE000E02F0008003000080FB4054B10B503A910
:102DF000044A029800F018F810BC5DF814FB0000BB
:102E0000AD1000089800002002E008C8121F08C199
:102E1000002AFAD170477047002001E001C1121F5B
:102E2000002AFBD1704700002DE9FF4F8BB09A4676
:102E30000F460546002606E025280BD052460D9980
:102E400090476D1C761C28780028F5D10FB03046CD
:102E5000BDE8F08F0024A0460122604900E0044351
:102E600015F8013F203B02FA03F00842F7D1287819
:102E70002E2817D115F8010F44F004042A280ED08B
:102E80006FF02F022878A0F1300109290AD808EB49
:102E9000880102EB410100EB01086D1CF2E757F8D5
:102EA000048B6D1C287869283ED006DC0028CDD024
:102EB00063280BD0642804D136E0732810D075281D
:102EC0004BD052460D999047761C85E017F8040BBD
:102ED0008DF8000000208DF80100E946012003E094
:102EE00057F8049B4FF0FF3061074FF0000401D406
:102EF0000AE0641C44450DDA8442FADB19F8041038
:102F00000029F6D106E0641C8442FCDB19F80410A9
:102F10000029F8D1264404E019F8010B52460D9916
:102F20009047641EF8D257E001CF4FF00A0B0028FB
:102F300002DA40422D2102E0210504D52B218DF833
:102F40002410012103E0E10705D02021F7E70DF16E
:102F5000200908910CE00021F9E701CF4FF00A0B9E
:102F6000F9E75946FFF718FF01F1300209F8012D82
:102F70000028F6D1ADEB090000F1200B600701D469
:102F80004FF00108D84502DDA8EB0B0000E000205F
:102F90008046002406E009A85246005D0D9990473E
:102FA000641C761C08988442F5DB04E0302052460D
:102FB0000D999047761CB8F10001A8F10108F5DCE5
:102FC00005E019F8010B52460D999047761CBBF1AC
:102FD0000001ABF1010BF4DC6D1C34E709280100A2
:102FE00000300008000000209C000000082E0008AF
:102FF0009C3000089C00002034970000182E000828
:1030000000A24A04000000000000000001020304C6
:103010000607080902040608000000000102030474
:103020000102030406070809000000000000000078
:103030000000000000000000000000000000000090
:103040000000000000000000000000000000000080
:103050000000000000000000000000000000000070
:103060000000000000000000000000000000000060
:103070000000000000000000000000000000000050
:103080000000000000000000000000000000000040
:0C309000AAAAAAAA00000000000000008C
:0400000508000131BD
:00000001FF
