:020000040800F2
:1000000078970020E1010008A50D0008A70D000861
:10001000A90D0008AB0D0008AD0D000800000000A0
:10002000000000000000000000000000490100087E
:10003000AF0D0008000000008D010008B10D0008A0
:10004000FB010008FB010008FB010008FB010008A0
:10005000FB010008FB010008FB010008FB01000890
:10006000FB010008FB010008FB010008FB01000880
:10007000FB010008FB010008FB010008FB01000870
:10008000FB010008FB010008FB010008FB01000860
:10009000FB010008FB010008FB010008FB01000850
:1000A000FB010008FB010008FB010008FB01000840
:1000B000FB010008FB010008FB010008FB01000830
:1000C000FB010008FB010008FB010008FB01000820
:1000D000FB010008FB010008FB010008FB01000810
:1000E000FB010008FB010008FB010008FB01000800
:1000F000FB010008FB010008FB010008FB010008F0
:10010000FB010008FB010008FB010008FB010008DF
:10011000FB010008FB010008FB010008FB010008CF
:10012000FB010008FB010008FB010008FB010008BF
:10013000DFF810D002F060F900480047AF0C00086B
:10014000AFF3008078970020224B19680868B0E868
:10015000F00F80F30988BFF36F8F4FF0000080F33A
:1001600011884EF00D0E7047000000000648006830
:10017000006880F3088862B661B6BFF34F8FBFF3A3
:100180006F8F00DF00BF00BF08ED00E0EFF30980D4
:10019000BFF36F8F0F4B1A6820E9F00F106008B59E
:1001A0004FF0500080F31188BFF34F8FBFF36F8F74
:1001B00001F02BFA4FF0000080F31188BDE80840F1
:1001C00019680868B0E8F00F80F30988BFF36F8FF3
:1001D000704700BF30000020EFF30580704700003B
:1001E0000648804706480047FEE7FEE7FEE7FEE7D1
:1001F000FEE7FEE7FEE7FEE7FEE7FEE7A5020008F2
:10020000310100080CB500224C48009201920168AF
:1002100041F4803101604FF4A063016801F40031C2
:1002200001910099491C0091019911B900999942D5
:10023000F3D10168890333D50121019140490A684E
:1002400042F010020A600A6822F003020A600A689B
:1002500042F002020A6041684160416841604168C1
:1002600041F480614160416821F47C114160416842
:1002700041F4E8114160016841F08071016001685A
:100280008901FCD5416821F003014160416841F0DA
:10029000020141604168C1F381010229FAD10CBD1C
:1002A00001920CBD254810B5016841F001010160C3
:1002B0004168244A114041600168234A11400160AD
:1002C000016821F480210160416821F4FE01416050
:1002D0004FF41F018160FFF795FF1C494FF000604C
:1002E000086010BD154A10B55068194B10F00C018C
:1002F000184803D0042901D0082901D0036012E076
:100300005168536801F470114FF0020413F4803FF8
:1003100004EB914102D053689B0301D50E4B00E0E2
:100320000B4B5943016051680A4AC1F30311121D76
:10033000515C0268CA40026010BD0000001002401B
:10034000002002400000FFF8FFFFF6FE08ED00E08D
:1003500000127A000000002000093D0028490843EF
:1003600028490860704730B50F23C278017801250D
:10037000F2B1244A126801F1E02102F4E062C2F510
:10038000E062120AC2F10404D3404278A2408478A9
:100390001C401443220181F80024007800F01F0162
:1003A0008D404009800000F1E020C0F8005130BDD0
:1003B00001F01F0085404809800000F1E020C0F8EE
:1003C000805130BD104A114001430E48001F0160AA
:1003D00070470C4A121D0029116801D0014300E04A
:1003E0008143116070474FF0E0210428086903D071
:1003F00020F004000861704740F00400FAE70000B4
:100400000000FA050CED00E080FFFF1F8F4910B5DA
:10041000884206D10121042000F049FA002104207D
:100420003BE08B49884206D10121082000F03FFAC9
:100430000021082031E08749884206D1012110209F
:1004400000F035FA0021102027E08349884206D1C8
:100450000121202000F02BFA002120201DE07F49FF
:10046000884206D10121402000F021FA00214020DD
:1004700013E07B49884206D10121802000F017FA61
:100480000021802009E0774988420AD184150121A2
:10049000204600F00CFA00212046BDE8104000F094
:1004A00006BA10BD10B50121084600F000FA00217F
:1004B000BDE81040012000F0FAB9F0B5CC78002278
:1004C00004F00F03E40601D58C7823430C784FF039
:1004D0000F0C14F0FF0F4FF0010E1BD005680E88B3
:1004E0000EFA02F42640A64210D196000CFA06F746
:1004F00025EA070703FA06F5CE783D43282E02D0F9
:10050000482E02D002E0446100E00461521C082A37
:10051000E5D305600A88FF2A1CD94468002202F14D
:1005200008060EFA06F50E882E40AE420ED1960051
:100530000CFA06F7BC4303FA06F7CE783C43282EA4
:1005400000D14561CE78482E00D10561521C082AA1
:10055000E5D34460F0BD4FF6FF7101800221817048
:100560000421C17070470246002092680A4200D000
:1005700001207047806880B2704702460020D26830
:100580000A4200D001207047C06880B27047016104
:100590007047416170470AB101617047416170471E
:1005A000C160704741F480328261816182618169FA
:1005B000806970472C4B10B51A684FF68074224042
:1005C00042EA00100843186010BD2849C86170470E
:1005D000F0B5254C002801DAE36900E06368450DB9
:1005E0002E0185B2C0F30157B540C0F30342032F7B
:1005F00005D0C6020AD503269640B34307E023F090
:100600007062636823F07063636002E0AB4343F0A1
:10061000706201B12A43002801DAE261F0BD626034
:10062000F0BD10B58A0721F003040F49120F2144D1
:100630000F238C6893409C438C608B6890400343ED
:100640008B6010BD0949C1F8DC007047000801400B
:10065000000C01400010014000140140001801404E
:10066000001C014000200140000001400000204229
:10067000A548016841F0010101604168A34A1140A9
:1006800041600168A24A11400160016821F48021A3
:100690000160416821F4FE0141604FF41F01816057
:1006A000704799490A6822F480320A600A6822F485
:1006B00080220A60B0F5803F07D0B0F5802F03D1CB
:1006C000086840F4A02008607047086840F4803053
:1006D000F9E70346002059098B4A01290AD002296B
:1006E0000AD0516A03F01F02012393400B4200D04D
:1006F000012070471168F5E7116AF3E718B500208B
:100700004FF4A06400903120FFF7E3FF0099491CEB
:100710000091A14201D00028F5D03120FFF7D9FF88
:10072000002800D0012018BD774A116821F0F80197
:1007300041EAC00010607047764908607047724B0C
:100740005A68084322F47C1210435860704771497C
:10075000086670476C4A516821F0030101435160FB
:1007600070476948406800F00C007047664A51685D
:1007700021F0F001014351607047634A516821F450
:10078000E0610143516070475F4A516821F4605154
:1007900041EAC000506070475B4A0029517A01D09D
:1007A000014300E08143517270475A49C1F8D800B3
:1007B0007047554A516821F44041014351607047E8
:1007C0005149002281F8202081F82020012802D000
:1007D000042802D1052081F8200070474E490860A6
:1007E000704749490A6A02430A6270474A494439D4
:1007F0000860704730B5444A5168484B11F00C010D
:1008000003D0042901D0082901D0036012E0516807
:10081000536801F470114FF0020413F4803F04EBAD
:10082000914102D053689B0301D53D4B00E03B4B07
:100830005943016051680F2303EA1111394B5C5C85
:100840000168E14041605468072505EA14241C5DF5
:1008500021FA04F48460546805EAD4241B5DD9406D
:10086000C1605268032303EA92322E4B1B1F9A5C2D
:10087000B1FBF2F1016130BD234A0029516901D079
:10088000014300E08143516170471F4A002991698B
:1008900001D0014300E08143916170471A4A002969
:1008A000D16901D0014300E08143D1617047164A0C
:1008B0000029D16801D0014300E08143D160704735
:1008C000114A0029116901D0014300E081431161FF
:1008D000704711494039086070470E49C864704735
:1008E0000949C87170470848416A41F08071416206
:1008F0007047054A0146002092680A4200D0012054
:100900007047014988727047001002400000FFF8EC
:10091000FFFFF6FE000042428004424200127A00CD
:1009200000093D0018000020C44910B588420AD1D2
:1009300001218C032046FFF7BAFF2046BDE8104096
:100940000021FFF7B4BFBE49884202D101214C0407
:1009500010E0BC49884202D101218C040AE0BA4966
:10096000884202D10121CC0404E0B84988420AD16E
:1009700001210C052046FFF7A3FF2046BDE81040EB
:100980000021FFF79DBF10BD30B50446008A85B039
:100990000D464CF6FF710840E98801432182A08989
:1009A0004EF6F3110840A9882A8911436A89024347
:1009B0001143A181A08A4FF6FF410840A989014354
:1009C000A1826846FFF716FF9C48844201D1039834
:1009D00000E00298A189090400EBC00101EB0010BE
:1009E000296801D5490000E08900B0FBF1F06422DC
:1009F000B0FBF2F109010B096FF018056B4300EB36
:100A00008300A3891D044FF0320306D503EBC00019
:100A1000B0FBF2F000F0070005E003EB0010B0FBC4
:100A2000F2F000F00F000843208105B030BD4FF414
:100A30001651016000218180C18001810C22428118
:100A40008181704710B5028A4FF2FF031A400B886C
:100A50004C8823438C88C9880C4323431343038267
:100A600010BD0021018041808180C1807047002934
:100A7000818902D041F4005101E021F400518181CB
:100A8000704710B5C1F3421301F01F040121A140CA
:100A9000012B07D0022B07D01430002A026805D0A2
:100AA0000A4304E00C30F8E71030F6E78A430260AE
:100AB00010BD002A828A01D00A4300E08A43828264
:100AC0007047028A22F00F020282028A0A430282DF
:100AD0007047828922F40062828182890A4382817E
:100AE00070470029818902D041F0020101E021F024
:100AF000020181817047028A22F020020282028A6A
:100B00000A43028270470029018A02D041F48041E1
:100B100001E021F4804101827047C1F30801818026
:100B200070478088C0F308007047818941F0010157
:100B300081817047028BD2B20283028B42EA01218B
:100B400001837047028B02F47F420283028B0A43C7
:100B5000028370470029818A02D041F0200101E020
:100B600021F02001818270470029818A02D041F062
:100B7000100101E021F01001818270470029818A73
:100B800002D041F0080101E021F0080181827047A4
:100B90000029818902D041F4004101E0C1F30E0136
:100BA000818170470029818A02D041F4006101E00F
:100BB00021F4006181827047828A22F004028282DD
:100BC000828A0A43828270470029818A02D041F0DA
:100BD000020101E021F002018182704702460020FB
:100BE00012880A4200D001207047C9430180704733
:100BF00070B501F01F0501260024C1F3421306FA67
:100C000005F2012B0FD0022B0FD0838A4FEA11215E
:100C10000088134206FA01F600EA060001D000B18E
:100C20000124204670BD8389F0E7038AEEE70A0AB3
:100C300001219140C9430180704700000038014004
:100C40000044004000480040004C0040005000407C
:100C5000264E20244FF4FA75371F3460284600F0E2
:100C60000CFC23A001F0DAFB3C60284600F005FCF8
:100C700026A001F0D3FBF0E71CB501F01DFB2A49CB
:100C80000220CDE900010202002328A12A4800F039
:100C90002EFA012802D129A001F0C0FB2248001F32
:100CA000006800F04FFABDE81C4001F01FBB1CB506
:100CB0004FF44070FFF752FB00F084F800F0B2F8F8
:100CC00024A001F0ABFB18490120091FCDE9000168
:100CD000420200232EA1324800F009FA012802D076
:100CE0004FF0FF301CBD00F0A8FDFEE7140C0140E2
:100CF0004C45445F5461736B2052756E6E696E672C
:100D00002C4C4544315F4F4E0D0A00004C45445F6A
:100D10005461736B2052756E6E696E672C4C45443E
:100D2000315F4F46460D0A002C0000204C45445FC1
:100D30005461736B00000000510C0008B4B4BDA8EE
:100D40004C45445F5461736BC8CECEF1B3C9B9A6AC
:100D5000210D0A00D5E2CAC7D2BBB8F65BD2B0BB40
:100D6000F05D2D53544D3332C8ABCFB5C1D0BFAABF
:100D7000B7A2B0E52D4672656552544F532DB6AFFC
:100D8000CCACB4B4BDA8C8CECEF1210D0A00000091
:100D90004170705461736B4372656174650000004B
:100DA000790C00087047FEE7FEE7FEE7FEE77047B4
:100DB00010B500F09EFE012803D0BDE8104001F000
:100DC000A6BA10BD38B501210820FFF75EFD20202E
:100DD000ADF8000010208DF803000320104C8DF8B2
:100DE000020069462046FFF768FB0121ADF80010BC
:100DF00069462046FFF761FB0221ADF80010694605
:100E00002046FFF75AFB20212046FFF7C0FB0121B7
:100E10002046FFF7BCFB02212046FFF7B8FB38BD98
:100E2000000C014010B586B001210420FFF72DFD14
:100E300001218803FFF729FD4FF40070ADF8100081
:100E400018208DF813000320554C8DF8120004A9CA
:100E50002046FFF732FB2115ADF8101004218DF864
:100E6000131004A92046FFF728FB4FF4E13000904F
:100E70000020ADF80400ADF80600ADF80800ADF8AC
:100E80000C000C20474CADF80A0069462046FFF7DD
:100E90007BFD4FF4A060FFF761FA25208DF8140068
:100EA00001218DF815108DF816108DF8171005A872
:100EB000FFF759FA012240F225512046FFF7E1FDE4
:100EC00001212046FFF7D3FD06B010BD10B5044642
:100ED000FFF723FE80212046FFF780FE0028F9D08F
:100EE00010BD2DE9F04115460E460746002405E0E9
:100EF000315D3846FFF7EAFF641CE4B2AC42F7D339
:100F000040213846FFF76AFE0028F9D0BDE8F0819D
:100F100070B50D46064600243046295DFFF7D6FF22
:100F2000641C285D0028F7D140213046FFF756FEAB
:100F30000028F9D070BD70B50446080ACDB201464C
:100F40002046FFF7EAFD80212046FFF747FE0028F4
:100F5000F9D029462046FFF7E0FD80212046FFF723
:100F60003DFE0028F9D070BD70B50E4D0446C1B2EB
:100F70002846FFF7D2FD80212846FFF72FFE0028E4
:100F8000F9D0204670BD10B5064C20212046FFF751
:100F900025FE0028F9D02046BDE81040FFF7C1BD6E
:100FA000000801400038014000F108014FF0FF3215
:100FB000C0E90112C1600161002101607047002198
:100FC0000161704742684A6093688B60936859601A
:100FD000916008610168491C0160704730B50C6878
:100FE000621C02D000F1080202E0026904E01A4625
:100FF00053681D68A542FAD953684B6099608A60AE
:10100000516008610168491C016030BDD0E90132BE
:1010100001699A60D0E901235A604A68824201D18D
:1010200082684A60002202610868401E08607047BA
:101030002DE9F041054601F03FF9FE4EB068401C35
:10104000B0603068FC4F10B1706930B32BE0356090
:10105000B068012827D1002404EB840007EB80004E
:10106000FFF7A2FF641C202CF6D3F448FFF79CFF87
:10107000F2481430FFF798FFF0482830FFF794FF4C
:10108000EE483C30FFF790FFEC485030FFF78CFF04
:10109000EA4870631430B06305E03068E96AC06AFA
:1010A000884200D83560706A0121401C7062E86A8D
:1010B000326981401143316100EB800007EB800011
:1010C000291DFFF77FFF01F011F9706900280CD08E
:1010D0003068E96AC06A884207D2D9494FF0805027
:1010E0000860BFF34F8FBFF36F8FBDE8F0812DE92C
:1010F000FF5F8346DDE90E87994616468A469000D3
:1011000000F084FF05001AD04C2000F07FFF04009F
:1011100012D025630021CDE90241CDE900874B467D
:1011200032465146584600F0ADFE2046FFF780FF9C
:10113000012004B0BDE8F09F284600F0D2FF4FF038
:10114000FF30F6E770B5044601F0B6F8B94D04B9C2
:101150002C68201DFFF75AFF58B9E06AB64A00EB29
:10116000800152F8211021B901218140286988436A
:101170002861A06A18B104F11800FFF747FF686AF8
:10118000401C68622868844208D1AC48211D3C306C
:10119000FFF718FF6868401C686007E0A868401EF9
:1011A000A860204600F0BFFE00F0B0FE01F09EF8FF
:1011B0006869002812D0286884420FD1286B28B1B2
:1011C00040F265429FA1A6A001F028F99C494FF08A
:1011D00080500860BFF34F8FBFF36F8F70BD2DE954
:1011E000F041944F0026386B38B1B869401CB861A3
:1011F000F86900B10126304677E7FD686D1CFD6097
:1012000011D1786B006828B140F6D9128DA194A055
:1012100001F004F9786BB96B7963B863386A401CE4
:10122000386200F073FEB86ADFF80C82854209D399
:10123000786B006880B1786BC068C468606885426C
:101240000DD2B8623868C06A00EB800158F82100FE
:101250000128CDD90126CBE74FF0FF30F1E7201D63
:10126000FFF7D4FEA06A18B104F11800FFF7CEFE14
:10127000E06A01213A6981401143396100EB800144
:1012800008EB8100211DFFF79DFEE06A3968C96AFD
:101290008842CDD30126CBE72DE9F047654D0024E8
:1012A0002746286B28B94FF4FD6266A16CA001F0B7
:1012B000B5F801F001F8286B401E2863286BE0BBED
:1012C000A8685E4928310126B8B3DFF86C918846DA
:1012D000D8F80010E9B1D8F80C00C46804F118007F
:1012E000FFF794FE201DFFF791FEE06A2A6906FAD7
:1012F00000F11143296100EB800109EB8100211D00
:10130000FFF760FEE06A2968C96A8842E0D3EE61AF
:10131000DEE70CB100F0FAFDAC693CB1FFF75FFF0E
:1013200000B1EE61641EF9D10020A861E86920B126
:10133000434901273807086000E003E0BFF34F8FFF
:10134000BFF36F8F00F0D2FF3846BDE8F0872DE97C
:10135000F041384E0F460446F5683068001DFFF72F
:1013600055FE38B9306890F82C100120884031695A
:1013700081433161601C08D13FB13168BDE8F04163
:101380002E485030091DFFF71DBE30682C44AC427A
:101390004460316805D2B06BBDE8F041091DFFF72C
:1013A0001DBE706B091DFFF719FEB06A844200D2A2
:1013B000B4629AE61F48016B491C016370472DE92E
:1013C000F0410E4605004FF0000405D140F279428D
:1013D0001CA123A001F022F82EB940F27A4219A1F3
:1013E0001FA001F01BF8134F386B28B140F27B426D
:1013F00014A11BA001F012F8FFF7DCFFFA682868BF
:101400008119904202D9884202D804E0884201D86A
:10141000914200D9012429601CB1881A0021FFF7EC
:1014200096FFFFF739FF002826D105494FF080507D
:1014300008601DE03000002094000020140300200C
:1014400004ED00E02E2E5C2E2E5C46726565525433
:101450004F535C7372635C7461736B732E63000033
:101460004572726F723A25732C25640D0A000000D4
:10147000BFF34F8FBFF36F8F37E610B5040014D062
:10148000FE49096B39B140F2CF42AFF24801AFF2E9
:10149000300000F0C3FFFFF78DFF00212046FFF76B
:1014A00056FFFFF7F9FE002807D1F5494FF08050AD
:1014B0000860BFF34F8FBFF36F8F10BD70B505008D
:1014C00007D140F2FB42AFF28401AFF26C0000F0B2
:1014D000A5FFEA4E3068854201D1002070BD00F0C2
:1014E000EBFE6C6900F002FF706B844202D0B06BBF
:1014F000844201D1022070BDE248844204D1A86A2E
:101500000028F7D1032070BDDE481438844202D091
:101510000CB1012070BD042070BD10B5044600F070
:10152000CBFE0CB9D5480468E46A00F0DFFE204623
:1015300010BD10B5044600F0FEFE5020EFF31181FF
:1015400080F31188BFF34F8FBFF36F8F0CB9CB4877
:101550000468E06A81F3118810BD2DE9F04100268E
:101560000D460446202908D34FF4B062AFF22C1187
:10157000AFF2141000F052FF1F2500F09DFEBF4F88
:1015800004B93C68E06AA8423BD03968854206D974
:101590008C4207D03968C96AA94202D902E08C425C
:1015A00000D101268046E562A069002802DBC5F172
:1015B0002000A061B44D08EB8800616905EB800054
:1015C000814215D1201DFFF721FD012120B93A6983
:1015D00001FA08F082433A61E06A3A6981401143B6
:1015E000396100EB800005EB8000211DFFF7EAFC6C
:1015F0003EB1A3494FF080500860BFF34F8FBFF357
:101600006F8FBDE8F04100F071BE70B59B4D286B47
:1016100010B10120E86170BD0020E86128699A4E90
:10162000B0FA80F0C0F11F0000EB800456F82400EF
:1016300038B940F6F622AFF2F411AFF2DC1000F048
:10164000EDFE06EB840000F1080241684968416044
:10165000914201D149684160C868286070BD70B589
:10166000044600F029FE854D04B92C68201DFFF7C3
:10167000CDFC58B9E06A844A00EB800152F8211091
:1016800021B901218140286988432861A06A18B1E5
:1016900004F11800FFF7BAFC211D7A48FFF792FC0D
:1016A00000F024FE686928B100F006FE00F02EFC70
:1016B00000F01CFE2868844213D1686990B1286B41
:1016C00038B140F25762AFF28421AFF26C2000F0E3
:1016D000A5FE6B494FF080500860BFF34F8FBFF3FA
:1016E0006F8F70BD6748A9680068884202D10020EA
:1016F000286070BDBDE8704087E770B50025040024
:1017000007D140F28162AFF2C421AFF2AC2000F009
:1017100085FE5C496069884205D1A06A2839884203
:1017200001D000B90125284670BD70B504002BD04A
:10173000524D2868844231D000F0BEFD2046FFF7AC
:10174000DCFFE8B1201DFFF761FCE06A01212A6996
:101750008140114329614C4900EB800001EB80007E
:10176000211DFFF72FFCE06A2968C96A884207D368
:1017700043494FF080500860BFF34F8FBFF36F8F26
:10178000BDE8704000F0B2BD40F2AB62AFF24C3148
:10179000AFF23430BDE8704000F040BE70BD2DE9BE
:1017A000F0410026040007D140F2E262AFF26C3152
:1017B000AFF2543000F032FE00F0BDFD5020EFF3E8
:1017C000118580F31188BFF34F8FBFF36F8F2046D1
:1017D000FFF793FFF0B1294F386B20B1294804F18E
:1017E0001801283814E0E06A3968C96A884200D3D1
:1017F0000126201DFFF70AFCE06A01213A698140B9
:1018000011433961204900EB800001EB8000211D6C
:10181000FFF7D8FB85F31188304666E41A4E4FF087
:101820008054174D00F089FB30680128FAD92C60EC
:10183000BFF34F8FBFF36F8FF4E71CB50F48002441
:101840002C30CDE900402346802210A11148FFF73B
:101850004EFC01280CD0401C2BD140F28472AFF218
:101860001C41AFF2044002B0BDE8104000F0D6BD0C
:10187000502080F31188BFF34F8F0DE0300000201F
:1018800004ED00E0640300209400002049444C452E
:10189000000000001D180008BFF36F8FFF484FF0D5
:1018A000FF31816201214161C460BDE81C4000F04C
:1018B000C1BC1CBD502080F31188BFF34F8FBFF314
:1018C0006F8FF6490020486100F0EABCF348C06819
:1018D000704710B500F02FFDF048C06810BDEF480C
:1018E0008068704710B510B104461CB10AE0EB489F
:1018F0000468FAE740F68C02AFF2B841AFF2A040BC
:1019000000F08CFD04F1340010BD70B50D460400EC
:1019100007D140F60632AFF2D441AFF2BC4000F03E
:101920007DFDDE48016820461831FFF757FB284649
:10193000BDE8704001210AE52DE9F04117460E4649
:10194000050007D140F61732AFF20851AFF2F04070
:1019500000F064FDD14C206B38B940F61B32AFF279
:101960001C51AFF2045000F059FD216846F00040D0
:101970008861216828461831FFF724FB3846BDE806
:10198000F0410121E3E42DE9F041C068C4683CB9AD
:1019900040F66132AFF25451AFF23C5000F03EFDE0
:1019A00004F118000746FFF731FBBC4D286B0126F8
:1019B00058B13946BA48FFF705FBE06A2968C96A99
:1019C000884212D90120EE6116E4201DFFF71EFBAC
:1019D000E06A2A6906FA00F111432961B14900EB76
:1019E000800001EB8000211DE5E7002004E470B5D4
:1019F000AA4D06460C46286B38B940F69932AFF22C
:101A0000BC51AFF2A45000F009FD44F0004030603A
:101A1000F4683CB940F6A132AFF2D851AFF2C050F1
:101A200000F0FCFC3046FFF7F1FA201DFFF7EEFA5C
:101A3000E06A01262A6906FA00F1114329619949F1
:101A400000EB800001EB8000211DFFF7BBFAE06A8C
:101A50002968C96A884202D90120EE6170BD002060
:101A600070BD10B5040007D140F6C132AFF22C6151
:101A7000AFF2146000F0D2FC8848016A2160C068AF
:101A8000606010BD70B50D46040007D140F6CB3242
:101A9000AFF25061AFF2386000F0C0FC3DB940F6E3
:101AA000CC32AFF26061AFF2486000F0B7FC00F0FA
:101AB00003FC7A4AD06829684B1C0FD02368126A4D
:101AC000934202D0626882420AD96268801A8842D0
:101AD00006D2081A28602046FFF7C3FF002400E062
:101AE000012400F003FC204670BD6C490120C86150
:101AF00070476A48416919B1006B18B100207047FE
:101B00000120704702207047644908680A688069AC
:101B1000D26A0968C2F120028A61704770B50C462A
:101B2000064600F0C9FB5D4D2868406C80B9296805
:101B3000012081F848005CB101212046FFF707FC35
:101B400059494FF080500860BFF34F8FBFF36F8F3C
:101B500000F0CCFB00F0B0FB2868446C002034B1EE
:101B600016B12968486402E02A68611E5164296838
:101B700081F8480000F0BAFB204670BD2DE9F04125
:101B80001E4615468846074600F096FB434C2068E3
:101B900090F84800022814D02068416CB943416491
:101BA0002168012081F848005EB101213046FFF72D
:101BB000CEFB3D494FF080500860BFF34F8FBFF31D
:101BC0006F8F00F093FB00F077FB15B12068406C3D
:101BD0002860206890F8480001280DD02068416CEA
:101BE00021EA0801416401252168002081F84800AC
:101BF00000F07CFB28463FE40025F5E72DE9F041A5
:101C00001F4690460D4604004FF0010607D141F2F1
:101C1000FD02AFF2D071AFF2B87000F0FFFB00F040
:101C20004BFB0FB1606C386094F84800022184F8D7
:101C30004810B8F1050F0ED2DFE808F00D03060CCE
:101C40000A00616C294301E0616C491C616402E097
:101C5000022803D06564012802D033E0002631E079
:101C6000201DFFF7D3F90D4DE06A01212A6981405B
:101C7000114329610B4900EB800001EB8000211D1D
:101C8000FFF7A0F9A06A38B141F23512AFF64C0166
:101C9000AFF6340000F0C2FBE06A07E0300000203D
:101CA0003C0300209400002004ED00E02968C96A8C
:101CB000884207D9B4494FF080500860BFF34F8F76
:101CC000BFF36F8F00F012FB3046A6E52DE9F04719
:101CD0001F46DDF8209092460D4604004FF00108A3
:101CE00007D141F26812AFF6A401AFF68C0000F004
:101CF00095FB00F020FB5020EFF3118680F3118854
:101D0000BFF34F8FBFF36F8F0FB1606C386094F8E3
:101D10004800022184F84810BAF1050F0ED2DFE81E
:101D20000AF00D03060C0A00616C294301E0616CA6
:101D3000491C616402E0022803D06564012803D0D5
:101D400031E04FF000082EE0A06A38B141F2AF1246
:101D5000AFF61011AFF6F80000F060FB8B4D286B6A
:101D6000012778B104F118018948FFF72BF9E06ADF
:101D70002968C96A884216D9B9F1000F12D0C9F88A
:101D8000007010E0201DFFF741F9E06A2A6907FAA8
:101D900000F11143296100EB80017E4800EB8100D6
:101DA000211DE2E7EF6186F311884046BDE8F08728
:101DB0002DE9F0418846040007D141F2E312AFF665
:101DC0007C11AFF6641000F029FB00F0B4FA50204B
:101DD000EFF3118780F31188BFF34F8FBFF36F8F3D
:101DE00094F84800022184F84810616C491C616431
:101DF00001282ED1A06A38B141F20922AFF6BC11F8
:101E0000AFF6A41000F00AFB604D286B012678B1F4
:101E100004F118015E48FFF7D5F8E06A2968C96A3D
:101E2000884216D9B8F1000F12D0C8F8006010E04F
:101E3000201DFFF7EBF8E06A2A6906FA00F111436A
:101E40002961544900EB800001EB8000211DE2E78D
:101E5000EE6187F31188E0E410B558B1044600F054
:101E60002BFA94F84800022807D0002400F03EFA2C
:101E7000204610BD45480468F1E7002084F848007A
:101E80000124F3E72DE9F0470E46DDE90984824697
:101E90006FF00301206B01EB82010844089D20F0E4
:101EA00007079946780705D040F22B323AA141A0A6
:101EB00000F0B4FA00202218315C82F83410315C52
:101EC00011B1401C1028F6D3002684F84360202D61
:101ED00000D31F25201DE562FFF771F804F11800FB
:101EE000FFF76DF82461C5F120006462A0616664AB
:101EF00084F848604A465146384600F07EF9206032
:101F0000B8F1000F01D0C8F800404FE71F48416BFF
:101F1000096829B1416BC968C9684968816270471D
:101F20004FF0FF31FAE710B50446006B00F0D9F826
:101F30002046BDE8104000F0D4B870B5144E134DE3
:101F400014361CE0FFF736FA306820B10024FFF7A2
:101F5000A3F9A4B901E00124F9E700F0ADF9F068B4
:101F6000C468201DFFF752F8A868401EA860686882
:101F7000401E686000F0BAF92046FFF7D4FF686899
:101F80000028DFD170BD000004ED00E0300000202B
:101F90003C030020940000202E2E5C2E2E5C467206
:101FA000656552544F535C7372635C7461736B73F9
:101FB0002E6300004572726F723A25732C25640DF2
:101FC0000A00000030B5744900E011460A688242F8
:101FD000FBD34B685C18844203D1406818444860C6
:101FE000084643681C18944209D16B4C103C246885
:101FF000A24209D052681A4442600A68126802601C
:10200000814200D0086030BD0460F9E72DE9F0415D
:1020100005460026FFF7CEF95F4F103F386808B934
:1020200000F098F8F86805424ED1002D4CD00835E4
:1020300068070BD005F00700C0F1080005446807E9
:1020400004D0BF2255A15FA000F0E8F9002D3BD0DD
:102050007868854238D850490846046801E021462E
:1020600004466068A84202D220680028F7D1386888
:10207000B846844228D00E68206808606068083638
:10208000401B10280ED96719780704D0EC2243A111
:102090004CA000F0C3F96068401B7860384665606A
:1020A000FFF790FF6168D8F804004246401AC8F86C
:1020B0000400D8F80830984200D29060D8F80C009C
:1020C00001430020C4E90001FFF7E6F8700705D0DE
:1020D0004FF4967231A13BA000F0A0F93046BDE864
:1020E000F08170B500282BD02B4DA0F10804103DD5
:1020F0006068E968084205D14FF4A07227A131A0B9
:1021000000F08CF9206828B140F2411223A12DA0E3
:1021100000F084F96068E968084211D02268002A5A
:102120000ED188436060FFF745F96068696808442C
:1021300068602046FFF746FFBDE87040FFF7ACB887
:1021400070BD1548103840687047134810388068D3
:10215000704770471F484FF41041420706D0C01D1A
:102160001C4920F00700411AC1F510410A4A00231A
:102170000144C2E900030839103A21F00701116057
:102180004B600B600B1AC0E9001393604FF00040E6
:102190005360D060704700007C0000202E2E5C2E23
:1021A0002E5C4672656552544F535C706F72745C5E
:1021B0004D656D4D616E675C686561705F342E635F
:1021C000000000004572726F723A25732C25640D71
:1021D0000A0000007803002069484068401C04D0D1
:1021E000F42268A171A000F019F9502080F3118841
:1021F000BFF34F8FBFF36F8FFEE710B5031F4FF094
:1022000080741C601B1F21F001011960191F6B4BAA
:102210000B60143940380A6010BD69484FF47A7178
:102220000068B0FBF1F14FF0E020491E4161072149
:10223000016170471CB5634908780190FF20087060
:1022400008788DF800009DF800004D4A00F050001D
:1022500010700720906007E09068401E90609DF825
:10226000000040008DF800009DF800000006F3D447
:10227000107A000200F4E060906001980870524803
:10228000016841F470010160016841F07041016032
:10229000FFF7C3FF00205060FDF768FF00201CBD62
:1022A00037484068B0F57A7F05D04FF4B57235A154
:1022B0003EA000F0B3B87047502080F31188BFF300
:1022C0004F8FBFF36F8F2E494868401C486001282C
:1022D0000BD13D481C38006810F0FF0F05D04FF4BB
:1022E000BD7228A131A000F099B8704710B5244CF8
:1022F000606828B940F2811222A12CA000F08EF86B
:102300006068401E606001D180F3118810BD10B577
:10231000502080F31188BFF34F8FBFF36F8FFEF70C
:102320005EFF20B128494FF080501C390860002022
:1023300080F3118810BD10B5FDF74EFF104C10282A
:102340000CD300F1E02090F8F0032178884205D208
:102350004FF42A720BA115A000F060F81A48143847
:102360000068A16800F4E060884207D9BDE8104029
:102370004FF42E7203A10DA000F050B810BD000064
:10238000840000202E2E5C2E2E5C46726565525411
:102390004F535C706F72745C525644535C41524DA3
:1023A0005F434D335C706F72742E63004572726FC1
:1023B000723A25732C25640D0A000000D92100080B
:1023C0000000002000E400E020ED00E030B50B4606
:1023D000014600202022012409E021FA02F59D4255
:1023E00005D303FA02F5491B04FA02F52844151E29
:1023F000A2F10102F1DC30BD064C074D06E0E068B9
:1024000040F0010394E8070098471034AC42F6D33B
:10241000FDF792FE14260008342600080FB4054B81
:1024200010B503A9044A029800F018F810BC5DF832
:1024300014FB0000690F00089000002002E008C8AB
:10244000121F08C1002AFAD170477047002001E02E
:1024500001C1121F002AFBD1704700002DE9FF4F78
:102460008BB09A460F460546002606E025280BD07D
:1024700052460D9990476D1C761C28780028F5D19E
:102480000FB03046BDE8F08F0024A046012260491D
:1024900000E0044315F8013F203B02FA03F0084234
:1024A000F7D128782E2817D115F8010F44F004042D
:1024B0002A280ED06FF02F022878A0F130010929C8
:1024C0000AD808EB880102EB410100EB01086D1C02
:1024D000F2E757F8048B6D1C287869283ED006DC9B
:1024E0000028CDD063280BD0642804D136E07328AF
:1024F00010D075284BD052460D999047761C85E038
:1025000017F8040B8DF8000000208DF80100E94653
:10251000012003E057F8049B4FF0FF3061074FF0B4
:10252000000401D40AE0641C44450DDA8442FADB5D
:1025300019F804100029F6D106E0641C8442FCDB83
:1025400019F804100029F8D1264404E019F8010B09
:1025500052460D999047641EF8D257E001CF4FF0D4
:102560000A0B002802DA40422D2102E0210504D5A1
:102570002B218DF82410012103E0E10705D0202153
:10258000F7E70DF1200908910CE00021F9E701CFF0
:102590004FF00A0BF9E75946FFF718FF01F1300237
:1025A00009F8012D0028F6D1ADEB090000F1200B50
:1025B000600701D44FF00108D84502DDA8EB0B00FD
:1025C00000E000208046002406E009A85246005D95
:1025D0000D999047641C761C08988442F5DB04E052
:1025E000302052460D999047761CB8F10001A8F1B1
:1025F0000108F5DC05E019F8010B52460D999047EA
:10260000761CBBF10001ABF1010BF4DC6D1C34E76F
:102610000928010034260008000000209400000072
:102620003C240008C826000894000020E49600001E
:102630004C24000800A24A04000000000000000032
:10264000010203040607080902040608000000004E
:102650000102030401020304060708090000000048
:10266000000000000000000000000000000000006A
:10267000000000000000000000000000000000005A
:10268000000000000000000000000000000000004A
:10269000000000000000000000000000000000003A
:1026A000000000000000000000000000000000002A
:1026B000000000000000000000000000AAAAAAAA72
:0826C000000000000000000012
:0400000508000131BD
:00000001FF
