:020000040800F2
:1000000048B3072439030008090D0090A90C00909B
:10001000B10C0090C104009029190090000000006C
:10002000000000000000000000000000810D0090B2
:10003000C904009000000000110D0090A1230008E9
:100040005303000853030008530300085303000838
:100050005303000853030008530300085303000828
:100060005303000853030008530300085303000818
:100070005303000853030008530300085303000808
:1000800053030008530300085303000853030008F8
:1000900053030008530300085303000853030008E8
:1000A00053030008530300085303000853030008D8
:1000B00053030008A90D00905303000853030008E0
:1000C00053030008530300085303000853030008B8
:1000D00053030008392400085303000853030008A1
:1000E00053030008530300080000000053030008F6
:1000F0005303000853030008530300085303000888
:100100005303000853030008B90D0090530300087F
:100110005303000853030008530300085303000867
:100120005303000853030008530300085303000857
:100130005303000853030008530300085303000847
:1001400000000000000000000000000000000000AF
:100150005303000853030008530300085303000827
:100160005303000853030008530300085303000817
:100170005303000853030008530300085303000807
:1001800053030008530300085303000853030008F7
:1001900053030008530300085303000853030008E7
:1001A00053030008530300085303000853030008D7
:1001B00053030008530300085303000853030008C7
:1001C00053030008530300085303000853030008B7
:1001D00053030008530300085303000853030008A7
:1001E0005303000853030008530300085303000897
:1001F0005303000853030008530300085303000887
:100200005303000853030008530300085303000876
:100210005303000853030008530300085303000866
:1002200053030008530300085303000800000000B4
:1002300053030008530300080000000053030008A4
:100240005303000853030008530300085303000836
:100250005303000853030008530300085303000826
:100260005303000853030008530300085303000816
:100270005303000853030008530300080000000064
:100280005303000853030008530300080000000054
:10029000000000005303000800F002F800F03CF8F2
:1002A0000AA090E8000C82448344AAF10107DA45D1
:1002B00001D100F031F8AFF2090EBAE80F0013F0E7
:1002C000010F18BFFB1A43F001031847E427000091
:1002D00004280000103A24BF78C878C1FAD8520721
:1002E00024BF30C830C144BF04680C6070470000B0
:1002F0000023002400250026103A28BF78C1FBD82F
:10030000520728BF30C148BF0B6070471FB502F0CD
:10031000B9FB1FBD10B510BD00F0ABF81146FFF7DB
:10032000F5FF02F029F900F0C9F803B4FFF7F2FF76
:1003300003BC02F089F800000948804709480047DB
:10034000FEE7FEE7FEE7FEE7FEE7FEE7FEE7FEE785
:10035000FEE7FEE704480549054A064B70470000E2
:10036000B92300089902000848A9072448B30724C4
:1003700048AB072448AB0724704753EA020C00F04F
:1003800069802DE9F04B4FF00006002B1FBFB3FA38
:1003900083F503FA05F424FA05F65E4012BF16430E
:1003A000B2FA82F502FA05F4C5F120051EBF22FA61
:1003B00005FC44EA0C04203556EA044C4FEA144488
:1003C00018BF641C4FF000084FF00009904271EB19
:1003D000030C39D3002919BFB1FA81F701FA07F6E6
:1003E000B0FA80F700FA07F6C7F120071EBF20FA1F
:1003F00007FC46EA0C062037B6FBF4FCA7EB050722
:10040000103F07F01F0BCBF120062CFA06F60CFA72
:100410000BFB44BFB3460026202FA4BF5E464FF01F
:10042000000B5BEA060C08BF4FF0010B19EB0B0940
:1004300048EB0608ABFB027C06FB02CC0BFB03CCB3
:10044000C01B71EB0C01C1E70B4602464146484612
:10045000BDE8F08B13B5084318BF4FF0FF300146DD
:10046000AFF30080BDE81C4070477047704770478D
:100470007047754600F02CF8AE46050069465346B5
:1004800020F00700854618B020B5FFF763FFBDE8F0
:1004900020404FF000064FF000074FF000084FF0EB
:1004A000000BAC46ACE8C009ACE8C009ACE8C00938
:1004B000ACE8C00921F007018D46704710B504462D
:1004C000AFF300802046BDE81040FFF72EBF0000CC
:1004D000004870478000002480B5D8B190F83510EE
:1004E000022919D140F20F420168C4F2020291427E
:1004F00016DC6F23C4F20203994226DC3F23C4F2C8
:10050000020399423CDC1023C4F2020399425AD000
:10051000282354E0012080BD80214165012080BD59
:1005200040F26F43C4F2020399421ADC40F23F43A7
:10053000C4F2020399422ADC40F21043C4F20203DF
:10054000994240D040F2284339E09F23C4F202038D
:10055000994225DC7023C4F20203994233D08823E8
:100560002DE040F29F43C4F2020399421FDC40F2A7
:100570007043C4F20203994225D040F288431EE042
:100580004023C4F2020399421DD0582317E040F2E1
:100590004043C4F20203994215D040F258430EE0A2
:1005A000A023C4F2020399420DD0B82307E040F221
:1005B000B843C4F20203994205D040F2A043C4F20A
:1005C000020399426ED191424FF0040280F8352027
:1005D00010DC6F20C4F20200814220DC3F20C4F214
:1005E0000200814236DC1020C4F20200814253D066
:1005F00028204EE040F26F40C4F2020081421ADC33
:1006000040F23F40C4F2020081422ADC40F2104036
:10061000C4F2020081423FD040F2284039E09F20DE
:10062000C4F20200814225DC7020C4F20200814243
:1006300032D088202DE040F29F40C4F20200814277
:100640001FDC40F27040C4F20200814224D040F22C
:1006500088401EE04020C4F2020081421CD0582095
:1006600017E040F24040C4F20200814214D040F250
:1006700058400EE0A020C4F2020081420CD0B82005
:1006800007E040F2B840C4F20200814204D040F2D8
:10069000A040C4F202008142086820F00100086016
:1006A000002080BD0A6822F00E020A6045F257421F
:1006B000C5F6020291420A6822F001020A600EDCCD
:1006C00045F22F42C5F60202914217DC45F208427C
:1006D000C5F60202914226D045F21C421FE045F2C7
:1006E0007F42C5F60202914211DC45F25842C5F63E
:1006F0000202914217D045F26C4210E045F23042BE
:10070000C5F6020291420ED045F2444207E045F29E
:100710009442C5F60202914205D045F28042C5F6E8
:10072000020291421AD1D0E9181CD0E916E30A68F6
:1007300022F480720A6003F01F01012202FA01F123
:10074000CEF80410816ECCF80410C16E31B10A6885
:1007500022F480720A60D0E91C124A60002180F8FD
:100760003410012280F83520026D0AB19047002133
:10077000084680BD0000000040F22040C5F60000A1
:10078000016841F0010101607047000000000000B5
:100790002DE9F04F82B00E68002E00F0C08000F10D
:1007A00026420A2702F1FF7342F20042C5F6020216
:1007B0004FEAB324904240F2040C08BF0927092CE9
:1007C000C5F6000C38BF4FEAB32700234FF0010AEB
:1007D00000970025002709E001370E6836FA07F276
:1007E00005F1020503F1040300F099800AFA07F904
:1007F00016EA0908F0D04E6846F01004122C13D106
:100800006FF003020F2602EA570403F01C020444AF
:100810009640D4F820B0D1F810E02BEA06060EFA84
:1008200002F2324322624E6803220468AA40122E6A
:100830006FEA020B24EA020206F0030404FA05F44C
:1008400042EA0402026012D80AFA06F212F0061F07
:100850000DD08268CC6802EA0B02AC402243826071
:100860004268340922EA0902BC4022434260C2685D
:100870008C68AC4002EA0B02F60042EA0402C26055
:10088000AAD544F2F44640F20849C5F60206C5F678
:1008900000090F24326842F002023260326802F02E
:1008A0000202019227F00302019E03F00C0652F8A7
:1008B00009E0B4402EEA040E009C04FA06F646EA6B
:1008C0000E0642F80960DCF87CE04E684EEA080447
:1008D000F20358BF2EEA0804B2034FF0B049CCF837
:1008E0007C40DCF880E04EEA080458BF2EEA080499
:1008F000F202CCF88040D9F800E04EEA080458BF74
:100900002EEA0804B602C9F80040DCF8002042EAEA
:10091000080458BF22EA0804CCF800405CE702B0A3
:10092000BDE8F08F000000000069084018BF0120FA
:100930007047000000000000002A08BF0904816120
:10094000704700000000000041F20000C5F60040C2
:100950000068000C704700004AF62400C2F207400D
:10096000006870470000000040F260004AF6240171
:10097000C2F20040C2F2074100780A6810440860E1
:10098000704700000000000080B5032000F0F4F87C
:1009900001F036F844F2184142F69E23C5F60201F2
:1009A000C0F6000340F2040C0A68C2F2004CC2F325
:1009B00003229A5C02F01F02D040CCF800000968C4
:1009C00040F2080201F00F01C2F20042595C01F04E
:1009D0001F01C84010600F2000F00AF800281CBF5B
:1009E000012080BD00F080F8002080BD00000000E4
:1009F000B0B540F26001C2F20041097801B304468B
:100A000040F20400C2F200404FF47A72B2FBF1F1FE
:100A10000068B0FBF1F001F0F7FA0F2C4FF0010580
:100A20000CD858B94FF0FF3000222146002500F0C5
:100A300073F840F26400C2F2004004602846B0BD82
:100A40000120B0BD00000000B0B502784EF69C5CFD
:100A5000CEF2000C43784CF8043CF2B14368CCF879
:100A60000030037BC17A90F80AE0457B447A42EA81
:100A70000372837B42EA0161C27B41EACE41007A84
:100A800041EA854141EA434141EA024141EA042108
:100A900041EA4000CCF80400B0BD0020CCF80000D2
:100AA000CCF80400B0BD00004EF62450CEF2000099
:100AB000BFF35F8F016821F480310160002101677D
:100AC00070470000000000004EF6245140F0010085
:100AD000CEF200010867086840F480300860BFF378
:100AE0004F8FBFF36F8F704770470000000000000A
:100AF000002848BF704781B24EF200134909CEF278
:100B0000000300F01F00012202FA00F043F8210068
:100B1000704700000000000070B54EF60C5C4FF00E
:100B2000FF36CEF2000C00F1604505F56445DCF8B7
:100B30000030C3F3022E8EF00703042B28BF0423DA
:100B4000BEF1030406FA03F321EA030100F00F03E8
:100B500038BF0024043B0028634406FA04F048BF71
:100B600003F10C05A14022EA0000084300012870AF
:100B700070BD0000000000004EF60C514FF6FF0360
:100B8000CEF200010A681A4060F30A2242F0806047
:100B900040F0FD700860704744F60C00C5F6020096
:100BA000016841F0807101607047000000000000A2
:100BB00080B500F025FF44F2184142F69E22C5F6AA
:100BC0000201C0F600020968C1F30321515C01F083
:100BD0001F01C84040F20401C2F20041086080BD1C
:100BE00080B500F0B5FE44F2204142F69E22C5F6E3
:100BF0000201C0F600020968C1F30211515C01F064
:100C00001F01C84080BD000080B544F2384EC5F6D3
:100C1000020E5EF8103C5EF8101C5EF80C2CC1F35E
:100C2000053CDEF80410BCF1000F15D0C908D2064F
:100C300001EAE2716FF35F3100EE101A03F0030175
:100C40000229B8EE400A0CD071B95EF8381C89064A
:100C50000DD49FED351A18E000218160C0E9001124
:100C600080BD9FED301A10E09FED2D1A0DE05EF86B
:100C7000381C49F20002C0F2D032C1F3C10122FA9D
:100C800001F101EE101AB8EE411ADEF800109FEDE6
:100C9000273A6FF35F2102EE101ADEF80010C1F35D
:100CA0004621B8EE422A00EE032A00EE10CAB7EE43
:100CB000003AB8EE400A81EE000A32EE031A02EE64
:100CC000101AB8EE422A20EE010A32EE031A80EE24
:100CD000011ABCEEC11A80ED001ADEF80010C1F353
:100CE000064101EE101AB8EE411A31EE031A80EEF9
:100CF000011ABCEEC11A80ED011ADEF80010C1F332
:100D0000066101EE101AB8EE411A31EE031A80EEB8
:100D1000010ABCEEC00A10EE101A816080BD00BF4F
:100D20000024744A0024F44A0024744C0000003962
:100D300080B544F2404EC5F6020E5EF8183C5EF8EF
:100D4000181C5EF8142CC1F3055CDEF80410BCF12D
:100D5000000F15D0C908D20501EAE2716FF35F31C7
:100D600000EE101A03F003010229B8EE400A0CD07D
:100D700071B95EF8401C89060DD49FED351A18E054
:100D800000218160C0E9001180BD9FED301A10E0A4
:100D90009FED2D1A0DE05EF8401C49F20002C0F2F2
:100DA000D032C1F3C10122FA01F101EE101AB8EEFE
:100DB000411ADEF800109FED273A6FF35F2102EE33
:100DC000101ADEF80010C1F34621B8EE422A00EEF8
:100DD000032A00EE10CAB7EE003AB8EE400A81EEE0
:100DE000000A32EE031A02EE101AB8EE422A20EE82
:100DF000010A32EE031A80EE011ABCEEC11A80ED30
:100E0000001ADEF80010C1F3064101EE101AB8EE28
:100E1000411A31EE031A80EE011ABCEEC11A80EDC0
:100E2000011ADEF80010C1F3066101EE101AB8EEE7
:100E3000411A31EE031A80EE010ABCEEC00A10EE30
:100E4000101A816080BD00BF0024744A0024F44A57
:100E50000024744C000000392DE9F0470446C078A6
:100E600044F22C480007C5F6020825D5606E4FEA0B
:100E7000305103290AD8DFE801F0020B1018D8F826
:100E8000001041F40031C8F800100EE0012614E013
:100E9000201D022101F064F904E004F12400022184
:100EA00001F0EEF9064640B9606ED8F8241021F43E
:100EB00040110843C8F8240000266078C00701D11B
:100EC000354629E0606D04280DD83546DFE800F08E
:100ED000030E13191900D8F80000354640F400300D
:100EE000C8F800000DE00125012716E0201D0021B3
:100EF00001F036F904E004F12400002101F0C0F90A
:100F000005462F464DB9D8F82400616D20F0070042
:100F100000250843C8F8240037466078800729D5A3
:100F2000A06D4FEAB01004280BD8DFE800F0030DE5
:100F300012181800D8F8000040F40030C8F800007B
:100F40000DE00125012616E0201D002101F008F921
:100F500004E004F12400002101F092F905462E4638
:100F60004DB9D8F82400A16D20F4E07000250843A5
:100F7000C8F824003E46607840072CD5D4F8A40079
:100F80004FEA705004280BD8DFE800F0030E131965
:100F90001900D8F8000040F40030C8F800000EE056
:100FA00001254FF0010917E0201D002101F0D8F8BC
:100FB00004E004F12400002101F062F90546A9468D
:100FC00055B9D8F82C00D4F8A41020F460000025FE
:100FD0000843C8F82C00B146607800072BD5D4F838
:100FE000A8004FEA306004280BD8DFE800F0030DBA
:100FF00012181800D8F8000040F40030C8F80000BB
:101000000DE00125012717E0201D002101F0A8F8BF
:1010100004E004F12400002101F032F905462F46D6
:1010200055B9D8F82C00D4F8A81020F0E0600025BD
:101030000843C8F82C004F46E078800722D5A06C02
:101040004FEA301003280AD8DFE800F011020C1133
:10105000D8F8000040F40030C8F8000007E001258F
:10106000012610E0201D022101F07AF805462E46E7
:101070004DB9D8F82000A16C20F0300000250843BD
:10108000C8F820003E466078C00629D5E06D4FEADA
:10109000303004280BD8DFE800F0030D12181800D8
:1010A000D8F8000040F40030C8F800000DE0012539
:1010B000012716E0201D002101F052F804E004F1A0
:1010C0002400002101F0DCF805462F464DB9D8F880
:1010D0002400E16D20F4E04000250843C8F8240016
:1010E00037466078800622D5206E4FEA30400528CA
:1010F00009D8DFE800F011030B111111201D0121A7
:1011000001F02EF807E00125012611E004F124008A
:10111000012101F0B5F805462E464DB9D8F8240056
:10112000216E20F4E02000250843C8F824003E4644
:101130006078400624D5D4F8AC004FEA307005281A
:1011400009D8DFE800F011030B111111201D012156
:1011500001F006F807E00125012712E004F1240060
:10116000012101F08DF805462F4655B9D8F82C001D
:10117000D4F8AC1020F0E04000250843C8F82C005B
:101180003746607800061ED5E06E88B1B0F1005F8A
:1011900009D0B0F1805F28D1D8F8000040F40030C9
:1011A000C8F8000004E0201D012100F0D9FF054629
:1011B0002E464DB9D8F82400E16E20F040500025AD
:1011C0000843C8F824003E46E078C00724D0606C8D
:1011D00003280DD8DFE800F015021015D8F800003C
:1011E00040F40030C8F800000BE001250126EBE7D1
:1011F00001254FF0010910E0201D022100F0B0FF91
:101200000546A9464DB9D8F82000616C20F00300CE
:1012100000250843C8F82000B146A078400601D454
:101220004F4617E0D8F8D40340F48070C8F8D403D0
:10123000FFF792FB064600BFD8F8D403C00507D4D9
:10124000FFF78AFB801B6428F6D90325032701E0FA
:101250002F468DB12078C00753D0A06F4FEAF00021
:1012600005283AD8DFE800F042033C424242201D04
:10127000012100F075FF38E0D8F84410D4F8B00030
:10128000414011F4407F11D0D8F84410D8F84420E0
:1012900042F48032C8F84420D8F8442021F4407148
:1012A00022F48032C8F84420C8F84410B0F5807F9A
:1012B00040F00B82FFF750FB064641F2883A0325C7
:1012C000032700BFD8F84400800700F1FC81FFF736
:1012D00043FB801B5045F5D9BCE70125012611E0F1
:1012E00004F12400012100F0CBFF05462E464DB944
:1012F000D8F82800A16F20F0380000250843C8F86E
:1013000028003E462078800720D5606F052809D840
:10131000DFE800F011030B111111201D012100F075
:101320001FFF07E00125012711E004F1240001213E
:1013300000F0A6FF05462F464DB9D8F82800616F8A
:1013400020F0070000250843C8F828003746207819
:10135000400722D5D4F89000052809D8DFE800F02E
:1013600011030B111111201D012100F0F9FE07E0FE
:101370000126012512E004F12400012100F080FF84
:1013800005462E4655B9D8F82C00D4F8901020F018
:10139000070000250843C8F82C003E462078800648
:1013A00024D5D4F88C004FEA3070052809D8DFE83E
:1013B00000F011030B111111201D002100F0D0FECF
:1013C00007E00127012512E004F12400022100F0CA
:1013D00057FF05462F4655B9D8F82800D4F88C1089
:1013E00020F0E04000250843C8F828003746207860
:1013F000400624D5D4F898004FEAB020052809D833
:10140000DFE800F011030B111111201D002100F085
:10141000A7FE07E00126012512E004F124000221C5
:1014200000F02EFF05462E4655B9D8F82C00D4F80A
:10143000981020F4E05000250843C8F82C003E46E0
:101440002078000624D5D4F89C004FEA7030052897
:1014500009D8DFE800F011030B111111201D002144
:1014600000F07EFE07E00127012512E004F12400D0
:10147000022100F005FF05462F4655B9D8F82C008B
:10148000D4F89C1020F4604000250843C8F82C00D4
:1014900037462068010704D4C1061BD4000332D4A8
:1014A00051E0D4F88000B0F5805F09D104F1240048
:1014B000022100F0E5FE002818BF0127D4F88000C3
:1014C000D8F8281021F440510843C8F828002068B3
:1014D000C106E3D5D4F89400B0F5807F09D104F1BA
:1014E0002400022100F0CCFE002818BF0127D4F808
:1014F0009400D8F82C1021F440710843C8F82C004F
:10150000206800031FD5D4F8A000B0F5003F0ED02E
:10151000B0F5803F05D068BB201D002100F020FE03
:1015200004E004F12400022100F0AAFE05462E4644
:1015300055B9D8F82C00D4F8A01020F4403000257C
:101540000843C8F82C003E46A078400727D5D4F8B9
:101550008400B0F5401F16D0B0F5001F0DD0B0F5D7
:10156000801F40F0AD80D8F8000040F40030C8F88B
:10157000000008E001260125E6E704F1240001212E
:1015800000F07EFE05462F4655B9D8F82800D4F85D
:10159000841020F4401000250843C8F8280037467E
:1015A000A078C00701D13E461EE0E06CB0F5803F58
:1015B00007D0B8B9D8F8000040F40030C8F80000EF
:1015C00004E0201D022100F0CBFD05462E465DB94A
:1015D000D8F82000E16C20F4803000250843C8F8DA
:1015E0002000E0E7012601252068810010D4810356
:1015F00019D4C1022DD4810235D441003DD4B0F1BB
:10160000FF3F4ADD002E18BF01263046BDE8F087B7
:1016100004F12400022100F033FE002818BF012647
:1016200020688103E5D5E16F6FF0010202EB312202
:10163000022A0AD34FEA31223AB1012A06D1D8F858
:10164000002042F40032C8F800207DB30126C10218
:10165000D1D5D8F82410226F21F000411143C8F8E9
:1016600024108102C9D5D8F82410A26E21F080710F
:101670001143C8F824104100C1D558F81C1C21F4AE
:10168000004148F81C1CD4F8B81058F81C2C114321
:1016900048F81C1CB0F1FF3FB4DCD8F82000216DE5
:1016A00020F040500843C8F82000ABE7D8F82820C5
:1016B00022F440721143C8F82810C1029BD5C8E734
:1016C000012701256CE7D4F8B0004FF6CF7358F826
:1016D0001C2CC0F2FF0300F4407122F47C5203EA98
:1016E00010136FF31F30B1F5407F08BF1A43002578
:1016F00048F81C2CD8F844100843C8F844008FE57B
:101700002DE9F04381B0002800F01B8142F200086F
:101710000446C5F200288946D8F8000000F00F0002
:1017200088420ED2D8F8000020F00F0040EA0900ED
:10173000C8F80000D8F8000000F00F00484540F05D
:101740000081206844F218474107C5F602070AD510
:1017500021693A6802F07002914204D93A6822F095
:1017600070021143396001070AD561697A6802F095
:101770007002914204D97A6822F0700211437960B4
:10178000C1060AD5A1697A6802F4E062914204D9DF
:101790007A6822F4E0621143796081060AD5E16932
:1017A000BA6802F07002914204D9BA6822F070025D
:1017B0001143B96010F002010AD0E2683B6803F0FF
:1017C0000F039A4204D93B6823F00F031A433A608F
:1017D000C20745D0386820F47061D4E901020128BD
:1017E00041EA0201396009D003280DD0022811D145
:1017F00057F8181C890340F1A48010E057F8181C12
:10180000C90540F19E800AE057F8181C890140F193
:10181000988004E057F8181C490740F1928057F867
:10182000081C21F00701084347F8080CFFF794F85B
:10183000064641F2883500BF57F8080C616800F091
:101840003800B0EBC10F08D0FFF786F8801BA84224
:10185000F2D9032001B0BDE8F083206800F0020156
:1018600051B1E1683A6802F00F02914204D23A683D
:1018700022F00F0211433960D8F8001001F00F0177
:1018800049450DD9D8F8001021F00F0141EA0901AE
:10189000C8F80010D8F8001001F00F01494550D1E8
:1018A00041070AD521693A6802F07002914204D2D8
:1018B0003A6822F070021143396001070AD5616964
:1018C0007A6802F07002914204D27A6822F07002C3
:1018D00011437960C1060AD5A1697A6802F4E06211
:1018E000914204D27A6822F4E06211437960800662
:1018F0000AD5E069B96801F07001884204D2B9687C
:1019000021F070010843B86000F07AF8396842F6B7
:101910009E22C0F6000240F20403C1F30321C2F28A
:101920000043515C01F01F0240F26401C2F2004129
:10193000D04018600968084601B0BDE8F043FFF7E1
:1019400057B8012001B0BDE8F0830000000000009E
:1019500080B5FFF72DF944F2184142F69E22C5F6F4
:101960000201C0F60002096801F00F01515C01F0AC
:101970001F01C84040F20801C2F20041086080BD6A
:1019800080B5FFF715F944F2184142F69E23C5F6DB
:101990000201C0F6000340F2080C0A68C2F2004CD3
:1019A00002F00F029A5C02F01F02D040CCF8000057
:1019B0004968C1F30211595C01F01F01C84080BDA4
:1019C00080B5FFF7F5F844F2184142F69E23C5F6BC
:1019D0000201C0F6000340F2080C0A68C2F2004C93
:1019E00002F00F029A5C02F01F02D040CCF8000017
:1019F0004968C1F30221595C01F01F01C84080BD54
:101A000044F20041C5F602010869C0F3C200032890
:101A10000FD002282CD080BB0868800649F2000055
:101A2000C0F2D03058BF70470968C1F3C101C84047
:101A300070478A6A886AC0F3051CC86ABCF1000F47
:101A40004B6B1FD000F0010002F003024042022A5B
:101A500000EAD3006FF35F3000EE100AB8EE400AE0
:101A600012D0A2B90868800614D49FED261A1EE091
:101A700041F20020C0F27A00704740F60010C0F238
:101A80003D007047002070479FED1D1A0FE09FED4D
:101A90001B1A0CE0086849F20002C0F2D032C0F311
:101AA000C10022FA00F001EE100AB8EE411A086BEC
:101AB0009FED153A6FF35F2002EE100A086BC0F33A
:101AC0004620B8EE422A013000EE032A00EE10CA8A
:101AD000B7EE003AB8EE400A81EE000A32EE031A81
:101AE00020EE010A01EE100AB8EE411A80EE010A5A
:101AF000BCEEC00A10EE100A704700BF0024744A02
:101B00000024F44A0024744C000000390000000056
:101B1000F0B581B0002800F0D2800446007844F28D
:101B20000046C007C5F6020612D0306900F0380141
:101B3000B06A102905D018292DD100F00300022821
:101B400029D13068800303D56068002800F0B78091
:101B5000207880074BD5306910F03801B06A2ED05C
:101B6000182908BF5FEA807029D0E0683168002832
:101B700000F0088121F0190108433060FEF7ECFE07
:101B8000054600BF306840071FD4FEF7E5FE401B46
:101B90000228F7D96FE16068002800F03B81B0F5BA
:101BA000A02F00F05181B0F5803F00F051813068E6
:101BB00020F480303060306820F480204BE13068C1
:101BC000400702D5E068002879D0FEF7BDFE41F25B
:101BD000030188427168206904D821F47C3141EA0C
:101BE000003003E021F0FE4141EA0060706020789F
:101BF000C0062AD5306900F03801B06A082907D03C
:101C0000182940F0868000F00300012840F0818010
:101C10003068C00502D5E069802850D1FEF794FEF7
:101C200041F204010C2288426FF07C5038BF04223C
:101C30004FF018013CBF6FF0F8401A21B358276AE3
:101C4000184007FA01F10843B0502078000739D452
:101C50002078800649D4207840076FD4656A65B340
:101C6000306900F03800182840F00881012DB16A71
:101C7000306B24D001F00302A36A9A421FD1C1F352
:101C80000511E26A91421AD10146226B6FF35F217E
:101C9000013A914213D1C0F34622616B01398A4265
:101CA0000DD1C0F30642A16B01398A4207D1C0F3BE
:101CB0000660E16B0139884201D1002093E10120E7
:101CC00001B0F0BD60690028706F4BD040F001009A
:101CD0007067FEF741FE0546706F8007B8D4FEF7C7
:101CE0003BFE401B0228F7D9C5E0A06900283068F8
:101CF0006CD040F480503060FEF72EFE054600BFE9
:101D000030688004A7D4FEF727FE401B0228F7D9CD
:101D1000B1E0E069002830686AD040F080003060AF
:101D2000FEF71AFE054600BF3068C0053FF576AFE6
:101D3000FEF712FE401B0228F6D99CE0D6F80004FC
:101D400040F48070C6F80004FEF706FE054600BFAA
:101D5000D6F80004C00527D4FEF7FEFD401B64281A
:101D6000F6D988E020F001007067FEF7F5FD054622
:101D7000706F80077FF56CAFFEF7EEFD401B022809
:101D8000F6D978E021F001003060FEF7E5FD054668
:101D9000306840077FF52BAFFEF7DEFD401B0228C1
:101DA0004FF00300F4D91EE1A068002800F08880FD
:101DB000052800F09F80012800F0A080306F20F0FF
:101DC00001003067306F20F004009AE020F480506A
:101DD0003060FEF7C1FD0546306880047FF53BAFFB
:101DE000FEF7BAFD401B02284FF00300F4D9FAE0D9
:101DF00020F080003060FEF7AFFD05463068C0057A
:101E00007FF523AFFEF7A8FD401B02284FF003002B
:101E1000F4D9E8E0306820F480303060306820F495
:101E200080203060FEF798FD054641F2883700BFFC
:101E3000306880037FF58CAEFEF78EFD401BB84204
:101E40004FF00300F4D9CEE0306840F480203060D9
:101E5000306840F480303060FEF77EFD054641F288
:101E6000883700BF306880033FF572AEFEF774FD1F
:101E7000401BB842F6D9032001B0F0BD306820F015
:101E800080703060FEF768FD022D05460CD100BF62
:101E90003068800148D5FEF75FFD401B02284FF0F7
:101EA0000300F5D99FE000BF306880017FF505AFE2
:101EB000FEF752FD401B02284FF00300F4D992E0D8
:101EC000306F20F001003067306F20F00400306781
:101ED000FEF742FD054641F2883700BF306F8007AC
:101EE0007FF5BCAEFEF738FD401BB8424FF0030053
:101EF000F4D978E0306F40F004003067306F40F084
:101F000001003067FEF728FD054641F2883700BF23
:101F1000306F80073FF5A2AEFEF71EFD401BB842B2
:101F20004FF00300F4D95EE004F12807B06A40F2F4
:101F3000F33188438ECF0843591E40EA02104FF414
:101F40007E426FF35F21B06202EB47204FF4FE0246
:101F500080B2E36B0844A16B02EB01414FF0FE42FB
:101F600001F4FE0102EB0362084402F0FE41084462
:101F70003063F06A4FF6F87120F00100F062706B88
:101F8000A26C884340EAC2007063F06A216C20F0C2
:101F90000C000843F062F06A616C20F00200084314
:101FA000F062F06A40F48030F062F06A40F4003091
:101FB000F062F06A40F48020F062F06A40F00100C4
:101FC000F062306840F080703060FEF7C5FC044677
:101FD000306880013FF571AEFEF7BEFC001B0228A1
:101FE0004FF00300F4D901B0F0BD00000000000084
:101FF0004EF210010428CEF200010A6822F0040219
:1020000008BF04320A607047411E0020B0EB116F18
:1020100001D0012070474EF21002F023CEF20002F0
:1020200051604EF62351CEF200010B7007219060F3
:10203000116070470000000070B586B041F20001E9
:102040000068C4F20101884201D006B070BD44F2BC
:10205000E0400024C5F60200C5F6020401AD0726E3
:10206000016941F010010161016901F01001019164
:102070000199016841F001010160016801F001016D
:1020800001910199016841F001010160006801219D
:1020900000F00100019001984FF4007001900220BF
:1020A0000290CDE90310204629460596FEF770FB05
:1020B0004FF480600190204629460596FEF768FBA4
:1020C0002520FEF715FD252003210322FEF724FD20
:1020D00006B070BD0000000080B541F2000100684C
:1020E000C4F20101884218BF80BD40F26C30C2F2D8
:1020F0000040B0F90010002924D489B240F24812FF
:10210000C2F2004213784A0404D40D2B0CD141F4DE
:10211000804216E048F2000C0022CFF6FF7C0A2B2A
:1021200008BF41EA0C020CE08C4640F2A42E6FF38B
:102130009F3CC2F2004E4A1CC6290EF80C3088BFE4
:102140000022028040F2182040F24811C2F2004002
:10215000C2F200410122BDE8804000F05CBC0000FA
:10216000F0B581B044F22C47C5F6020757F8042CAD
:1021700002F00302032A02D1012001B0F0BD05469E
:1021800057F82C0C0C4620F0806047F82C0CFEF71A
:10219000E3FB064657F82C0C000105D5FEF7DCFBE7
:1021A000801B0228F6D964E057F8040CEE6895E825
:1021B0000E0020F47C30012C40EA0130A2F1010134
:1021C0006FF35F214FF47E4202EB432247F8040C89
:1021D00092B24FF0FE4302EB01004FF4FE012A6978
:1021E00001EB064101F4FE0103EB0262084402F038
:1021F000FE410844F8603868696920F0C00040EA90
:10220000010038603868A96920F0200040EA010028
:10221000386038684FF6F87120F01000386038697F
:10222000EA6920EA01004FF4001140EAC200386177
:10223000386808BF4FF4801140F01000002C38605F
:1022400008BF4FF4002138680843386057F82C0C59
:1022500040F0806047F82C0CFEF77EFB044600BF80
:1022600057F82C0C000107D4FEF776FB001B03285F
:10227000F6D3032001B0F0BD002001B0F0BD000096
:10228000F0B581B044F22C47C5F6020757F8042C8C
:1022900002F00302032A02D1012001B0F0BD05467D
:1022A00057F82C0C0C4620F0805047F82C0CFEF709
:1022B00053FB064657F82C0C800005D5FEF74CFB67
:1022C000801B0228F6D964E057F8040CEE6895E804
:1022D0000E0020F07C70012C40EA0150A2F10101B7
:1022E0006FF35F214FF47E4202EB432247F8040C68
:1022F00092B24FF0FE4302EB01004FF4FE012A6957
:1023000001EB064101F4FE0103EB0262084402F016
:10231000FE41084478613868696920F4406040EA09
:10232000010038603868A96920F4007040EA0100B3
:10233000386038684FF6F87120F480703860B869FA
:10234000EA6920EA01004FF0807140EAC200B861FA
:10235000386808BF4FF4000140F48070002C3860EA
:1023600008BF4FF4800138680843386057F82C0CD8
:1023700040F0805047F82C0CFEF7EEFA044600BF00
:1023800057F82C0C800007D4FEF7E6FA001B032850
:10239000F6D3032001B0F0BD002001B0F0BD000075
:1023A00080B5FEF7E1FA00F03BFB012808BF80BDD5
:1023B000BDE8804000F039BB4EF6885C4EF67F5099
:1023C000CEF2000CCEF6F620DCF8001041F47001DD
:1023D000CCF8001044F20041C5F602010A6842F050
:1023E00001020A6000220A610B68184008608A61D5
:1023F000CA610A628A62CA620A634A638A63CA63FA
:102400000A644A64086820F48020086041F20000F1
:102410000A66C5F600400068B2EB507F05D148F26D
:1024200008100121C5F2001001604FF000604CF867
:10243000800C70470000000040F21820C2F20040FB
:1024400000F0F8BA00000000704700000000000033
:1024500010B504460420FFF7CBFD40F244104EF2C5
:102460001001C2F20040CEF2000104604FF47A7015
:1024700060430A6842F002020A604860086840F05F
:102480000100086010BD0000B0B5002808BFB0BD55
:1024900040F244114FF47A72C2F200414FF0000C46
:1024A000096801FB02FE4EF21802CEF2000203E0C0
:1024B0000CF1010C84451BD052F8043C1468002137
:1024C00009E000BF2144AC42A1EB05012C4698BFB6
:1024D00019447145ECD21568AC42F3D11568AC4291
:1024E00004BF1568AC42EDD11568AC42F3D0E9E702
:1024F000B0BD00000000000080B54EF2180140F2AF
:102500004412CEF20001C2F20042002351F804CC82
:10251000126802FB00FE086809E000BF0344904215
:10252000A3EB0203104698BF634473450CD20A68BC
:102530009042F3D10A68904204BF0A689042EDD1FC
:102540000A689042F3D0E9E780BD00000000000077
:1025500041F21C01C4F201010A68520609D40A685A
:1025600052065CBF0A685FEA426202D40A685206F9
:10257000F2D5C2B2CA60704780B500F021F8FEF70C
:1025800003FAF02002210222042300F089F94FF41B
:10259000F070FFF75DFF4FF4E13000F01DFA00F03E
:1025A0004EFA00F051FA00F054FA00F057FA002009
:1025B00000F059FA00F05CFA002080BD0000000035
:1025C0002DE9F04F82B04EF660700021CEF200008F
:1025D0004FF6B453BFF34F8FBFF36F8F40F8101C0B
:1025E000CFF6FF73BFF34F8FBFF36F8FC258012732
:1025F00042F40032C2504FF62462CFF6FF72BFF3AE
:102600004F8FBFF36F8F81504FF62061CFF6FF7170
:10261000BFF34F8F4158CB08C1F3C905C1F34E3208
:10262000A5F1020B07EBD107691E4FEA837E07F085
:1026300003064FEA817A43F6E0774FEA8B73019302
:10264000EB1E009304E000BF002AA2F1010229D092
:1026500007EA42142B467EB1012E4EEA04030360C2
:102660000B4609D0022E4AEA040303605B4603D0FE
:10267000019B23430360009B032DE5D344EA83744D
:10268000013304F1404C84F0004804F1804900BF5C
:10269000043B0460C0F800C0C0F80080C0F800909F
:1026A000F6D1D1E74FF6B452CFF6FF72BFF34F8F9A
:1026B000815841F480318150BFF34F8FBFF36F8F4A
:1026C000C16B41F00401C16302B0BDE8F08F0000AE
:1026D0002DE9F04786B044F2E0448046C5F6020496
:1026E00040F20045C5F6020501AE216845F2080733
:1026F00041F0020121602168C5F2002701F00201CA
:1027000001910199216841F008012160216801F0DF
:10271000080101910199216841F0100121602168AF
:1027200001F010010191019954F80C1C41F4804111
:1027300044F80C1C54F80C0C314600F48040019015
:102740000198402001900220029003200490012073
:1027500003900A2005902846FEF71AF828463146CD
:102760004FF00409CDF804904FF0090ACDF814A0F9
:10277000FEF70EF84FF46050019005F50060314609
:10278000CDF814A0FEF704F805F540603146CDF809
:102790000490CDF814A0FDF7FBFF54F8640C40F44E
:1027A000804044F8640C54F8640C20F4804044F8F1
:1027B000640C3868800609D53868800644BF3868DC
:1027C0005FEA806002D538688006F2D440F21030AB
:1027D000C0F2001047F8080C40F20120C0F21800C7
:1027E00047F8040C57F8080C40F0010047F8080CB3
:1027F0003868800609D53868800644BF38685FEAC3
:10280000806002D538688006F2D44FF48370F86097
:102810003868800709D4386880075CBF38685FEA89
:10282000807002D438688007F2D5786840F00200E2
:1028300078603868800609D53868800644BF3868F3
:102840005FEA806002D538688006F2D442F6EB5029
:10285000002100EB0830796140F0706040F4861090
:10286000F8604EF62450CEF20000026822F4803266
:102870000260026F22F00102026741674FF01041CF
:1028800081672D21C0F20331C1670521016701680D
:1028900041F48031016006B0BDE8F087000000001F
:1028A00070B5CCB044F61804C5F6020454F80C6CAC
:1028B00026F0040644F80C6C0026029640F22C46E2
:1028C000C5F60006356825F001053560366806F066
:1028D00001060296266846F440462660266806F4FD
:1028E00040460296029E2668B60409D42668B604BD
:1028F0005CBF26685FEA864602D42668B604F2D535
:10290000CDE93C1031A8212631964FF4803632961D
:10291000002534950124389502263794CDE93A668E
:10292000CDE93E234295082641964395FFF7F0F8FE
:1029300000284CD145A93F204490032061C140208C
:1029400049904FF480614890CDE94A1044A8042191
:10295000FEF7D6FE08B1012439E003200021C0F2C1
:1029600004300290082003904FF4DC7004900220A1
:102970000790CDE905001390202014904FF44010EB
:10298000239002A8CDE908110A91CDE91F11FEF7A5
:1029900063FA08B101241AE000200024FFF798FE32
:1029A000FEF7FAF844F2F440C5F6020050F8F41CC1
:1029B00041F0800140F8F41C016841F0020101601F
:1029C000006800F0020001900198FDF7D5FE204656
:1029D0004CB070BD0000000010B540F2182441F268
:1029E0000001C2F20044C4F20101C4E90010002059
:1029F0002061C4E902000C21C4E90510204600F062
:102A00003CF840F248110122C2F200412046BDE8E4
:102A10001040AFF3008040F6A13CC9F2000C6047C3
:102A20004AF6A93CC9F2000C604749F6D17CC9F2CC
:102A3000000C604740F6291CC9F2000C604748F6BC
:102A4000B10CC9F2000C604748F6511CC9F2000CE9
:102A5000604747F6813CC9F2000C604741F6E11C33
:102A6000C9F2000C604748F6712CC9F2000C6047AF
:102A700041F6611CC9F2000C604740F6393CC9F2CE
:102A8000000C6047F1EE100A4FF6FF71C0F2C03142
:102A900020EA010040F04070E1EE100A70470000AB
:102AA00000000102030401020304060708090000F4
:102AB000002B00080000002480000000D402000861
:102AC000802B000880000024C8B20700F002000834
:102AD00000000000000000000000000000000000F6
:102AE00000000000000000000000000000000000E6
:102AF00000000000000000000000000000000000D6
:102B0000010000000090D0030090D003FFFF000000
:102B1000FFFF00001F0000F81FF8E007FF07E0FFBD
:102B200040BC07FC30840000718A0090A18A0090AC
:102B30008003002400000030000000380000002066
:102B4000000000008043072400E0033000F8003854
:102B500000F0012000F8000000000000000000006C
:102B60000100000010000000AAAAAAAA00000000AC
:102B70000000000000000000000000000000000055
:0200000490006A
:10000000642900F07980752900F07680782900F065
:10001000AF80632900F00082732900F00582002080
:10002000704700000FB4044910B503AA029800F00D
:10003000FFF910BC5DF814FBF00000242DE9F0413D
:100040000E460446002020622046E168884730B30F
:10005000252805D0D4E901219047206A401CF2E709
:10006000E168204600278847050018D0A5F1410027
:10007000192802D820354FF4006732462946204619
:100080002760FFF7BDFF40B1012804D0F61D26F020
:1000900007060836D8E7361DD6E72846DAE7206A8D
:1000A000BDE8F08170B50C460546012A05D02878D8
:1000B000800600D5EA69002302E0012305E05B1C0D
:1000C000934202D2E05C0028F9D1A869E618C01A70
:1000D000A861286A184428622846AFF3008004E02B
:1000E000D5E9012114F8010B9047B442F8D3284612
:1000F000AFF3008070BD00002DE9F04106460024FA
:1001000010687529314616A510D0AFF3008000287D
:1001100002DA404213A507E031688A0701D512A52B
:1001200002E0490704D511A5012401E0AFF30080E6
:1001300000210A2206F1240709E0B0FBF2FCB0FB23
:10014000F2F302FB1C00303078541846491C00289A
:10015000F3D123462A463046BDE8F04100F0E0B82E
:10016000000000002D0000002B0000002000000017
:1001700070B504460D4621461068AFF30080218813
:10018000090502D50F4A7A4402E00E4A7A440E323B
:10019000002104F1240305E000F00F060009965D3C
:1001A0005E54491C0028F7D120780023000704D5AD
:1001B000702D02D009B1022311322046BDE87040F3
:1001C00000F0AEB850B1000010B5044603E00BF0EB
:1001D00025F8401C09D014F8010B05490028F6D178
:1001E000BDE810400A200BF019B84FF0FF3010BDE9
:1001F000F0000024032A40F2308010F0030C00F0DD
:10020000158011F8013BBCF1020F624498BF11F850
:1002100001CB00F8013B38BF11F8013BA2F1040209
:1002200098BF00F801CB38BF00F8013B11F0030381
:1002300000F01081083AC0F0088051F8043B083AF9
:1002400051F804CBA0E80810F5E7121D5CBF51F887
:10025000043B40F8043BAFF30080D20724BF11F801
:10026000013B11F801CB48BF11F8012B24BF00F866
:10027000013B00F801CB48BF00F8012B704702F0AA
:10028000FF0343EA032242EA024200F024B84FF09F
:1002900000020429C0F0128010F0030C00F01B8053
:1002A000CCF1040CBCF1020F18BF00F8012BA8BF61
:1002B00020F8022BA1EB0C0100F00DB85FEAC17C25
:1002C00024BF00F8012B00F8012B48BF00F8012BD8
:1002D00070474FF0000200B5134694469646203909
:1002E00022BFA0E80C50A0E80C50B1F12001BFF4EF
:1002F000F7AF090728BFA0E80C5048BF0CC05DF855
:1003000004EB890028BF40F8042B08BF704748BFA2
:1003100020F8022B11F0804F18BF00F8012B704716
:100320002DE9F0470D4699469246044600F124080F
:100330000168880604D5E06921F01001216000E021
:100340000120A84201DD471B00E00027A1697A19BE
:1003500002EB0900081AA0612078C00602D42046EA
:10036000AFF30080002608E0D4E901211AF8060066
:100370009047206A401C761C20624E45F4DB2078B2
:10038000C0060AD52046AFF3008006E0D4E901217B
:1003900030209047206A401C2062381EA7F10107D8
:1003A000F4DC07E0D4E9012118F805009047206A41
:1003B000401C2062281EA5F10105F3DC2046AFF3A6
:1003C00000802078000602D50220BDE8F0870120D9
:1003D000FBE7000001694A1C02610878704700B51C
:1003E0008FB0CDE901310021059105497944CDE96E
:1003F000031011466846FFF721FE0FB000BD000054
:10040000E5FFFFFF10B5436913B1AFF3008001E0D2
:10041000FFF748FE012010BD127800F124010A7098
:1004200000224A700122EDE711684FF0FF32E9E740
:10043000074B70B50D467B44FFF7D1FF04462846B5
:1004400000F03AF810B14FF0FF3070BD204670BD9B
:100450001721007810B5203AC0F00B80B1E8185091
:10046000A0E81850B1E81850A0E81850203ABFF49E
:10047000F5AF5FEA027C24BFB1E81850A0E818503D
:1004800044BF18C918C0BDE810405FEA827C24BF91
:1004900051F8043B40F8043B08BF7047D20728BF1F
:1004A00031F8023B48BF11F8012B28BF20F8023B6E
:1004B00048BF00F8012B7047007B00F080007047B8
:1004C000FEE7000000000000704700000000000090
:1004D000B0B5B3F5804F034615D1002053F822C0C4
:1004E000CCF6F0708D680CEA000C8C69D1E9000E36
:1004F00040EA0C00C96840EA0E1040EA052020439B
:1005000040EA014101E06FF07041002043F8221001
:10051000B0BD0000000000002DE9F0430A6840F281
:100520008049CFF6C07950F8223023F0010340F81B
:100530002230D1E900C2D1E9023ED1E90485D1E9F6
:10054000066750F82C40082B08BF42F0400204EA2E
:100550000904224342EA0E0242EA08022A433243D5
:100560003A430F6A3A434F6A3A438F6A3A43CF6A33
:100570003A430F6B3A434F6B3A438F6B3A431A43FC
:1005800040F82C200A6BB2F5801F05D10A684AB1E9
:10059000026842F4801202600A681AB1496B02686C
:1005A000114301600020BDE8F0830000000000005E
:1005B000F0B500EB820340F2000CCFF6F07C5A68F5
:1005C0008E6802F0404E0D69D1E9002742EA0E0222
:1005D000CC6842EA07124F6942EA06228E690CEBA8
:1005E0000555FE3742EA04422A43324342EA076293
:1005F0005A600268D20209D54268096943681A4301
:100600000CEB015122F47002114341600020F0BD57
:1006100088B370B5044690F8450015460E4628B9D3
:10062000002084F84400204600F02AF8206804F1F5
:100630000801FFF771FF20683146A268FFF7B8FF95
:10064000D4E90102E36A2946FFF742FFA068216866
:1006500051F8202042F0010241F8202044F200002D
:10066000C5F20020016841F000410160012084F8DA
:100670004500002070BD0120704700000000000010
:10068000B0B586B044F2E04040F60044C5F6020042
:10069000C5F6020401AD50F80C1C41F4805140F83D
:1006A0000C1C50F80C1C01F4805101910199016857
:1006B00041F008010160016801F008010191019910
:1006C000016841F0100101600068294600F0100047
:1006D000019001984CF203700190022002900120D9
:1006E0000390032004900C20059020460AF09BFD07
:1006F0004FF68070019004F5806029460AF093FD62
:1007000006B0B0BD0000000070470000000000000F
:10071000704700000000000070470000000000006B
:10072000704700000000000010B504460068016931
:10073000890744BFC1685FEA81713FD401694907F5
:1007400044BFC1685FEA417144D40169090744BFED
:10075000C1685FEA01714AD40169C90644BFC16832
:100760005FEAC1614FD40169C9071CBFC1685FEA74
:10077000C17155D10169090644BFC1685FEA0161D1
:1007800056D40169C90544BFC1685FEA016157D405
:100790000169490644BFC1685FEA416158D40169F3
:1007A000890646BFC1685FEA816110BD6FF0200114
:1007B00001612046BDE81040FFF7AEBF6FF00201B7
:1007C0000161012121778069800749D02046FFF728
:1007D000A7FF4BE06FF004010161022121778069DE
:1007E00010F4407F46D02046FFF79AFF48E06FF0B4
:1007F0000801016104212177C069800744D02046A7
:10080000FFF78EFF46E06FF01001016108212177AC
:10081000C06910F4407F41D02046FFF781FF43E0DC
:100820006FF001010161204600F04AF82068A1E75D
:100830006FF0800101612046FFF76AFF2068A0E7A2
:100840006FF4807101612046FFF75EFF20689FE72B
:100850006FF040010161204600F052F820689EE7E9
:10086000204600F025F8204600F026F800202077EA
:10087000206863E7204600F01BF8204600F01CF8D3
:1008800000202077206860E7204600F011F820461D
:1008900000F012F80020207720685DE7204600F085
:1008A00007F8204600F008F80020207720685AE773
:1008B00070470000000000007047000000000000CA
:1008C00040F29811C2F20041884209D040F2D8119A
:1008D000C2F20041884218BF704706A0FFF774BCFF
:1008E00001A0FFF771BC00BF54494D33CAE4B3F611
:1008F0000D00000054494D35CAE4B3F60D00000068
:100900007047000000000000704700000000000079
:100910007047000000000000704700000000000069
:10092000704700000000000070B50446006840F603
:100930002F01C26906681140836820290AD106F098
:10094000200103F08055491916D0E16E002940F0CE
:10095000B38070BD40F60F010A420DD0012140F274
:100960002015C1F20001C0F2004503EA010C06EABD
:10097000050111EB0C0128D1D1020AD513F4800135
:1009800007D04FF4801101622046BDE87040FFF7A8
:10099000C3BF110606D506F0800103F40003C91891
:1009A00040F08680510679D516F0400176D0016876
:1009B00021F0400101602020C4F880000020206761
:1009C0002046BDE8704000F06BB9D10718BF16F49F
:1009D000807107D001210162D4F8881041F0010133
:1009E000C4F88810910703F0010E0AD5BEF1000F7C
:1009F00007D002210162D4F8881041F00401C4F844
:100A0000881051070AD5BEF1000F07D004210162FA
:100A1000D4F8881041F00201C4F8881011070CD5F1
:100A200006F0200151EA0C0107D008210162D4F838
:100A3000881041F00801C4F8881011050BD516F094
:100A4000806108D04FF400610162D4F8881041F051
:100A50002001C4F88810D4F8881000293FF479AF39
:100A600012F020010AD006F0200103F0805289180C
:100A700004D0E16E11B1204688472068D4F8881070
:100A8000826802F0400201F02801891824D1204632
:100A9000FFF746FF0020C4F8880070BD10020FD594
:100AA00016F080400CD02046BDE87040FFF730BF04
:100AB000216F00293FF44DAF2046BDE87040084744
:100AC000D0017FF546AFB6F1FF3FC8BF70BD2046ED
:100AD000BDE87040FFF718BF01684FF6FE7221F4C1
:100AE000907101608168CEF6FF7211408160202113
:100AF000C4F884100021E1668168490614D5816834
:100B000021F040018160A06F70B140F6B171C9F26F
:100B1000000101650AF08CFB00283FF41AAFA06FBA
:100B2000016DBDE8704008472046BDE87040FFF702
:100B3000F7BE00000000000010B5B0B10446D0F8C8
:100B4000800028B9002084F87C0020460AF075FB5C
:100B50002420C4F880002068016821F001010160B0
:100B6000204600F039FB012801D1012010BDA06A08
:100B700010B1204600F028F92068416821F4904126
:100B80004160816821F02A018160016841F0010122
:100B900001602046BDE8104000F086B9000000006A
:100BA00010B5D0F88430202B0AD10123002918BFBA
:100BB000002A01D1184610BD90F87C30012B01D1DC
:100BC000022010BD8165A0F85C20A0F85E20D0F85E
:100BD00008E0BEF1000F0AD0BEF1805F0BD0BEF579
:100BE000805F0CD1036923B940F2FF130AE0036967
:100BF0003BB9FF2306E003691BB13F2302E000235A
:100C000000E07F23A0F860300023C0F88830222362
:100C1000C0F88430D0F800C0416E6346B1F1005F87
:100C200053F8084F44F00101196003D1B0F868107F
:100C3000914210D9BEF5805F01D10169A9B141F29D
:100C4000C901C9F20001C166002180F87C104FF48F
:100C5000907063461EE0BEF5805F01D1016949B125
:100C600041F22911C9F2000108E040F6C171C9F250
:100C70000001E8E741F22101C9F20001C16600214B
:100C800080F87C10DCF8000040F48070CCF80000A4
:100C90004FF080501968084318600023184610BDB3
:100CA0007047000000000000FEE7000000000000A8
:100CB00041F200004021C5F6020000220AF0C2FA0B
:100CC00007A0FFF781FA4FF47A700AF0C0FA09A082
:100CD000FFF77AFA4FF47A700AF0B9FA00F028FEBA
:100CE0004D656D20416363657373204572726F7249
:100CF00021210D00536F6674205265736574696E0F
:100D0000672E2E2E0D00000070470000000000002E
:100D1000EFF30980BFF36F8F154B1A681EF0100FA9
:100D200008BF20ED108A20E9F04F10602DE909007E
:100D30004FF0500072B680F31188BFF34F8FBFF3AE
:100D40006F8F62B609F038F84FF0000080F3118819
:100D5000BDE8090019680868B0E8F04F1EF0100FF0
:100D600008BFB0EC108A80F30988BFF36F8F70471B
:100D7000847D072400000000000000000000000047
:100D8000074B19680868B0E8F04F80F30988BFF393
:100D90006F8F4FF0000080F31188704700BF00BFD5
:100DA000847D07240000000040F29810C2F2004049
:100DB000FFF7BABC0000000040F2D810C2F20040B9
:100DC000FFF7B2BC00000000816ACA070CD18A0795
:100DD00015D44A071ED40A0727D4CA0630D48A0677
:100DE00039D44A0655D541E00268D0F82CC0536882
:100DF00023F4003343EA0C0353608A07E9D5026801
:100E0000D0F830C0536823F4803343EA0C035360B6
:100E10004A07E0D50268D0F834C0536823F4802331
:100E200043EA0C0353600A07D7D50268D0F838C0EC
:100E3000536823F4004343EA0C035360CA06CED53B
:100E40000268D0F83CC0936823F4805343EA0C0353
:100E500093608A06C5D50268D0F840C0936823F431
:100E6000005343EA0C0393604A0612D50268D0F897
:100E700044C0BCF5801F536823F4801343EA0C037D
:100E8000536006D1536823F4C00C836C43EA0C030F
:100E90005360090658BF70470168C06C4A6822F465
:100EA000002210434860704770B504460020264673
:100EB00046F8880F0AF0D0F9216805460A6812073B
:100EC0000ED4086840072ED42020C4F8800004F116
:100ED0008406002020213160002184F87C1070BD40
:100EE000C8698002EDD40AF0B7F92168401BB0F15F
:100EF000007F08682CD2400744BFC8695FEA0050F1
:100F0000EED54FF400600862086820F4D0700860E5
:100F1000886820F0010088602020C4F88000C4F8B0
:100F200084000320D6E7C8694002CDD40AF094F9C2
:100F3000411B2068B1F1007F016817D2490744BF07
:100F4000C1695FEA01511FD4C0694002EED5BBE719
:100F500020F4D0700860886804F1840620F0010055
:100F600088602020C4F880000320B3E721F4D0710A
:100F70000160816804F1840621F001018160202074
:100F8000C4F880000320A5E74FF400610162016806
:100F900021F4D0710160816821F00101816020207D
:100FA000C4F88000C4F88400032093E70000000028
:100FB000806B0021A0F85E10A0F85610FFF7B0BCBF
:100FC000B0F860200168D0F88430222B20D1D1F80D
:100FD00024C0836D02EA0C0223F8022B8365B0F86B
:100FE0005E20013AA0F85E20B0F85E20002A18BF0B
:100FF00070470A6822F490720A608A6822F001023F
:101000008A602021C0F884100021C1660AF029B945
:10101000886940F008008861704700000000000007
:101020002DE9F04381B00446B0F86050D0F8840058
:1010300022282DD1B4F8686076B34FF6FE784FF0D1
:101040002009CEF6FF78002703E000BF013E300400
:1010500022D02068A16D426A2A4021F8022BA165A6
:10106000B4F85E100139A4F85E10B4F85E100029DF
:10107000ECD1016821F480710160816801EA080106
:1010800081602046C4F88490E7660AF0EAF8DDE75C
:1010900020680821183011E0B4F85E0088B1B4F877
:1010A000681088420DD22068816821F080518160EB
:1010B00040F6C171C9F20001E166202102681143C6
:1010C000016001B0BDE8F083B0F860100268D0F8AC
:1010D0008430222B20D1526A836D11401970816DAA
:1010E00001318165B0F85E100139A0F85E10B0F8EA
:1010F0005E10002918BF704701680A6822F49072D8
:101100000A608A6822F001028A602021C0F88410F7
:101110000021C1660AF0A5B8906940F0080090610E
:1011200070470000000000002DE9F04381B0044644
:10113000B0F86050D0F8840022282FD1B4F868604D
:1011400086B34FF6FE784FF02009CEF6FF780027E1
:1011500003E000BF013E300424D02068A16D406A46
:1011600028400870A06D0130A065B4F85E00013819
:10117000A4F85E00B4F85E000028EBD12068016896
:1011800021F480710160816801EA080181602046D4
:10119000C4F88490E7660AF064F8DBE72068082169
:1011A000183011E0B4F85E0088B1B4F868108842D5
:1011B0000DD22068816821F08051816041F2C9011F
:1011C000C9F20001E166202102681143016001B00B
:1011D000BDE8F083000000002DE9F04186B0044630
:1011E000006846F6F31544F20048A168E3682269F6
:1011F000676E114362691143E2690668CCF6FF75B8
:10120000394306EA050739434FF2FF4611430160AF
:101210004168C1F2FF1621F44051C5F60208194396
:1012200040F600434160C5F60003A16998421CBF27
:10123000276A39438768374047F2FF763943816030
:10124000C16AC4F2000621F00F07616AB0424FF094
:10125000800647EA0107C76220DD40F6FF77C4F247
:101260000107B84229DD984200F0E68041F20047CC
:10127000C4F20107B84205D041F20007C4F20107E9
:10128000B8423CD1D8F85470C7F3C207062F80F09B
:10129000DC804BF24636C9F200062EE044F6FF37FA
:1012A000C4F20007B84211DC44F20047C4F2000760
:1012B000B84217D044F6000710E047F60007C4F222
:1012C0000007B8420ED047F6004707E044F6004753
:1012D000C4F20007B84205D045F20007C4F2000787
:1012E000B8420CD1D8F8547007F00707062F80F0E9
:1012F000AC804BF24C36C9F2000637443E78984237
:1013000000F0A780B2F5004F40F04B80402E4FF028
:10131000010000F2F782DFE816F041000E01F5024D
:10132000F5021A01F502F502F5023801F502F5029F
:10133000F502F502F502F502F5024001F502F502AB
:10134000F502F502F502F502F502F502F502F502E5
:10135000F502F502F502F502F5024F01F502F5027C
:10136000F502F502F502F502F502F502F502F502C5
:10137000F502F502F502F502F502F502F502F502B5
:10138000F502F502F502F502F502F502F502F502A5
:10139000F502F502F502F502F502590109F066FFC2
:1013A000CBE0402E4FF0010000F2AC82DFE816F0F7
:1013B00041001801AA02AA022601AA02AA02AA0250
:1013C0003501AA02AA02AA02AA02AA02AA02AA0233
:1013D0003D01AA02AA02AA02AA02AA02AA02AA021B
:1013E000AA02AA02AA02AA02AA02AA02AA02AA029D
:1013F0004B01AA02AA02AA02AA02AA02AA02AA02ED
:10140000AA02AA02AA02AA02AA02AA02AA02AA027C
:10141000AA02AA02AA02AA02AA02AA02AA02AA026C
:10142000AA02AA02AA02AA02AA02AA02AA02AA025C
:10143000540109F01BFFD5E0D8F8587007F00707F2
:10144000062F02D20FF2D44657E7802698427FF447
:1014500059AFB71E01201E2F2BD8DFE817F01F0051
:10146000530237005302530253023F005302530208
:1014700053025302530253025302530053025302C6
:1014800053025302530253025302530253025302B4
:1014900053025302530253025302620009F0EBFE5F
:1014A000616A0B2921D34FF0010208BF4FF480720B
:1014B00021E0402E40F026820B2980F0F6804BF28E
:1014C0003030C9F2000030F81100F3E003A809F051
:1014D000D7FE616A04980B29E5D206E0684609F058
:1014E000D4FE616A01980B29DDD24BF20432C9F2B5
:1014F000000252F82120B0FBF2F3002B40F02F81C4
:101500000020FFE1D8F80000800600F1AE800B2932
:1015100080F01A814BF20430C9F2000050F821002B
:1015200017E10B2980F0B7804BF20430C9F20000BC
:1015300050F82100B4E009F0ADFE616A0B290DD22C
:101540004BF20432C9F2000252F821100BE003A85A
:1015500009F096FE616A04980B29F1D34FF001015E
:1015600008BF4FF48071B0FBF1F0616840004A0899
:101570001044B0FBF1F04FF6F071014003D0C0F31E
:1015800042000843BBE10120BCE1684609F07DFE52
:10159000616A01980B29D3D3E0E7D8F800008006F0
:1015A00000F18B800B2980F04F814BF20430C9F29F
:1015B000000050F821004CE10B2980F08C804BF2A8
:1015C0000430C9F2000050F8210089E00B2980F0B6
:1015D0008E804BF23030C9F2000030F811008BE001
:1015E00009F058FE616A0B290FD24BF20432C9F29E
:1015F000000252F82110B0FBF1F03CE103A809F021
:101600003FFE616A04980B29EFD34FF0010108BF38
:101610004FF48071B0FBF1F02DE1684609F035FE22
:10162000616A01980B29E0D3EFE7D8F80000800643
:101630006AD40B2980F014814BF20430C9F2000007
:1016400050F8210011E10B296CD24BF20430C9F2A1
:10165000000050F821006AE00B296DD24BF23030C7
:10166000C9F2000030F811006BE0D8F8000049F230
:101670000002C0F2D0320B29C0F3C10022FA00F000
:1016800080F0DA804BF20432C9F2000252F82120D5
:10169000B0FBF2F363E04FF0010008BF4FF480703D
:1016A00040F60012C0F23D0257E04FF0010008BFC3
:1016B0004FF480704FF400424FE0D8F8000049F238
:1016C0000002C0F2D0320B29C0F3C10022FA00F0B0
:1016D000FFF436AF42E74FF0010008BF4FF48070CF
:1016E00040F60011C0F23D01B1FBF0F03DE74FF0D4
:1016F000010008BF4FF480704FF40041B1FBF0F0DF
:1017000061684200480833E7D8F8000049F2000257
:10171000C0F2D0320B29C0F3C10022FA00F0FFF46E
:1017200064AF72E74FF0010008BF4FF4807040F6DD
:101730000011C0F23D019CE04FF0010008BF4FF4E2
:1017400080704FF4004194E04FF0010008BF4FF467
:10175000807049F20002C0F2D032B2FBF0F362684E
:1017600002EB420083424FF00100C0F0CB80150332
:10177000AB4200F2C7801E2F4FF001001DD8DFE8FA
:1017800007F010C129C1C1C13AC1C1C1C1C1C1C1A4
:1017900042C1C1C1C1C1C1C1C1C1C1C1C1C1C1C1B8
:1017A000520009F068FD616A0B291AD24BF204322B
:1017B000C9F2000252F8211018E0402E40F0A28039
:1017C0000B2980F086804BF23030C9F2000030F8EF
:1017D000110083E003A809F053FD616A04980B2906
:1017E000E4D34FF0010108BF4FF48071B0FBF1F07A
:1017F000010E62685AE0684609F047FD616A019887
:101800000B29D3D3EDE7D8F80000800649F2000099
:10181000C0F2D03039D40B293FD34FF0010108BFBB
:101820004FF480713FE00B2949D24BF20430C9F2EA
:10183000000050F8210047E04FF0010208BF4FF4CC
:101840008072B0FBF2F38AE74FF0010008BF4FF45B
:10185000807049F20001C0F2D031B1FBF0F084E6B3
:101860004FF0010008BF4FF4807049F20001C0F250
:10187000D031B1FBF0F0616800EB5100B0FBF1F04A
:1018800080B210283BD201203CE0D8F800300B2970
:10189000C3F3C10320FA03F0BFD24BF20433C9F201
:1018A000000353F82110B0FBF1F0010E00020023F9
:1018B00010EB520041F1000109F0F1FC17E04FF08C
:1018C000010008BF4FF4807040F60011C0F23D01E6
:1018D00006E04FF0010008BF4FF480704FF4004164
:1018E000B1FBF0F0000200EB5200B0FBF2F04FF65B
:1018F0000052A0F54071C0F20F0291420BD2216854
:10190000C86000204FF00111A1660021C4E91B113D
:1019100006B0BDE8F0810120F4E700BF0204081022
:101920002040000000000000FEE700000000000072
:101930004EF60C500422CEF20000C0F2FA52BFF371
:101940004F8F016801F4E06111430160BFF34F8FD5
:1019500000BF00BF00BF00BFFAE7000000000000AA
:1019600080B584B01820009016A001900A202F2185
:10197000DC2218234FF4784CCDF808C006F05CFF49
:1019800005208221EA224FF49D734FF0000CCDF820
:1019900000C000F0C1F80120009049F2A14040F2DF
:1019A000E40CC9F200000AA180220023C2F2004C1C
:1019B000CDF804C008F0FCFE04B0BDE8804008F09B
:1019C0009FB900BF42696E6172792044656D6F00F6
:1019D00073746172745F7461736B000000000000C7
:1019E000F0B585B044F2E0400024C5F60200C5F62B
:1019F00002046D4602260168012741F001010160E1
:101A0000016801F0010100910099016841F00101B4
:101A10000160016801F0010100910099016841F045
:101A2000010101600068294600F001000090009863
:101A3000002001900320039020460096029709F0B1
:101A4000F2FB4FF40040009020462946029709F02F
:101A5000EAFB204629460097029609F0E4FB05B010
:101A6000F0BD00000000000070B5002440F26E36AA
:101A7000C5F60204C2F2004610B10020307001E049
:101A8000307870BB0221204609F00EFC58B14FF4AB
:101A90000041204609F008FC28B10121204609F048
:101AA00003FC01281DD10A2009F0D1FB0120307070
:101AB0000221204609F0F8FBB0FA80F04FF4004113
:101AC0004509204609F0F0FB00284FF001012046AF
:101AD00008BF022509F0E8FB012808BF03252846B6
:101AE00070BD0221204609F0DFFB012810D14FF420
:101AF0000041204609F0D8FB012809D101212046E8
:101B000009F0D2FB00250028284608BF357070BDBB
:101B1000002070BD000000002DE9F04F87B0824624
:101B2000101A0192B2EB0A0218BF4FF0FF32804642
:101B3000002804934FF6FE7B48BFC0F1000801283F
:101B40000D46A8BF0122C6F20F0B0027069208F12E
:101B500001025646002400BFB0B22946914606F065
:101B600093FC40F270300134C2F20040002F4A462C
:101B70000089ABF8000008BF4744A0B2069918BF1F
:101B80000E4481451098ABF80200E5D2049A40F269
:101B90007031501B571BCDF80080C2F2004118BFB6
:101BA0004FF0FF370028059001D5424205920128E9
:101BB0004FF00008A8BF012705982E46039700277D
:101BC000013002900C465046B1B206F05DFC20890F
:101BD000B8F1000FABF8000007F1010705982146A6
:101BE00008BF8044B8B2039A18BF1644029A8242D2
:101BF0001098ABF80200E5D200270026109800BF2D
:101C0000804604991FFA8AF006F03EFC204620899F
:101C1000ABF8000001360098002F08BF0744B0B2AF
:101C2000069918BF8A4481454046ABF80280E7D246
:101C300000260027059CDDE902A900BFA9B2019892
:101C400006F022FC40F270300137C2F20040002E54
:101C50000089ABF80000B8B208BF264418BF4D4455
:101C600082454046ABF80280E8D207B0BDE8F08F6D
:101C7000F0B581B0CF20ADF80200BDF8020000241D
:101C8000ADF80200C6F21004BDF80200C12224F82B
:101C9000020C0020ADF802004FF0100CBDF802104D
:101CA0004FF0010EADF802102A27BDF80210218076
:101CB000ADF80220BDF80210ADF80210BDF8021018
:101CC00021803021ADF80210BDF80230ADF80230AD
:101CD000BDF802302380ED23ADF80230BDF80230AC
:101CE000ADF80230BDF8023024F8023C6423ADF8B0
:101CF0000230BDF80230ADF80230BDF8023023806A
:101D00000323ADF80230BDF80230ADF80230BDF863
:101D1000023023801223ADF80230BDF80230ADF856
:101D20000230BDF8023023808123ADF80230BDF8C7
:101D30000230ADF80230BDF802302380E823ADF860
:101D40000230BDF80230ADF80230BDF8023024F8A0
:101D5000023C8523ADF80230BDF80230ADF8023008
:101D6000BDF802302380ADF802C0BDF80230ADF8F6
:101D70000230BDF8023023807A23ADF80230BDF87E
:101D80000230ADF80230BDF802302380CB23ADF82D
:101D90000230BDF80230ADF80230BDF8023024F850
:101DA000023C3923ADF80230BDF80230ADF8023004
:101DB000BDF8023023802C23ADF80230BDF802308C
:101DC000ADF80230BDF802302380ADF80200BDF856
:101DD0000230ADF80230BDF8023023803423ADF874
:101DE0000230BDF80230ADF80230BDF80230238079
:101DF0000223ADF80230BDF80230ADF80230BDF874
:101E000002302380F723ADF80230BDF80230ADF880
:101E10000230BDF8023024F8023C2023ADF8023035
:101E2000BDF80230ADF80230BDF802302380EA235D
:101E3000ADF80230BDF80230ADF80230BDF8023026
:101E400024F8023CADF80200BDF80230ADF80230D3
:101E5000BDF802302380ADF80200BDF80230ADF8C5
:101E60000230BDF802302380C023ADF80230BDF847
:101E70000230ADF80230BDF8023024F8023C1B23DA
:101E8000ADF80230BDF80230ADF80230BDF80230D6
:101E90002380ADF80220BDF80220ADF80220BDF885
:101EA000022024F8022CADF802E0BDF80220ADF8C3
:101EB0000220BDF802202280C522ADF80220BDF824
:101EC0000220ADF80220BDF8022024F8022CADF863
:101ED0000210BDF80220ADF80220BDF802202280D9
:101EE0000A22ADF80210BDF80210ADF80210BDF8DC
:101EF00002102180C721ADF80210BDF80210ADF824
:101F00000210BDF8021024F8021CB721ADF802102F
:101F1000BDF80210ADF80210BDF802102180362184
:101F2000ADF80210BDF80210ADF80210BDF80210B5
:101F300024F8021C4821ADF80210BDF80210ADF8DB
:101F40000210BDF8021021803A21ADF80210BDF850
:101F50000210ADF80210BDF8021024F8021C552141
:101F6000ADF80210BDF80210ADF80210BDF8021075
:101F70002180B121ADF80210BDF80210ADF80210B9
:101F8000BDF8021024F8021CADF80200BDF80210E2
:101F9000ADF80210BDF8021021801A21ADF8021030
:101FA000BDF80210ADF80210BDF802102180B62174
:101FB000ADF80210BDF80210ADF80210BDF8021025
:101FC00024F8021CADF80220BDF80210ADF8021092
:101FD000BDF802102180A221ADF80210BDF8021058
:101FE000ADF80210BDF802102180F221ADF8021008
:101FF000BDF80210ADF80210BDF8021024F8021C62
:10200000ADF80200BDF80210ADF80210BDF80210E4
:1020100021802621ADF80210BDF80210ADF80210A3
:10202000BDF8021024F8021CADF802E0BDF8021061
:10203000ADF80210BDF802102180E021ADF80210C9
:10204000BDF80210ADF80210BDF8021024F8021C11
:102050000F21ADF80210BDF80230ADF80230BDF826
:1020600002302380ADF80270BDF80230ADF80230C6
:10207000BDF8023023802823ADF80230BDF80230CD
:10208000ADF80230BDF8023023800823ADF80230ED
:10209000BDF80250ADF80250BDF8025025800E2563
:1020A000ADF80250BDF80250ADF80250BDF8025034
:1020B00025802B25ADF80230BDF80230ADF8023096
:1020C000BDF8023023805423ADF80230BDF8023051
:1020D000ADF80230BDF802302380A923ADF80230FC
:1020E000BDF80230ADF80230BDF802302380432342
:1020F000ADF80230BDF80230ADF80230BDF8023064
:102100002380ADF80220BDF80220ADF80220BDF812
:1021100002202280ADF80210BDF80220ADF80220A6
:10212000BDF802202280ADF80200BDF80220ADF813
:102130000220BDF802202280ADF80200BDF8022086
:10214000ADF80220BDF802202280ADF80200BDF8F3
:102150000220ADF80220BDF802202280ADF8020076
:10216000BDF80220ADF80220BDF802202280E12255
:10217000ADF80220BDF80220ADF80220BDF8022023
:1021800024F8022CADF80200BDF80220ADF80220C0
:10219000BDF8022022801522ADF80220BDF80220F1
:1021A000ADF80220BDF8022022801722ADF80220EF
:1021B000BDF80220ADF80220BDF8022022800722DF
:1021C000ADF80220BDF80220ADF80220BDF80220D3
:1021D00022801122ADF80220BDF80230ADF80230A5
:1021E000BDF8023023800623ADF80230BDF802307E
:1021F000ADF80230BDF802302380ADF80250BDF8D2
:102200000230ADF80230BDF8023023805623ADF81D
:102210000230BDF80230ADF80230BDF80230238044
:102220003C23ADF80230BDF80230ADF80230BDF805
:10223000023023800523ADF80230BDF80230ADF83E
:102240000230BDF802302380ADF802C0BDF8023084
:10225000ADF80230BDF802302380ADF80210BDF8B1
:102260000230ADF80230BDF8023023803F23ADF8D4
:102270000230BDF80260ADF80260BDF80260268051
:10228000ADF80230BDF80260ADF80260BDF8026042
:102290002680ADF80210BDF80210ADF80210BDF8AE
:1022A00002102180ADF80250BDF80210ADF8021006
:1022B000BDF8021024F8021CADF80200BDF80210AF
:1022C000ADF80210BDF802102180ADF80200BDF893
:1022D0000210ADF80210BDF802102180ADF802E046
:1022E000BDF80210ADF80210BDF802102180ADF863
:1022F0000230BDF80210ADF80210BDF802102180C6
:10230000ADF80270BDF80210ADF80210BDF8021071
:1023100024F8021CADF80200BDF80210ADF802105E
:10232000BDF802102180ADF80200BDF80210ADF832
:102330000210BDF802102180ADF80200BDF80200C5
:10234000ADF80200BDF802002080EF20ADF80200D9
:10235000BDF80200ADF80200BDF802002080ADF823
:102360000220BDF80200ADF80200BDF8020024F81A
:10237000020C782008F06BFF2920ADF80200BDF8B0
:102380000200ADF80200BDF8020024F8020C01B012
:10239000F0BD0000000000002DE9F04F81B0FF23E8
:1023A000ADF80230BDF802000024ADF80200C6F21C
:1023B0001004BDF802004FF0060E24F8020C4FF096
:1023C0000F0BADF802304FF00B0ABDF802004FF0D2
:1023D0001009ADF802004025BDF802004FF00A0CCC
:1023E00020809820ADF80200BDF80200ADF8020090
:1023F000BDF802002080ADF802E0BDF80200ADF8A3
:102400000200BDF802002080BC20ADF80200BDF83B
:102410000200ADF80200BDF8020024F8020C012011
:10242000ADF80200BDF80210ADF80210BDF80210C0
:102430002180ADF802B0BDF80210ADF80210BDF871
:10244000021021806121ADF80210BDF80210ADF834
:102450000210BDF802102180ADF80230BDF8021064
:10246000ADF80210BDF802102180ADF80200BDF8F1
:102470000210ADF80210BDF802102180ADF8020084
:10248000BDF80210ADF80210BDF802102180ADF8C1
:1024900002A0BDF80210ADF80210BDF802102180B4
:1024A000ADF80290BDF80210ADF80210BDF80210B0
:1024B00021803721ADF80210BDF80210ADF80210EE
:1024C000BDF8021021806321ADF80210BDF80210A2
:1024D000ADF80210BDF802102180ADF80230BDF851
:1024E0000210ADF80210BDF802102180ADF80230E4
:1024F000BDF80210ADF80210BDF802102180ADF851
:102500000200BDF80210ADF80210BDF802102180E3
:10251000ADF80200BDF80210ADF80210BDF80210CF
:1025200021800021ADF80210BDF80220ADF8022094
:10253000BDF802202280ADF80210BDF80220ADF8EF
:102540000220BDF802202280ADF80230BDF8022042
:10255000ADF80220BDF8022022805222ADF8022000
:10256000BDF80220ADF80220BDF802202280ADF8AF
:102570000200BDF80220ADF80220BDF80220228042
:10258000ADF80210BDF80220ADF80220BDF802201F
:102590002280ADF80250BDF80220ADF80220BDF84F
:1025A00002202280BD22ADF80220BDF80220ADF845
:1025B0000220BDF8022024F8022CADF80200BDF87C
:1025C0000220ADF80220BDF8022022802322ADF8BF
:1025D0000220BDF80230ADF80230BDF80230238091
:1025E0004523ADF80230BDF80260ADF80260BDF8D9
:1025F000026026806726ADF80260BDF80270ADF873
:102600000270BDF802702780ADF80200BDF80270BC
:10261000ADF80270BDF802702780ADF80220BDF859
:102620000220ADF80220BDF802202280ADF8023071
:10263000BDF80220ADF80220BDF802202280ADF8DE
:1026400002601326BDF80220ADF80220BDF802207A
:102650002280BE22ADF80220BDF80220ADF8022093
:10266000BDF8022024F8022CADF80210BDF80220BB
:10267000ADF80220BDF802202280ADF80200BDF8BE
:102680000220ADF80220BDF802202280AB22ADF876
:102690000220BDF80220ADF80220BDF80220228001
:1026A0006022ADF80220BDF80220ADF80220BDF88E
:1026B000022022802222ADF80220BDF80230ADF8BF
:1026C0000230BDF802302380ADF80220BDF80230A0
:1026D000ADF80230BDF802302380ADF80220BDF81D
:1026E0000230ADF80230BDF802302380ADF8022090
:1026F000BDF80230ADF80230BDF80230238020234F
:10270000ADF80220BDF80220ADF80220BDF802208D
:102710002280C722ADF80220BDF80220ADF80220C9
:10272000BDF8022024F8022C3622ADF80220BDF8B4
:102730000220ADF80220BDF802202280ED22ADF883
:102740000220BDF80220ADF80220BDF8022024F8D6
:10275000022C7F22ADF80220BDF80220ADF8022045
:10276000BDF802202280ADF802B0BDF80220ADF81D
:102770000220BDF802202280C022ADF80220BDF860
:102780000220ADF80220BDF8022024F8022CADF89A
:1027900002B0BDF80220ADF80220BDF80220228070
:1027A000ADF802A0BDF80220ADF80220BDF802206D
:1027B0002280ADF802C0BDF80220ADF80220BDF8BD
:1027C00002202280FC22ADF80220BDF80220ADF8E4
:1027D0000220BDF8022024F8022C0822ADF80220C5
:1027E000BDF80220ADF80220BDF802202280DF22D1
:1027F000ADF80220BDF80220ADF80220BDF802209D
:1028000024F8022CADF80210BDF80220ADF8022029
:10281000BDF802202280ADF80210BDF80220ADF80C
:102820000220BDF802202280ADF80210BDF802207F
:10283000ADF80220BDF802202280ADF80210BDF8EC
:102840000220ADF80220BDF802202280ADF802106F
:10285000BDF80220ADF80220BDF802202280ADF8BC
:102860000230BDF80220ADF80220BDF8022022801F
:10287000F322ADF80220BDF80220ADF80220BDF829
:10288000022024F8022C7422ADF80220BDF80220A8
:10289000ADF80220BDF802202280B422ADF802205B
:1028A000BDF80220ADF80220BDF8022024F8022C69
:1028B000ADF80210BDF80220ADF80220BDF80220EC
:1028C0002280ADF80210BDF80220ADF80220BDF85C
:1028D00002202280ADF80210BDF80220ADF80220DF
:1028E000BDF802202280F722ADF80220BDF80220B8
:1028F000ADF80220BDF8022024F8022C8222ADF8A7
:102900000220BDF80220ADF80220BDF8022022808E
:10291000B122ADF80220BDF80220ADF80220BDF8CA
:10292000022024F8022CADF80210BDF80220ADF808
:102930000220BDF802202280ADF80260BDF802201E
:10294000ADF80220BDF802202280ADF80260BDF88B
:102950000220ADF80220BDF802202280F222ADF85C
:102960000220BDF80220ADF80220BDF8022024F8B4
:10297000022C8022ADF80220BDF80220ADF8022022
:10298000BDF8022022800422ADF80220BDF802200A
:10299000ADF80220BDF802202280ADF80250BDF84B
:1029A0000220ADF80220BDF8022022802822ADF8D6
:1029B0000220BDF80220ADF80220BDF802202280DE
:1029C000C122ADF80220BDF80220ADF80220BDF80A
:1029D000022024F8022C1722ADF80220BDF80220B4
:1029E000ADF80220BDF8022022808822ADF8022036
:1029F000BDF80250ADF80250BDF8025025800E25FA
:102A0000ADF80220BDF80220ADF80220BDF802208A
:102A10002280ADF80230BDF80220ADF80220BDF8EA
:102A200002202280E022ADF80220BDF80220ADF89D
:102A30000220BDF8022024F8022CADF80210BDF8E7
:102A40000220ADF80220BDF802202280ADF802C0BD
:102A5000BDF80220ADF80220BDF80220228012222B
:102A6000ADF80220BDF80220ADF80220BDF802202A
:102A70002280ADF80290BDF80220ADF80220BDF82A
:102A800002202280ADF80250BDF80220ADF80220ED
:102A9000BDF802202280ADF80230BDF80220ADF86A
:102AA0000220BDF802202280CC22ADF80220BDF821
:102AB0000220ADF80220BDF8022022800722ADF8E6
:102AC0000220BDF80220ADF80220BDF802202280CD
:102AD000ADF802E0BDF80220ADF80220BDF80220FA
:102AE0002280ADF802A0BDF80220ADF80220BDF8AA
:102AF00002202280ADF80250BDF80220ADF802207D
:102B0000BDF802202280ADF802B0BDF80220ADF879
:102B10000220BDF8022022800D22ADF80220BDF86F
:102B20000230ADF80230BDF8023023801523ADF835
:102B30000230BDF80280ADF80280BDF80270278037
:102B4000ADF80290BDF80270ADF80270BDF80270E9
:102B50002780ADF80210BDF80270ADF80270BDF824
:102B600002702780E127ADF80270BDF80270ADF861
:102B70000270BDF8027024F8027CADF80210BDF8B6
:102B80000270ADF80270BDF802702780ADF802A0A7
:102B9000BDF80270ADF80270BDF802702780ADF884
:102BA0000260BDF80260ADF80260BDF802602680E8
:102BB000ADF80220BDF80220ADF80220BDF80220D9
:102BC0002280ADF80250BDF80220ADF80220BDF819
:102BD000022022801B22ADF80220BDF80220ADF8B1
:102BE0000220BDF8022022807122ADF80220BDF83B
:102BF0000220ADF80220BDF802202280ADF802E0EC
:102C0000BDF80220ADF80220BDF802202280ADF808
:102C100002E0BDF80220ADF80220BDF802202280BB
:102C2000ADF802C0BDF80220ADF80220BDF80220C8
:102C30002280ADF802B0BDF80220ADF80220BDF848
:102C400002202280ADF80250BDF80220ADF802202B
:102C5000BDF802202280ADF802B0BDF80220ADF828
:102C60000220BDF802202280ADF80230BDF802201B
:102C7000ADF80220BDF8022022800C22ADF802201F
:102C8000BDF80220ADF80220BDF802202280ADF888
:102C90000210BDF80220ADF80220BDF8022022800B
:102CA0002A22ADF80220BDF80220ADF80220BDF8BE
:102CB000022024F8022CADF80210BDF80220ADF875
:102CC0000220BDF802202280ADF80210BDF80220DB
:102CD000ADF80220BDF802202280ADF80200BDF858
:102CE0000200ADF80200BDF802002080DF20ADF840
:102CF0000200BDF80200ADF80200BDF8020020801D
:102D00002B20ADF80200BDF80200ADF80200BDF8BE
:102D1000020024F8020CADF80210BDF80200ADF874
:102D20000200BDF802002080ADF80210BDF80200DC
:102D3000ADF80200BDF8020020800320ADF80200CB
:102D4000BDF80200ADF80200BDF8020020801F208F
:102D5000ADF80200BDF80200ADF80200BDF80200B7
:102D600020803A20ADF80200BDF80200ADF8020064
:102D7000BDF8020024F8020C5520ADF80200BDF8A1
:102D80000200ADF80200BDF8020020803620ADF848
:102D90000200BDF80200ADF80200BDF8020024F800
:102DA000020CADF80210BDF80200ADF80200BDF84B
:102DB000020020801120ADF80200BDF80200ADF83D
:102DC0000200BDF8020024F8020C782008F03FFA57
:102DD0002920ADF80200BDF80200ADF80200BDF8F0
:102DE000020024F8020C142008F031FA2C20ADF86F
:102DF0000200BDF80200ADF80200BDF8020024F8A0
:102E0000020C01B0BDE8F08F2DE9F04F81B0ED204C
:102E1000ADF80200BDF802000024ADF80200C6F2D1
:102E20001004BDF802004FF0210924F8020C012023
:102E3000ADF802000122BDF802000025ADF8020045
:102E40008B26BDF8020002232080FE20ADF8020090
:102E50004FF0200ABDF802004FF03C08ADF8020028
:102E60004FF0360EBDF802004FF0320B2080EE20FE
:102E7000ADF802004FF02C0CBDF80200ADF80200D6
:102E8000BDF8020024F8020CDE20ADF80200BDF807
:102E90000200ADF80200BDF802002080C420ADF8A9
:102EA0000290BDF80210ADF80210BDF802102180AA
:102EB000F121ADF80210BDF80210ADF80210BDF816
:102EC000021024F8021CADF80220BDF80210ADF883
:102ED0000210BDF802102180DF21ADF80210BDF80C
:102EE0000210ADF80210BDF8021024F8021C1021E7
:102EF000ADF80210BDF80210ADF80210BDF80210D6
:102F00002180ADF80200C620BDF80210ADF8021015
:102F1000BDF8021024F8021C8F21ADF80210BDF894
:102F20000210ADF80210BDF802102180ADF80200C9
:102F3000E220BDF80210ADF80210BDF8021024F82E
:102F4000021CADF80250BDF80210ADF80210BDF839
