:020000040800F2
:1000000008980020E1010008FD0E0008FF0E00081E
:10001000010F0008030F0008050F00080000000092
:10002000000000000000000000000000490100087E
:10003000070F0008000000008D010008090F0008EC
:10004000FB010008FB010008FB010008FB010008A0
:10005000FB010008FB010008FB010008FB01000890
:10006000FB010008FB010008FB010008FB01000880
:10007000FB010008FB010008FB010008FB01000870
:10008000FB010008FB010008FB010008FB01000860
:10009000FB010008FB010008FB010008FB01000850
:1000A000FB010008FB010008FB010008FB01000840
:1000B000FB010008FB010008FB010008FB01000830
:1000C000FB010008FB010008FB010008FB01000820
:1000D000FB010008FB010008FB010008FB01000810
:1000E000FB010008FB010008FB010008FB01000800
:1000F000FB010008FB010008FB010008FB010008F0
:10010000FB010008FB010008FB010008FB010008DF
:10011000FB010008FB010008FB010008FB010008CF
:10012000FB010008FB010008FB010008FB010008BF
:10013000DFF810D003F07AF9004800477D0D000881
:10014000AFF3008008980020224B19680868B0E8D7
:10015000F00F80F30988BFF36F8F4FF0000080F33A
:1001600011884EF00D0E7047000000000648006830
:10017000006880F3088862B661B6BFF34F8FBFF3A3
:100180006F8F00DF00BF00BF08ED00E0EFF30980D4
:10019000BFF36F8F0F4B1A6820E9F00F106008B59E
:1001A0004FF0500080F31188BFF34F8FBFF36F8F74
:1001B00001F02BFF4FF0000080F31188BDE80840EC
:1001C00019680868B0E8F00F80F30988BFF36F8FF3
:1001D000704700BF34000020EFF305807047000037
:1001E0000648804706480047FEE7FEE7FEE7FEE7D1
:1001F000FEE7FEE7FEE7FEE7FEE7FEE7A5020008F2
:10020000310100080CB500224C48009201920168AF
:1002100041F4803101604FF4A063016801F40031C2
:1002200001910099491C0091019911B900999942D5
:10023000F3D10168890333D50121019140490A684E
:1002400042F010020A600A6822F003020A600A689B
:1002500042F002020A6041684160416841604168C1
:1002600041F480614160416821F47C114160416842
:1002700041F4E8114160016841F08071016001685A
:100280008901FCD5416821F003014160416841F0DA
:10029000020141604168C1F381010229FAD10CBD1C
:1002A00001920CBD254810B5016841F001010160C3
:1002B0004168244A114041600168234A11400160AD
:1002C000016821F480210160416821F4FE01416050
:1002D0004FF41F018160FFF795FF1C494FF000604C
:1002E000086010BD154A10B55068194B10F00C018C
:1002F000184803D0042901D0082901D0036012E076
:100300005168536801F470114FF0020413F4803FF8
:1003100004EB914102D053689B0301D50E4B00E0E2
:100320000B4B5943016051680A4AC1F30311121D76
:10033000515C0268CA40026010BD0000001002401B
:10034000002002400000FFF8FFFFF6FE08ED00E08D
:1003500000127A000000002000093D0028490843EF
:1003600028490860704730B50F23C278017801250D
:10037000F2B1244A126801F1E02102F4E062C2F510
:10038000E062120AC2F10404D3404278A2408478A9
:100390001C401443220181F80024007800F01F0162
:1003A0008D404009800000F1E020C0F8005130BDD0
:1003B00001F01F0085404809800000F1E020C0F8EE
:1003C000805130BD104A114001430E48001F0160AA
:1003D00070470C4A121D0029116801D0014300E04A
:1003E0008143116070474FF0E0210428086903D071
:1003F00020F004000861704740F00400FAE70000B4
:100400000000FA050CED00E080FFFF1F944910B5D5
:10041000884206D10121042000F053FA0021042073
:100420003BE09049884206D10121082000F049FABA
:100430000021082031E08C49884206D1012110209A
:1004400000F03FFA0021102027E08849884206D1B9
:100450000121202000F035FA002120201DE08449F0
:10046000884206D10121402000F02BFA00214020D3
:1004700013E08049884206D10121802000F021FA52
:100480000021802009E07C4988420AD1841501219D
:10049000204600F016FA00212046BDE8104000F08A
:1004A00010BA10BD10B50121084600F00AFA00216B
:1004B000BDE81040012000F004BAF0B5CC7800226D
:1004C00004F00F03E40601D58C7823430C784FF039
:1004D0000F0C14F0FF0F4FF0010E1BD005680E88B3
:1004E0000EFA02F42640A64210D196000CFA06F746
:1004F00025EA070703FA06F5CE783D43282E02D0F9
:10050000482E02D002E0446100E00461521C082A37
:10051000E5D305600A88FF2A1CD94468002202F14D
:1005200008060EFA06F50E882E40AE420ED1960051
:100530000CFA06F7BC4303FA06F7CE783C43282EA4
:1005400000D14561CE78482E00D10561521C082AA1
:10055000E5D34460F0BD4FF6FF7101800221817048
:100560000421C17070470246002092680A4200D000
:1005700001207047806880B2704702460020D26830
:100580000A4200D001207047C06880B27047016104
:1005900070474161704710B50B460446FFF7EDFF09
:1005A00008B1636110BD236110BD0AB101617047DC
:1005B00041617047C160704741F48032826181615E
:1005C00082618169806970472C4B10B51A684FF6BB
:1005D0008074224042EA00100843186010BD284988
:1005E000C8617047F0B5254C002801DAE36900E0E6
:1005F0006368450D2E0185B2C0F30157B540C0F3C5
:100600000342032F05D0C6020AD503269640B34302
:1006100007E023F07062636823F07063636002E0B8
:10062000AB4343F0706201B12A43002801DAE26172
:10063000F0BD6260F0BD10B58A0721F003040F49D8
:10064000120F21440F238C6893409C438C608B686D
:10065000904003438B6010BD0949C1F8DC0070472E
:1006600000080140000C014000100140001401404E
:1006700000180140001C0140002001400000014022
:1006800000002042A548016841F001010160416875
:10069000A34A114041600168A24A1140016001680B
:1006A00021F480210160416821F4FE0141604FF492
:1006B0001F018160704799490A6822F480320A60FC
:1006C0000A6822F480220A60B0F5803F07D0B0F5B6
:1006D000802F03D1086840F4A020086070470868A4
:1006E00040F48030F9E70346002059098B4A01297C
:1006F0000AD002290AD0516A03F01F020123934055
:100700000B4200D0012070471168F5E7116AF3E74A
:1007100018B500204FF4A06400903120FFF7E3FFEC
:100720000099491C0091A14201D00028F5D0312048
:10073000FFF7D9FF002800D0012018BD774A1168C3
:1007400021F0F80141EAC000106070477649086066
:100750007047724B5A68084322F47C121043586069
:1007600070477149086670476C4A516821F003016F
:100770000143516070476948406800F00C007047C1
:10078000664A516821F0F001014351607047634AA5
:10079000516821F4E0610143516070475F4A51683C
:1007A00021F4605141EAC000506070475B4A002963
:1007B000517A01D0014300E08143517270475A4998
:1007C000C1F8D8007047554A516821F440410143AF
:1007D000516070475149002281F8202081F8202083
:1007E000012802D0042802D1052081F8200070479A
:1007F0004E490860704749490A6A02430A627047D5
:100800004A4944390860704730B5444A5168484BFA
:1008100011F00C0103D0042901D0082901D0036094
:1008200012E05168536801F470114FF0020413F4A0
:10083000803F04EB914102D053689B0301D53D4BAF
:1008400000E03B4B5943016051680F2303EA11114B
:10085000394B5C5C0168E14041605468072505EA5A
:1008600014241C5D21FA04F48460546805EAD4243D
:100870001B5DD940C1605268032303EA92322E4BBC
:100880001B1F9A5CB1FBF2F1016130BD234A0029C4
:10089000516901D0014300E08143516170471F4A13
:1008A0000029916901D0014300E0814391617047C3
:1008B0001A4A0029D16901D0014300E08143D16186
:1008C0007047164A0029D16801D0014300E08143F6
:1008D000D1607047114A0029116901D0014300E03D
:1008E00081431161704711494039086070470E49D2
:1008F000C86470470949C87170470848416A41F0A7
:10090000807141627047054A0146002092680A42A0
:1009100000D00120704701498872704700100240E2
:100920000000FFF8FFFFF6FE000042428004424252
:1009300000127A0000093D0018000020C44910B5DB
:1009400088420AD101218C032046FFF7BAFF2046D6
:10095000BDE810400021FFF7B4BFBE49884202D174
:1009600001214C0410E0BC49884202D101218C04D1
:100970000AE0BA49884202D10121CC0404E0B84916
:1009800088420AD101210C052046FFF7A3FF20462B
:10099000BDE810400021FFF79DBF10BD30B50446F3
:1009A000008A85B00D464CF6FF710840E988014386
:1009B0002182A0894EF6F3110840A9882A891143A3
:1009C0006A8902431143A181A08A4FF6FF41084082
:1009D000A9890143A1826846FFF716FF9C4884421B
:1009E00001D1039800E00298A189090400EBC0013D
:1009F00001EB0010296801D5490000E08900B0FB37
:100A0000F1F06422B0FBF2F109010B096FF0180557
:100A10006B4300EB8300A3891D044FF0320306D51E
:100A200003EBC000B0FBF2F000F0070005E003EBC1
:100A30000010B0FBF2F000F00F000843208105B079
:100A400030BD4FF41651016000218180C1800181C9
:100A50000C2242818181704710B5028A4FF2FF0358
:100A60001A400B884C8823438C88C9880C43234345
:100A70001343038210BD0021018041808180C18029
:100A800070470029818902D041F4005101E021F42E
:100A900000518181704710B5C1F3421301F01F046A
:100AA0000121A140012B07D0022B07D01430002ACE
:100AB000026805D00A4304E00C30F8E71030F6E78E
:100AC0008A43026010BD002A828A01D00A4300E0F6
:100AD0008A4382827047028A22F00F020282028ACF
:100AE0000A4302827047828922F4006282818289ED
:100AF0000A43828170470029818902D041F00201B6
:100B000001E021F0020181817047028A22F0200277
:100B10000282028A0A43028270470029018A02D0B7
:100B200041F4804101E021F4804101827047C1F32A
:100B30000801818070478088C0F308007047818970
:100B400041F0010181817047028BD2B20283028B96
:100B500042EA012101837047028B02F47F42028343
:100B6000028B0A43028370470029818A02D041F038
:100B7000200101E021F02001818270470029818A53
:100B800002D041F0100101E021F010018182704794
:100B90000029818A02D041F0080101E021F008011A
:100BA000818270470029818902D041F4004101E02F
:100BB000C1F30E01818170470029818A02D041F47E
:100BC000006101E021F4006181827047828A22F095
:100BD00004028282828A0A43828270470029818AC3
:100BE00002D041F0020101E021F002018182704750
:100BF0000246002012880A4200D001207047C943F3
:100C00000180704770B501F01F0501260024C1F373
:100C1000421306FA05F2012B0FD0022B0FD0838A64
:100C20004FEA11210088134206FA01F600EA060095
:100C300001D000B10124204670BD8389F0E7038A0A
:100C4000EEE70A0A01219140C94301807047000084
:100C5000003801400044004000480040004C004083
:100C60000050004038B501210820FFF718FE202071
:100C7000ADF8000010208DF803000320104C8DF813
:100C8000020069462046FFF718FC0121ADF800106C
:100C900069462046FFF711FC0221ADF800106946B5
:100CA0002046FFF70AFC20212046FFF770FC0121B7
:100CB0002046FFF76CFC02212046FFF768FC38BD98
:100CC000000C014001253F4F3F4C6E033146384632
:100CD00000F0FFF9012809D10023022219466068BB
:100CE00001F046FD15B139A002F0B2FB142001F06D
:100CF000C0F8EBE73D4C0121204600F0EAF901285D
:100D00000CD10021084601F0BBFC20B1411E38A0E7
:100D100002F09EFB02E041A002F09AFB142001F0D9
:100D2000A8F8E8E71CB502F0CFFA27490220091D10
:100D30000402CDE900010023224640A1424800F010
:100D4000D4FE012802D141A002F082FB1E490320FB
:100D50000831CDE900010023224641A1434800F0BB
:100D6000C4FE012802D142A002F072FB16480068BE
:100D700000F0E6FEBDE81C4002F0C0BA1CB54FF41E
:100D80004070FFF7EBFAFFF76DFF00F0C7F800F0D7
:100D900087F93CA002F05CFB46A002F059FB0A492F
:100DA0000120CDE90001420200234FA1524800F08A
:100DB0009CFE012802D04FF0FF301CBD01F03DFA2F
:100DC000FEE7000000100140280000204B4559328A
:100DD000B1BBB0B4CFC2A3ACB3C9B9A6CACDB7C575
:100DE000B3B5CEBBA1A30D0A00000000000801406E
:100DF0004B455931B1BBB0B4CFC2A3ACB3C9B9A64E
:100E0000C9EAC7EBB5BDB3B5CEBBA1A3B5B1C7B0F9
:100E1000B3B5CEBBCEAA2025640D0A004B4559318F
:100E2000B1BBB0B4CFC2A3ACB5ABC3BBD3D0B3B529
:100E3000CEBBBFC9D3C3A1A30D0A000054616B652B
:100E40005F5461736B000000F50C0008B4B4BDA8DA
:100E500054616B655F5461736BB3C9B9A60D0A0029
:100E6000476976655F5461736B000000C50C00082C
:100E7000B4B4BDA8476976655F5461736BB3C9B9F3
:100E8000A60D0A00D5E2D2BBB8F64672656552548B
:100E90004F53C8CECEF1CDA8D6AAB4FACCE6BCC684
:100EA000CAFDD0C5BAC5C1BFB5C4C0FDD7D30D0AF0
:100EB00000000000B3B5CEBBC4ACC8CF3130B8F62B
:100EC000A3ACB0B4CFC24B455931C9EAC7EBB3B5F7
:100ED000CEBBA3ACB0B4CFC24B455932CACDB7C517
:100EE000B3B5CEBB0D0A00004170705461736B4303
:100EF0007265617465000000250D00087047FEE70B
:100F0000FEE7FEE7FEE7704710B501F015FB01288C
:100F100003D0BDE8104002F002BA10BD10B586B093
:100F200001210420FFF7BBFC01218803FFF7B7FC78
:100F30004FF40070ADF8100018208DF81300032056
:100F4000554C8DF8120004A92046FFF7B6FA21157A
:100F5000ADF8101004218DF8131004A92046FFF7F6
:100F6000ACFA4FF4E13000900020ADF80400ADF889
:100F70000600ADF80800ADF80C000C20474CADF8A9
:100F80000A0069462046FFF709FD4FF4A060FFF70D
:100F9000E5F925208DF8140001218DF815108DF844
:100FA00016108DF8171005A8FFF7DDF9012240F2A1
:100FB00025512046FFF76FFD01212046FFF761FD17
:100FC00006B010BD10B50446FFF7B1FD80212046E4
:100FD000FFF70EFE0028F9D010BD2DE9F0411546AF
:100FE0000E460746002405E0315D3846FFF7EAFF6C
:100FF000641CE4B2AC42F7D340213846FFF7F8FD59
:101000000028F9D0BDE8F08170B50D4606460024F1
:101010003046295DFFF7D6FF641C285D0028F7D114
:1010200040213046FFF7E4FD0028F9D070BD70B5CF
:101030000446080ACDB201462046FFF778FD80211C
:101040002046FFF7D5FD0028F9D029462046FFF7B6
:101050006EFD80212046FFF7CBFD0028F9D070BD42
:1010600070B50E4D0446C1B22846FFF760FD8021E1
:101070002846FFF7BDFD0028F9D0204670BD10B509
:10108000064C20212046FFF7B3FD0028F9D020466A
:10109000BDE81040FFF74FBD000801400038014097
:1010A00038B501211420FFF7FAFB0120ADF800004C
:1010B00004248DF8034069460E48FFF7FEF9E0026C
:1010C000ADF800008DF8034069460B48FFF7F5F9CD
:1010D00038BD70B50C460546FFF745FA012801D02A
:1010E000002070BD21462846FFF73DFA0128F9D0BF
:1010F000012070BD000801400010014000F108010E
:101100004FF0FF32C0E90112C160016100210160AE
:10111000704700210161704742684A6093688B60A4
:1011200093685960916008610168491C01607047CB
:1011300030B50C68621C02D000F1080202E00269BE
:1011400004E01A4653681D68A542FAD953684B60FB
:1011500099608A60516008610168491C016030BD76
:10116000D0E9013201699A60D0E901235A604A68E6
:10117000824201D182684A60002202610868401EF2
:101180000860704770B50D46040005D140F21B128F
:10119000F8A1FEA002F05CF902F096F8D4E90F2065
:1011A000216802FB001161600021A1632168A16038
:1011B0000A46D4E90F01401E00FB0121E1602146EF
:1011C0004FF0FF3001F8440F487004F110004DB1AA
:1011D000FFF794FF04F12400FFF790FF02F08EF870
:1011E000012070BD21690029F8D001F0ECF8002839
:1011F000F4D0EA494FF080500860BFF34F8FBFF33F
:101200006F8FEBE770B50E46050005D14FF4C47241
:10121000D8A1DEA002F01CF996B105FB06F048301B
:1012200001F0FEFE040009D004F1480120464EB151
:101230000160C0E90F560121FFF7A4FF204670BDF1
:101240000020ECE70060F4E72DE9F041044602F0ED
:101250003BF894F9455004F1240609E0606A48B16E
:10126000304601F0B0F808B101F05FF96D1E6DB2C3
:10127000002DF3DC4FF0FF3684F8456002F03EF8B5
:1012800002F022F894F9445004F1100709E02069B3
:1012900048B1384601F097F808B101F046F96D1EE3
:1012A0006DB2002DF3DC84F84460BDE8F04102F03B
:1012B00025B82DE9F041856B174604460026026CDF
:1012C00082B1C7B1E06802F089F8E168206C091AC0
:1012D000E1602268914202D26168081AE060022F40
:1012E00016D017E02068A8B9606801F06EF90646CC
:1012F000002060600EE0A06802F070F8216CA06829
:101300000844A0606168884204D32068A06001E0BE
:1013100005B16D1E6D1CA5633046BDE8F0812DE959
:10132000FF4F83B01F468B4604004FF0000605D1E7
:1013300040F2D9228FA195A002F08AF8BBF1000FEC
:1013400007D1206C28B140F2DA228AA18FA002F0E6
:101350007FF8022F08D1E06B012805D040F2DB2294
:1013600084A18AA002F074F801F0E6F838B9059873
:1013700028B140F2DE227FA184A002F069F84FF08C
:10138000000A4FF08058DFF8149201F09DFFA06B27
:10139000E16B884205D3022F03D00598C8B1DEB1B6
:1013A0001EE03A4659462046FFF783FF616A19B1AD
:1013B00004F1240001F007F828B1C9F80080BFF358
:1013C0004F8FBFF36F8F01F099FF012007B0BDE889
:1013D000F08F01F093FF21E0684601F062F80126EA
:1013E00001F08CFF00F0E4FC01F06EFF94F9440082
:1013F000401C01D184F844A094F94500401C01D15F
:1014000084F845A001F07AFF05A9684601F05AF872
:1014100030B12046FFF718FF00F03CFC0020D5E774
:1014200001F052FFA06BE16B884201D1012500E081
:10143000002501F063FF95B104F11000059900F05B
:1014400069FF2046FFF700FF00F024FC00289CD134
:10145000C9F80080BFF34F8FBFF36F8F95E7204629
:10146000FFF7F2FE00F016FC8FE710B502460021F0
:101470000120FFF7C7FE041E07D000214160016074
:101480000B460A46C160FFF74AFF204610BD2DE912
:10149000F0471F4690468946040005D140F29F322E
:1014A00034A13AA001F0D4FFB9F1000F07D1206CAC
:1014B00028B14FF468722FA134A001F0C9FF022FA8
:1014C00008D1E06B012805D040F2A13229A12FA05C
:1014D00001F0BEFF01F037FF5020EFF3118680F3DB
:1014E0001188BFF34F8FBFF36F8FA06BE16B884202
:1014F00006D3022F04D0002086F31188BDE8F087C0
:1015000094F945503A4649462046FFF7D2FE681CFA
:1015100004D06D1C84F845500120EDE7606A002876
:10152000FAD004F1240000F04EFF0028F4D0B8F106
:10153000000FF1D00121C8F80010EDE770B50E469C
:10154000040005D140F23C420AA110A001F080FF46
:10155000206C28B14FF4886206A10CA001F078FF3E
:101560002068F8B96068E8B140F2454201A107A0DF
:1015700016E000002E2E5C4672656552544F535C97
:101580007372635C71756575652E63004572726F69
:10159000723A25732C25640D0A00000004ED00E06A
:1015A00001F056FF01F0CFFE5020EFF3118580F3DC
:1015B0001188BFF34F8FBFF36F8FA16BE06B884231
:1015C00018D994F94500491CA163411C04D0401C62
:1015D00084F8450001200EE0606A0028FAD004F18A
:1015E000240000F0F0FE0028F4D0002EF2D00120FC
:1015F0003060EFE7002085F3118870BD30B4026CD5
:101600000B46002A0BD0C1681144C1604468A14256
:1016100001D30168C16030BC184601F0DFBE30BCA8
:1016200070472DE9FF4F83B09B468A4604004FF078
:10163000000607D140F2DC42AFF2C801AFF2B400BD
:1016400001F006FFBAF1000F09D1206C38B140F269
:10165000DD42AFF2E001AFF2CC0001F0F9FE00F0A4
:101660006BFF48B9059838B14FF49C62AFF2FC01AA
:10167000AFF2E80001F0ECFE4FF000094FF08057A8
:10168000DFF8A08301F020FEA56B35B3514620465C
:10169000E668FFF7B3FFBBF1000F11D0E660606AA8
:1016A00050B104F1240000F08EFE28B1C8F800709B
:1016B000BFF34F8FBFF36F8F01F020FE012085E64F
:1016C0006D1EA563206810B900F0D1FF606020692D
:1016D0000028F1D004F11000E5E7059808B11EB12B
:1016E00006E001F00BFE27E0684600F0DAFE012676
:1016F00001F004FE00F05CFB01F0E6FD94F944000B
:10170000401C01D184F8449094F94500401C01D15B
:1017100084F8459001F0F2FD05A9684600F0D2FE7C
:10172000002820460AD0FFF78FFD00F0B3FA2046CC
:1017300000F06BF90028A5D0002047E600F065F91D
:10174000D8B1206830B901F0BFFD606800F0FFFE3D
:1017500001F0D4FD04F12400059900F0DBFD2046E2
:10176000FFF772FD00F096FA00288BD1C8F80070E0
:10177000BFF34F8FBFF36F8F84E72046FFF764FD01
:1017800000F088FA7EE72DE9F0479046894604008C
:1017900007D14FF4B462AFF22421AFF2102001F070
:1017A00057FEB9F1000F09D1206C38B140F2A152B7
:1017B000AFF24021AFF22C2001F04AFE01F0C3FD50
:1017C0005020EFF3118780F31188BFF34F8FBFF3E1
:1017D0006F8FA66BF6B194F9445049462046FFF747
:1017E0000DFF761EA663681C04D06D1C84F844505F
:1017F000012010E020690028FAD004F1100000F068
:10180000E2FD0028F4D0B8F1000FF1D00121C8F8B2
:101810000010EDE7002087F311886FE62DE9F04115
:101820000E46040007D140F2FC52AFF2B821AFF2ED
:10183000A42001F00DFE4EB9206C48B140F2FD52DB
:10184000AFF2D021AFF2BC2001F002FE206C38B91B
:1018500040F2FE52AFF2E421AFF2D02001F0F8FDE9
:1018600001F071FD5020EFF3118580F31188BFF373
:101870004F8FBFF36F8FA06B30B131462046E768C2
:10188000FFF7BCFE0120E76085F3118845E510B540
:10189000040007D140F22F62AFF22831AFF21430CA
:1018A00001F0D6FD01F010FDA46B01F027FD2046EC
:1018B00010BD10B5040007D140F24162AFF24C31C7
:1018C000AFF2383001F0C4FD01F0FEFCD4E90E1097
:1018D000441A01F013FD204610BD10B5040007D1D5
:1018E00040F25162AFF27431AFF2603001F0B0FDFE
:1018F000A06B10BD4C4A002102EBC1035B68834220
:1019000006D1002042F8310002EBC1014860704767
:10191000491C0A29F0D3704710B5040007D140F2E2
:101920005D62AFF2B031AFF29C3001F091FD204624
:10193000FFF7E0FF2046BDE8104001F0DCBB10B52A
:10194000040007D140F29372AFF2D831AFF2C43045
:1019500001F07EFDA06B08B1002010BD012010BD7C
:1019600010B5040007D140F2BA72AFF2F831AFF20D
:10197000E43001F06DFDA06BE16B884201D10120E4
:1019800010BD002010BD10B5274B002253F8324087
:101990001CB1521C0A2AF9D310BD43F8321003EBD4
:1019A000C201486010BD10B500241F4A214602EB59
:1019B000C1035B68834202D152F8314002E0491C06
:1019C0000A29F4D3204610BD70B515460E460446CC
:1019D00001F07AFC94F944100020491C01D184F8EC
:1019E000440094F94510491C01D184F8450001F0E8
:1019F00085FCA06B28B92A46314604F1240000F08A
:101A0000C7FC2046BDE870401EE410B5044601F056
:101A10005BFCA06B20B1002401F070FC204610BDDF
:101A20000124F9E704ED00E0AC0000202DE9F041CD
:101A3000054601F049FCFE4EB068401CB0603068BD
:101A4000FC4F10B1706930B32BE03560B0680128ED
:101A500027D1002404EB840007EB8000FFF74EFB46
:101A6000641C202CF6D3F448FFF748FBF2481430EE
:101A7000FFF744FBF0482830FFF740FBEE483C30CE
:101A8000FFF73CFBEC485030FFF738FBEA48706347
:101A90001430B06305E03068E96AC06A884200D853
:101AA0003560706A0121401C7062E86A32698140C9
:101AB0001143316100EB800007EB8000291DFFF727
:101AC0002BFB01F01BFC706900280CD03068E96A20
:101AD000C06A884207D2D9494FF080500860BFF3EE
:101AE0004F8FBFF36F8FBDE8F0812DE9FF5F834615
:101AF000DDE90E87994616468A46900001F090FA75
:101B000005001AD0542001F08BFA040012D025638E
:101B10000021CDE90241CDE900874B4632465146CE
:101B2000584600F060FF2046FFF780FF012004B018
:101B3000BDE8F09F284601F0DEFA4FF0FF30F6E7EF
:101B400070B5044601F0C0FBB94D04B92C68201DE6
:101B5000FFF706FB58B9E06AB64A00EB800152F87D
:101B6000211021B901218140286988432861A06A98
:101B700018B104F11800FFF7F3FA686A401C6862B4
:101B80002868844208D1AC48211D3C30FFF7C4FAD4
:101B90006868401C686007E0A868401EA86020468E
:101BA00000F074FF00F065FF01F0A8FB68690028F1
:101BB00012D0286884420FD1286B28B140F26542C8
:101BC0009FA1A5A001F044FC9C494FF08050086003
:101BD000BFF34F8FBFF36F8F70BD2DE9F041944F6E
:101BE0000026386B38B1B869401CB861F86900B19B
:101BF0000126304677E7FD686D1CFD6011D1786BDA
:101C0000006828B140F6D9128DA193A001F020FC04
:101C1000786BB96B7963B863386A401C386200F03E
:101C200028FFB86ADFF80C82854209D3786B006818
:101C300080B1786BC068C468606885420DD2B862B4
:101C40003868C06A00EB800158F821000128CDD91E
:101C50000126CBE74FF0FF30F1E7201DFFF780FAB8
:101C6000A06A18B104F11800FFF77AFAE06A0121BE
:101C70003A6981401143396100EB800108EB810032
:101C8000211DFFF749FAE06A3968C96A8842CDD355
:101C90000126CBE72DE9F047654D00242746286B48
:101CA00028B94FF4FD6266A16BA001F0D1FB01F0F1
:101CB0000BFB286B401E2863286BE0BBA8685E49BD
:101CC00028310126B8B3DFF86C918846D8F80010A7
:101CD000E9B1D8F80C00C46804F11800FFF740FA25
:101CE000201DFFF73DFAE06A2A6906FA00F1114368
:101CF000296100EB800109EB8100211DFFF70CFA3F
:101D0000E06A2968C96A8842E0D3EE61DEE70CB177
:101D100000F0AFFEAC693CB1FFF75FFF00B1EE61D0
:101D2000641EF9D10020A861E86920B14349012768
:101D30003807086000E003E0BFF34F8FBFF36F8FF9
:101D400001F0DCFA3846BDE8F0872DE9F041384E65
:101D50000F460446F5683068001DFFF701FA38B9F0
:101D6000306890F82C10012088403169814331613E
:101D7000601C08D13FB13168BDE8F0412E485030B9
:101D8000091DFFF7C9B930682C44AC424460316882
:101D900005D2B06BBDE8F041091DFFF7C9B9706B02
:101DA000091DFFF7C5F9B06A844200D2B4629AE611
:101DB0001F48016B491C016370472DE9F0410E4635
:101DC00005004FF0000405D140F279421CA122A089
:101DD00001F03EFB2EB940F27A4219A11EA001F09B
:101DE00037FB134F386B28B140F27B4214A11AA085
:101DF00001F02EFBFFF7DCFFFA682868811990429A
:101E000002D9884202D804E0884201D8914200D920
:101E1000012429601CB1881A0021FFF796FFFFF703
:101E200039FF002824D105494FF0805008601BE09D
:101E300034000020FC0000207C03002004ED00E0C2
:101E40002E2E5C4672656552544F535C7372635C10
:101E50007461736B732E63004572726F723A2573EF
:101E60002C25640D0A000000BFF34F8FBFF36F8F66
:101E700039E610B5040014D0FE49096B39B140F2BF
:101E8000CF42AFF24401AFF2300001F0E1FAFFF7C8
:101E90008FFF00212046FFF758FFFFF7FBFE0028C9
:101EA00007D1F5494FF080500860BFF34F8FBFF363
:101EB0006F8F10BD70B5050007D140F2FB42AFF245
:101EC0008001AFF26C0001F0C3FAEA4E306885423F
:101ED00001D1002070BD01F0F7F96C6901F00EFA34
:101EE000706B844202D0B06B844201D1022070BD7D
:101EF000E248844204D1A86A0028F7D1032070BDCB
:101F0000DE481438844202D00CB1012070BD042098
:101F100070BD10B5044601F0D7F90CB9D548046876
:101F2000E46A01F0EBF9204610BD10B5044601F05B
:101F30000AFA5020EFF3118180F31188BFF34F8F1D
:101F4000BFF36F8F0CB9CB480468E06A81F3118846
:101F500010BD2DE9F04100260D460446202908D386
:101F60004FF4B062AFF22811AFF2141001F070FA22
:101F70001F2501F0A9F9BF4F04B93C68606CA84265
:101F80003FD03968854206D98C4207D03968C96A82
:101F9000A94202D902E08C4200D10126E16A8846BA
:101FA000884200D1E5626564A069002802DBC5F1C2
:101FB0002000A061B24D08EB8800616905EB80004C
:101FC000814215D1201DFFF7CBF8012120B93A69D4
:101FD00001FA08F082433A61E06A3A6981401143AC
:101FE000396100EB800005EB8000211DFFF794F8BC
:101FF0003EB1A1494FF080500860BFF34F8FBFF34F
:102000006F8FBDE8F04101F079B970B5994D286B3B
:1020100010B10120E86170BD0020E8612869984E88
:10202000B0FA80F0C0F11F0000EB800456F82400E5
:1020300038B940F6F622AFF2F811AFF2E41001F031
:1020400007FA06EB840000F1080241684968416024
:10205000914201D149684160C868286070BD70B57F
:10206000044601F031F9834D04B92C68201DFFF7B7
:1020700077F858B9E06A824A00EB800152F82110E3
:1020800021B901218140286988432861A06A18B1DB
:1020900004F11800FFF764F8211D7848FFF73CF8B9
:1020A00001F02CF9686928B101F00EF900F0E1FCAB
:1020B00001F024F92868844213D1686990B1286B33
:1020C00038B140F25762AFF28821AFF2742001F0CC
:1020D000BFF969494FF080500860BFF34F8FBFF3DD
:1020E0006F8F70BD6548A9680068884202D10020E2
:1020F000286070BDBDE8704087E770B5002504001A
:1021000007D140F28162AFF2C821AFF2B42001F0F2
:102110009FF95A496069884205D1A06A28398842E6
:1021200001D000B90125284670BD70B504002BD040
:10213000504D2868844231D001F0C6F82046FFF7A0
:10214000DCFFE8B1201DFFF70BF8E06A01212A69E6
:102150008140114329614A4900EB800001EB800076
:10216000211DFEF7D9FFE06A2968C96A884207D3B2
:1021700041494FF080500860BFF34F8FBFF36F8F1E
:10218000BDE8704001F0BAB840F2AB62AFF2503136
:10219000AFF23C30BDE8704001F05AB970BD2DE996
:1021A000F0410026040007D140F2E262AFF2703144
:1021B000AFF25C3001F04CF901F0C5F85020EFF3BC
:1021C000118580F31188BFF34F8FBFF36F8F2046C7
:1021D000FFF793FFF0B1274F386B20B1274804F188
:1021E0001801283814E0E06A3968C96A884200D3C7
:1021F0000126201DFEF7B4FFE06A01213A69814003
:10220000114339611E4900EB800001EB8000211D64
:10221000FEF782FF85F31188304664E4184E4FF0D4
:102220008054154D00F058FC30680128FAD92C6014
:10223000BFF34F8FBFF36F8FF4E71CB50D48002439
:102240002C30CDE90040234680220EA10F48FFF735
:102250004CFC012803D100F03EFD01281CD0401C9D
:102260002CD140F28472AFF22841AFF2144002B098
:102270000EE000003400002004ED00E0CC0300205C
:10228000FC00002049444C45000000001D220008CD
:10229000BDE8104001F0DCB8502080F31188BFF396
:1022A0004F8FBFF36F8FFF484FF0FF3181620121E5
:1022B0004161C460BDE81C4000F0C4BF1CBD50209B
:1022C00080F31188BFF34F8FBFF36F8FF549002064
:1022D000486100F0EDBFF348C068704710B501F0E9
:1022E00032F8F048C06810BDEE488068704710B5FD
:1022F00010B104461CB10AE0EA480468FAE740F667
:102300008C02AFF2C441AFF2B04001F0A1F804F189
:10231000340010BD70B50D46040007D140F60632FA
:10232000AFF2E441AFF2D04001F092F8DD4801682D
:1023300020461831FEF7FCFE2846BDE8704001211A
:1023400003E52DE9F04117460E46050007D140F69A
:102350001732AFF21451AFF2005001F079F8D14CBE
:10236000206B38B940F61B32AFF22C51AFF2185047
:1023700001F06EF8216846F0004088612168284627
:102380001831FEF7C9FE3846BDE8F0410121DCE412
:1023900070B514460E46050007D140F63132AFF253
:1023A0006051AFF24C5001F053F8BE480168284626
:1023B0001831FEF7B1FE0CB14FF0FF362146304622
:1023C000BDE87040C1E42DE9F041C068C4683CB983
:1023D00040F66132AFF29851AFF2845001F038F814
:1023E00004F118000746FEF7BBFEAE4D286B012630
:1023F00058B13946AC48FEF78FFEE06A2968C96AD1
:10240000884212D90120EE61D1E4201DFEF7A8FE1A
:10241000E06A2A6906FA00F111432961A34900EB39
:10242000800001EB8000211DE5E70020BFE470B5CE
:102430009C4D06460C46286B38B940F69932AFF2EF
:102440000061AFF2EC5001F003F844F0004030605E
:10245000F4683CB940F6A132AFF21C61AFF20860FB
:1024600000F0F6FF3046FEF77BFE201DFEF778FEFB
:10247000E06A01262A6906FA00F1114329618B49B5
:1024800000EB800001EB8000211DFEF745FEE06AB5
:102490002968C96A884202D90120EE6170BD002016
:1024A00070BD10B5040007D140F6C132AFF27061C3
:1024B000AFF25C6000F0CCFF7A48016A2160C0682E
:1024C000606010BD70B50D46040007D140F6CB32F8
:1024D000AFF29461AFF2806000F0BAFF3DB940F610
:1024E000CC32AFF2A461AFF2906000F0B1FF00F027
:1024F000EBFE6C4AD06829684B1C0FD02368126A27
:10250000934202D0626882420AD96268801A884285
:1025100006D2081A28602046FFF7C3FF002400E017
:10252000012400F0EBFE204670BD5E490120C86129
:1025300070475C48006870475A48416919B1006BA0
:1025400018B100207047012070470220704770B515
:10255000040039D0534DE06A2968C96A884233D2F1
:10256000A069002804DB2868C06AC0F12000A061CF
:10257000E06A4E4E00EB8000616906EB800081420C
:102580001FD1201DFEF7ECFD012150B9E06A00EBE0
:10259000800256F8222022B92A6901FA00F082430B
:1025A0002A612868C06AE0622A6981401143296172
:1025B00000EB800006EB8000211DBDE87040FEF7B7
:1025C000ABBD2868C06AE06270BD70B504004FF012
:1025D000000640D0334D2868844207D040F6C762D9
:1025E000AFF2A471AFF2907000F032FFA06C38B976
:1025F00040F6C962AFF2B871AFF2A47000F028FFE4
:10260000A06C401EA064626CE16A914223D010BBB2
:10261000201DFEF7A5FD2549012250B9E06A00EB17
:10262000800351F8233023B92B6902FA00F0834369
:102630002B61606CE062C0F12000A061E06A2B6950
:1026400082401A432A6100EB800001EB8000211DCB
:10265000FEF762FD0126304670BD124908680A681F
:102660008069D26A0968C2F120028A6170470D4907
:10267000086818B10868826C521C82640868704748
:1026800070B50C46064600F01FFE064D2868C06C6B
:10269000C0B92968012081F850009CB10121204671
:1026A00006E0000034000020A4030020FC0000200D
:1026B000FFF74BFBFA494FF080500860BFF34F8F94
:1026C000BFF36F8F00F01AFE00F0FEFD2868C46CA7
:1026D000002034B116B12968C86402E02A68611E7E
:1026E000D164296881F8500000F008FE204670BDD2
:1026F0002DE9F0411E4615468846074600F0E4FDE8
:10270000E84C206890F85000022814D02068C16C72
:10271000B943C1642168012081F850005EB10121F4
:102720003046FFF712FBDE494FF080500860BFF3E0
:102730004F8FBFF36F8F00F0E1FD00F0C5FD15B1C5
:102740002068C06C2860206890F8500001280DD0E7
:102750002068C16C21EA0801C164012521680020BC
:1027600081F8500000F0CAFD284656E50025F5E73F
:102770002DE9F0411F4690460D4604004FF001063A
:1027800007D141F2FD02AFF64811AFF6341000F068
:102790005FFE00F099FD0FB1E06C386094F85000D6
:1027A000022184F85010B8F1050F0ED2DFE808F0CE
:1027B0000D03060C0A00E16C294301E0E16C491CA1
:1027C000E16402E0022803D0E564012802D02AE097
:1027D000002628E0201DFEF7C3FCB24DE06A01216F
:1027E0002A69814011432961AF4900EB800001EB68
:1027F0008000211DFEF790FCA06A38B141F235122D
:10280000AFF6C411AFF6B01000F022FEE06A2968FE
:10281000C96A884207D9A2494FF080500860BFF3C7
:102820004F8FBFF36F8F00F069FD3046F5E42DE95F
:10283000F0471F46DDF8209092460D4604004FF009
:10284000010807D141F26812AFF60C21AFF6F8107B
:1028500000F0FEFD00F077FD5020EFF3118680F3CD
:102860001188BFF34F8FBFF36F8F0FB1E06C3860EB
:1028700094F85000022184F85010BAF1050F0ED2DE
:10288000DFE80AF00D03060C0A00E16C294301E0C1
:10289000E16C491CE16402E0022803D0E5640128F0
:1028A00003D031E04FF000082EE0A06A38B141F2C9
:1028B000AF12AFF67421AFF6602000F0C9FD794D7C
:1028C000286B012778B104F118017848FEF724FC41
:1028D000E06A2968C96A884216D9B9F1000F12D096
:1028E000C9F8007010E0201DFEF73AFCE06A2A6982
:1028F00007FA00F11143296100EB80016A4800EBFF
:102900008100211DE2E7EF6186F311884046BDE8B2
:10291000F0872DE9F0418846040007D141F2E31227
:10292000AFF6E421AFF6D02000F092FD00F00BFDF1
:102930005020EFF3118780F31188BFF34F8FBFF35F
:102940006F8F94F85000022184F85010E16C491CFC
:10295000E16401282ED1A06A38B141F20922AFF614
:102960002031AFF60C3000F073FD4E4D286B012680
:1029700078B104F118014D48FEF7CEFBE06A2968F2
:10298000C96A884216D9B8F1000F12D0C8F80060A1
:1029900010E0201DFEF7E4FBE06A2A6906FA00F168
:1029A00011432961404900EB800001EB8000211DAB
:1029B000E2E7EE6187F311882FE410B558B10446C1
:1029C00000F082FC94F85000022807D0002400F0A8
:1029D00095FC204610BD33480468F1E7002084F8D8
:1029E00050000124F3E72DE9F0470E46DDE90984A4
:1029F00082466FF00301206B01EB82010844089DC1
:102A000020F007079946780705D040F22B3228A11D
:102A10002DA000F01DFD00202218315C82F834103A
:102A2000315C11B1401C1028F6D3002684F84360B5
:102A3000202D00D31F25E562C4E91156201DFEF7A5
:102A400068FB04F11800FEF764FB2461C5F1200067
:102A50006462A061E66484F850604A465146384694
:102A600000F0D3FB2060B8F1000F01D0C8F800409F
:102A70004DE70C48416B096829B1416BC968C968C9
:102A80004968816270474FF0FF31FAE710B504469C
:102A9000006B00F030FB2046BDE8104000F02BBB7F
:102AA00004ED00E034000020FC000020A40300201E
:102AB0002E2E5C4672656552544F535C7372635C94
:102AC0007461736B732E63004572726F723A257373
:102AD0002C25640D0A00000070B5124E124D1CE04A
:102AE000FFF766F9306820B10024FFF7D3F8A4B9E6
:102AF00001E00124F9E700F0E7FBF068C468201D5D
:102B0000FEF72EFBA868401EA8606868401E68603B
:102B100000F0F4FB2046FFF7B9FF68680028DFD11A
:102B200070BD0000B80300203400002070B5002400
:102B30004160FF4D0061914206D8D11A82699142ED
:102B400006D2011D286907E09A4203D2994201D3B7
:102B5000012403E0011DE868FEF7EAFA204670BD93
:102B60002DE9FE4F9946DDF830A090460D4606004F
:102B70004FF0000705D14FF4D372EEA1F4A000F09E
:102B800067FCEB4C206880B1CDE900580296062D19
:102B900010DAFFF7D1FC02284FF0000308D0002222
:102BA00069462068FEF7BBFB07463846BDE8FE8F46
:102BB0005246F5E700234A466946FEF768FCF3E70C
:102BC00070B586B0DA4E4CE00198002849DB039CD2
:102BD000606910B1201DFEF7C3FA04A800F01FF9C8
:102BE000054601980A283CD2DFE800F00505053BC0
:102BF000273805053B270298A169034601442A4668
:102C00002046FFF793FF00282BD0616A20468847B3
:102C1000E069012825D1002000900298A1690023D5
:102C2000421819462046FFF79BFFD0B940F22132E7
:102C3000C0A1C7A000F00CFC13E00298A06128B965
:102C40004FF44E72BBA1C2A000F002FCA0692B465B
:102C500041191A462046FFF769FF02E0204600F0BE
:102C60004AFA00231A4601A93068FEF7DAFC002868
:102C7000AAD106B070BDAE4CE068016839B1002140
:102C800039B1002000F0DDF8FFF79AFFF4E70121E9
:102C9000F6E7C0680068F5E710B500F015FBA44C36
:102CA0002068A0B9AE48FEF729FAAD481430FEF707
:102CB00025FAAB48E0601430206100220C210A2084
:102CC000FEF7A0FA206010B1A6A1FEF75CFEBDE8F9
:102CD000104000F013BB1CB50024FFF7DDFF944843
:102CE000006868B192491F20091DCDE90001002349
:102CF0004FF480729DA19F48FEF7F7FE040005D1B6
:102D000040F233128BA192A000F0A2FB20461CBD22
:102D10002DE9F0470746994616460D462820DDF86E
:102D200020A000F07DF9040014D0B8464F46D146EB
:102D30002DB94FF4C67290A196A000F089FBFFF761
:102D4000ABFF04F11801C4F8008081E8E002201D07
:102D5000FEF7DFF92046BDE8F08710B5744C6068D7
:102D600028B94FF4E87273A179A000F071FB606894
:102D700010BD10B5040005D140F2D9126DA174A0A8
:102D800000F066FBA06910BD10B5040005D140F24B
:102D9000E31268A16EA000F05BFB606810BD10B587
:102DA000040005D140F2ED1262A169A000F050FBD1
:102DB000206810BD10B5040005D140F2DA325DA1E3
:102DC00063A000F045FB00F07FFA606908B10124C0
:102DD00000E0002400F092FA204610BD10B5040077
:102DE00005D140F2EF3253A159A000F031FB00F0C1
:102DF0006BFA246A00F082FA204610BD70B50D46C9
:102E0000040005D140F2FF324AA151A000F020FB9E
:102E100000F05AFA2562BDE8704000F06FBA70B554
:102E20000546FFF758FA424E0446B068844203D282
:102E300000F038F8012000E0002028602046B4604F
:102E400070BDF8B50D460646FEF7B2FF6846FFF7BF
:102E5000E6FF0446009810B1FEF71CFFF8BD3448A9
:102E6000ADB101690968D9B10025311B2A46006856
:102E7000FEF7AAFDFEF70EFF0028EFD149494FF0FB
:102E800080500860BFF34F8FBFF36F8FF8BDA6422D
:102E9000EBD8FEF7FFFE2146304600F034F8F8BDCF
:102EA0000125E2E7F8B5224E25E0C068C468056850
:102EB000201DFEF755F9616A20468847E069012820
:102EC00019D1A0692844A84206D924616060211D57
:102ED000F068FEF72DF90EE0002003460146009051
:102EE0002A462046FFF73CFE28B940F2923222A142
:102EF00028A000F0ADFAF06801680029D5D1316949
:102F0000C6E90310F8BDF8B5054609480E46C06885
:102F1000C068C468201DFEF723F9E069012855D177
:102F2000A0692B46411932462046FFF7FFFD3BE0E2
:102F3000700000202E2E5C4672656552544F535C23
:102F40007372635C74696D6572732E6300000000B8
:102F50004572726F723A25732C25640D0A000000C9
:102F6000E0030020546D725100000000546D722087
:102F700053766300772C00082E2E5C4672656552EE
:102F8000544F535C7372635C74696D6572732E6326
:102F9000000000004572726F723A25732C25640D93
:102FA0000A00000004ED00E080B100200346014665
:102FB00000902A462046FFF7D3FD38B94FF402723D
:102FC000AFF24C01AFF2340000F042FA616A01B096
:102FD0002046BDE8F040084730B5744900E011468E
:102FE0000A688242FBD34B685C18844203D1406874
:102FF00018444860084643681C18944209D16B4C39
:10300000103C2468A24209D052681A4442600A68FF
:1030100012680260814200D0086030BD0460F9E7A8
:103020002DE9F04105460026FEF7C2FE5F4F103F36
:10303000386808B900F098F8F86805424ED1002DBC
:103040004CD0083568070BD005F00700C0F1080028
:103050000544680704D0BF2255A15EA000F0F8F92E
:10306000002D3BD07868854238D85049084604681E
:1030700001E0214604466068A84202D22068002888
:10308000F7D13868B846844228D00E6820680860B6
:1030900060680836401B10280ED96719780704D0DD
:1030A000EC2243A14BA000F0D3F96068401B78608C
:1030B00038466560FFF790FF6168D8F80400424623
:1030C000401AC8F80400D8F80830984200D290603E
:1030D000D8F80C0001430020C4E90001FEF7DAFD36
:1030E000700705D04FF4967231A13AA000F0B0F904
:1030F0003046BDE8F08170B500282BD02B4DA0F1F3
:103100000804103D6068E968084205D14FF4A072D8
:1031100027A130A000F09CF9206828B140F24112AC
:1031200023A12CA000F094F96068E968084211D04E
:103130002268002A0ED188436060FEF739FE60687D
:103140006968084468602046FFF746FFBDE87040A4
:10315000FEF7A0BD70BD1548103840687047134891
:1031600010388068704770471E484FF4104142077E
:1031700006D0C01D1B4920F00700411AC1F51041BF
:103180000A4A00230144C2E900030839103A21F039
:10319000070111604B600B600B1AC0E900139360CC
:1031A0004FF000405360D060704700009400002052
:1031B0002E2E5C4672656552544F535C706F72746C
:1031C0005C4D656D4D616E675C686561705F342E46
:1031D000630000004572726F723A25732C25640DEE
:1031E0000A0000000804002069484068401C04D020
:1031F000F42268A171A000F02BF9502080F311880F
:10320000BFF34F8FBFF36F8FFEE710B5031F4FF073
:1032100080741C601B1F21F001011960191F6B4B8A
:103220000B60143940380A6010BD69484FF47A7158
:103230000068B0FBF1F14FF0E020491E4161072129
:10324000016170471CB5634908780190FF20087040
:1032500008788DF800009DF800004D4A00F05000FD
:1032600010700720906007E09068401E90609DF805
:10327000000040008DF800009DF800000006F3D427
:10328000107A000200F4E0609060019808705248E3
:10329000016841F470010160016841F07041016012
:1032A000FFF7C3FF00205060FCF760FF00201CBD4B
:1032B00037484068B0F57A7F05D04FF4B57235A134
:1032C0003EA000F0C5B87047502080F31188BFF3CE
:1032D0004F8FBFF36F8F2E494868401C486001280C
:1032E0000BD13D481C38006810F0FF0F05D04FF49B
:1032F000BD7228A131A000F0ABB8704710B5244CC6
:10330000606828B940F2811222A12CA000F0A0F838
:103310006068401E606001D180F3118810BD10B557
:10332000502080F31188BFF34F8FBFF36F8FFEF7EC
:1033300054FC20B128494FF080501C39086000200F
:1033400080F3118810BD10B5FCF746FF104C102813
:103350000CD300F1E02090F8F0032178884205D2E8
:103360004FF42A720BA115A000F072F81A48143815
:103370000068A16800F4E060884207D9BDE8104009
:103380004FF42E7203A10DA000F062B810BD000032
:103390009C0000202E2E5C4672656552544F535C93
:1033A000706F72745C525644535C41524D5F434D92
:1033B000335C706F72742E63000000004572726F90
:1033C000723A25732C25640D0A000000E9310008CB
:1033D0000000002000E400E020ED00E040EA0103EE
:1033E0009B0703D009E008C9121F08C0042AFAD2BB
:1033F00003E011F8013B00F8013B521EF9D270477F
:1034000030B50B46014600202022012409E021FAB4
:1034100002F59D4205D303FA02F5491B04FA02F5B1
:103420002844151EA2F10102F1DC30BD064C074D07
:1034300006E0E06840F0010394E807009847103484
:10344000AC42F6D3FCF778FE483600086836000830
:103450000FB4054B10B503A9044A029800F018F800
:1034600010BC5DF814FB000061100008A8000020EB
:1034700002E008C8121F08C1002AFAD1704770473D
:10348000002001E001C1121F002AFBD1704700009B
:103490002DE9FF4F8BB09A460F460546002606E001
:1034A00025280BD052460D9990476D1C761C287824
:1034B0000028F5D10FB03046BDE8F08F0024A046BB
:1034C0000122604900E0044315F8013F203B02FA65
:1034D00003F00842F7D128782E2817D115F8010FEC
:1034E00044F004042A280ED06FF02F022878A0F1AF
:1034F000300109290AD808EB880102EB410100EBF1
:1035000001086D1CF2E757F8048B6D1C28786928B8
:103510003ED006DC0028CDD063280BD0642804D12F
:1035200036E0732810D075284BD052460D9990473D
:10353000761C85E017F8040B8DF8000000208DF84C
:103540000100E946012003E057F8049B4FF0FF30EB
:1035500061074FF0000401D40AE0641C44450DDA11
:103560008442FADB19F804100029F6D106E0641C45
:103570008442FCDB19F804100029F8D1264404E049
:1035800019F8010B52460D999047641EF8D257E086
:1035900001CF4FF00A0B002802DA40422D2102E051
:1035A000210504D52B218DF82410012103E0E1072A
:1035B00005D02021F7E70DF1200908910CE000214A
:1035C000F9E701CF4FF00A0BF9E75946FFF718FF6B
:1035D00001F1300209F8012D0028F6D1ADEB090008
:1035E00000F1200B600701D44FF00108D84502DD3F
:1035F000A8EB0B0000E000208046002406E009A8AC
:103600005246005D0D999047641C761C08988442D0
:10361000F5DB04E0302052460D999047761CB8F156
:103620000001A8F10108F5DC05E019F8010B52468C
:103630000D999047761CBBF10001ABF1010BF4DC56
:103640006D1C34E7092801006836000800000020DE
:10365000AC0000007034000814370008AC000020F3
:103660005C9700008034000800A24A0400000000BB
:10367000000000000102030406070809020406080E
:103680000000000001020304010203040607080908
:10369000000000000000000000000000000000002A
:1036A000000000000000000000000000000000001A
:1036B000000000000000000000000000000000000A
:1036C00000000000000000000000000000000000FA
:1036D00000000000000000000000000000000000EA
:1036E00000000000000000000000000000000000DA
:1036F00000000000000000000000000000000000CA
:103700000000000000000000AAAAAAAA0000000011
:0437100000000000B5
:0400000508000131BD
:00000001FF
